:100000000C9463000C948B000C948B000C948B006C
:100010000C948B000C948B000C948B000C948B0034
:100020000C948B000C948B000C948B000C948B0024
:100030000C948B000C948B000C948B000C948B0014
:100040000C94AC060C948B000C942F080C9476083E
:100050000C948B000C948B000C948B000C948B00F4
:100060000C948B000C948B000000000024002700EF
:100070002A0000000000250028002B0000000000DE
:1000800023002600290004040404040404040202DA
:100090000202020203030303030301020408102007
:1000A0004080010204081020010204081020000012
:1000B0000007000201000003040600000000000029
:1000C0000000A302ED0911241FBECFEFD8E0DEBF70
:1000D000CDBF11E0A0E0B1E0ECE8F8E102C005908E
:1000E0000D92A837B107D9F713E0A8E7B1E001C036
:1000F0001D92A932B107E1F710E0C6ECD0E004C0D0
:100100002297FE010E94400CC23CD107C9F70E9411
:100110003D0A0C94440C0C940000FC01882799279C
:10012000E89421912032E9F3293010F02E30C8F301
:100130002B3241F02D3239F4689404C00E94AB0098
:10014000820F911D219120532A30C0F31EF4909507
:1001500081959F4F08957AE0979F902D879F802DDE
:10016000910D112408950F931F938C01FC0186813A
:1001700060E00E94DA0781E090E00E944D07F801FC
:10018000868161E00E94DA0781E090E00E944D07DD
:10019000F801868160E00E94DA0784E690E00E9420
:1001A0004D071F910F910895CF92DF92EF92FF922A
:1001B0000F931F93CF93DF93D82EC92E282F392F5B
:1001C000C9018C01C0E0D0E0E62EFF24F801878150
:1001D00061E00E94B407B7010C2E02C075956795C7
:1001E0000A94E2F76170F80187810E94DA0721968C
:1001F0000F5F1F4FC830D10549F78D2D9C2D0E94F0
:10020000B300DF91CF911F910F91FF90EF90DF909E
:10021000CF900895CF92DF92EF92FF920F931F93AA
:10022000CF93DF93D82EC92E282F392FC9018C01E7
:10023000C0E0D0E0E62EFF24F801878161E00E9453
:10024000B407B7010C2E02C0759567950A94E2F7C2
:100250006170F80187810E94DA0721960F5F1F4FB6
:10026000C430D10549F78D2D9C2D0E94B300DF913C
:10027000CF911F910F91FF90EF90DF90CF90089555
:100280001F93CF93DF93EC01162F8C81642F0E9474
:10029000DA078D818F3F19F060E00E94DA078F85C1
:1002A00084FF05C0CE01612F0E94D4000EC0612FD3
:1002B00070E084E0759567958A95E1F7CE010E941C
:1002C0000A01CE01612F0E940A01DF91CF911F9197
:1002D000089541E00E94400181E090E0089540E0EF
:1002E0000E9440010895FC016089862F8460808B04
:1002F0006C60CF010E946F010895DF93CF93CDB75B
:10030000DEB728970FB6F894DEBF0FBECDBF9C01B5
:10031000FE013196A8E5B1E088E00D900192815090
:10032000E1F7F9018389481710F0482F4150E42F75
:10033000F0E0EE0FFF1FEC0FFD1F8181680F60687A
:10034000C9010E946F0128960FB6F894DEBF0FBE58
:10035000CDBFCF91DF91089561E00E946F0180EDE4
:1003600097E00E944D070895CF93DF93EC01423050
:1003700018F08F8588608F874B8B1C8A222329F089
:10038000413019F48F8584608F8780E593EC0E945B
:100390004D078C8160E00E94DA078E8160E00E9448
:1003A000DA078D818F3F19F060E00E94DA076F85D0
:1003B00064FD1DC0CE0163E00E940A0184E991E161
:1003C0000E944D07CE0163E00E940A0184E991E199
:1003D0000E944D07CE0163E00E940A0186E990E089
:1003E0000E944D07CE0162E00E940A0116C06062C1
:1003F000CE010E946F0184E991E10E944D076F8553
:100400006062CE010E946F0186E990E00E944D0774
:100410006F856062CE010E946F016F856062CE01C0
:100420000E946F0184E0888BCE010E947301CE018F
:100430000E94AC0182E0898BCE0166E00E946F01D0
:10044000DF91CF9108956F927F928F92AF92CF926A
:10045000EF920F931F93DF93CF93CDB7DEB73C019D
:10046000162F842FF301448325830683E782C086F9
:10047000A18682869D8593879E8594879F85958793
:100480009889968761E00E94B407F30185818F3FC8
:1004900019F061E00E94B407F301868161E00E94D7
:1004A000B407112319F0F301178603C080E1F301AB
:1004B0008787C30160E141E020E00E94B401CF9151
:1004C000DF911F910F91EF90CF90AF908F907F9021
:1004D0006F9008958F92AF92CF92EF920F931F93E8
:1004E000CF93DF93DC01362F542F722F102FAE2CB9
:1004F0008C2C13961C921E92129784E591E0119613
:100500009C938E9300D000D0EDB7FEB73196CDB757
:10051000DEB71982118212821382CD0161E0432F6E
:100520002FEF052FE72EC12E0E9423020F900F9070
:100530000F900F90DF91CF911F910F91EF90CF907F
:10054000AF908F900895CF92EF920F938EE791E046
:100550000E94C40484E692E062E043E024E005E007
:1005600056E0E52E37E0C32E0E946A020F91EF900D
:10057000CF9008958EE791E00E94ED0590937B0166
:1005800080937A010895EF92FF920F931F93CF9378
:10059000DF9364E670E080E090E00E94F4068091D2
:1005A0003B010E949207AA2797FDA095BA2FBC0194
:1005B000CD010E94730B60934B0170934C018093AB
:1005C0004D0190934E01809149010E9492079093B2
:1005D0007D0180937C01E0904B01F0904C010091F3
:1005E0004D0110914E01C801B70120E030E041E615
:1005F00054E40E94D20B1816E4F410927901109280
:1006000078018091390160E00E94DA0780913D0114
:1006100060E00E94DA0780913F0160E00E94DA0703
:100620008091410160E00E94DA078091430160E01F
:10063000FEC0C801B70120E030E041E654E40E946A
:100640006D0B8823C4F4C801B70120E030E04FE20D
:1006500054E40E94D20B181674F481E090E0909359
:100660007901809378018091390161E00E94DA0775
:1006700080913D01DBC0C801B70120E030E04FE2CE
:1006800054E40E946D0B88231CF5C801B70120E0DB
:1006900030E046E154E40E94D20B1816CCF482E01C
:1006A00090E090937901809378018091390161E025
:1006B0000E94DA0780913D0161E00E94DA0764EF51
:1006C00071E080E090E00E94F40680913F01AEC0AE
:1006D000C801B70120E030E046E154E40E946D0B10
:1006E0008823ACF5C801B70120E030E048EC53E4C2
:1006F0000E94D20B18165CF583E090E0909379018C
:10070000809378018091390161E00E94DA0780913D
:10071000470161E00E94DA0700E010E080914501A6
:1007200061E00E94DA0784E690E00E944D07809124
:10073000450160E00E94DA0784E690E00E944D07E0
:100740000F5F1F4F83E0083E180741F772C0C801D2
:10075000B70120E030E048EC53E40E946D0B8823A1
:10076000ACF5C801B70120E030E046E953E40E944F
:10077000D20B18165CF584E090E090937901809399
:1007800078018091390161E00E94DA078091470188
:1007900060E00E94DA0700E010E08091450161E02E
:1007A0000E94DA0784E690E00E944D07809145019F
:1007B00060E00E94DA0784E690E00E944D070F5F38
:1007C0001F4F83E0083E180741F733C0C0917801FE
:1007D000D091790181E0CC32D8075CF5C801B7012E
:1007E00020E030E048EC52E40E94D20B181674F47A
:1007F00085E090E0909379018093780180913901B0
:1008000061E00E94DA078091430110C0C436D1052F
:1008100084F486E090E09093790180937801809150
:10082000390161E00E94DA078091410161E00E9494
:10083000DA0784E692E00E94AC0184E692E060E090
:1008400040E00E947D0184E692E060E071E00E9459
:100850006A0B84E692E060E041E00E947D016091D5
:1008600078017091790184E692E04AE050E00E94BC
:10087000570B84E692E062E041E00E947D016091C6
:100880007C0170917D0184E692E04AE050E00E9494
:10089000570B84E692E068E041E00E947D016091A0
:1008A0007A0170917B0184E692E04AE050E00E9478
:1008B000570B8EE791E00E942D06DF91CF911F919B
:1008C0000F91FF90EF9008950F931F938EE791E0A3
:1008D0006AEB72E04FE60E94F5048AE093E040E0A4
:1008E00052EC61E070E00E94BF088091390161E044
:1008F0000E94B40780913B0160E00E94B4078091A0
:100900003B0161E00E94DA078091490160E00E94AA
:10091000B40780913D0161E00E94B40780913F01DE
:1009200061E00E94B4078091410161E00E94B40738
:100930008091430161E00E94B4078091470161E02A
:100940000E94B4078091450161E00E94B407809144
:10095000390160E00E94DA0704E612E0C80160E1B4
:1009600042E020E00E94B401C8010E94AC01C8012D
:1009700060E040E00E947D01C80160E071E00E94FB
:100980006A0B1F910F910895FC011382128284E675
:1009900091E091838083E55BFF4F1082EB54F04040
:1009A000DF01AE51BF4F11961C921E92EC51FF4FCA
:1009B0008EE190E091838083EA59F04082E1808368
:1009C000329783E180838BE1829332968BE380833D
:1009D00034971182108237968D919C911197819353
:1009E0009193EA17FB07C1F70895E42FF0E03A97D7
:1009F000EE0FFF1FE80FF91F718360830895DF92E8
:100A0000EF92FF920F931F938C01D62E8AE0E82E6F
:100A100083E0F82E065B1F4FC701F80160810E943A
:100A2000760AC7016D2D4AE050E00E94050B025086
:100A30001040C701F80160810E94760A1F910F9152
:100A4000FF90EF90DF9008958AE093E04AE050E055
:100A50000E94050B0895CF92DF92EF92FF920F93C1
:100A60001F938C016B019AE0E92E93E0F92E065B4F
:100A70001F4FC701F80160810E94760AC701B601C5
:100A80000E946A0B02501040C701F80160810E9469
:100A9000760A1F910F91FF90EF90DF90CF9008950D
:100AA000CF92DF92FF920F931F93CF93DF93EC01CE
:100AB000FD80EF2DF0E0EB37F105D4F53A97EE0F1E
:100AC000FF1FE80FF91F008111810115110569F160
:100AD0008C818130E9F1FE01EB5BFF4F81E090E01A
:100AE00091838083DE0141E050E0BE01675B7F4F70
:100AF0006F0115C016962C91169730E0FB0180818E
:100B0000992787FD90952817390731F4F6018081E0
:100B100091810196918380834F5F5F4F11968C8105
:100B200090E04817590734F33FC06EE071E047C0CA
:100B3000C55BDF4F8881CB54D0408823E9F1CE518B
:100B4000DF4F08811981C25ED0408C81813019F459
:100B500060E070E02DC0FE01EB5BFF4F81E090E0B4
:100B600091838083DE0141E050E0BE01675B7F4FEF
:100B70006F0115C016962C91169730E0FB0180810D
:100B8000992787FD90952817390731F4F601808160
:100B900091810196918380834F5F5F4F11968C8185
:100BA00090E04817590734F3CB5BDF4F68817981B8
:100BB0008F2DF801099509C0CE0164E271E00E9411
:100BC0002B05CE016D810E94FF04DF91CF911F9113
:100BD0000F91FF90DF90CF900895EF92FF920F93C7
:100BE0001F93DF93CF93CDB7DEB7FC010DB71EB7D0
:100BF0008481A82FB0E08DB79EB78A1B9B0B0FB6E0
:100C0000F8949EBF0FBE8DBF4DB75EB74F5F5F4F6D
:100C10007F01BA0121E030E007C0F7018581FB01C7
:100C20008193BF012F5F3F4F0894E11CF11C2A17ED
:100C30003B079CF3A40FB51F11971C92CA010E9499
:100C40008D000FB6F8941EBF0FBE0DBFCF91DF9180
:100C50001F910F91FF90EF900895AF92BF92CF92A6
:100C6000DF92EF92FF920F931F93CF93DF93EC01EC
:100C700037E4A32EB12CA80EB91E28E4C22ED12C25
:100C8000C80ED91E8C010B5B1F4F94EEE92EF12C80
:100C9000EC0EFD1E37C08AE093E00E947609482FD3
:100CA000282F30E0F5018081992787FD909528173E
:100CB000390741F4FE0180E015828F5F3196803460
:100CC000D9F712C0F6018081992787FD90952817E2
:100CD000390779F4CE010E945005FE0180E01582AB
:100CE0008F5F31968034D9F71C82F801118210820F
:100CF00009C08C81803420F5FE01E80FF11D458389
:100D00008F5F8C838AE093E00E94450918161906CC
:100D100014F28AE093E00E9445091816190694F32C
:100D2000F70180819181009711F00E944D078AE0C0
:100D300093E00E9445091816190624F381E001C0CA
:100D400080E0DF91CF911F910F91FF90EF90DF90A6
:100D5000CF90BF90AF9008951F920F920FB60F9251
:100D600011242F933F938F939F93AF93BF938091C1
:100D70007D0290917E02A0917F02B091800230911D
:100D800081020196A11DB11D232F2D5F2D3720F06B
:100D90002D570196A11DB11D2093810280937D02E4
:100DA00090937E02A0937F02B0938002809179029B
:100DB00090917A02A0917B02B0917C020196A11DD4
:100DC000B11D8093790290937A02A0937B02B09335
:100DD0007C02BF91AF919F918F913F912F910F9086
:100DE0000FBE0F901F9018959B01AC017FB7F89430
:100DF0008091790290917A02A0917B02B0917C025D
:100E000066B5A89B05C06F3F19F00196A11DB11DE5
:100E10007FBFBA2FA92F982F8827860F911DA11D5C
:100E2000B11D62E0880F991FAA1FBB1F6A95D1F7F9
:100E3000BC012DC0FFB7F8948091790290917A029D
:100E4000A0917B02B0917C02E6B5A89B05C0EF3F64
:100E500019F00196A11DB11DFFBFBA2FA92F982F20
:100E600088278E0F911DA11DB11DE2E0880F991FEB
:100E7000AA1FBB1FEA95D1F7861B970B885E93408C
:100E8000C8F2215030404040504068517C4F2115FD
:100E900031054105510571F60895019739F0880F24
:100EA000991F880F991F02970197F1F70895789479
:100EB00084B5826084BD84B5816084BD85B582605F
:100EC00085BD85B5816085BDEEE6F0E080818160FD
:100ED0008083E1E8F0E010828081826080838081FD
:100EE00081608083E0E8F0E0808181608083E1EBD5
:100EF000F0E0808184608083E0EBF0E080818160BD
:100F00008083EAE7F0E08081846080838081826072
:100F1000808380818160808380818068808310925B
:100F2000C1000895982F8E3008F09E5097708091E0
:100F30004F018295880F880F807C892B80937C00DD
:100F400080917A00806480937A0080917A0086FD97
:100F5000FCCF2091780040917900942F80E030E020
:100F6000282B392BC9010895482F50E0CA01865615
:100F70009F4FFC0124914A575F4FFA0184918823C7
:100F8000C1F0E82FF0E0EE0FFF1FE859FF4FA591E9
:100F9000B491662341F49FB7F8948C9120958223F5
:100FA0008C939FBF08959FB7F8948C91822B8C935C
:100FB0009FBF0895482F50E0CA0182559F4FFC0102
:100FC0002491CA0186569F4FFC0194914A575F4F66
:100FD000FA013491332309F440C0222351F1233024
:100FE00071F0243028F42130A1F0223011F514C022
:100FF0002630B1F02730C1F02430D9F404C08091FC
:1010000080008F7703C0809180008F7D8093800067
:1010100010C084B58F7702C084B58F7D84BD09C0B0
:101020008091B0008F7703C08091B0008F7D809356
:10103000B000E32FF0E0EE0FFF1FEE58FF4FA59139
:10104000B4912FB7F894662321F48C91909589235D
:1010500002C08C91892B8C932FBF089508951F9205
:101060000F920FB60F9211242F933F934F938F93AC
:101070009F93EF93FF934091C6002091C20230915D
:10108000C3022F5F3F4F2F7330708091C402909145
:10109000C5022817390759F0E091C202F091C30246
:1010A000EE57FD4F40833093C3022093C202FF915D
:1010B000EF919F918F914F913F912F910F900FBE84
:1010C0000F901F901895E0911603F0911703E05CC4
:1010D000FF4F8191919120813181821B930B8F73FE
:1010E0009070892B11F00E942E0808951F920F9284
:1010F0000FB60F9211242F933F934F935F936F93EB
:101100007F938F939F93AF93BF93EF93FF93209120
:101110000603309107038091080390910903281773
:10112000390731F48091C1008F7D8093C10016C0D2
:10113000E0910803F0910903EA53FD4F408180914B
:10114000080390910903019660E470E00E94F50B9A
:1011500090930903809308034093C600FF91EF9199
:10116000BF91AF919F918F917F916F915F914F91BF
:101170003F912F910F900FBE0F901F901895AF9237
:10118000BF92DF92EF92FF920F931F93CF93DF9363
:10119000EC017A018B01DD24403081EE580780E0BC
:1011A000680780E0780711F0DD24D39491E0A92E40
:1011B000B12CEC89FD89DD2069F0C5010E8C02C0DF
:1011C000880F991F0A94E2F7808360E079E08DE34D
:1011D00090E005C0108260E874E88EE190E0A8011C
:1011E00097010E94080C21503040404050405695D5
:1011F00047953795279580E12030380720F0DD208E
:1012000011F0DD24D6CFE889F9893083EA89FB899A
:101210002083EE89FF89408121E030E0C9010A8CFA
:1012200002C0880F991F0A94E2F7482B4083EE8989
:10123000FF894081C9010B8C02C0880F991F0A9455
:10124000E2F7482B4083EE89FF894081C9010C8C6D
:1012500002C0880F991F0A94E2F7482B4083EE8959
:10126000FF8980810D8C02C0220F331F0A94E2F7A0
:10127000209528232083DF91CF911F910F91FF901C
:10128000EF90DF90BF90AF900895DC011C96ED9138
:10129000FC911D97E05CFF4F2191319180819181FC
:1012A000281B390B2F733070C9010895DC011C967F
:1012B000ED91FC911D97E05CFF4F20813181E0545E
:1012C000F040DF01AE5BBF4F8D919C9111972817C5
:1012D000390719F42FEF3FEF07C08D919C91E80F6C
:1012E000F91F8081282F30E0C9010895DC011C9688
:1012F000ED91FC911D97E05CFF4F20813181E0541E
:10130000F040DF01AE5BBF4F8D919C911197281784
:10131000390719F42FEF3FEF10C08D919C91119771
:10132000E80FF91F20818D919C91119701968F7381
:10133000907011969C938E9330E0C9010895FC0142
:1013400086859785DC01A05CBF4FFC01EE5BFF4FFB
:101350002D913C9111978081918128173907C1F710
:101360000895CF93DF93EC01462FEE85FF85E05C77
:10137000FF4F80819181E054F040019660E470E07D
:101380000E94F50B9C01DF01AE5BBF4F8D919C91DC
:10139000119728173907D1F3E05CFF4F80819181C5
:1013A000E054F040E80FF91F4083EE85FF85E05CD4
:1013B000FF4F31832083EE89FF89208181E090E017
:1013C0000D8C02C0880F991F0A94E2F7282B208306
:1013D00081E090E0DF91CF91089510920D0310927B
:1013E0000C0388EE93E0A0E0B0E080930E039093AE
:1013F0000F03A0931003B09311038CE691E0909338
:101400000B0380930A0382E892E090931703809382
:10141000160386EC92E0909319038093180385ECF1
:1014200090E090931B0380931A0384EC90E09093D8
:101430001D0380931C0380EC90E090931F03809326
:101440001E0381EC90E0909321038093200386ECAF
:1014500090E0909323038093220384E080932403FD
:1014600083E08093250387E08093260385E08093C3
:10147000270381E0809328030895CF93DF930E9490
:1014800057070E946404C3E6D8E00E94C302209775
:10149000E1F30E946308F9CFCF92DF92EF92FF92BF
:1014A0000F931F93CF93DF937C016B018A01C0E000
:1014B000D0E00FC0D6016D916D01D701ED91FC9187
:1014C0000190F081E02DC7010995C80FD91F015087
:1014D00010400115110571F7CE01DF91CF911F91D9
:1014E0000F91FF90EF90DF90CF900895DC01ED9188
:1014F000FC910190F081E02D09950895CF93DF9341
:10150000DB010D900020E9F71197A61BB70BEC014A
:10151000E881F9810280F381E02DAD010995DF9129
:10152000CF9108954F925F927F928F929F92AF9248
:10153000BF92CF92DF92EF92FF920F931F93DF93B0
:10154000CF93CDB7DEB7A1970FB6F894DEBF0FBE2D
:10155000CDBF2C01742ECB01223008F42AE019A251
:1015600031E2C32ED12CCC0EDD1E822E9924AA246A
:10157000BB24672D752FA50194010E94080C7901E9
:101580008A01C801B701A50194010E94D60B472D1D
:10159000461B0894C108D1084A3014F4405D01C0CC
:1015A000495CF6014083E114F1040105110521F0C5
:1015B0007E2C5F2DC801DDCFC201B6010E947E0ADC
:1015C000A1960FB6F894DEBF0FBECDBFCF91DF91CD
:1015D0001F910F91FF90EF90DF90CF90BF90AF9051
:1015E0009F908F907F905F904F900895DC01211520
:1015F000310541F4ED91FC910190F081E02D642FD3
:10160000099508950E94920A0895EF92FF920F9310
:101610001F939A01E62EFF2400E010E0B801A70115
:101620000E94F60A1F910F91FF90EF900895CF92BC
:10163000DF92EF92FF920F931F93CF93DF93EC0112
:101640006A017B012115310541F4E881F98101909E
:10165000F081E02D642F09951FC02A303105D1F4A7
:1016600077FF17C0E881F9810190F081E02D6DE2EC
:1016700009958C0144275527BA014C195D096E095B
:101680007F09CE012AE00E94920A9801280F391F93
:1016900004C02AE00E94920A9C01C901DF91CF9107
:1016A0001F910F91FF90EF90DF90CF900895EF92F0
:1016B000FF920F931F937B019A010027F7FC00957F
:1016C000102FB801A7010E94170B1F910F91FF90D7
:1016D000EF9008950E947E0A089540D008F481E0BA
:1016E0000895E89409C097FB3EF490958095709515
:1016F00061957F4F8F4F9F4F9923A9F0F92F96E95E
:10170000BB279395F695879577956795B795F111D2
:10171000F8CFFAF4BB0F11F460FF1BC06F5F7F4F6F
:101720008F4F9F4F16C0882311F096E911C0772381
:1017300021F09EE8872F762F05C0662371F096E88A
:10174000862F70E060E02AF09A95660F771F881F59
:10175000DAF7880F9695879597F90895990F0008FD
:10176000550FAA0BE0E8FEEF16161706E807F90773
:10177000C0F012161306E407F50798F0621B730B0E
:10178000840B950B39F40A2661F0232B242B252B8F
:1017900021F408950A2609F4A140A6958FEF811D32
:1017A000811D0895DBDF08F48FEF0895629FD0015B
:1017B000739FF001829FE00DF11D649FE00DF11D0C
:1017C000929FF00D839FF00D749FF00D659FF00DBB
:1017D0009927729FB00DE11DF91F639FB00DE11DA8
:1017E000F91FBD01CF011124089597FB092E07268B
:1017F0000AD077FD04D02ED006D000201AF47095C0
:1018000061957F4F0895F6F7909581959F4F0895C4
:10181000A1E21A2EAA1BBB1BFD010DC0AA1FBB1FF4
:10182000EE1FFF1FA217B307E407F50720F0A21B66
:10183000B30BE40BF50B661F771F881F991F1A94D3
:1018400069F760957095809590959B01AC01BD01FD
:10185000CF010895AA1BBB1B51E107C0AA1FBB1FE4
:10186000A617B70710F0A61BB70B881F991F5A952C
:10187000A9F780959095BC01CD010895EE0FFF1F4B
:0C1880000590F491E02D0994F894FFCF3E
:10188C0048656C6C6F2C20776F726C642100466C11
:10189C006167206E6F742072656769737465726519
:1018AC00643A2000466C6167206F7574206F662067
:1018BC00626F756E64733A20000800110010000FFF
:1018CC00000C000D00120013000E000000803F0100
:1018DC000000000069014C0A000040001400540094
:1018EC000000000024054C0A00000000B1094C0A5D
:0818FC004509760956099F0910
:00000001FF
