:100000000C9465000C948D000C948D000C948D0064
:100010000C948D000C948D000C948D000C948D002C
:100020000C948D000C948D000C948D000C948D001C
:100030000C948D000C948D000C948D000C948D000C
:100040000C94210E0C948D000C94CA0F0C9411107A
:100050000C948D000C948D000C948D000C948D00EC
:100060000C948D000C948D000000000024002700EB
:100070002A0000000000250028002B0000000000DE
:1000800023002600290004040404040404040202DA
:100090000202020203030303030301020408102007
:1000A0004080010204081020010204081020000012
:1000B0000007000201000003040600000000000029
:1000C000000088026306BB0D021111241FBECFEF92
:1000D000D8E0DEBFCDBF12E0A0E0B1E0E2E2FCE29A
:1000E00002C005900D92AA3EB107D9F714E0AAEE1E
:1000F000B2E001C01D92AD30B107E1F710E0CAECEB
:10010000D0E004C02297FE010E940B16C23CD1072A
:10011000C9F70E9452110C940F160C9400000F9313
:100120001F938C01FC01868160E00E94750F81E0C5
:1001300090E00E94E80EF801868161E00E94750F50
:1001400081E090E00E94E80EF801868160E00E9464
:10015000750F84E690E00E94E80E1F910F910895BC
:10016000CF92DF92EF92FF920F931F93CF93DF9383
:10017000D82EC92E282F392FC9018C01C0E0D0E01C
:10018000E62EFF24F801878161E00E944F0FB7013E
:100190000C2E02C0759567950A94E2F76170F8011C
:1001A00087810E94750F21960F5F1F4FC830D105C0
:1001B00049F78D2D9C2D0E948F00DF91CF911F91CB
:1001C0000F91FF90EF90DF90CF900895CF92DF9244
:1001D000EF92FF920F931F93CF93DF93D82EC92EE8
:1001E000282F392FC9018C01C0E0D0E0E62EFF2472
:1001F000F801878161E00E944F0FB7010C2E02C009
:10020000759567950A94E2F76170F80187810E94FD
:10021000750F21960F5F1F4FC430D10549F78D2D03
:100220009C2D0E948F00DF91CF911F910F91FF9025
:10023000EF90DF90CF9008951F93CF93DF93EC0161
:10024000162F8C81642F0E94750F8D818F3F19F0BE
:1002500060E00E94750F8F8584FF05C0CE01612F7D
:100260000E94B0000EC0612F70E084E07595679524
:100270008A95E1F7CE010E94E600CE01612F0E942F
:10028000E600DF91CF911F91089541E00E941C018B
:1002900081E090E0089540E00E941C010895FC0177
:1002A00060896D7F608B68600E944B010895FC013E
:1002B0006089862F8460808B6C60CF010E944B0127
:1002C0000895DF93CF93CDB7DEB728970FB6F89494
:1002D000DEBF0FBECDBF9C01FE013196A1EDB2E0A5
:1002E00088E00D9001928150E1F7F9018389481768
:1002F00010F0482F4150E42FF0E0EE0FFF1FEC0FFD
:10030000FD1F8181680F6068C9010E944B0128961A
:100310000FB6F894DEBF0FBECDBFCF91DF91089529
:1003200061E00E944B0180ED97E00E94E80E089585
:10033000CF93DF93EC01423018F08F8588608F8770
:100340004B8B1C8A222329F0413019F48F8584605D
:100350008F8780E593EC0E94E80E8C8160E00E941C
:10036000750F8E8160E00E94750F8D818F3F19F0AF
:1003700060E00E94750F6F8564FD1DC0CE0163E0D3
:100380000E94E60084E991E10E94E80ECE0163E05C
:100390000E94E60084E991E10E94E80ECE0163E04C
:1003A0000E94E60086E990E00E94E80ECE0162E03D
:1003B0000E94E60016C06062CE010E944B0184E9F3
:1003C00091E10E94E80E6F856062CE010E944B01B0
:1003D00086E990E00E94E80E6F856062CE010E947F
:1003E0004B016F856062CE010E944B0184E0888BD7
:1003F000CE010E945701CE010E94900182E0898BBC
:10040000CE0166E00E944B01DF91CF9108956F927B
:100410007F928F92AF92CF92EF920F931F93DF93C1
:10042000CF93CDB7DEB73C01162F842FF301448361
:1004300025830683E782C086A18682869D85938771
:100440009E8594879F8595879889968761E00E940D
:100450004F0FF30185818F3F19F061E00E944F0F2C
:10046000F301868161E00E944F0F112319F0F3011F
:10047000178603C080E1F3018787C30160E141E093
:1004800020E00E949801CF91DF911F910F91EF9092
:10049000CF90AF908F907F906F9008958F92AF9292
:1004A000CF92EF920F931F93CF93DF93DC01362F00
:1004B000542F722F102FAE2C8C2C13961C921E9240
:1004C00012978DEC92E011969C938E9300D000D001
:1004D000EDB7FEB73196CDB7DEB719821182128221
:1004E0001382CD0161E0432F2FEF052FE72EC12EA0
:1004F0000E9407020F900F900F900F90DF91CF9105
:100500001F910F91EF90CF90AF908F900895089525
:100510008AEE92E060E00E94100E83EF92E00E946B
:10052000980A84EF92E00E94200E08950F931F9383
:10053000DF93CF93CDB7DEB762970FB6F894DEBFE7
:100540000FBECDBF83EF92E00E94010783EF92E0E0
:100550000E9406078E010F5F1F4FC80163EF72E014
:100560000E94C106A4EFB2E0F80182E101900D9271
:100570008150E1F78DB79EB742970FB6F8949EBFB2
:100580000FBE8DBFADB7BEB71196E4EFF2E082E1CA
:1005900001900D928150E1F78AEE92E00E94C40D25
:1005A0008DB79EB742960FB6F8949EBF0FBE8DBF13
:1005B00062960FB6F894DEBF0FBECDBFCF91DF912C
:1005C0001F910F910895EF92FF920F931F93CF9376
:1005D000DF93EC01162F072F862F972F0E94900193
:1005E000EC8CFD8C85E0E816F10409F42AC186E064
:1005F000E816F104ECF482E0E816F10409F482C094
:1006000083E0E816F1044CF4E114F104A9F181E06F
:10061000E816F10409F060C24CC083E0E816F1046A
:1006200009F497C084E0E816F10409F055C2C6C089
:1006300088E0E816F10409F474C189E0E816F104D1
:100640005CF486E0E816F10409F442C187E0E8169C
:10065000F10409F041C2E3C18AE0E816F10409F4AB
:10066000DEC18AE0E816F1040CF49EC18BE0E816C6
:10067000F10409F031C2F8C1812F902F60E040E011
:100680000E946101812F902F60E071E00E94A4120E
:10069000812F902F60E041E00E946101812F902F17
:1006A0006FE071E00E94A4121F8E1E8E19A218A284
:1006B00013C2812F902F60E040E00E946101812FE2
:1006C000902F64E171E00E94A412812F902F60E0CE
:1006D00041E00E946101812F902F61E271E00E9450
:1006E000A412812F902F60E04A8D0E946101812F1A
:1006F000902F61E371E00E94A412F9A2E8A282E0C7
:1007000090E08AC1812F902F60E040E00E9461015B
:10071000812F902F63E371E00E94A412812F902F0C
:1007200060E041E00E946101812F902F63E471E05D
:100730000E94A412812F902F60E04A8D0E946101D7
:10074000812F902F61E371E00E94A41281E090E07C
:10075000E5C0812F902F60E040E00E946101812F71
:10076000902F6EE471E00E94A412812F902F60E020
:1007700041E00E946101812F902F6DE571E00E94A0
:10078000A41268817981812F902F4AE050E00E9465
:100790007212812F902F68E041E00E946101812F49
:1007A000902F64E671E00E94A4126A817B81812F00
:1007B000902F4AE050E00E9472128AC1812F902F40
:1007C00060E040E00E946101812F902F6BE671E0B4
:1007D0000E94A4126C817D81812F902F4AE050E00D
:1007E0000E947212812F902F61E771E00E94A41283
:1007F000812F902F60E041E00E946101812F902FB6
:1008000064E771E00E94A4126E817F81812F902F96
:100810004AE050E00E947212812F902F6DE771E044
:100820000E94A412812F902F60E04A8D0E946101E6
:10083000812F902F61E371E00E94A412F9A2E8A237
:1008400044C0812F902F60E040E00E946101812F21
:10085000902F60E871E00E94A41268857985812F4D
:10086000902F4AE050E00E947212812F902F68E88A
:1008700071E00E94A412812F902F60E041E00E945D
:100880006101812F902F6DE871E00E94A4126A85AA
:100890007B85812F902F4AE050E00E947212812FB9
:1008A000902F65E971E00E94A412812F902F60E0E3
:1008B0004A8D0E946101812F902F61E371E00E94B7
:1008C000A41284E090E099A388A386E090E0A4C0FD
:1008D000812F902F60E040E00E946101812F902FD6
:1008E00068E971E00E94A412812F902F60E041E03E
:1008F0000E946101812F902F6FE971E00E94A41284
:10090000812F902F60E04A8D0E946101812F902FEE
:1009100061E371E00E94A41284E090E099A388A3AF
:10092000D9C0812F902F60E040E00E946101812FAB
:10093000902F66EA71E00E94A4126C857D85812F5C
:10094000902F4AE050E00E947212812F902F6DE7A5
:1009500071E00E94A412812F902F60E041E00E947C
:100960006101812F902F6EEA71E00E94A4126E85C2
:100970007F85812F902F4AE050E00E947212812FD4
:10098000902F61E771E00E94A412812F902F60E008
:100990004A8D0E946101812F902F61E371E00E94D6
:1009A000A412F9A2E8A236C0812F902F60E040E0A7
:1009B0000E946101812F902F67EB71E00E94A412C9
:1009C00068897989812F902F4AE050E00E94721245
:1009D000812F902F6EEB71E00E94A412812F902F37
:1009E00060E041E00E946101812F902F68E971E091
:1009F0000E94A412812F902F60E04A8D0E94610115
:100A0000812F902F61E371E00E94A41288E090E0B2
:100A100099A388A389E090E09F8F8E8F5DC0812F7E
:100A2000902F60E040E00E946101812F902F6FE9DC
:100A300071E00E94A412812F902F60E041E00E949B
:100A40006101812F902F6FE971E00E94A412812F24
:100A5000902F60E04A8D0E946101812F902F61E309
:100A600071E00E94A41238C0812F902F60E040E016
:100A70000E946101812F902F62EC71E00E94A4120C
:100A80006B897C89812F902F4AE050E00E9472127E
:100A9000812F902F60E041E00E946101812F902F13
:100AA0006BEC71E00E94A4126D897E89812F902FDA
:100AB0004AE050E00E947212812F902F60E04A8D30
:100AC0000E946101812F902F61E371E00E94A412C6
:100AD000F9A2E8A2FF8EEE8EDF91CF911F910F91C8
:100AE000FF90EF900895EF92FF920F931F938C0168
:100AF000F62EE72E862F972F60E142E020E00E943D
:100B0000980188E061E00E944F0F88E061E00E9458
:100B1000750F8F2D9E2D0E9490018F2D9E2D60E0D0
:100B200040E00E9461018F2D9E2D65ED71E00E94D5
:100B3000A4128F2D9E2D60E041E00E9461018F2D57
:100B40009E2D6FE071E00E94A412F80111821082C4
:100B500013821282158214821782168211861086E1
:100B6000138612861586148617861686118A108AB1
:100B7000128A158E148E118E108E178A1F910F9166
:100B8000FF90EF90089583E0653878079CF5CB01DE
:100B90008D5B9240873C910518F421E030E02CC039
:100BA000CB01895592408336910518F422E030E05C
:100BB00023C0CB0181599140873C910518F423E073
:100BC00030E01AC0CB018D5291408336910518F464
:100BD00024E030E011C0CB0185569040873C910560
:100BE00018F425E030E008C0643671051CF426E0F6
:100BF00030E002C020E030E0C90108950F931F9358
:100C0000CF93DF93EC0181E10E942D0FBC01CE0157
:100C10000E94C3058C010E94690E9B01AC01011565
:100C20001105D9F18C819D81AE81BF8180579F4292
:100C3000AC4FBF4F82179307A407B50774F561E067
:100C400070E080E090E00E948F0E81E10E942D0F05
:100C5000BC01CE010E94C30508171907F1F461E039
:100C600070E080E090E00E948F0E81E10E942D0FE5
:100C7000BC01CE010E94C3059C010817190729F485
:100C80008A819B8101969B838A83398328830E9472
:100C9000690E6C837D838E839F83DF91CF911F913B
:100CA0000F9108950F931F938C0181E160E00E94E2
:100CB0004F0F81E161E00E94750FF80111821082EF
:100CC0001F910F910895CF92EF920F93DF93CF93DF
:100CD000CDB7DEB765970FB6F894DEBF0FBECDBFB8
:100CE00086E093E00E9452068EE093E062E043E0EB
:100CF00024E005E056E0E52E37E0C32E0E944E02C8
:100D000080911003909111039C838B838DEC92E072
:100D10009A838983809112038D83809113038E833C
:100D2000809114038F83DE011896E5E1F3E088E0FB
:100D300001900D928150E1F780911D03888B809185
:100D40001E03898B80911F038A8B809120038B8BDC
:100D5000809121038C8B809122038D8B83E293E021
:100D6000BE016F5F7F4F0E94730565960FB6F894C2
:100D7000DEBF0FBECDBFCF91DF910F91EF90CF902F
:100D800008950F931F938C010E94200E80912303DE
:100D900090912403F80191838083809125039091A1
:100DA0002603938382838091270390912803958360
:100DB00084838091290390912A039783868380916D
:100DC0002B0390912C039187808780912D03909124
:100DD0002E039387828780912F039091300395870C
:100DE0008487809131039091320397878687809121
:100DF000330390913403918B808BC8011F910F9125
:100E0000089586E093E00E94FE050895DF93CF9356
:100E1000CDB7DEB7C85AD0400FB6F894DEBF0FBECC
:100E2000CDBF80910603909107038330910509F4AB
:100E3000B4C08430910544F48130910509F472C145
:100E4000029709F06BC30CC08530910509F412C3F9
:100E5000853091050CF40CC2069709F05FC3AEC251
:100E600080913D0390913E03019709F443C081E0D6
:100E700090E090933E0380933D0380913B039091DB
:100E80003C03019690933C0380933B0380911003B5
:100E9000909111039C838B838DEC92E09A838983DC
:100EA000809112038D83809113038E8380911403AC
:100EB0008F83DE011896E5E1F3E088E001900D9262
:100EC0008150E1F780911D03888B80911E03898BEF
:100ED00080911F038A8B809120038B8B809121034B
:100EE0008C8B809122038D8B83E293E0BE016F5F38
:100EF0007F4F11C120913F03309140038091410306
:100F000090914203281739070CF007C110923E0355
:100F100010923D032F5F3F4F3093400320933F03D8
:100F200080913B0390913C03019690933C03809306
:100F30003B038091100390911103998F888F8DEC62
:100F400092E09F8B8E8B809112038A8F8091130386
:100F50008B8F809114038C8FDE015D96E5E1F3E0C9
:100F600088E001900D928150E1F780911D038DA3DF
:100F700080911E038EA380911F038FA38091200375
:100F800088A78091210389A7809122038AA783E201
:100F900093E0BE016A5E7F4FBEC080913D03909199
:100FA0003E03892B09F441C010923E0310923D0389
:100FB00080913B0390913C03019790933C03809375
:100FC0003B0380911003909111039EA78DA78DEC98
:100FD00092E09CA78BA7809112038FA780911303A7
:100FE00088AB8091140389ABDE01D296E5E1F3E092
:100FF00088E001900D928150E1F780911D038AAF46
:1010000080911E038BAF80911F038CAF80912003D2
:101010008DAF809121038EAF809122038FAF83E249
:1010200093E0BE01655D7F4F76C020913F03309114
:1010300040038091430390914403821793070CF07F
:101040006CC081E090E090933E0380933D0321507B
:1010500030403093400320933F0380913B039091B5
:101060003C03019790933C0380933B0380911003D2
:1010700090911103FE01EE5BFF4F918380838DEC15
:1010800092E0FE01E05CFF4F918380838091120328
:10109000FE01EC5BFF4F808380911303FE01EB5B4D
:1010A000FF4F808380911403FE01EA5BFF4F808332
:1010B000DE01A95BBF4FE5E1F3E088E001900D920E
:1010C0008150E1F780911D03FE01E15BFF4F8083BA
:1010D00080911E03FE01E05BFF4F808380911F0320
:1010E000FE01EF5AFF4F808380912003FE01EE5AEC
:1010F000FF4F808380912103FE01ED5AFF4F8083D3
:1011000080912203FE01EC5AFF4F808383E293E03B
:10111000BE01605C7F4F0E94E302109207031092B1
:101120000603FCC180913F039091400383309105F9
:1011300051F4809123039091240301979093240309
:10114000809323036FC084309105E9F480913D03BF
:1011500090913E03009751F48091270390912803CA
:10116000019790932803809327035CC0019709F0AF
:1011700059C08091290390912A03019790932A03E3
:10118000809329034FC085309105E1F480913D03A0
:1011900090913E03009751F480912B0390912C0382
:1011A000019790932C0380932B033CC00197D1F5BA
:1011B00080912D0390912E03019790932E0380939D
:1011C0002D0330C088309105E1F480913D0390916A
:1011D0003E03009751F480912F03909130030197C3
:1011E0009093300380932F031DC00197D9F4809111
:1011F000310390913203019790933203809331032E
:1012000011C0099779F480913D0390913E03892B99
:1012100049F4809133039091340301979093340300
:10122000809333031092070310920603FE01EB5ADA
:10123000FF4F8091100390911103938382838DEC73
:1012400092E09183808380911203848380911303C1
:1012500085838091140386833796A5E1B3E088E007
:101260000D9001928150E1F7FE01EB5AFF4F3FC113
:1012700080913F03909140038330910551F4809118
:1012800023039091240301969093240380932303D6
:101290006FC084309105E9F480913D0390913E0345
:1012A000009751F480912703909128030196909321
:1012B0002803809327035CC0019709F059C08091EF
:1012C000290390912A03019690932A03809329037E
:1012D0004FC085309105E1F480913D0390913E032C
:1012E000009751F480912B0390912C0301969093D9
:1012F0002C0380932B033CC00197D1F580912D03E3
:1013000090912E03019690932E0380932D0330C06D
:1013100088309105E1F480913D0390913E03009760
:1013200051F480912F0390913003019690933003F4
:1013300080932F031DC00197D9F4809131039091C0
:1013400032030196909332038093310311C00997C1
:1013500079F480913D0390913E03892B49F480916B
:1013600033039091340301969093340380933303B5
:101370001092070310920603FE01E659FF4F809179
:10138000100390911103938382838DEC92E09183FB
:1013900080838091120384838091130385838091DD
:1013A000140386833796A5E1B3E088E00D9001929F
:1013B0008150E1F7FE01E659FF4F99C020913F03AC
:1013C00030914003309346032093450380913B03C3
:1013D00090913C03909348038093470380913D0391
:1013E00090913E0390934A03809349032130310545
:1013F00021F022303105C1F40BC0009719F001979C
:1014000099F403C083E090E007C084E090E004C05A
:10141000892B51F488E090E09093400380933F0340
:1014200010923E0310923D031092070310920603A0
:10143000FE01E158FF4F80911003909111039383B7
:1014400082838DEC92E09183808380911203848368
:101450008091130385838091140386833796A5E1D9
:10146000B3E088E00D9001928150E1F7FE01E15870
:10147000FF4F3DC0809145039091460390934003F8
:1014800080933F03809147039091480390933C03DE
:1014900080933B038091490390914A0390933E03CC
:1014A00080933D031092070310920603FE01EC5651
:1014B000FF4F8091100390911103938382838DECF1
:1014C00092E091838083809112038483809113033F
:1014D00085838091140386833796A5E1B3E088E085
:1014E0000D9001928150E1F7FE01EC56FF4F809183
:1014F0001D03878780911E03808B80911F03818B42
:1015000080912003828B80912103838B8091220321
:10151000848B83E293E0BF010E94E302C855DF4F52
:101520000FB6F894DEBF0FBECDBFCF91DF91089507
:10153000DF93CF93CDB7DEB765970FB6F894DEBFD4
:101540000FBECDBF8DE061E00E944F0F8DE060E0E7
:101550000E94750F8EE093E060E142E020E00E947F
:1015600098018EE093E00E944F0181E090E090931B
:10157000400380933F0310923C0310923B03809101
:101580001003909111039C838B838DEC92E09A83DE
:101590008983809112038D83809113038E838091C0
:1015A00014038F83DE011896E5E1F3E088E00190F3
:1015B0000D928150E1F780911D03888B80911E036D
:1015C000898B80911F038A8B809120038B8B809164
:1015D00021038C8B809122038D8B83E293E0BE01EB
:1015E0006F5F7F4F0E94E30265960FB6F894DEBFEF
:1015F0000FBECDBFCF91DF910895FC0160830895A8
:10160000FC01758764870895CB01BA0120E030E0C2
:1016100048EC55E40E9423159B01AC010E946C1319
:101620002BED3FE049E450E40E9423152CE839EB10
:101630004BE45FE30E94231508952F923F924F924F
:101640005F926F927F928F929F92AF92BF92CF9252
:10165000DF92EF92FF920F931F93DF93CF93CDB75B
:10166000DEB760970FB6F894DEBF0FBECDBF2C017A
:101670003A014B01DC0111968C91119717966C91F0
:101680000E94750F62E370E080E090E00E948F0E90
:10169000F20104851585C401B30120E030E046E184
:1016A00054E40E94D01388238CF46D827E828F8252
:1016B00098868EE69BEDAEE0B3E489839A83AB8394
:1016C000BC8380E090E0A0E0B0E023C0C401B3019F
:1016D00020E030E048EC53E40E946B136D837E837E
:1016E0008F8398879801442737FD4095542F60E4F5
:1016F00072E48FE090E00E94DA15CA01B9010E94FD
:101700006F1469837A838B839C8380E090E0A8E4E4
:10171000B3E489879A87AB87BC87B801882777FDB0
:101720008095982F0E946F145B016C0120E030ECD3
:101730004AED55E40E94D01387FD0AC00F2EF0E059
:10174000AF2EF0ECBF2EFAEDCF2EF5E4DF2EF02D0C
:1017500069817A818B819C812EE63BED4EE053E4DA
:101760000E946B1329853A854B855C850E94D413B2
:101770006D877E878F87988BD2018C91882309F49F
:101780006DC08EEE93E066EE71E00E94A4128EEEC4
:1017900093E0B401A30122E030E00E9445138EEEF5
:1017A00093E06FEE71E00E9458138EEE93E061EFCC
:1017B00071E00E94A4128EEE93E0B601A50122E032
:1017C00030E00E9442138EEE93E060E072E00E94EF
:1017D000A412F201648575858EEE93E04AE050E034
:1017E0000E9485128EEE93E06EE072E00E94581324
:1017F0008EEE93E06EE272E00E9458138EEE93E05C
:1018000066EE71E00E94A4128EEE93E049855A853F
:101810006B857C8522E030E00E9445138EEE93E0DC
:101820006AE372E00E94A4128EEE93E04EE65BED56
:101830006EE073E422E030E00E9445138EEE93E008
:1018400062E572E00E94A4128EEE93E04D855E8503
:101850006F85788922E030E00E9445130F2EFEE666
:10186000AF2EFBEDBF2EFEE0CF2EF3E4DF2EF02DEA
:101870008EE8282E312C00E010E039C0D2011396FA
:101880008C9161E00E94750FC1010E94E80EF20187
:10189000838160E00E94750FC1010E94E80EC601BD
:1018A000B5012D853E854F8558890E946C135B01DB
:1018B0006C0120E030E040E050E00E941F158823DA
:1018C0004CF0C601B50120E030E040E05FE30E944B
:1018D0006C1308C0C601B50120E030E040E05FE3D2
:1018E0000E946B130E943C141B010F5F1F4FB80135
:1018F000882777FD8095982F0E946F1429853A8557
:101900004B855C850E94D01387FDB8CFD2018C91A6
:101910008823C9F18EEE93E06EE072E00E945813C6
:101920008EEE93E065E672E00E9458138EEE93E02F
:1019300066EE71E00E94A4128EEE93E04D815E810E
:101940006F81788522E030E00E9445138EEE93E0AF
:1019500060E072E00E94A412F201648575858EEE4B
:1019600093E04AE050E00E9485128EEE93E065E736
:1019700072E00E94A4128EEE93E0A501B60122E06F
:1019800030E00E9445136624772443011EC0D20133
:1019900013968C9161E00E94750F69817A818B8129
:1019A0009C810E9441147B018C01CB010E94E80EB6
:1019B000F201838160E00E94750FC7010E94E80E6A
:1019C0000894611C711C811C911CC401B3010E940C
:1019D0006F142D813E814F8158850E94D01387FD61
:1019E000D6CFD2018C918823E1F08EEE93E06EE0A9
:1019F00072E00E9458138EEE93E060E972E00E945C
:101A000058138EEE93E066EE71E00E94A4128EEE03
:101A100093E049855A856B857C8522E030E00E9401
:101A2000451300E010E039C0F201838161E00E94BB
:101A3000750FC1010E94E80ED20113968C9160E0EF
:101A40000E94750FC1010E94E80EC601B5012D85E7
:101A50003E854F8558890E946B135B016C0120E025
:101A600030E040E050E00E941F1588234CF0C60192
:101A7000B50120E030E040E05FE30E946C1308C055
:101A8000C601B50120E030E040E05FE30E946B1347
:101A90000E943C141B010F5F1F4FB801882777FD80
:101AA0008095982F0E946F1429853A854B855C8517
:101AB0000E94D01387FDB8CFF20180818823A1F066
:101AC0008EEE93E06EE972E00E94A4128EEE93E037
:101AD000B601A50122E030E00E9445138EEE93E0AE
:101AE0006FEE71E00E94581360960FB6F894DEBF57
:101AF0000FBECDBFCF91DF911F910F91FF90EF905F
:101B0000DF90CF90BF90AF909F908F907F906F901D
:101B10005F904F903F902F900895CF92DF92EF9279
:101B2000FF920F931F938C01F62ED72EE42EC52E15
:101B3000862F61E00E944F0F8E2D61E00E944F0FB3
:101B4000F801F182D28281E090E096838583E3827E
:101B5000C48281E0878380E090E0A0E8BFE38087D3
:101B60009187A287B38710821F910F91FF90EF900A
:101B7000DF90CF9008958FE493E063E170E042E15D
:101B800050E00E948D0D08958F929F92AF92BF9268
:101B9000CF92DF92EF92FF920F931F93DF93CF9339
:101BA000CDB7DEB75C018F849888FC01E080F180BE
:101BB000028113818FE4C82E83E0D82EC60140E055
:101BC00050E068EC72E40E94040B9B01AC01C80178
:101BD000B7010E946C13F501608371838283938344
:101BE00084E690E0889EB001899E700D989E700DED
:101BF0001124C6010E94000BC60140E050E068ECD1
:101C000072E40E941D0BCF91DF911F910F91FF9005
:101C1000EF90DF90CF90BF90AF909F908F900895FE
:101C2000FC0180E090E0A0E9B2E484839583A68380
:101C3000B78381E080878FE493E00E94FD0A0895D6
:101C400008951F920F920FB60F9211242F933F9376
:101C50008F939F93AF93BF938091610390916203A1
:101C6000A0916303B0916403309165030196A11DB7
:101C7000B11D232F2D5F2D3720F02D570196A11D6B
:101C8000B11D209365038093610390936203A09339
:101C90006303B093640380915D0390915E03A09110
:101CA0005F03B09160030196A11DB11D80935D0398
:101CB00090935E03A0935F03B0936003BF91AF91D5
:101CC0009F918F913F912F910F900FBE0F901F907A
:101CD00018959FB7F89420915D0330915E03409171
:101CE0005F035091600386B5A89B06C08F3F21F02B
:101CF0002F5F3F4F4F4F5F4F9FBF542F432F322FC8
:101D00002227280F311D411D511D82E0220F331F54
:101D1000441F551F8A95D1F7B901CA0108959B0147
:101D2000AC017FB7F89480915D0390915E03A09120
:101D30005F03B091600366B5A89B05C06F3F19F0C3
:101D40000196A11DB11D7FBFBA2FA92F982F8827FB
:101D5000860F911DA11DB11D62E0880F991FAA1F5A
:101D6000BB1F6A95D1F7BC012DC0FFB7F8948091D5
:101D70005D0390915E03A0915F03B0916003E6B5AF
:101D8000A89B05C0EF3F19F00196A11DB11DFFBF33
:101D9000BA2FA92F982F88278E0F911DA11DB11D35
:101DA000E2E0880F991FAA1FBB1FEA95D1F7861B97
:101DB000970B885E9340C8F221503040404050401D
:101DC00068517C4F211531054105510571F6089583
:101DD000019739F0880F991F880F991F0297019773
:101DE000F1F70895789484B5826084BD84B58160EC
:101DF00084BD85B5826085BD85B5816085BDEEE613
:101E0000F0E0808181608083E1E8F0E010828081F1
:101E100082608083808181608083E0E8F0E080815F
:101E200081608083E1EBF0E0808184608083E0EB7F
:101E3000F0E0808181608083EAE7F0E08081846067
:101E400080838081826080838081816080838081C3
:101E5000806880831092C1000895982F8E3008F01A
:101E60009E5097708091C8028295880F880F807C61
:101E7000892B80937C0080917A00806480937A0023
:101E800080917A0086FDFCCF209178004091790006
:101E9000942F80E030E0282B392BC9010895482F7A
:101EA00050E0CA0186569F4FFC0124914A575F4F6C
:101EB000FA0184918823C1F0E82FF0E0EE0FFF1FB4
:101EC000E859FF4FA591B491662341F49FB7F89468
:101ED0008C91209582238C939FBF08959FB7F8948F
:101EE0008C91822B8C939FBF0895482F50E0CA019C
:101EF00082559F4FFC012491CA0186569F4FFC01D9
:101F000094914A575F4FFA013491332309F440C04A
:101F1000222351F1233071F0243028F42130A1F034
:101F2000223011F514C02630B1F02730C1F0243032
:101F3000D9F404C0809180008F7703C08091800025
:101F40008F7D8093800010C084B58F7702C084B5E8
:101F50008F7D84BD09C08091B0008F7703C08091D0
:101F6000B0008F7D8093B000E32FF0E0EE0FFF1FF5
:101F7000EE58FF4FA591B4912FB7F894662321F442
:101F80008C919095892302C08C91892B8C932FBFC3
:101F9000089508951F920F920FB60F9211242F9358
:101FA0003F934F938F939F93EF93FF934091C6007E
:101FB0002091A6033091A7032F5F3F4F2F733070FE
:101FC0008091A8039091A9032817390759F0E0914F
:101FD000A603F091A703EA59FC4F40833093A7036F
:101FE0002093A603FF91EF919F918F914F913F9185
:101FF0002F910F900FBE0F901F901895E091FA034C
:10200000F091FB03E05CFF4F819191912081318140
:10201000821B930B8F739070892B11F00E94C90F54
:1020200008951F920F920FB60F9211242F933F9392
:102030004F935F936F937F938F939F93AF93BF93D0
:10204000EF93FF932091EA033091EB038091EC032F
:102050009091ED032817390731F48091C1008F7DED
:102060008093C10016C0E091EC03F091ED03E655BA
:10207000FC4F40818091EC039091ED03019660E468
:1020800070E00E94A5159093ED038093EC034093BC
:10209000C600FF91EF91BF91AF919F918F917F917A
:1020A0006F915F914F913F912F910F900FBE0F90C5
:1020B0001F901895DC011C96ED91FC911D97E05C3A
:1020C000FF4F2191319180819181281B390B2F7312
:1020D0003070C9010895DC011C96ED91FC911D97AB
:1020E000E05CFF4F20813181E054F040DF01AE5BC6
:1020F000BF4F8D919C9111972817390719F42FEF35
:102100003FEF07C08D919C91E80FF91F8081282F28
:1021100030E0C9010895DC011C96ED91FC911D97FA
:10212000E05CFF4F20813181E054F040DF01AE5B85
:10213000BF4F8D919C9111972817390719F42FEFF4
:102140003FEF10C08D919C911197E80FF91F2081EE
:102150008D919C91119701968F73907011969C931D
:102160008E9330E0C9010895FC0186859785DC01D6
:10217000A05CBF4FFC01EE5BFF4F2D913C9111978E
:102180008081918128173907C1F70895CF93DF9394
:10219000EC01462FEE85FF85E05CFF4F8081918149
:1021A000E054F040019660E470E00E94A5159C01A7
:1021B000DF01AE5BBF4F8D919C91119728173907B6
:1021C000D1F3E05CFF4F80819181E054F040E80F53
:1021D000F91F4083EE85FF85E05CFF4F318320834C
:1021E000EE89FF89208181E090E00D8C02C0880F8C
:1021F000991F0A94E2F7282B208381E090E0DF9179
:10220000CF9108951092F1031092F00388EE93E0BD
:10221000A0E0B0E08093F2039093F303A093F40363
:10222000B093F5038DED92E09093EF038093EE036E
:1022300086E693E09093FB038093FA038AEA93E0A7
:102240009093FD038093FC0385EC90E09093FF0353
:102250008093FE0384EC90E090930104809300044B
:1022600080EC90E0909303048093020481EC90E072
:10227000909305048093040486EC90E09093070407
:102280008093060484E08093080483E0809309042B
:1022900087E080930A0485E080930B0481E08093BB
:1022A0000C040895CF93DF930E94F20E0E948702E0
:1022B000CEEFDFE00E9496022097E1F30E94FE0F2E
:1022C000F9CFCF92DF92EF92FF920F931F93CF93AC
:1022D000DF937C016B018A01C0E0D0E00FC0D60122
:1022E0006D916D01D701ED91FC910190F081E02D90
:1022F000C7010995C80FD91F0150104001151105DC
:1023000071F7CE01DF91CF911F910F91FF90EF9068
:10231000DF90CF900895EF92FF920F931F938C015F
:10232000DC01ED91FC910190F081E02D6DE00995CB
:102330007C01D801ED91FC910190F081E02DC80164
:102340006AE009959C012E0D3F1DC9011F910F9157
:10235000FF90EF900895CF93DF93DB010D90002065
:10236000E9F71197A61BB70BEC01E881F981028010
:10237000F381E02DAD010995DF91CF9108954F9242
:102380005F927F928F929F92AF92BF92CF92DF9295
:10239000EF92FF920F931F93DF93CF93CDB7DEB7EA
:1023A000A1970FB6F894DEBF0FBECDBF2C01742EDF
:1023B000CB01223008F42AE019A231E2C32ED12C3D
:1023C000CC0EDD1E822E9924AA24BB24672D752FE6
:1023D000A50194010E94B81579018A01C801B701CD
:1023E000A50194010E948615472D461B0894C1083B
:1023F000D1084A3014F4405D01C0495CF6014083C5
:10240000E114F1040105110521F07E2C5F2DC801B6
:10241000DDCFC201B6010E94AB11A1960FB6F894B0
:10242000DEBF0FBECDBFCF91DF911F910F91FF9007
:10243000EF90DF90CF90BF90AF909F908F907F9064
:102440005F904F900895DC012115310541F4ED9125
:10245000FC910190F081E02D642F099508950E9470
:10246000BF110895CF92DF92EF92FF920F931F93C7
:10247000CF93DF93EC016A017B012115310541F413
:10248000E881F9810190F081E02D642F09951FC04A
:102490002A303105D1F477FF17C0E881F981019026
:1024A000F081E02D6DE209958C0144275527BA0192
:1024B0004C195D096E097F09CE012AE00E94BF1107
:1024C0009801280F391F04C02AE00E94BF119C0107
:1024D000C901DF91CF911F910F91FF90EF90DF9095
:1024E000CF900895EF92FF920F931F937B019A0173
:1024F0000027F7FC0095102FB801A7010E943212A7
:102500001F910F91FF90EF900895CF92DF92EF927D
:10251000FF920F931F936C017B019A010027F7FC38
:102520000095102FB801A7010E9432128C01C6013C
:102530000E948B11080F191FC8011F910F91FF9066
:10254000EF90DF90CF9008950E94AB1108957F9295
:102550008F929F92AF92BF92CF92DF92EF92FF92B3
:102560000F931F93CF93DF934C017A018B01722E4F
:10257000CB01BA0120E030E040E050E00E94D013EF
:1025800087FD03C0C0E0D0E00EC0D401ED91FC9106
:102590000190F081E02DC4016DE20995EC0117FB7B
:1025A000109517F9109520E030E040E05FE3AA2491
:1025B0000BC0CA01B90120E030E040E251E40E94C2
:1025C000D4139B01AC01A394A71498F3C801B701DD
:1025D0000E946C135B016C010E9441147B018C0111
:1025E000C401B801A7012AE030E00E942312C80FFD
:1025F000D91F772039F0C40166EC72E00E94AB115C
:10260000C80FD91FC801B7010E946D149B01AC010E
:10261000C601B5010E946B1324C020E030E040E207
:1026200051E40E9423157B018C010E943C145B0144
:102630006C01CC24B7FCC094DC2CC401B601A5010C
:102640002AE030E00E943212C80FD91FC601B5013E
:102650000E946F149B01AC01C801B7010E946B136B
:102660007A947720D1F6CE01DF91CF911F910F910F
:10267000FF90EF90DF90CF90BF90AF909F908F90A2
:102680007F9008950E94A7120895EF92FF920F93F2
:102690001F937C010E94A7128C01C7010E948B111D
:1026A000080F191FC8011F910F91FF90EF90089517
:1026B000EF92FF920F931F937C010E94AB118C014C
:1026C000C7010E948B11080F191FC8011F910F919C
:1026D000FF90EF9008955058BB27AA270ED075C1E0
:1026E00066D130F06BD120F031F49F3F11F41EF42D
:1026F0005BC10EF4E095E7FB51C1E92F77D180F380
:10270000BA17620773078407950718F071F49EF5EE
:102710008FC10EF4E0950B2EBA2FA02D0B01B9013D
:1027200090010C01CA01A0011124FF27591B99F047
:10273000593F50F4503E68F11A16F040A22F232F53
:10274000342F4427585FF3CF469537952795A795A3
:10275000F0405395C9F77EF41F16BA0B620B730B4A
:10276000840BBAF09150A1F0FF0FBB1F661F771FBB
:10277000881FC2F70EC0BA0F621F731F841F48F470
:10278000879577956795B795F7959E3F08F0B3CFF6
:102790009395880F08F09927EE0F979587950895E0
:1027A000D9D008F481E008950CD00FC107D140F0D2
:1027B000FED030F021F45F3F19F0F0C0511139C163
:1027C000F3C014D198F39923C9F35523B1F3951BA2
:1027D000550BBB27AA2762177307840738F09F5F42
:1027E0005F4F220F331F441FAA1FA9F333D00E2EB1
:1027F0003AF0E0E830D091505040E695001CCAF71E
:1028000029D0FE2F27D0660F771F881FBB1F2617E2
:1028100037074807AB07B0E809F0BB0B802DBF01B5
:10282000FF2793585F4F2AF09E3F510568F0B6C0CE
:1028300000C15F3FECF3983EDCF386957795679592
:10284000B795F7959F5FC9F7880F911D9695879566
:1028500097F90895E1E0660F771F881FBB1F621785
:1028600073078407BA0720F0621B730B840BBA0B43
:10287000EE1F88F7E095089504D06894B111D9C08F
:102880000895BCD088F09F5790F0B92F9927B75181
:10289000A0F0D1F0660F771F881F991F1AF0BA9524
:1028A000C9F712C0B13081F0C3D0B1E00895C0C003
:1028B000672F782F8827B85F39F0B93FCCF386951A
:1028C00077956795B395D9F73EF490958095709577
:1028D00061957F4F8F4F9F4F0895E89409C097FBF4
:1028E0003EF490958095709561957F4F8F4F9F4FE7
:1028F0009923A9F0F92F96E9BB279395F69587952B
:1029000077956795B795F111F8CFFAF4BB0F11F4ED
:1029100060FF1BC06F5F7F4F8F4F9F4F16C0882394
:1029200011F096E911C0772321F09EE8872F762FCA
:1029300005C0662371F096E8862F70E060E02AF00B
:102940009A95660F771F881FDAF7880F96958795F7
:1029500097F90895990F0008550FAA0BE0E8FEEFCC
:1029600016161706E807F907C0F012161306E40753
:10297000F50798F0621B730B840B950B39F40A264C
:1029800061F0232B242B252B21F408950A2609F42A
:10299000A140A6958FEF811D811D089597F99F672E
:1029A00080E870E060E008959FEF80EC08950024D7
:1029B0000A941616170618060906089500240A94A4
:1029C00012161306140605060895092E0394000C2A
:1029D00011F4882352F0BB0F40F4BF2B11F460FFB9
:1029E00004C06F5F7F4F8F4F9F4F089557FD9058E2
:1029F000440F551F59F05F3F71F04795880F97FBC3
:102A0000991F61F09F3F79F087950895121613067C
:102A10001406551FF2CF4695F1DF08C016161706AB
:102A20001806991FF1CF86957105610508940895E0
:102A3000E894BB2766277727CB0197F908958ADFAB
:102A400008F48FEF08950BD0C0CFB1DF28F0B6DFC8
:102A500018F0952309F0A2CFA7CF1124EACFC6DF43
:102A6000A0F3959FD1F3950F50E0551F629FF001A1
:102A7000729FBB27F00DB11D639FAA27F00DB11DFA
:102A8000AA1F649F6627B00DA11D661F829F222783
:102A9000B00DA11D621F739FB00DA11D621F839F0A
:102AA000A00D611D221F749F3327A00D611D231FE0
:102AB000849F600D211D822F762F6A2F11249F572E
:102AC00050408AF0E1F088234AF0EE0FFF1FBB1F51
:102AD000661F771F881F91505040A9F79E3F5105F0
:102AE00070F05CCFA6CF5F3FECF3983EDCF38695A9
:102AF00077956795B795F795E7959F5FC1F7FE2B9B
:102B0000880F911D9695879597F90895629FD0013A
:102B1000739FF001829FE00DF11D649FE00DF11D98
:102B2000929FF00D839FF00D749FF00D659FF00D47
:102B30009927729FB00DE11DF91F639FB00DE11D34
:102B4000F91FBD01CF011124089597FB092E072617
:102B50000AD077FD04D049D006D000201AF4709531
:102B600061957F4F0895F6F7909581959F4F089551
:102B7000A1E21A2EAA1BBB1BFD010DC0AA1FBB1F81
:102B8000EE1FFF1FA217B307E407F50720F0A21BF3
:102B9000B30BE40BF50B661F771F881F991F1A9460
:102BA00069F760957095809590959B01AC01BD018A
:102BB000CF01089597FB092E05260ED057FD04D0AE
:102BC000D7DF0AD0001C38F45095409530952195F8
:102BD0003F4F4F4F5F4F0895F6F790958095709552
:102BE00061957F4F8F4F9F4F0895AA1BBB1B51E1EB
:102BF00007C0AA1FBB1FA617B70710F0A61BB70B6D
:102C0000881F991F5A95A9F780959095BC01CD0111
:102C10000895EE0FFF1F0590F491E02D0994F894AC
:022C2000FFCFE4
:102C22004D6F746F72697A6564205261696C0076C7
:102C3200302E31002053696D706C65204D6F7665C2
:102C42000020536D6172742053657175656E636502
:102C5200002D002042617369632053657175656EB2
:102C620063650020202020202020202020002043F7
:102C72006C69636B20746F206D6F7665003C3C3C21
:102C82003C533A003E3E3E3E503A00204650533AB4
:102C920000202300204F75747075743A0020730071
:102CA200204576656E743A00206D696E002052618F
:102CB2006E67653A0020250020537461727400200B
:102CC2002020202020002044656C61793A002046B3
:102CD20072616D65733A00204D6F76653A0020632C
:102CE2006D00427574746F6E3A2000507265737392
:102CF20065643A20004D6F746F72697A656420438F
:102D0200616D657261002073746570733A200020F2
:102D1200002053746172742073706565643A2000F8
:102D22002046756C6C2073706565643A2000202D16
:102D32002D2D2D2D2D2D2D2D2D2D2D2D2D2D2D2DC1
:102D42002D2D2D2D2D2D2D2D2D2D2D2D2D002052C6
:102D5200616D70696E6720757000207374617274A2
:102D62002064656C61792070657220737465703AB5
:102D720020002064656C617920696E6372656D65FF
:102D82006E743A200020436F6E7374616E74207308
:102D9200706565640020436F6E7374616E742064A5
:102DA200656C61792070657220737465703A2000D9
:102DB2002052616D70696E6720646F776E002045E6
:102DC2006E642064656C61793A2000207265766FCA
:102DD2006C7574696F6E733A200020646973746154
:102DE2006E63653A20002E0001000000004501617B
:102DF20011000040001400540000000000C61061E1
:0A2E0200115A108B106B10B4100071
:00000001FF
