:100000000C9465000C948D000C948D000C948D0064
:100010000C948D000C948D000C948D000C948D002C
:100020000C948D000C948D000C948D000C948D001C
:100030000C948D000C948D000C948D000C948D000C
:100040000C94EB130C948D000C94A2150C94E915F0
:100050000C948D000C948D000C948D000C948D00EC
:100060000C948D000C948D000000000024002700EB
:100070002A0000000000250028002B0000000000DE
:1000800023002600290004040404040404040202DA
:100090000202020203030303030301020408102007
:1000A0004080010204081020010204081020000012
:1000B0000007000201000003040600000000000029
:1000C0000000870210063E12601711241FBECFEFFA
:1000D000D8E0DEBFCDBF15E0A0E0B1E0EAE9F9E38A
:1000E00002C005900D92A431B107D9F716E0A4E142
:1000F000B5E001C01D92AB36B107E1F710E0CAECE4
:10010000D0E004C02297FE010E94C71CC23CD10768
:10011000C9F70E94B0170C94CB1C0C9400000F93ED
:100120001F938C01FC01868160E00E944D1581E0E7
:1001300090E00E94C014F801868161E00E944D1594
:1001400081E090E00E94C014F801868160E00E9486
:100150004D1584E690E00E94C0141F910F91089500
:10016000CF92DF92EF92FF920F931F93CF93DF9383
:10017000D82EC92E282F392FC9018C01C0E0D0E01C
:10018000E62EFF24F801878161E00E942715B70160
:100190000C2E02C0759567950A94E2F76170F8011C
:1001A00087810E944D1521960F5F1F4FC830D105E2
:1001B00049F78D2D9C2D0E948F00DF91CF911F91CB
:1001C0000F91FF90EF90DF90CF900895CF92DF9244
:1001D000EF92FF920F931F93CF93DF93D82EC92EE8
:1001E000282F392FC9018C01C0E0D0E0E62EFF2472
:1001F000F801878161E00E942715B7010C2E02C02B
:10020000759567950A94E2F76170F80187810E94FD
:100210004D1521960F5F1F4FC430D10549F78D2D25
:100220009C2D0E948F00DF91CF911F910F91FF9025
:10023000EF90DF90CF9008951F93CF93DF93EC0161
:10024000162F8C81642F0E944D158D818F3F19F0E0
:1002500060E00E944D158F8584FF05C0CE01612F9F
:100260000E94B0000EC0612F70E084E07595679524
:100270008A95E1F7CE010E94E600CE01612F0E942F
:10028000E600DF91CF911F91089541E00E941C018B
:1002900081E090E0089540E00E941C010895FC0177
:1002A00060896D7F608B68600E944B010895FC013E
:1002B0006089862F8460808B6C60CF010E944B0127
:1002C0000895DF93CF93CDB7DEB728970FB6F89494
:1002D000DEBF0FBECDBF9C01FE013196ACEFB4E096
:1002E00088E00D9001928150E1F7F9018389481768
:1002F00010F0482F4150E42FF0E0EE0FFF1FEC0FFD
:10030000FD1F8181680F6068C9010E944B0128961A
:100310000FB6F894DEBF0FBECDBFCF91DF91089529
:1003200061E00E944B0180ED97E00E94C0140895A7
:10033000CF93DF93EC01423018F08F8588608F8770
:100340004B8B1C8A222329F0413019F48F8584605D
:100350008F8780E593EC0E94C0148C8160E00E943E
:100360004D158E8160E00E944D158D818F3F19F0F3
:1003700060E00E944D156F8564FD1DC0CE0163E0F5
:100380000E94E60084E991E10E94C014CE0163E07E
:100390000E94E60084E991E10E94C014CE0163E06E
:1003A0000E94E60086E990E00E94C014CE0162E05F
:1003B0000E94E60016C06062CE010E944B0184E9F3
:1003C00091E10E94C0146F856062CE010E944B01D2
:1003D00086E990E00E94C0146F856062CE010E94A1
:1003E0004B016F856062CE010E944B0184E0888BD7
:1003F000CE010E945701CE010E94900182E0898BBC
:10040000CE0166E00E944B01DF91CF9108956F927B
:100410007F928F92AF92CF92EF920F931F93DF93C1
:10042000CF93CDB7DEB73C01162F842FF301448361
:1004300025830683E782C086A18682869D85938771
:100440009E8594879F8595879889968761E00E940D
:100450002715F30185818F3F19F061E00E94271570
:10046000F301868161E00E942715112319F0F30141
:10047000178603C080E1F3018787C30160E141E093
:1004800020E00E949801CF91DF911F910F91EF9092
:10049000CF90AF908F907F906F9008958F92AF9292
:1004A000CF92EF920F931F93CF93DF93DC01362F00
:1004B000542F722F102FAE2C8C2C13961C921E9240
:1004C000129788EF94E011969C938E9300D000D001
:1004D000EDB7FEB73196CDB7DEB719821182128221
:1004E0001382CD0161E0432F2FEF052FE72EC12EA0
:1004F0000E9407020F900F900F900F90DF91CF9105
:100500001F910F91EF90CF90AF908F90089584E15D
:1005100095E00E94FB0A08950F931F9304E115E0F4
:10052000C8010E947606C8010E947B061F910F91A8
:1005300008958CE496E040E052EC61E070E00E94A7
:10054000321608950895EF92FF920F931F93CF9361
:10055000DF93EC01162F072F862F972F0E94900113
:10056000EAA0FBA085E0E816F10409F41DC186E0CD
:10057000E816F104ECF482E0E816F10409F47DC019
:1005800083E0E816F1044CF4E114F10481F181E018
:10059000E816F10409F023C247C083E0E816F1042D
:1005A00009F492C084E0E816F10409F018C2C5C04D
:1005B00088E0E816F10409F47CC189E0E816F1044A
:1005C0005CF486E0E816F10409F429C187E0E81636
:1005D000F10409F004C24AC189E0E816F10409F403
:1005E000A5C18AE0E816F10409F0F9C1D4C1812F50
:1005F000902F60E040E00E946101812F902F60E029
:1006000071E00E941619812F902F60E041E00E9456
:100610006101812F902F6FE071E00E9416191DA2D9
:100620001CA21FA21EA2DBC1812F902F60E040E020
:100630000E946101812F902F64E171E00E941619E0
:10064000812F902F60E041E00E946101812F902F67
:1006500061E271E00E941619812F902F60E048A19D
:100660000E946101812F902F61E371E00E941619B1
:10067000FFA2EEA282E090E056C1812F902F60E0B1
:1006800040E00E946101812F902F63E371E00E949E
:100690001619812F902F60E041E00E946101812FA7
:1006A000902F63E471E00E941619812F902F60E073
:1006B00048A10E946101812F902F61E371E00E94A7
:1006C000161981E090E062C1812F902F60E040E038
:1006D0000E946101812F902F65E471E00E9416193C
:1006E0004A815B816C817D81812F902F22E030E0F7
:1006F0000E94B419812F902F60E041E00E946101B7
:10070000812F902F6DE471E00E9416196881798124
:10071000812F902F4AE050E00E94E418812F902F03
:1007200060E048A10E946101812F902F61E371E098
:100730000E941619FFA2EEA22BC1812F902F60E01C
:1007400040E00E946101812F902F68E571E00E94D6
:1007500016196E817F81812F902F4AE050E00E9410
:10076000E418812F902F60E041E00E946101812F09
:10077000902F6EE571E00E94161968857985812FAA
:10078000902F4AE050E00E94E418812F902F60E003
:1007900048A10E946101812F902F61E371E00E94C6
:1007A0001619FFA2EEA238C0812F902F60E040E022
:1007B0000E946101812F902F67E671E00E94161957
:1007C0006A857B85812F902F4AE050E00E94E418D3
:1007D000812F902F60E041E00E946101812F902FD6
:1007E0006FE671E00E9416196C857D85812F902F30
:1007F0004AE050E00E94E418812F902F60E048A169
:100800000E946101812F902F61E371E00E9416190F
:1008100084E090E09FA38EA386E090E084C0812FC7
:10082000902F60E040E00E946101812F902F67E7E8
:1008300071E00E941619812F902F60E041E00E9424
:100840006101812F902F63E471E00E941619812FBE
:10085000902F60E048A10E946101812F902F61E3F9
:1008600071E00E94161984E090E090C0812F902FD3
:1008700060E040E00E946101812F902F63E471E00D
:100880000E941619812F902F60E041E00E946101C3
:10089000812F902F63E471E00E941619812F902F11
:1008A00060E048A10E946101812F902F6EE771E006
:1008B00094C0812F902F60E040E00E946101812F61
:1008C000902F60E871E00E9416196E857F85812F58
:1008D000902F4AE050E00E94E418812F902F60E0B2
:1008E00041E00E946101812F902F68E871E00E9431
:1008F0001619488959896A897B89812F902F22E0AE
:1009000030E00E94B419812F902F60E048A10E942E
:100910006101812F902F61E371E00E941619FFA2FF
:10092000EEA289E090E09DA38CA359C0812F902F67
:1009300060E040E00E946101812F902F61E971E049
:100940000E9416194C895D896E897F89812F902FAD
:1009500022E030E00E94B419812F902F60E041E046
:100960000E946101812F902F67E771E00E941619A4
:10097000812F902F60E048A10E946101812F902F6C
:1009800061E371E00E94161988E090E09FA38EA3B6
:10099000FDA2ECA224C0812F902F60E040E00E94D5
:1009A0006101812F902F63E471E00E941619812F5D
:1009B000902F60E041E00E946101812F902F63E45D
:1009C00071E00E941619812F902F60E048A10E94CB
:1009D0006101812F902F61E371E00E941619DF9170
:1009E000CF911F910F91FF90EF900895EF92FF929A
:1009F0000F931F938C01F62EE72E862F972F60E121
:100A000042E020E00E94980188E061E00E94271502
:100A100088E061E00E944D158F2D9E2D0E9490016F
:100A20008F2D9E2D60E040E00E9461018F2D9E2D54
:100A300068E971E00E9416198F2D9E2D60E041E05B
:100A40000E9461018F2D9E2D6FE071E00E941619AA
:100A5000F801118210821782168280E090E0AAE7E6
:100A6000B5E482839383A483B583118610861386AD
:100A70001286158614861786168680E090E0A0E020
:100A8000B0E0808B918BA28BB38B848B958BA68BE4
:100A9000B78B108E13A212A2178E168E158E1F9171
:100AA0000F91FF90EF90089583E0653878079CF5EB
:100AB000CB018D5B9240873C910518F421E030E03A
:100AC0002CC0CB01895592408336910518F422E061
:100AD00030E023C0CB0181599140873C910518F447
:100AE00023E030E01AC0CB018D529140833691054E
:100AF00018F424E030E011C0CB0185569040873CCB
:100B0000910518F425E030E008C0643671051CF446
:100B100026E030E002C020E030E0C9010895CF9225
:100B2000DF92EF92FF920F931F93CF93DF93EC012D
:100B300081E10E940515BC01CE010E9454056C01A3
:100B40000E9441149B01AC01EC80FD800E811F814D
:100B5000DA01C9018E199F09A00BB10B81549D4088
:100B6000A340B0402CF088EE93E0A0E0B0E004C0D9
:100B700080E990EDA3E0B0E0C114D104B9F18E0D8D
:100B80009F1DA01FB11F82179307A407B50774F517
:100B900061E070E080E090E00E94671481E10E94D3
:100BA0000515BC01CE010E945405C816D906F1F402
:100BB00061E070E080E090E00E94671481E10E94B3
:100BC0000515BC01CE010E9454059C01C816D9062A
:100BD00029F48A819B8101969B838A8339832883A8
:100BE0000E9441146C837D838E839F83DF91CF911C
:100BF0001F910F91FF90EF90DF90CF9008950F938A
:100C00001F938C0181E160E00E94271581E161E082
:100C10000E944D15F801118210821F910F910895C5
:100C2000CF92EF920F93DF93CF93CDB7DEB7659757
:100C30000FB6F894DEBF0FBECDBF8CE295E063E146
:100C400070E042E150E00E94F6118CE495E00E94D1
:100C5000FF0584E595E062E043E024E005E056E02E
:100C6000E52E37E0C32E0E944E02809156059091EA
:100C700057059C838B8388EF94E09A8389838091C6
:100C800058058D83809159058E8380915A058F83F5
:100C9000DE011896EBE5F5E088E001900D928150B9
:100CA000E1F780916305888B80916405898B809141
:100CB00065058A8B809166058B8B809167058C8B8F
:100CC000809168058D8B89E695E0BE016F5F7F4F4F
:100CD0000E94F60465960FB6F894DEBF0FBECDBF36
:100CE000CF91DF910F91EF90CF9008958CE495E034
:100CF0000E948F050895DF93CF93CDB7DEB7C85A12
:100D0000D0400FB6F894DEBF0FBECDBF9C018091DE
:100D10004C0590914D058330910509F4B4C08430A1
:100D2000910544F48130910509F472C1029709F0EC
:100D300058C40CC08530910509F4FFC38530910576
:100D40000CF449C2069709F04CC428C38091890568
:100D500090918A05019709F443C081E090E0909357
:100D60008A05809389058091870590918805019671
:100D7000909388058093870580915605909157053B
:100D80009C838B8388EF94E09A83898380915805B4
:100D90008D83809159058E8380915A058F83DE0162
:100DA0001896EBE5F5E088E001900D928150E1F7AF
:100DB00080916305888B80916405898B809165059E
:100DC0008A8B809166058B8B809167058C8B8091D7
:100DD00068058D8B89E695E0BE016F5F7F4F11C17D
:100DE00020918B0530918C0580918D0590918E0519
:100DF000281739070CF007C110928A05109289054F
:100E00002F5F3F4F30938C0520938B058091870592
:100E1000909188050196909388058093870580912D
:100E2000560590915705998F888F88EF94E09F8B96
:100E30008E8B809158058A8F809159058B8F809178
:100E40005A058C8FDE015D96EBE5F5E088E00190B8
:100E50000D928150E1F7809163058DA38091640527
:100E60008EA3809165058FA38091660588A78091E8
:100E7000670589A7809168058AA789E695E0BE0184
:100E80006A5E7F4FBEC08091890590918A05892B4B
:100E900009F441C010928A05109289058091870556
:100EA000909188050197909388058093870580919C
:100EB0005605909157059EA78DA788EF94E09CA7B3
:100EC0008BA7809158058FA78091590588AB809199
:100ED0005A0589ABDE01D296EBE5F5E088E001909A
:100EE0000D928150E1F7809163058AAF809164058E
:100EF0008BAF809165058CAF809166058DAF809139
:100F000067058EAF809168058FAF89E695E0BE01D9
:100F1000655D7F4F76C020918B0530918C05809167
:100F20008F0590919005821793070CF06CC081E0BB
:100F300090E090938A05809389052150304030934A
:100F40008C0520938B0580918705909188050197EA
:100F50009093880580938705809156059091570559
:100F6000FE01EE5BFF4F9183808388EF94E0FE01EA
:100F7000E05CFF4F9183808380915805FE01EC5B1C
:100F8000FF4F808380915905FE01EB5BFF4F80830B
:100F900080915A05FE01EA5BFF4F8083DE01A95B69
:100FA000BF4FEBE5F5E088E001900D928150E1F74D
:100FB00080916305FE01E15BFF4F808380916405B2
:100FC000FE01E05BFF4F808380916505FE01EF5AD3
:100FD000FF4F808380916605FE01EE5AFF4F8083AC
:100FE00080916705FE01ED5AFF4F8083809168056F
:100FF000FE01EC5AFF4F808389E695E0BE01605CFC
:101000007F4F0E94A30210924D0510924C05E9C239
:1010100080918B0590918C058330910561F520912D
:10102000890530918A0521153105B9F460916B0568
:1010300070916C0580916D0590916E0520E030E017
:101040004AEF53E40E94DD1960936B0570936C05C1
:1010500080936D0590936E0598C02130310509F09D
:1010600076C08091690590916A05059790936A050D
:10107000809369058AC084309105E9F480918905DF
:1010800090918A05009751F480916F0590917005B9
:1010900001979093700580936F0577C0019709F0D1
:1010A00074C08091710590917205019790937205BB
:1010B000809371056AC085309105E9F480918905B6
:1010C00090918A05009751F4809173059091740571
:1010D0000197909374058093730557C0019709F0A9
:1010E00054C080917505909176050197909376058F
:1010F000809375054AC08830910549F5809189052E
:1011000090918A05009751F4809177059091780528
:101110000197909378058093770537C00197A9F5DB
:101120006091790570917A0580917B0590917C059D
:1011300020E030E040E85FE30E94DD19609379052C
:1011400070937A0580937B0590937C051EC0099768
:10115000E1F48091890590918A05892BB1F4609121
:101160007D0570917E0580917F059091800520E03E
:1011700030E040E85FE30E94DD1960937D057093E5
:101180007E0580937F059093800510924D05109207
:101190004C05FE01EB5AFF4F809156059091570583
:1011A0009383828388EF94E09183808380915805B4
:1011B000848380915905858380915A05868337966B
:1011C000ABE5B5E088E00D9001928150E1F7FE01BA
:1011D000EB5AFF4FEFC180918B0590918C058330C6
:1011E000910561F52091890530918A052115310518
:1011F000B9F460916B0570916C0580916D059091CB
:101200006E0520E030E04AEF53E40E94DE1960935F
:101210006B0570936C0580936D0590936E0598C077
:101220002130310509F076C08091690590916A05F9
:10123000059690936A05809369058AC0843091056C
:10124000E9F48091890590918A05009751F4809185
:101250006F059091700501969093700580936F05CE
:1012600077C0019709F074C0809171059091720563
:10127000019690937205809371056AC0853091053F
:10128000E9F48091890590918A05009751F4809145
:10129000730590917405019690937405809373057E
:1012A00057C0019709F054C080917505909176055B
:1012B000019690937605809375054AC08830910514
:1012C00049F58091890590918A05009751F48091A4
:1012D000770590917805019690937805809377052E
:1012E00037C00197A9F56091790570917A058091D1
:1012F0007B0590917C0520E030E040E85FE30E94B0
:10130000DE196093790570937A0580937B0590933D
:101310007C051EC00997E1F48091890590918A05AA
:10132000892BB1F460917D0570917E0580917F05D8
:101330009091800520E030E040E85FE30E94DE19F4
:1013400060937D0570937E0580937F059093800563
:1013500010924D0510924C05FE01E659FF4F809109
:101360005605909157059383828388EF94E091838B
:10137000808380915805848380915905858380916D
:101380005A0586833796ABE5B5E088E00D9001926B
:101390008150E1F7FE01E659FF4F0CC180918B05AA
:1013A00090918C058230910581F1833091052CF468
:1013B0008130910509F09BC008C08330910509F484
:1013C0006BC0099709F093C042C090939205809337
:1013D000910580918705909188059093940580935D
:1013E00093058091890590918A0590939605809345
:1013F0009505009721F0019709F079C003C083E0BB
:1014000090E01CC084E090E019C090939205809316
:10141000910580918705909188059093940580931C
:1014200093058091890590918A0590939605809304
:101430009505892B09F05BC088E090E090938C05BE
:1014400080938B0510928A051092890550C0809177
:10145000890590918A05019709F049C08DB79EB71B
:1014600048970FB6F8949EBF0FBE8DBFADB7BEB7FD
:101470001196E9E6F5E088E101900D928150E1F7DF
:10148000C9010E9447128DB79EB748960FB6F894CF
:101490009EBF0FBE8DBF2BC08CE295E06CE271E069
:1014A0000E946A0B80E090E0A0E0B0E080932C0501
:1014B00090932D05A0932E05B0932F0560916B0599
:1014C00070916C0580916D0590916E050E94AE1A29
:1014D0009B01AC018CE295E0B9010E94660B609122
:1014E000690570916A058CE295E00E94A011109246
:1014F0004D0510924C05FE01E158FF4F80915605B5
:10150000909157059383828388EF94E09183808341
:1015100080915805848380915905858380915A056F
:1015200086833796ABE5B5E088E00D900192815057
:10153000E1F7FE01E158FF4F3DC080919105909188
:10154000920590938C0580938B05809193059091E3
:1015500094059093880580938705809195059091D7
:10156000960590938A058093890510924D051092F7
:101570004C05FE01EC56FF4F8091560590915705A2
:101580009383828388EF94E09183808380915805D0
:10159000848380915905858380915A058683379687
:1015A000ABE5B5E088E00D9001928150E1F7FE01D6
:1015B000EC56FF4F80916305878780916405808B8F
:1015C00080916505818B80916605828B809167058E
:1015D000838B80916805848B89E695E0BF010E942A
:1015E000A302C855DF4F0FB6F894DEBF0FBECDBFC4
:1015F000CF91DF910895DF93CF93CDB7DEB7659795
:101600000FB6F894DEBF0FBECDBF0E94E2138DE08F
:1016100061E00E9427158DE060E00E944D1584E591
:1016200095E060E142E020E00E94980184E595E0C9
:101630000E944F0181E090E090938C0580938B0590
:10164000109288051092870589E695E00E94A20213
:1016500080915605909157059C838B8388EF94E089
:101660009A838983809158058D83809159058E8353
:1016700080915A058F83DE011896EBE5F5E088E04E
:1016800001900D928150E1F780916305888B8091E4
:101690006405898B809165058A8B809166058B8BAB
:1016A000809167058C8B809168058D8B89E695E02C
:1016B000BE016F5F7F4F0E94A30265960FB6F8943C
:1016C000DEBF0FBECDBFCF91DF910895FC01718BBE
:1016D000608B0895FC01778F668F08952F923F925B
:1016E0004F925F926F927F928F929F92AF92BF9232
:1016F000CF92DF92EF92FF920F931F93DF93CF93DE
:10170000CDB7DEB76A970FB6F894DEBF0FBECDBF78
:101710009A8F898F1A012B01DC011B968C918823EB
:1017200019F1CB01BA01A20191010E94DE192BED42
:101730003FE049E450E40E94951B2CE839EB4BE470
:101740005FE30E94951B20E030E048EC55E40E94E6
:10175000461A9B01AC01E98DFA8D628973898489EF
:1017600095890E94DD1922C0CB01BA01A201910125
:101770000E94DE192BED3FE049E450E40E94951BE6
:101780002CE839EB4BE45FE30E94951B20E030E04E
:1017900048EC55E40E94461A9B01AC01E98DFA8D94
:1017A00062897389848995890E94DE19A98DBA8D11
:1017B00052966D937D938D939C935597E98DFA8DF9
:1017C000E484F58406851785C801B70120E030E080
:1017D00040E050E00E94421A882381F0C801B7011E
:1017E00025E83CE740E55AE30E94461A0E94AE1AFB
:1017F000A98DBA8D51967C936E935097C201B10119
:1018000020E030E048EC53E40E94DD1969837A83DC
:101810008B839C83E98DFA8D6080718082809380B8
:10182000C401B30120E030E04AEF53E40E94951B6D
:101830009B01AC0169817A818B819C810E94DD19B9
:101840007B018C01C201B10120E030E040E050ECAE
:101850000E94951B9B01AC01C801B7010E94DE19D3
:101860005B016C01A60195010E94951B7B018C0117
:10187000C201B10129813A814B815C810E94DD194D
:101880009B01AC01C401B3010E94951B20E030E034
:101890004AE755EC0E94951B9B01AC01C801B701BA
:1018A0000E94DE190E94FC1B9B01AC01D7FAD09468
:1018B000D7F8D094C601B5010E94DD1920E030E0D0
:1018C0004AEF54E40E94461A5B016C0120E030E0CC
:1018D0004AEF53E40E94951B20E030E048EC53E4CB
:1018E0000E94DE197B018C01C601B50120E030E0C9
:1018F0004AE754EC0E94951B9B01AC01C801B7015B
:101900000E94DE19A60195010E94461A3B014C0176
:1019100020E030E04AEF53E40E94421A8823B4F4F6
:10192000A98DBA8D14968C91882331F08CE496E0C1
:1019300069EA71E00E94CA190F2EF0E06F2EF0E004
:101940007F2EFAEF8F2EF3E49F2EF02DE98DFA8D86
:10195000608171818281938120E030E040E050E03D
:101960000E94421A882371F4A98DBA8D50966D9108
:101970007C915197882777FD8095982F0E94E11AD6
:101980003B014C01C401B30120E030E84BEB55E4CE
:101990000E94911B1816ACF4E98DFA8D848188237E
:1019A00031F08CE496E065EC71E00E94CA190F2ECC
:1019B000F0E06F2EF0E87F2EFBEB8F2EF5E49F2EEC
:1019C000F02DC401B30120E030E04AEF53E40E945F
:1019D000DD19698B7A8B8B8B9C8B60E074E284E7DA
:1019E00099E4A40193010E94461A20E030E04AEFF6
:1019F00054E40E94DD1920E030E048E453E40E9402
:101A0000461A6D837E838F839887A98DBA8D15962C
:101A10008C9115971B966C910E944D1562E370E0B6
:101A200080E090E00E946714C201B10120E030E044
:101A300048EC53E40E94421A87FD05C080E090E024
:101A4000A8E4B3E414C0A98DBA8D14968C918823B0
:101A500031F08CE496E067EE71E00E94CA192982A9
:101A60003A824B825C8280E090E0A0E0B0E089871F
:101A70009A87AB87BC87A98DBA8D14968C918823E1
:101A800009F4B2C08CE496E064E072E00E9416199A
:101A9000E98DFA8D40815181628173818CE496E0F9
:101AA00022E030E00E94B7198CE496E060E172E039
:101AB0000E9416198CE496E0B201A10122E030E008
:101AC0000E94B7198CE496E068E172E00E94161952
:101AD0008CE496E040E050E06AEF73E422E030E00E
:101AE0000E94B4198CE496E066E272E00E94161936
:101AF0008CE496E0B401A30122E030E00E94B71923
:101B00008CE496E064E372E00E9416198CE496E09F
:101B1000B601A50122E030E00E94B7198CE496E0FE
:101B20006FE372E00E9416198CE496E0B401A30101
:101B300022E030E00E94B7198CE496E06BE472E09A
:101B40000E94161969897A898B899C89A601950159
:101B50000E94461AAB01BC018CE496E022E030E022
:101B60000E94B7198CE496E069E572E00E94CA19F8
:101B70008CE496E068E772E00E94CA198CE496E073
:101B800060E172E00E9416198CE496E049855A855E
:101B90006B857C8522E030E00E94B7198CE496E0EA
:101BA00065E872E00E9416198CE496E040E050E08F
:101BB0006AEF74E422E030E00E94B4198CE496E00D
:101BC00069E972E00E94CA198CE496E067EA72E063
:101BD0000E9416198CE496E04D815E816F817885B4
:101BE00022E030E00E94B7190E9433146D877E878F
:101BF0008F87988B0F2EF0E02F2EF0E03F2EFAEF1C
:101C00004F2EF4E45F2EF02DCC24DD246BC0A98D83
:101C1000BA8D17968C9161E00E944D15C201B101F9
:101C200020E030E040E05FE30E94951B7B018C01E7
:101C300020E030E040E050E00E94911B88234CF00F
:101C4000C801B70120E030E040E05FE30E94DE1908
:101C500008C0C801B70120E030E040E05FE30E9427
:101C6000DD190E94AE1ACB01C2970E94C014E98D03
:101C7000FA8D878160E00E944D15C801B70120E010
:101C800030E048E452E40E94DD197B018C0120E041
:101C900030E040E050E00E94911B88234CF0C801E6
:101CA000B70120E030E040E05FE30E94DE1908C0A9
:101CB000C801B70120E030E040E05FE30E94DD1999
:101CC0000E94AE1ACB010E94C014C201B1012D8145
:101CD0003E814F8158850E94DE191B012C0108941A
:101CE000C11CD11CB601882777FD8095982F0E94D2
:101CF000E11A29853A854B855C850E94421A87FD49
:101D000086CF2D8A3E8A4F8A588E0E9433149B01BB
:101D1000AC01A98DBA8D14968C91882309F45EC00C
:101D200059016A018D859E85AF85B889A81AB90ABF
:101D3000CA0ADB0A8CE496E069EB72E00E9416198D
:101D40008CE496E040E050E060E070E02AE030E0B3
:101D50000E9490188CE496E069E972E00E94CA192A
:101D60008CE496E065EC72E00E9416198CE496E033
:101D7000B601A5012AE030E00E9490188CE496E0BC
:101D80006DEC72E00E94CA198CE496E061ED72E09D
:101D90000E94161969897A898B899C8920E030E034
:101DA0004AE754E40E94951B7B018C01C601B501F2
:101DB0000E94E11A9B01AC01C801B7010E94461ABA
:101DC000AB01BC018CE496E022E030E00E94B41943
:101DD0008CE496E063EE72E00E94CA19A98DBA8D78
:101DE00014968C91882309F45AC08CE496E06EEE28
:101DF00072E00E94CA198CE496E06EE073E00E94E3
:101E0000CA198CE496E06FE173E00E9416198CE425
:101E100096E049815A816B817C8122E030E00E940A
:101E2000B7198CE496E066E272E00E9416198CE421
:101E300096E0B401A30122E030E00E94B4198CE4E2
:101E400096E068E273E00E94CA198CE496E061E3D0
:101E500073E00E9416198CE496E02D893E89EF8983
:101E6000F88DA901BF0122E030E00E94B4198CE492
:101E700096E069E972E00E94CA198CE496E06CE48D
:101E800073E00E9416198CE496E06FE573E00E94FF
:101E900016198CE496E069E972E00E94CA190E9462
:101EA00033145B016C0166247724430166C0E98D1D
:101EB000FA8D878161E00E944D15C201B10120E0D9
:101EC00030E040E05FE30E94951B7B018C0120E045
:101ED00030E040E050E00E94911B88234CF0C801A4
:101EE000B70120E030E040E05FE30E94DE1908C067
:101EF000C801B70120E030E040E05FE30E94DD1957
:101F00000E94AE1ACB01C2970E94C014A98DBA8D4F
:101F100017968C9160E00E944D15C801B70120E032
:101F200030E040E050E00E94911B88234CF0C80153
:101F3000B70120E030E040E05FE30E94DE1908C016
:101F4000C801B70120E030E040E05FE30E94DD1906
:101F50000E94AE1ACB01C2970E94C014C201B10107
:101F600020E030E040E050E00E94DE191B012C012F
:101F70000894611C711C811C911CC401B3010E9456
:101F8000E11A29813A814B815C810E94421A87FDC6
:101F90008ECF0E9433147B018C01E98DFA8D8481F0
:101FA000882309F460C08CE496E069EB72E00E943B
:101FB00016198CE496E040E050E060E070E02AE022
:101FC00030E00E9490188CE496E069E972E00E948B
:101FD000CA198CE496E065EC72E00E941619EA18C2
:101FE000FB080C091D098CE496E0B801A7012AE062
:101FF00030E00E9490188CE496E06DEC72E00E9454
:10200000CA198CE496E06EEE72E00E94CA198CE464
:1020100096E062E673E00E94CA198CE496E06FE1F4
:1020200073E00E9416198CE496E049855A856B8509
:102030007C8522E030E00E94B7198CE496E060E7EE
:1020400073E00E9416198CE496E040E050E06AEFDD
:1020500073E422E030E00E94B4198CE496E068E278
:1020600073E00E94CA190E9433144B015C01CC2416
:10207000DD2464C0A98DBA8D17968C9161E00E9411
:102080004D15C201B10120E030E040E05FE30E9465
:10209000951B7B018C0120E030E040E050E00E9485
:1020A000911B88234CF0C801B70120E030E040E0EC
:1020B0005FE30E94DE1908C0C801B70120E030E0EC
:1020C00040E05FE30E94DD190E94AE1ACB01C29787
:1020D0000E94C014E98DFA8D878160E00E944D1541
:1020E000C801B70120E030E040E050E00E94911BC1
:1020F00088234CF0C801B70120E030E040E05FE306
:102100000E94DE1908C0C801B70120E030E040E0BD
:102110005FE30E94DD190E94AE1ACB01C2970E94B4
:10212000C014C201B1012D813E814F8158850E94AA
:10213000DD191B012C010894C11CD11CB601882794
:1021400077FD8095982F0E94E11A29853A854B8565
:102150005C850E94421A87FD8DCF0E9433147B015B
:102160008C01A98DBA8D14968C91882309F458C0DE
:102170008CE496E069EB72E00E9416198CE496E01C
:1021800040E050E060E070E02AE030E00E9490180B
:102190008CE496E069E972E00E94CA198CE496E04A
:1021A0006DE773E00E9416198CE496E0B201A1017C
:1021B00022E030E00E94B7198CE496E069E972E011
:1021C0000E94CA198CE496E06CE473E00E94161930
:1021D0008CE496E04D815E816F81788522E030E06D
:1021E0000E94B4198CE496E069E972E00E94CA1971
:1021F0008CE496E065EC72E00E941619E818F90884
:102200000A091B098CE496E0B801A7012AE030E036
:102210000E9490188CE496E06DEC72E00E94CA195E
:102220006A960FB6F894DEBF0FBECDBFCF91DF9197
:102230001F910F91FF90EF90DF90CF90BF90AF90E4
:102240009F908F907F906F905F904F903F902F90D6
:102250000895EF92FF920F931F93CF93DF93EC01BA
:102260007A018B018C81882371F08CE496E06AE816
:1022700073E00E9416198CE496E0B801A70122E0F1
:1022800030E00E94B719C801B70120E030E048EC07
:1022900055E40E94951BAB01BC01CE010E946E0B60
:1022A000DF91CF911F910F91FF90EF900895EF92E2
:1022B000FF920F931F93CF93DF93EC017A018B0171
:1022C0008C81882371F08CE496E069E973E00E94C8
:1022D00016198CE496E0B801A70122E030E00E94D4
:1022E000B719C801B70120E030E040E050E00E949B
:1022F000421A29853A85882344F417FB109517F96B
:1023000010952130310521F406C02130310519F432
:1023100081E08B8701C01B86C801B7012DE431E045
:1023200040EA50E40E94461AAB01BC01CE010E9473
:102330002911DF91CF911F910F91FF90EF90089598
:10234000CF92DF92EF92FF920F931F93CF93DF9381
:10235000EC018B01CA88DB88EC88FD888C8188239E
:10236000F9F08CE496E06EEE72E00E94CA198CE4FB
:1023700096E065EA73E00E94CA198CE496E06BEB84
:1023800073E00E94CA198CE496E06BED73E00E9442
:1023900016198CE496E0B8014AE050E00E94F71864
:1023A00088E490E09C01029FC001039F900D129F62
:1023B000900D112464E670E00E947C1C882777FD54
:1023C0008095982F0E94E11AA70196010E94DD19BD
:1023D000AB01BC01CE010E945711DF91CF911F913B
:1023E0000F91FF90EF90DF90CF900895CF92DF9202
:1023F000EF92FF920F931F938C01F62ED72EE42EAF
:10240000C52E862F61E00E9427158E2D61E00E9467
:102410002715F801F582D6828FEF9FEF928781878B
:10242000E782C08681E0838720E030E040E050E032
:102430002487358746875787148280E090E0A0E99B
:10244000B2E4868B978BA08FB18F118A108A228B72
:10245000338B448B558B8DEC9CECACECBDE3828FC5
:10246000938FA48FB58F88EC90E0978F868F1F9104
:102470000F91FF90EF90DF90CF9008958BE995E05A
:1024800063E170E042E150E00E94F61108952F925E
:102490003F924F925F926F927F928F929F92AF92F4
:1024A000BF92CF92DF92EF92FF920F931F93DF9331
:1024B000CF93CDB7DEB74C01DC01FE01759688E104
:1024C00001900D928150E1F7F40164897589868944
:1024D000978920893189428953890E94461A2B01A4
:1024E0003C01F40166857785882777FD8095982FD4
:1024F0000E94E11A9B01AC01C301B2010E94461A7D
:102500007B018C0120E030E040E050E40E94DE19C5
:1025100060939B0570939C0580939D0590939E0509
:102520008CE496E067EE73E00E94CA198CE496E0B2
:1025300067E174E00E941619F401668577858CE4E2
:1025400096E04AE050E00E94F7188CE496E063E3DE
:1025500074E00E941619F4014089518962897389D7
:102560008CE496E022E030E00E94B7198CE496E01B
:1025700060E574E00E941619F40144895589668962
:1025800077898CE496E022E030E00E94B7198CE471
:1025900096E06CE674E00E9416198CE496E0B301B4
:1025A000A20122E030E00E94B7198CE496E06DE7CA
:1025B00074E00E9416198CE496E0B801A70122E0AD
:1025C00030E00E94B71980E161E00E944D1564EF90
:1025D00071E080E090E00E9467148FE061E00E946B
:1025E0004D1564EF71E080E090E00E9467148FE089
:1025F00060E00E944D1580E160E00E944D15EE24E0
:10260000FF248701AA24BB246501222433245CC053
:102610000E943314AC01CB01DA017C018D018BE9FE
:1026200095E0B301A2010E9457110E943314AC013E
:10263000CB01DA015C016D01F401868597859C016F
:1026400048EE53E0249FC001259F900D349F900DCC
:1026500011249C01442737FD4095542FD601C50114
:102660008E199F09A00BB10B82179307A407B5071A
:1026700064F42E0D3F1D401F511F2A193B094C09C0
:102680005D09CA01B9010E94671480E161E00E94FE
:102690004D1564EF71E080E090E00E9467148FE0D8
:1026A00061E00E944D1564EF71E080E090E00E94CF
:1026B00067148FE060E00E944D1580E160E00E94A9
:1026C0004D150894211C311CB101882777FD809598
:1026D000982F0E94E11AF401208931894289538997
:1026E0000E94421A87FD94CF8CE496E069E874E07A
:1026F0000E94CA198CE496E061EB74E00E941619FE
:102700008CE496E0B801A7012AE030E00E94D018DE
:102710008CE496E06DEB74E00E9416198CE496E070
:10272000B601A5012AE030E00E94D0188CE496E0C2
:102730006AEC74E00E941619B601A5014E195F09F2
:10274000600B710B8CE496E02AE030E00E94D01818
:102750008CE496E063EE74E00E941619F40126857D
:10276000378588EE93E0AC01249FC001259F900D32
:10277000349F900D1124AA2797FDA095BA2FE80E3B
:10278000F91E0A1F1B1FEA18FB080C091D098CE41F
:1027900096E0B801A7012AE030E00E94D018CF915E
:1027A000DF911F910F91FF90EF90DF90CF90BF903E
:1027B000AF909F908F907F906F905F904F903F90E1
:1027C0002F9008958FE061E00E94271580E161E07D
:1027D0000E94271508951F920F920FB60F92112491
:1027E0002F933F938F939F93AF93BF938091BF0598
:1027F0009091C005A091C105B091C2053091C3056B
:102800000196A11DB11D232F2D5F2D3720F02D57CF
:102810000196A11DB11D2093C3058093BF05909320
:10282000C005A093C105B093C2058091BB059091EE
:10283000BC05A091BD05B091BE050196A11DB11DBD
:102840008093BB059093BC05A093BD05B093BE05D6
:10285000BF91AF919F918F913F912F910F900FBE9C
:102860000F901F9018958FB7F8942091BF05309165
:10287000C0054091C1055091C2058FBFB901CA0181
:1028800008959FB7F8942091BB053091BC05409105
:10289000BD055091BE0586B5A89B06C08F3F21F0AF
:1028A0002F5F3F4F4F4F5F4F9FBF542F432F322F0C
:1028B0002227280F311D411D511D82E0220F331F99
:1028C000441F551F8A95D1F7B901CA0108959B018C
:1028D000AC017FB7F8948091BB059091BC05A091A5
:1028E000BD05B091BE0566B5A89B05C06F3F19F048
:1028F0000196A11DB11D7FBFBA2FA92F982F882740
:10290000860F911DA11DB11D62E0880F991FAA1F9E
:10291000BB1F6A95D1F7BC012DC0FFB7F894809119
:10292000BB059091BC05A091BD05B091BE05E6B573
:10293000A89B05C0EF3F19F00196A11DB11DFFBF77
:10294000BA2FA92F982F88278E0F911DA11DB11D79
:10295000E2E0880F991FAA1FBB1FEA95D1F7861BDB
:10296000970B885E9340C8F2215030404040504061
:1029700068517C4F211531054105510571F60895C7
:10298000019739F0880F991F880F991F02970197B7
:10299000F1F70895789484B5826084BD84B5816030
:1029A00084BD85B5826085BD85B5816085BDEEE657
:1029B000F0E0808181608083E1E8F0E01082808136
:1029C00082608083808181608083E0E8F0E08081A4
:1029D00081608083E1EBF0E0808184608083E0EBC4
:1029E000F0E0808181608083EAE7F0E080818460AC
:1029F0008083808182608083808181608083808108
:102A0000806880831092C1000895982F8E3008F05E
:102A10009E5097708091F3048295880F880F807C78
:102A2000892B80937C0080917A00806480937A0067
:102A300080917A0086FDFCCF20917800409179004A
:102A4000942F80E030E0282B392BC9010895482FBE
:102A500050E0CA0186569F4FFC0124914A575F4FB0
:102A6000FA0184918823C1F0E82FF0E0EE0FFF1FF8
:102A7000E859FF4FA591B491662341F49FB7F894AC
:102A80008C91209582238C939FBF08959FB7F894D3
:102A90008C91822B8C939FBF0895482F50E0CA01E0
:102AA00082559F4FFC012491CA0186569F4FFC011D
:102AB00094914A575F4FFA013491332309F440C08F
:102AC000222351F1233071F0243028F42130A1F079
:102AD000223011F514C02630B1F02730C1F0243077
:102AE000D9F404C0809180008F7703C0809180006A
:102AF0008F7D8093800010C084B58F7702C084B52D
:102B00008F7D84BD09C08091B0008F7703C0809114
:102B1000B0008F7D8093B000E32FF0E0EE0FFF1F39
:102B2000EE58FF4FA591B4912FB7F894662321F486
:102B30008C919095892302C08C91892B8C932FBF07
:102B4000089508951F920F920FB60F9211242F939C
:102B50003F934F938F939F93EF93FF934091C600C2
:102B600020910406309105062F5F3F4F2F73307080
:102B700080910606909107062817390759F0E091D1
:102B80000406F0910506EC53FA4F40833093050696
:102B900020930406FF91EF919F918F914F913F9168
:102BA0002F910F900FBE0F901F901895E09158062F
:102BB000F0915906E05CFF4F819191912081318124
:102BC000821B930B8F739070892B11F00E94A115BB
:102BD00008951F920F920FB60F9211242F933F93D7
:102BE0004F935F936F937F938F939F93AF93BF9315
:102BF000EF93FF93209148063091490680914A0651
:102C000090914B062817390731F48091C1008F7DD0
:102C10008093C10016C0E0914A06F0914B06E85F30
:102C2000F94F408180914A0690914B06019660E4ED
:102C300070E00E947C1C90934B0680934A06409360
:102C4000C600FF91EF91BF91AF919F918F917F91BE
:102C50006F915F914F913F912F910F900FBE0F9009
:102C60001F901895AF92BF92DF92EF92FF920F9351
:102C70001F93CF93DF93EC017A018B01DD24403069
:102C800081EE580780E0680780E0780711F0DD24C6
:102C9000D39491E0A92EB12CEC89FD89DD2069F057
:102CA000C5010E8C02C0880F991F0A94E2F7808339
:102CB00060E079E08DE390E005C0108260E874E8A0
:102CC0008EE190E0A80197010E948F1C21503040B6
:102CD00040405040569547953795279580E12030E4
:102CE000380720F0DD2011F0DD24D6CFE889F989FE
:102CF0003083EA89FB892083EE89FF89408121E0C6
:102D000030E0C9010A8C02C0880F991F0A94E2F7CB
:102D1000482B4083EE89FF894081C9010B8C02C09A
:102D2000880F991F0A94E2F7482B4083EE89FF89A8
:102D30004081C9010C8C02C0880F991F0A94E2F7E8
:102D4000482B4083EE89FF8980810D8C02C0220FC1
:102D5000331F0A94E2F7209528232083DF91CF9137
:102D60001F910F91FF90EF90DF90BF90AF9008956B
:102D7000DC011C96ED91FC911D97E05CFF4F2191C9
:102D8000319180819181281B390B2F733070C901DB
:102D90000895DC011C96ED91FC911D97E05CFF4FBE
:102DA00020813181E054F040DF01AE5BBF4F8D9157
:102DB0009C9111972817390719F42FEF3FEF07C09F
:102DC0008D919C91E80FF91F8081282F30E0C90177
:102DD0000895DC011C96ED91FC911D97E05CFF4F7E
:102DE00020813181E054F040DF01AE5BBF4F8D9117
:102DF0009C9111972817390719F42FEF3FEF10C056
:102E00008D919C911197E80FF91F20818D919C91D4
:102E1000119701968F73907011969C938E9330E06A
:102E2000C9010895FC0186859785DC01A05CBF4F30
:102E3000FC01EE5BFF4F2D913C91119780819181B8
:102E400028173907C1F70895CF93DF93EC01462F78
:102E5000EE85FF85E05CFF4F80819181E054F0407A
:102E6000019660E470E00E947C1C9C01DF01AE5B77
:102E7000BF4F8D919C91119728173907D1F3E05CD2
:102E8000FF4F80819181E054F040E80FF91F4083AB
:102E9000EE85FF85E05CFF4F31832083EE89FF895B
:102EA000208181E090E00D8C02C0880F991F0A9468
:102EB000E2F7282B208381E090E0DF91CF91089505
:102EC00010924F0610924E0688EE93E0A0E0B0E01C
:102ED0008093500690935106A0935206B0935306E8
:102EE00088E095E090934D0680934C0684EC95E045
:102EF000909359068093580688E096E090935B067D
:102F000080935A0685EC90E090935D0680935C0672
:102F100084EC90E090935F0680935E0680EC90E0F6
:102F2000909361068093600681EC90E09093630635
:102F30008093620686EC90E0909365068093640629
:102F400084E08093660683E08093670687E0809341
:102F5000680685E08093690681E080936A0608959B
:102F6000CF93DF930E94CA140E949902C6EDD5E167
:102F70000E948C022097E1F30E94D615F9CFCF92E0
:102F8000DF92EF92FF920F931F93CF93DF937C0119
:102F90006B018A01C0E0D0E00FC0D6016D916D01D8
:102FA000D701ED91FC910190F081E02DC7010995C9
:102FB000C80FD91F015010400115110571F7CE013E
:102FC000DF91CF911F910F91FF90EF90DF90CF9005
:102FD0000895EF92FF920F931F938C01DC01ED9106
:102FE000FC910190F081E02D6DE009957C01D80104
:102FF000ED91FC910190F081E02DC8016AE0099506
:103000009C012E0D3F1DC9011F910F91FF90EF9064
:103010000895CF93DF93DB010D900020E9F711971E
:10302000A61BB70BEC01E881F9810280F381E02D4A
:10303000AD010995DF91CF9108954F925F927F92F4
:103040008F929F92AF92BF92CF92DF92EF92FF92B8
:103050000F931F93DF93CF93CDB7DEB7A1970FB632
:10306000F894DEBF0FBECDBF2C01742ECB012230F1
:1030700008F42AE019A231E2C32ED12CCC0EDD1EB9
:10308000822E9924AA24BB24672D752FA5019401B3
:103090000E948F1C79018A01C801B701A501940122
:1030A0000E945D1C472D461B0894C108D1084A3078
:1030B00014F4405D01C0495CF6014083E114F10461
:1030C0000105110521F07E2C5F2DC801DDCFC20165
:1030D000B6010E940918A1960FB6F894DEBF0FBE84
:1030E000CDBFCF91DF911F910F91FF90EF90DF90B7
:1030F000CF90BF90AF909F908F907F905F904F90B8
:103100000895DC012115310541F4ED91FC91019008
:10311000F081E02D642F099508950E941D180895EF
:10312000CF92DF92EF92FF920F931F93CF93DF9393
:10313000EC016A017B012115310541F4E881F98137
:103140000190F081E02D642F09951FC02A303105D0
:10315000D1F477FF17C0E881F9810190F081E02D6B
:103160006DE209958C0144275527BA014C195D0978
:103170006E097F09CE012AE00E941D189801280FD0
:10318000391F04C02AE00E941D189C01C901DF916B
:10319000CF911F910F91FF90EF90DF90CF90089506
:1031A000EF92FF920F931F937C010E9490188C0165
:1031B000C7010E94E9179C01200F311FC9011F910F
:1031C0000F91FF90EF900895EF92FF920F931F934E
:1031D0007B019A010027F7FC0095102FB801A70189
:1031E0000E9490181F910F91FF90EF900895CF9239
:1031F000DF92EF92FF920F931F936C017B019A0174
:103200000027F7FC0095102FB801A7010E94901825
:103210008C01C6010E94E917080F191FC8011F91F0
:103220000F91FF90EF90DF90CF9008950E940918C2
:1032300008957F928F929F92AF92BF92CF92DF922A
:10324000EF92FF920F931F93CF93DF934C017A017C
:103250008B01722ECB01BA0120E030E040E050E05B
:103260000E94421A87FD03C0C0E0D0E00EC0D40126
:10327000ED91FC910190F081E02DC4016DE2099582
:10328000EC0117FB109517F9109520E030E040E0B5
:103290005FE3AA240BC0CA01B90120E030E040E29C
:1032A00051E40E94461A9B01AC01A394A71498F321
:1032B000C801B7010E94DE195B016C010E94B31ABC
:1032C0007B018C01C401B801A7012AE030E00E9413
:1032D0008118C80FD91F772039F0C40161EF74E05D
:1032E0000E940918C80FD91FC801B7010E94DF1A30
:1032F0009B01AC01C601B5010E94DD1924C020E08C
:1033000030E040E251E40E94951B7B018C010E9459
:10331000AE1A5B016C01CC24B7FCC094DC2CC40158
:10332000B601A5012AE030E00E949018C80FD91F0D
:10333000C601B5010E94E11A9B01AC01C801B701A9
:103340000E94DD197A947720D1F6CE01DF91CF91DA
:103350001F910F91FF90EF90DF90CF90BF90AF90B3
:103360009F908F907F9008950E9419190895EF9271
:10337000FF920F931F937C010E9419198C01C701C2
:103380000E94E917080F191FC8011F910F91FF90A4
:10339000EF900895EF92FF920F931F937C010E948C
:1033A00009188C01C7010E94E917080F191FC801ED
:1033B0001F910F91FF90EF9008955058BB27AA27B7
:1033C0000ED075C166D130F06BD120F031F49F3F43
:1033D00011F41EF45BC10EF4E095E7FB51C1E92F37
:1033E00077D180F3BA17620773078407950718F03F
:1033F00071F49EF58FC10EF4E0950B2EBA2FA02D1F
:103400000B01B90190010C01CA01A0011124FF2791
:10341000591B99F0593F50F4503E68F11A16F0408C
:10342000A22F232F342F4427585FF3CF469537958B
:103430002795A795F0405395C9F77EF41F16BA0B50
:10344000620B730B840BBAF09150A1F0FF0FBB1FFE
:10345000661F771F881FC2F70EC0BA0F621F731F47
:10346000841F48F4879577956795B795F7959E3FA4
:1034700008F0B3CF9395880F08F09927EE0F979532
:1034800087950895D9D008F481E008950CD00FC134
:1034900007D140F0FED030F021F45F3F19F0F0C0CA
:1034A000511139C1F3C014D198F39923C9F35523AD
:1034B000B1F3951B550BBB27AA2762177307840727
:1034C00038F09F5F5F4F220F331F441FAA1FA9F3DD
:1034D00033D00E2E3AF0E0E830D091505040E695CF
:1034E000001CCAF729D0FE2F27D0660F771F881F30
:1034F000BB1F261737074807AB07B0E809F0BB0B1F
:10350000802DBF01FF2793585F4F2AF09E3F510542
:1035100068F0B6C000C15F3FECF3983EDCF38695DF
:1035200077956795B795F7959F5FC9F7880F911DB8
:103530009695879597F90895E1E0660F771F881FA4
:10354000BB1F621773078407BA0720F0621B730B57
:10355000840BBA0BEE1F88F7E095089504D06894A9
:10356000B111D9C00895BCD088F09F5790F0B92F01
:103570009927B751A0F0D1F0660F771F881F991FC8
:103580001AF0BA95C9F712C0B13081F0C3D0B1E0DA
:103590000895C0C0672F782F8827B85F39F0B93FEA
:1035A000CCF3869577956795B395D9F73EF49095CA
:1035B0008095709561957F4F8F4F9F4F0895E89448
:1035C00009C097FB3EF490958095709561957F4F6B
:1035D0008F4F9F4F9923A9F0F92F96E9BB27939519
:1035E000F695879577956795B795F111F8CFFAF429
:1035F000BB0F11F460FF1BC06F5F7F4F8F4F9F4F5A
:1036000016C0882311F096E911C0772321F09EE8B7
:10361000872F762F05C0662371F096E8862F70E01D
:1036200060E02AF09A95660F771F881FDAF7880FF7
:103630009695879597F90895990F0008550FAA0B4D
:10364000E0E8FEEF16161706E807F907C0F01216B5
:103650001306E407F50798F0621B730B840B950BB8
:1036600039F40A2661F0232B242B252B21F408950D
:103670000A2609F4A140A6958FEF811D811D0895AA
:1036800097F99F6780E870E060E008959FEF80EC15
:10369000089500240A9416161706180609060895B8
:1036A00000240A9412161306140605060895092E1E
:1036B0000394000C11F4882352F0BB0F40F4BF2B8D
:1036C00011F460FF04C06F5F7F4F8F4F9F4F0895CD
:1036D00057FD9058440F551F59F05F3F71F04795C3
:1036E000880F97FB991F61F09F3F79F087950895A8
:1036F000121613061406551FF2CF4695F1DF08C0C7
:10370000161617061806991FF1CF869571056105E3
:1037100008940895E894BB2766277727CB0197F98B
:1037200008958ADF08F48FEF08950BD0C0CFB1DF82
:1037300028F0B6DF18F0952309F0A2CFA7CF112407
:10374000EACFC6DFA0F3959FD1F3950F50E0551F48
:10375000629FF001729FBB27F00DB11D639FAA27E6
:10376000F00DB11DAA1F649F6627B00DA11D661F35
:10377000829F2227B00DA11D621F739FB00DA11D56
:10378000621F839FA00D611D221F749F3327A00D10
:10379000611D231F849F600D211D822F762F6A2FAC
:1037A00011249F5750408AF0E1F088234AF0EE0F31
:1037B000FF1FBB1F661F771F881F91505040A9F73E
:1037C0009E3F510570F05CCFA6CF5F3FECF3983E73
:1037D000DCF3869577956795B795F795E7959F5FA5
:1037E000C1F7FE2B880F911D9695879597F908953F
:1037F00011F40EF44BCF4AC073DFD0F39923D9F301
:10380000CEF39F57550B87FF51D056959795B0E053
:1038100020F4660F771F881FBB1F1F930F93002490
:103820009001A0018001F001A0E80E0F1F1F0A1EE9
:10383000511D601B710B8009B50B48F4600F711F9F
:10384000801DB51F0E1B1F0B0A0A510907C02E0F42
:103850003F1F4A1F0E0F1F1F0A1E511D660F771FA5
:10386000881FBB1FA695F795E795F8F6061717076B
:1038700008065B07211D311D411D0F911F91B901E4
:10388000842F9158880F9695879508959F3F49F00A
:10389000915028F4869577956795B7959F5F803806
:1038A0009F4F880F9695879597F9089591505040AE
:1038B000660F771F881FD2F70895629FD001739F0C
:1038C000F001829FE00DF11D649FE00DF11D929FBC
:1038D000F00D839FF00D749FF00D659FF00D9927FB
:1038E000729FB00DE11DF91F639FB00DE11DF91F1F
:1038F000BD01CF011124089597FB092E07260AD098
:1039000077FD04D02ED006D000201AF47095619572
:103910007F4F0895F6F7909581959F4F0895A1E206
:103920001A2EAA1BBB1BFD010DC0AA1FBB1FEE1F39
:10393000FF1FA217B307E407F50720F0A21BB30B84
:10394000E40BF50B661F771F881F991F1A9469F700
:1039500060957095809590959B01AC01BD01CF015C
:103960000895AA1BBB1B51E107C0AA1FBB1FA617C6
:10397000B70710F0A61BB70B881F991F5A95A9F718
:1039800080959095BC01CD010895EE0FFF1F059025
:0A399000F491E02D0994F894FFCFA4
:10399A004D6F746F72697A6564205261696C007642
:1039AA00302E31002053696D706C65204D6F76653D
:1039BA000020536D6172742053657175656E63657D
:1039CA00003E002042617369632053657175656E1C
:1039DA0063650020002053706565643A0020506FCB
:1039EA00736974696F6E3A00204650533A00204F4B
:1039FA0075747075743A00204576656E743A0020C5
:103A0A0052616E67653A00205374617274002D002A
:103A1A002044656C61793A00204672616D65733A9B
:103A2A0000204D6F76653A004D6F746F72697A6542
:103A3A00642043616D657261004E4F2041434345E6
:103A4A004C45524154494F4E2C20544F20534C4F11
:103A5A00572121210043414E204E4F54204D4545C8
:103A6A005420444541444C494E452C20544F20464D
:103A7A00415354212121004E4F20414343454C4597
:103A8A00524154494F4E2C20544F2053484F5254C0
:103A9A00212121006D6F7665546F74616C3A2000A4
:103AAA0073746570733A2000537461727420737072
:103ABA006565643A20002046756C6C2073706565F4
:103ACA00643A200074696D6552616D703A2000662F
:103ADA00756C6C53706565643A2000416363656C6C
:103AEA0053686F756C643A20002A2A2A2A2A2A2ADD
:103AFA002A2A2A2A2A2A2A2A2A2A2A2A2A2A2A2A1C
:103B0A002A2A2A2A2A2A2A002F2F52616D70696EC0
:103B1A006720757000537461727420737465702025
:103B2A00706572696F643A2000206D6963726F7301
:103B3A0065636F6E64730064656C617920696E6396
:103B4A0072656D656E743A2000537465702054690D
:103B5A006D653A20002054696D653A2000206D7326
:103B6A000020416363656C65726174696F6E4973A5
:103B7A003A20002073746570732F735E3200202D13
:103B8A002D2D2D2D2D2D2D2D2D2D2D2D2D2D2D2D5B
:103B9A002D2D2D2D2D2D2D2D2D2D2D2D2D002D2D78
:103BAA00436F6E7374616E74207370656564002070
:103BBA0073746570733A20002073746570732F7381
:103BCA000020436F6E7374616E742064656C617952
:103BDA002070657220737465703A20002064656CE9
:103BEA00617920696E6372656D656E743A20002092
:103BFA0030005C52616D70696E6720646F776E0089
:103C0A0020456E642073706565643A200020456E15
:103C1A00642064656C61793A2000207265766F6C65
:103C2A007574696F6E733A20002064697374616EEB
:103C3A0063653A20004162736F6C75746520506544
:103C4A007263656E74204D6F766500202A2A2A2ACF
:103C5A002A2A2A2A2A2A2A2A2A2A2A2A2A2A2A2ABA
:103C6A002A2A2A2A2A2A2A2A2A2A0009097065724D
:103C7A0063656E743A20002D2D2D2D2D2D2D535454
:103C8A00415254494E472053494D504C45204D4FBF
:103C9A0056452C20706172616D65746572733A2D98
:103CAA002D2D2D2D2D2D00706172616D657465723B
:103CBA00732E62617369634D6F766544656C6179D1
:103CCA003A2000706172616D65746572732E62616B
:103CDA007369634D6F76654672616D65733A20004C
:103CEA00706172616D65746572732E626173696366
:103CFA004D6F766552616E67653A2000696E74652C
:103D0A007276616C4C656E6768743A20006C696EF5
:103D1A006553706565643A20002D2D2D2D2D2D2DAE
:103D2A00454E442053494D504C45204D4F56452C45
:103D3A002073756D6D6172793A2D2D2D2D2D2D2DD6
:103D4A000074696D6553746172743A200074696D08
:103D5A006546696E6973683A200074696D654669DB
:103D6A006E697368202D2074696D6553746172746D
:103D7A003A200045787472612064656C61793A2052
:103D8A00002E0001000000004501BF17000040009E
:103D9A0014005400000000002417BF17B816E916D3
:043DAA00C91612170D
:00000001FF
