:100000000C9464000C948C000C948C000C948C0068
:100010000C948C000C948C000C948C000C948C0030
:100020000C948C000C948C000C948C000C948C0020
:100030000C948C000C948C000C948C000C948C0010
:100040000C9453150C948C000C940A170C945117B3
:100050000C948C000C948C000C948C000C948C00F0
:100060000C948C000C948C000000000024002700ED
:100070002A0000000000250028002B0000000000DE
:1000800023002600290004040404040404040202DA
:100090000202020203030303030301020408102007
:1000A0004080010204081020010204081020000012
:1000B0000007000201000003040600000000000029
:1000C000000086022E06C81811241FBECFEFD8E00C
:1000D000DEBFCDBF15E0A0E0B1E0EAE6FCE302C080
:1000E00005900D92A831B107D9F716E0A8E1B5E067
:1000F00001C01D92A735B107E1F710E0C8ECD0E0D0
:1001000004C02297FE010E942F1EC23CD107C9F7EE
:100110000E9418190C94331E0C9400000F931F9327
:100120008C01FC01868160E00E94B51681E090E0C0
:100130000E942816F801868161E00E94B51681E0D0
:1001400090E00E942816F801868160E00E94B516B2
:1001500084E690E00E9428161F910F910895CF9297
:10016000DF92EF92FF920F931F93CF93DF93D82EDE
:10017000C92E282F392FC9018C01C0E0D0E0E62E0E
:10018000FF24F801878161E00E948F16B7010C2ED1
:1001900002C0759567950A94E2F76170F80187814E
:1001A0000E94B51621960F5F1F4FC830D10549F741
:1001B0008D2D9C2D0E948E00DF91CF911F910F916C
:1001C000FF90EF90DF90CF900895CF92DF92EF9263
:1001D000FF920F931F93CF93DF93D82EC92E282F12
:1001E000392FC9018C01C0E0D0E0E62EFF24F801D0
:1001F000878161E00E948F16B7010C2E02C07595B1
:1002000067950A94E2F76170F80187810E94B5163C
:1002100021960F5F1F4FC430D10549F78D2D9C2DBE
:100220000E948E00DF91CF911F910F91FF90EF9070
:10023000DF90CF9008951F93CF93DF93EC01162F9B
:100240008C81642F0E94B5168D818F3F19F060E07C
:100250000E94B5168F8584FF05C0CE01612F0E94D4
:10026000AF000EC0612F70E084E0759567958A95A8
:10027000E1F7CE010E94E500CE01612F0E94E5006A
:10028000DF91CF911F91089541E00E941B0181E011
:1002900090E0089540E00E941B010895FC016089F0
:1002A0006D7F608B68600E944A010895FC0160893F
:1002B000862F8460808B6C60CF010E944A01089574
:1002C000DF93CF93CDB7DEB728970FB6F894DEBF94
:1002D0000FBECDBF9C01FE013196A0E0B5E088E0E5
:1002E0000D9001928150E1F7F9018389481710F0D0
:1002F000482F4150E42FF0E0EE0FFF1FEC0FFD1FE1
:100300008181680F6068C9010E944A0128960FB672
:10031000F894DEBF0FBECDBFCF91DF91089561E0AD
:100320000E944A0180ED97E00E9428160895CF931D
:10033000DF93EC01423018F08F8588608F874B8BFC
:100340001C8A222329F0413019F48F8584608F871D
:1003500080E593EC0E9428168C8160E00E94B5161F
:100360008E8160E00E94B5168D818F3F19F060E0AC
:100370000E94B5166F8564FD1DC0CE0163E00E942A
:10038000E50084E991E10E942816CE0163E00E9415
:10039000E50084E991E10E942816CE0163E00E9405
:1003A000E50086E990E00E942816CE0162E00E94F6
:1003B000E50016C06062CE010E944A0184E991E125
:1003C0000E9428166F856062CE010E944A0186E96C
:1003D00090E00E9428166F856062CE010E944A015B
:1003E0006F856062CE010E944A0184E0888BCE0155
:1003F0000E945601CE010E948F0182E0898BCE01BE
:1004000066E00E944A01DF91CF9108956F927F923A
:100410008F92AF92CF92EF920F931F93DF93CF9370
:10042000CDB7DEB73C01162F842FF301448325831B
:100430000683E782C086A18682869D8593879E85F6
:1004400094879F8595879889968761E00E948F168B
:10045000F30185818F3F19F061E00E948F16F3014F
:10046000868161E00E948F16112319F0F30117862F
:1004700003C080E1F3018787C30160E141E020E030
:100480000E949701CF91DF911F910F91EF90CF9034
:10049000AF908F907F906F9008958F92AF92CF9290
:1004A000EF920F931F93CF93DF93DC01362F542FDE
:1004B000722F102FAE2C8C2C13961C921E9212971A
:1004C0008CEF94E011969C938E9300D000D0EDB702
:1004D000FEB73196CDB7DEB7198211821282138230
:1004E000CD0161E0432F2FEF052FE72EC12E0E9493
:1004F00006020F900F900F900F90DF91CF911F91F8
:100500000F91EF90CF90AF908F90089588E195E094
:100510000E94820B08950F931F9308E115E0C80114
:100520000E949406C8010E9499061F910F91089598
:1005300088E396E040E052EC61E070E00E949A1798
:1005400008950895EF92FF920F931F93CF93DF9337
:10055000EC01162F072F862F972F0E948F01ECA0FA
:10056000FDA085E0E816F10409F41DC186E0E81657
:10057000F104ECF482E0E816F10409F47DC083E0B4
:10058000E816F1044CF4E114F10481F181E0E8167D
:10059000F10409F025C247C083E0E816F10409F42C
:1005A00092C084E0E816F10409F01AC2C5C088E0E0
:1005B000E816F10409F47CC189E0E816F1045CF462
:1005C00086E0E816F10409F429C187E0E816F10491
:1005D00009F006C24AC189E0E816F10409F4A7C18E
:1005E0008AE0E816F10409F0FBC1D6C1812F902FF3
:1005F00060E040E00E946001812F902F60E071E098
:100600000E947E1A812F902F60E041E00E946001DD
:10061000812F902F6FE071E00E947E1A1FA21EA210
:1006200019A618A6DDC1812F902F60E040E00E943E
:100630006001812F902F64E171E00E947E1A812F6A
:10064000902F60E041E00E946001812F902F61E2D5
:1006500071E00E947E1A812F902F60E04AA10E94D3
:100660006001812F902F61E371E00E947E1AF9A64C
:10067000E8A682E090E058C1812F902F60E040E032
:100680000E946001812F902F63E371E00E947E1A27
:10069000812F902F60E041E00E946001812F902F18
:1006A00063E471E00E947E1A812F902F60E04AA1DE
:1006B0000E946001812F902F61E371E00E947E1AF9
:1006C00081E090E064C1812F902F60E040E00E94C3
:1006D0006001812F902F65E471E00E947E1A4A81AB
:1006E0005B816C817D81812F902F22E030E00E9420
:1006F0001C1B812F902F60E041E00E946001812F40
:10070000902F6DE471E00E947E1A68817981812FBB
:10071000902F4AE050E00E944C1A812F902F60E009
:100720004AA10E946001812F902F61E371E00E9435
:100730007E1AF9A6E8A62DC1812F902F60E040E037
:100740000E946001812F902F68E571E00E947E1A5F
:100750006E817F81812F902F4AE050E00E944C1AD9
:10076000812F902F60E041E00E946001812F902F47
:100770006EE571E00E947E1A68857985812F902F41
:100780004AE050E00E944C1A812F902F60E04AA16D
:100790000E946001812F902F61E371E00E947E1A18
:1007A000F9A6E8A638C0812F902F60E040E00E94B3
:1007B0006001812F902F67E671E00E947E1A6A85A2
:1007C0007B85812F902F4AE050E00E944C1A812FA8
:1007D000902F60E041E00E946001812F902F6FE632
:1007E00071E00E947E1A6C857D85812F902F4AE0F2
:1007F00050E00E944C1A812F902F60E04AA10E9485
:100800006001812F902F61E371E00E947E1A84E0E5
:1008100090E099A788A786E090E086C0812F902F6E
:1008200060E040E00E946001812F902F67E771E057
:100830000E947E1A812F902F60E041E00E946001AB
:10084000812F902F63E471E00E947E1A812F902FF8
:1008500060E04AA10E946001812F902F61E371E066
:100860000E947E1A84E090E092C0812F902F60E079
:1008700040E00E946001812F902F63E471E00E94AC
:100880007E1A812F902F60E041E00E946001812F4D
:10089000902F63E471E00E947E1A812F902F60E018
:1008A0004AA10E946001812F902F6EE771E096C0EF
:1008B000812F902F60E040E00E946001812F902FF7
:1008C00060E871E00E947E1A4E855F8568897989AB
:1008D000812F902F22E030E00E941C1B812F902F4F
:1008E00060E041E00E946001812F902F68E871E094
:1008F0000E947E1A4A895B896C897D89812F902F9D
:1009000022E030E00E941C1B812F902F60E04AA162
:100910000E946001812F902F61E371E00E947E1A96
:10092000F9A6E8A689E090E09FA38EA359C0812F85
:10093000902F60E040E00E946001812F902F61E9DC
:1009400071E00E947E1A4E895F89688D798D812FB2
:10095000902F22E030E00E941C1B812F902F60E03E
:1009600041E00E946001812F902F67E771E00E94B3
:100970007E1A812F902F60E04AA10E946001812F92
:10098000902F61E371E00E947E1A88E090E099A7C1
:1009900088A7FFA2EEA224C0812F902F60E040E044
:1009A0000E946001812F902F63E471E00E947E1A03
:1009B000812F902F60E041E00E946001812F902FF5
:1009C00063E471E00E947E1A812F902F60E04AA1BB
:1009D0000E946001812F902F61E371E00E947E1AD6
:1009E000DF91CF911F910F91FF90EF900895EF92BB
:1009F000FF920F931F938C01F62EE72E862F972FD1
:100A000060E142E020E00E94970188E061E00E94FE
:100A10008F1688E061E00E94B5168F2D9E2D0E94F2
:100A20008F018F2D9E2D60E040E00E9460018F2D90
:100A30009E2D68E971E00E947E1A8F2D9E2D60E048
:100A400041E00E9460018F2D9E2D6FE071E00E94B9
:100A50007E1AF801118210821782168280E090E0DF
:100A6000AAE7B5E482839383A483B58311861086B5
:100A7000138612861586148680E090E0A0E0B0E030
:100A800086879787A08BB18B828B938BA48BB58B3A
:100A9000868B978BA08FB18F128E15A214A211A2F4
:100AA00010A2178E1F910F91FF90EF90089583E091
:100AB000653878079CF5CB018D5B9240873C9105AA
:100AC00018F421E030E02CC0CB01895592408336E8
:100AD000910518F422E030E023C0CB018159914008
:100AE000873C910518F423E030E01AC0CB018D5209
:100AF00091408336910518F424E030E011C0CB0119
:100B000085569040873C910518F425E030E008C0F8
:100B1000643671051CF426E030E002C020E030E0CD
:100B2000C9010895CF92DF92EF92FF920F931F9326
:100B3000CF93DF93EC0181E10E946D16BC01CE01E1
:100B40000E9457056C010E94A9159B01AC018C8184
:100B50009D81069744F060E8E62E68E3F62E61E09A
:100B6000062F112D07C090E4E92E9DE0F92E93E0A9
:100B7000092F112D8A859B85AC85BD858058954EA2
:100B8000A94FBF4F82179307A407B5074CF41D82E6
:100B90001C8280E4E82E8DE0F82E83E0082F112DD2
:100BA000C114D10409F440C08A859B85AC85BD85FC
:100BB000E80EF91E0A1F1B1FE216F30604071507AD
:100BC0009CF58C819D8101969D838C8361E070E012
:100BD00080E090E00E94CF1581E10E946D16BC017B
:100BE000CE010E945705C816D906F1F461E070E005
:100BF00080E090E00E94CF1581E10E946D16BC015B
:100C0000CE010E9457059C01C816D90629F48A8195
:100C10009B8101969B838A83398328830E94A9152F
:100C20006A877B878C879D87DF91CF911F910F917A
:100C3000FF90EF90DF90CF9008950F931F938C015A
:100C400081E160E00E948F1681E161E00E94B516AB
:100C5000F801118210821F910F910895CF92EF92A7
:100C60000F93DF93CF93CDB7DEB765970FB6F894A8
:100C7000DEBF0FBECDBF80E395E063E170E042E1EF
:100C800050E00E94B41280E595E00E941D068EE5BA
:100C900095E062E043E024E005E056E0E52E37E031
:100CA000C32E0E944D0280916005909161059C8346
:100CB0008B838CEF94E09A838983809162058D8386
:100CC000809163058E83809164058F83DE01189681
:100CD000E5E6F5E088E001900D928150E1F7809122
:100CE0006D05888B80916E05898B80916F058A8B4D
:100CF000809170058B8B809171058C8B8091720532
:100D00008D8B83E795E0BE016F5F7F4F0E94F704F4
:100D100065960FB6F894DEBF0FBECDBFCF91DF91C1
:100D20000F91EF90CF90089580E595E00E94920595
:100D30000895DF93CF93CDB7DEB7C85CD0400FB630
:100D4000F894DEBF0FBECDBFBC01809150059091DD
:100D500051058330910509F4B4C08430910544F401
:100D60008130910509F472C1029709F0C1C40CC029
:100D70008530910509F468C4853091050CF456C29C
:100D8000069709F0B5C442C38091950590919605E8
:100D9000019709F443C081E090E090939605809319
:100DA00095058091930590919405019690939405F3
:100DB0008093930580916005909161059C838B835E
:100DC0008CEF94E09A838983809162058D83809172
:100DD00063058E83809164058F83DE011896E5E6B6
:100DE000F5E088E001900D928150E1F780916D056A
:100DF000888B80916E05898B80916F058A8B80919D
:100E000070058B8B809171058C8B809172058D8B19
:100E100083E795E0BE016F5F7F4F11C12091970579
:100E2000309198058091990590919A052817390776
:100E30000CF007C110929605109295052F5F3F4F59
:100E40003093980520939705809193059091940590
:100E500001969093940580939305809160059091FD
:100E60006105998F888F8CEF94E09F8B8E8B80919A
:100E700062058A8F809163058B8F809164058C8FCA
:100E8000DE015D96E5E6F5E088E001900D92815087
:100E9000E1F780916D058DA380916E058EA3809101
:100EA0006F058FA38091700588A78091710589A730
:100EB000809172058AA783E795E0BE016A5E7F4F45
:100EC000BEC08091950590919605892B09F441C08B
:100ED0001092960510929505809193059091940536
:100EE000019790939405809393058091600590916C
:100EF00061059EA78DA78CEF94E09CA78BA780919E
:100F000062058FA78091630588AB8091640589ABEA
:100F1000DE01D296E5E6F5E088E001900D92815081
:100F2000E1F780916D058AAF80916E058BAF80915E
:100F30006F058CAF809170058DAF809171058EAF7C
:100F4000809172058FAF83E795E0BE01655D7F4FAD
:100F500076C0209197053091980580919B059091DE
:100F60009C05821793070CF06CC081E090E0909391
:100F70009605809395052150304030939805209335
:100F8000970580919305909194050197909394050E
:100F9000809393058091600590916105FE01EE5B61
:100FA000FF4F918380838CEF94E0FE01E05CFF4F64
:100FB0009183808380916205FE01EC5BFF4F80830B
:100FC00080916305FE01EB5BFF4F80838091640598
:100FD000FE01EA5BFF4F8083DE01A95BBF4FE5E6C0
:100FE000F5E088E001900D928150E1F780916D0568
:100FF000FE01E15BFF4F808380916E05FE01E05BA7
:10100000FF4F808380916F05FE01EF5AFF4F808371
:1010100080917005FE01EE5AFF4F8083809171052B
:10102000FE01ED5AFF4F808380917205FE01EC5A5C
:10103000FF4F808383E795E0BE01605C7F4F0E9495
:10104000A202109251051092500552C3809197054B
:10105000909198058330910561F520919505309127
:10106000960521153105B9F46091750570917605E5
:10107000809177059091780520E030E04AEF53E4C5
:101080000E94451B609375057093760580937705E4
:1010900090937805A5C02130310509F083C0809177
:1010A000730590917405059790937405809373056B
:1010B00097C084309105E9F480919505909196054B
:1010C000009751F48091790590917A05019790935A
:1010D0007A058093790584C0019709F081C08091D9
:1010E0007B0590917C05019790937C0580937B050F
:1010F00077C085309105E9F480919505909196052A
:10110000009751F480917D0590917E050197909311
:101110007E0580937D0564C0019709F061C08091D0
:101120007F059091800501979093800580937F05BE
:1011300057C088309105B1F580919505909196053D
:101140000097B9F4609181057091820580918305C3
:101150009091840520E030E040E85FE30E94451B69
:101160006093810570938205809383059093840535
:1011700037C00197A9F5609185057091860580912A
:1011800087059091880520E030E040E85FE30E9409
:10119000451B609385057093860580938705909322
:1011A00088051EC00997E1F48091950590919605F8
:1011B000892BB1F46091890570918A0580918B0526
:1011C00090918C0520E030E040E85FE30E94451BF1
:1011D0006093890570938A0580938B0590938C05A5
:1011E0001092510510925005FE01EB5AFF4F80916D
:1011F000600590916105938382838CEF94E09183E5
:1012000080838091620584838091630585838091CA
:10121000640586833796A5E6B5E088E00D900192D7
:101220008150E1F7FE01EB5AFF4F4BC280919705C9
:10123000909198058330910561F520919505309145
:10124000960521153105B9F4609175057091760503
:10125000809177059091780520E030E04AEF53E4E3
:101260000E94461B60937505709376058093770501
:1012700090937805A5C02130310509F083C0809195
:10128000730590917405059690937405809373058A
:1012900097C084309105E9F4809195059091960569
:1012A000009751F48091790590917A050196909379
:1012B0007A058093790584C0019709F081C08091F7
:1012C0007B0590917C05019690937C0580937B052E
:1012D00077C085309105E9F4809195059091960548
:1012E000009751F480917D0590917E050196909331
:1012F0007E0580937D0564C0019709F061C08091EF
:101300007F059091800501969093800580937F05DD
:1013100057C088309105B1F580919505909196055B
:101320000097B9F4609181057091820580918305E1
:101330009091840520E030E040E85FE30E94461B86
:101340006093810570938205809383059093840553
:1013500037C00197A9F56091850570918605809148
:1013600087059091880520E030E040E85FE30E9427
:10137000461B60938505709386058093870590933F
:1013800088051EC00997E1F4809195059091960516
:10139000892BB1F46091890570918A0580918B0544
:1013A00090918C0520E030E040E85FE30E94461B0E
:1013B0006093890570938A0580938B0590938C05C3
:1013C0001092510510925005FE01E659FF4F809191
:1013D000600590916105938382838CEF94E0918303
:1013E00080838091620584838091630585838091E9
:1013F000640586833796A5E6B5E088E00D900192F6
:101400008150E1F7FE01E659FF4F5BC180919705DE
:10141000909198058330910509F4C5C084309105F9
:1014200044F48130910569F08230910509F0E6C0FD
:1014300028C08630910509F446C0099709F0DEC03E
:1014400076C090939E0580939D0580919305909121
:1014500094059093A00580939F05809195059091A8
:1014600096059093A2058093A105009721F001971E
:1014700009F0C4C003C083E090E01CC084E090E0A9
:1014800019C090939E0580939D058091930590913E
:1014900094059093A00580939F0580919505909168
:1014A00096059093A2058093A105892B09F0A6C00B
:1014B00088E090E0909398058093970510929605A8
:1014C000109295059BC08091950590919605892B6A
:1014D00009F094C08DB79EB7CA970FB6F8949EBF17
:1014E0000FBE8DBF2DB73EB72F5F3F4FD901E3E74A
:1014F000F5E08AE101900D928150E1F7D9015A9609
:10150000E0E3F5E080E201900D928150E1F7CE0139
:1015100087559F4F0E949B14A0E3B5E0FE01E7555D
:10152000FF4F80E201900D928150E1F733C080912E
:10153000950590919605019709F060C08DB79EB70B
:10154000CA970FB6F8949EBF0FBE8DBF2DB73EB79A
:101550002F5F3F4FD901E3E7F5E08AE101900D925B
:101560008150E1F7D9015A96E0E3F5E080E201907D
:101570000D928150E1F7CE0187559F4F0E94FC12DA
:10158000A0E3B5E0FE01E755FF4F80E201900D9228
:101590008150E1F78DB79EB7CA960FB6F8949EBFFB
:1015A0000FBE8DBF2BC080E395E06CE271E00E941E
:1015B000F10B80E090E0A0E0B0E0809330059093E4
:1015C0003105A0933205B093330560917505709194
:1015D000760580917705909178050E94161C9B01F5
:1015E000AC0180E395E0B9010E94ED0B60917305B9
:1015F0007091740580E395E00E945E12109251058F
:1016000010925005FE01E158FF4F809160059091C6
:101610006105938382838CEF94E091838083809132
:101620006205848380916305858380916405868348
:101630003796A5E6B5E088E00D9001928150E1F77C
:10164000FE01E158FF4F3DC080919D0590919E05A0
:10165000909398058093970580919F059091A005A0
:1016600090939405809393058091A1059091A20594
:101670009093960580939505109251051092500510
:10168000FE01EC56FF4F80916005909161059383B8
:1016900082838CEF94E091838083809162058483C0
:1016A0008091630585838091640586833796A5E6DE
:1016B000B5E088E00D9001928150E1F7FE01EC5613
:1016C000FF4F80916D05878780916E05808B80919B
:1016D0006F05818B80917005828B80917105838B62
:1016E00080917205848B83E795E0BF010E94A2027E
:1016F000C853DF4F0FB6F894DEBF0FBECDBFCF91FA
:10170000DF910895DF93CF93CDB7DEB765970FB61E
:10171000F894DEBF0FBECDBF0E944A158DE061E098
:101720000E948F168DE060E00E94B5168EE595E070
:1017300060E142E020E00E9497018EE595E00E9482
:101740004E0181E090E09093980580939705109268
:1017500094051092930583E795E00E94A102809181
:101760006005909161059C838B838CEF94E09A8354
:101770008983809162058D83809163058E8380913A
:1017800064058F83DE011896E5E6F5E088E00190B8
:101790000D928150E1F780916D05888B80916E05E7
:1017A000898B80916F058A8B809170058B8B8091DE
:1017B00071058C8B809172058D8B83E795E0BE015E
:1017C0006F5F7F4F0E94A20265960FB6F894DEBF4E
:1017D0000FBECDBFCF91DF910895FC01718B608B5F
:1017E0000895FC01778F668F08952F923F924F9254
:1017F0005F926F927F928F929F92AF92BF92CF92A1
:10180000DF92EF92FF920F931F93DF93CF93CDB7A9
:10181000DEB76A970FB6F894DEBF0FBECDBF9A8FC2
:10182000898F1A012B01DC0114968C91882391F089
:1018300088E396E069EA71E00E947E1AE98DFA8DEC
:10184000428953896489758988E396E022E030E013
:101850000E941F1BA98DBA8D1B968C91882319F1AC
:10186000C201B101A20191010E94461B2BED3FE094
:1018700049E450E40E94FD1C2CE839EB4BE45FE3A3
:101880000E94FD1C20E030E048EC55E40E94AE1BB5
:101890009B01AC01E98DFA8D6289738984899589F0
:1018A0000E94451B22C0C201B101A20191010E9408
:1018B000461B2BED3FE049E450E40E94FD1C2CE860
:1018C00039EB4BE45FE30E94FD1C20E030E048EC84
:1018D00055E40E94AE1B9B01AC01E98DFA8D628933
:1018E0007389848995890E94461BA98DBA8D529669
:1018F0006D937D938D939C935597E98DFA8D84819B
:101900008823D1F088E396E061EC71E00E947E1AB2
:10191000A98DBA8D52964D915D916D917C9155979F
:1019200088E396E022E030E00E941F1B88E396E007
:1019300067ED71E00E94321BE98DFA8DE484F58435
:1019400006851785C801B70120E030E040E050E08F
:101950000E94AA1B882381F0C801B70125E83CE753
:1019600040E55AE30E94AE1B0E94161CA98DBA8D59
:1019700051967C936E935097C201B10120E030E004
:1019800048EC53E40E94451B69837A838B839C83D4
:10199000E98DFA8D6080718082809380C401B301EB
:1019A00020E030E04AEF53E40E94FD1C9B01AC01B3
:1019B00069817A818B819C810E94451B7B018C010E
:1019C000C201B10120E030E040E050EC0E94FD1C7B
:1019D0009B01AC01C801B7010E94461B5B016C0171
:1019E000A60195010E94FD1C7B018C01C201B10181
:1019F00029813A814B815C810E94451B9B01AC018E
:101A0000C401B3010E94FD1C20E030E04AE755EC20
:101A10000E94FD1C9B01AC01C801B7010E94461B3E
:101A20000E94641D9B01AC01D7FAD094D7F8D094E2
:101A3000C601B5010E94451B20E030E04AEF54E4A6
:101A40000E94AE1B5B016C0120E030E04AEF53E4E2
:101A50000E94FD1C20E030E048EC53E40E94461B4D
:101A60007B018C01C601B50120E030E04AE754EC6F
:101A70000E94FD1C9B01AC01C801B7010E94461BDE
:101A8000A60195010E94AE1B3B014C0120E030E015
:101A90004AEF53E40E94AA1B8823B4F4A98DBA8D9F
:101AA00014968C91882331F088E396E066EF71E01C
:101AB0000E94321B0F2EF0E06F2EF0E07F2EFAEF27
:101AC0008F2EF3E49F2EF02DE98DFA8D60817181C8
:101AD0008281938120E030E040E050E00E94AA1B28
:101AE000882371F4A98DBA8D50966D917C91519790
:101AF000882777FD8095982F0E94491C3B014C0157
:101B0000C401B30120E030E84BEB55E40E94F91C1E
:101B10001816ACF4E98DFA8D8481882331F088E3BE
:101B200096E062E172E00E94321B0F2EF0E06F2E11
:101B3000F0E87F2EFBEB8F2EF5E49F2EF02DC401F5
:101B4000B30120E030E04AEF53E40E94451B698B6B
:101B50007A8B8B8B9C8B60E074E284E799E4A40120
:101B600093010E94AE1B20E030E04AEF54E40E9453
:101B7000451B20E030E048E453E40E94AE1B6D8337
:101B80007E838F839887A98DBA8D15968C91159732
:101B90001B966C910E94B51662E370E080E090E0C5
:101BA0000E94CF15C201B10120E030E048EC53E4BF
:101BB0000E94AA1B87FD05C080E090E0A8E4B3E482
:101BC00014C0A98DBA8D14968C91882331F088E3C6
:101BD00096E064E372E00E94321B29823A824B82D3
:101BE0005C8280E090E0A0E0B0E089879A87AB87D4
:101BF000BC87A98DBA8D14968C91882309F4B2C044
:101C000088E396E061E572E00E947E1AE98DFA8D24
:101C1000408151816281738188E396E022E030E067
:101C20000E941F1B88E396E06DE572E00E947E1A19
:101C300088E396E0B201A10122E030E00E941F1B80
:101C400088E396E065E672E00E947E1A88E396E0FB
:101C500040E050E06AEF73E422E030E00E941C1B99
:101C600088E396E063E772E00E947E1A88E396E0DC
:101C7000B401A30122E030E00E941F1B88E396E03C
:101C800061E872E00E947E1A88E396E0B601A50141
:101C900022E030E00E941F1B88E396E06CE872E0CF
:101CA0000E947E1A88E396E0B401A30122E030E0AE
:101CB0000E941F1B88E396E068E972E00E947E1A8A
:101CC00069897A898B899C89A60195010E94AE1B3E
:101CD000AB01BC0188E396E022E030E00E941F1BCC
:101CE00088E396E067ED71E00E94321B88E396E09E
:101CF00066EA72E00E94321B88E396E06DE572E0CE
:101D00000E947E1A88E396E049855A856B857C851A
:101D100022E030E00E941F1B88E396E063EB72E054
:101D20000E947E1A88E396E040E050E06AEF74E497
:101D300022E030E00E941C1B88E396E067EC72E032
:101D40000E94321B88E396E065ED72E00E947E1AE5
:101D500088E396E04D815E816F81788522E030E0F6
:101D60000E941F1B0E949B156D877E878F87988B13
:101D70000F2EF0E02F2EF0E03F2EFAEF4F2EF4E47E
:101D80005F2EF02DCC24DD246BC0A98DBA8D179663
:101D90008C9161E00E94B516C201B10120E030E0F3
:101DA00040E05FE30E94FD1C7B018C0120E030E0FD
:101DB00040E050E00E94F91C88234CF0C801B701B4
:101DC00020E030E040E05FE30E94461B08C0C8010D
:101DD000B70120E030E040E05FE30E94451B0E9435
:101DE000161CCB01C2970E942816E98DFA8D8781B7
:101DF00060E00E94B516C801B70120E030E048E479
:101E000052E40E94451B7B018C0120E030E040E061
:101E100050E00E94F91C88234CF0C801B70120E073
:101E200030E040E05FE30E94461B08C0C801B701F4
:101E300020E030E040E05FE30E94451B0E94161C5A
:101E4000CB010E942816C201B1012D813E814F8134
:101E500058850E94461B1B012C010894C11CD11CF3
:101E6000B601882777FD8095982F0E94491C298507
:101E70003A854B855C850E94AA1B87FD86CF2D8AFB
:101E80003E8A4F8A588E0E949B159B01AC01A98DFA
:101E9000BA8D14968C91882309F45EC059016A01A9
:101EA0008D859E85AF85B889A81AB90ACA0ADB0A4A
:101EB00088E396E067EE72E00E947E1A88E396E07F
:101EC00040E050E060E070E02AE030E00E94F81965
:101ED00088E396E067EC72E00E94321B88E396E0AC
:101EE00063EF72E00E947E1A88E396E0B601A501D6
:101EF0002AE030E00E94F81988E396E06BEF72E088
:101F00000E94321B88E396E06FEF72E00E947E1A17
:101F100069897A898B899C8920E030E04AE754E41A
:101F20000E94FD1C7B018C01C601B5010E94491C69
:101F30009B01AC01C801B7010E94AE1BAB01BC0103
:101F400088E396E022E030E00E941C1B88E396E0E4
:101F500061E173E00E94321BA98DBA8D14968C91B9
:101F6000882309F45AC088E396E06CE173E00E948C
:101F7000321B88E396E06CE373E00E94321B88E337
:101F800096E06DE473E00E947E1A88E396E0498152
:101F90005A816B817C8122E030E00E941F1B88E324
:101FA00096E063E772E00E947E1A88E396E0B4014F
:101FB000A30122E030E00E941C1B88E396E066E566
:101FC00073E00E94321B88E396E06FE573E00E94A5
:101FD0007E1A88E396E02D893E89EF89F88DA90164
:101FE000BF0122E030E00E941C1B88E396E067EC12
:101FF00072E00E94321B88E396E06AE773E00E9479
:102000007E1A88E396E06DE873E00E947E1A88E30A
:1020100096E067EC72E00E94321B0E949B155B0108
:102020006C0166247724430166C0E98DFA8D8781AF
:1020300061E00E94B516C201B10120E030E040E04D
:102040005FE30E94FD1C7B018C0120E030E040E05A
:1020500050E00E94F91C88234CF0C801B70120E031
:1020600030E040E05FE30E94461B08C0C801B701B2
:1020700020E030E040E05FE30E94451B0E94161C18
:10208000CB01C2970E942816A98DBA8D17968C9104
:1020900060E00E94B516C801B70120E030E040E0E2
:1020A00050E00E94F91C88234CF0C801B70120E0E1
:1020B00030E040E05FE30E94461B08C0C801B70162
:1020C00020E030E040E05FE30E94451B0E94161CC8
:1020D000CB01C2970E942816C201B10120E030E076
:1020E00040E050E00E94461B1B012C010894611C3B
:1020F000711C811C911CC401B3010E94491C2981DF
:102100003A814B815C810E94AA1B87FD8ECF0E9481
:102110009B157B018C01E98DFA8D8481882309F45C
:1021200060C088E396E067EE72E00E947E1A88E362
:1021300096E040E050E060E070E02AE030E00E948D
:10214000F81988E396E067EC72E00E94321B88E39E
:1021500096E063EF72E00E947E1AEA18FB080C0911
:102160001D0988E396E0B801A7012AE030E00E944B
:10217000F81988E396E06BEF72E00E94321B88E367
:1021800096E06CE173E00E94321B88E396E060E920
:1021900073E00E94321B88E396E06DE473E00E94D6
:1021A0007E1A88E396E049855A856B857C8522E016
:1021B00030E00E941F1B88E396E06EE973E00E9406
:1021C0007E1A88E396E040E050E06AEF73E422E094
:1021D00030E00E941C1B88E396E066E573E00E94F5
:1021E000321B0E949B154B015C01CC24DD2464C092
:1021F000A98DBA8D17968C9161E00E94B516C20127
:10220000B10120E030E040E05FE30E94FD1C7B0173
:102210008C0120E030E040E050E00E94F91C88236F
:102220004CF0C801B70120E030E040E05FE30E94DD
:10223000461B08C0C801B70120E030E040E05FE382
:102240000E94451B0E94161CCB01C2970E942816B3
:10225000E98DFA8D878160E00E94B516C801B7014B
:1022600020E030E040E050E00E94F91C88234CF070
:10227000C801B70120E030E040E05FE30E94461B68
:1022800008C0C801B70120E030E040E05FE30E94F1
:10229000451B0E94161CCB01C2970E942816C20142
:1022A000B1012D813E814F8158850E94451B1B0144
:1022B0002C010894C11CD11CB601882777FD80959C
:1022C000982F0E94491C29853A854B855C850E9480
:1022D000AA1B87FD8DCF0E949B157B018C01A98DC8
:1022E000BA8D14968C91882309F458C088E396E03F
:1022F00067EE72E00E947E1A88E396E040E050E0CC
:1023000060E070E02AE030E00E94F81988E396E08F
:1023100067EC72E00E94321B88E396E06BEA73E0A0
:102320000E947E1A88E396E0B201A10122E030E02B
:102330000E941F1B88E396E067EC72E00E94321B4C
:1023400088E396E06AE773E00E947E1A88E396E0ED
:102350004D815E816F81788522E030E00E941C1BF8
:1023600088E396E067EC72E00E94321B88E396E017
:1023700063EF72E00E947E1AE818F9080A091B0947
:1023800088E396E0B801A7012AE030E00E94F8193E
:1023900088E396E06BEF72E00E94321B6A960FB6FC
:1023A000F894DEBF0FBECDBFCF91DF911F910F918B
:1023B000FF90EF90DF90CF90BF90AF909F908F9065
:1023C0007F906F905F904F903F902F900895EF9285
:1023D000FF920F931F93CF93DF93EC017A018B0150
:1023E0008C81882371F088E396E068EB73E00E94AB
:1023F0007E1A88E396E0B801A70122E030E00E944F
:102400001F1BC801B70120E030E048EC55E40E94F2
:10241000FD1CAB01BC01CE010E94F50BDF91CF91F9
:102420001F910F91FF90EF900895EF92FF920F93FD
:102430001F93CF93DF93EC017A018B018C8188236A
:1024400071F088E396E067EC73E00E947E1A88E3FF
:1024500096E0B801A70122E030E00E941F1BC801EE
:10246000B70120E030E040E050E00E94AA1B29853F
:102470003A85882344F417FB109517F910952130FD
:10248000310521F406C02130310519F481E08B8734
:1024900001C01B86C801B7012DE431E040EA50E4D9
:1024A0000E94AE1BAB01BC01CE010E94E711DF917F
:1024B000CF911F910F91FF90EF900895CF92DF92EF
:1024C000EF92FF920F931F93CF93DF93EC018B0159
:1024D000CA88DB88EC88FD888C818823F9F088E342
:1024E00096E06CE173E00E94321B88E396E063EDB6
:1024F00073E00E94321B88E396E069EE73E00E946D
:10250000321B88E396E069E074E00E947E1A88E35B
:1025100096E0B8014AE050E00E945F1A88E490E03B
:102520009C01029FC001039F900D129F900D1124EA
:1025300064E670E00E94E41D882777FD8095982F5F
:102540000E94491CA70196010E94451BAB01BC01DA
:10255000CE010E941512DF91CF911F910F91FF9034
:10256000EF90DF90CF900895CF92DF92EF92FF929D
:102570000F931F938C01F62ED72EE42EC52E862F97
:1025800061E00E948F168E2D61E00E948F16F80187
:10259000F582D6828FEF9FEF92878187E782C08690
:1025A00081E0838720E030E040E050E024873587F9
:1025B00046875787848380E090E0A0E9B2E4868B69
:1025C000978BA08FB18F118A108A228B338B448B0B
:1025D000558B8DEC9CECACECBDE3828F938FA48F7C
:1025E000B58F88EC90E0978F868F1F910F91FF90A9
:1025F000EF90DF90CF9008952F923F924F925F928D
:102600006F927F928F929F92AF92BF92CF92DF9202
:10261000EF92FF920F931F93DF93CF9300D000D0E0
:1026200000D0CDB7DEB78D839E832B01DB01FE0189
:102630007B968AE101900D928150E1F7F201668963
:102640007789808D918D22893389448955890E94AB
:10265000AE1B69837A838B839C83F201E684F784C3
:1026600000891189C801B70120E030E040E85FE34C
:102670000E94451B20E030E040E050E00E94F91C41
:1026800018166CF4C801B70120E030E040EC5FE3BD
:102690000E94451B6DAB7EAB8FAB98AF04C0EDAA1B
:1026A000FEAA0FAB18AF88E396E065E174E00E94E4
:1026B000321B88E396E065E474E00E947E1AF20122
:1026C000468557856089718988E396E022E030E08D
:1026D0000E941F1B88E396E061E674E00E947E1A68
:1026E000F201428953896489758988E396E022E082
:1026F00030E00E941F1B88E396E06EE774E00E94C2
:102700007E1AF20146895789608D718D88E396E0C3
:1027100022E030E00E941F1B88E396E06AE974E043
:102720000E947E1A88E396E029813A81EB81FC8140
:10273000A901BF0122E030E00E941F1B88E396E060
:102740006BEA74E00E947E1A4DA95EA96FA978AD6C
:1027500088E396E022E030E00E941F1B80E161E008
:102760000E94B51660E971E080E090E00E94CF150C
:102770008FE061E00E94B51660E971E080E090E0D2
:102780000E94CF158FE060E00E94B51680E160E006
:102790000E94B5162224332498C00E949B157B0109
:1027A0008C01CE01C59629813A81EB81FC81A9017A
:1027B000BF010E94151280E161E00E94B51660E938
:1027C00071E080E090E00E94CF158FE061E00E9410
:1027D000B51660E971E080E090E00E94CF158FE0CF
:1027E00060E00E94B51680E160E00E94B5160E948C
:1027F0009B155B016C01AE18BF08C00AD10AC60167
:10280000B5010E94491C3B014C01F20166857785A8
:102810008089918920E030E04AE754E40E94FD1C61
:102820007B018C01C401B301A80197010E94AA1B7E
:10283000882354F4C801B701A40193010E94451BE9
:102840000E941B1C0E94CF1588E396E066EB74E0A3
:102850000E94321B88E396E062ED74E00E947E1ACB
:1028600088E396E0B1014AE050E00E945F1A88E3F5
:1028700096E06CED74E00E947E1A88E396E0B60163
:10288000A5012AE030E00E94381A88E396E067EE5E
:1028900074E00E947E1AF2016685778580899189AD
:1028A00020E030E04AE754E40E94FD1CA4019301BB
:1028B0000E94451BAB01BC0188E396E022E030E0BA
:1028C0000E941F1B0894211C311CB101882777FD31
:1028D0008095982F0E94491CF201228933894489EE
:1028E00055890E94AA1B87FD58CF8D819E819C012E
:1028F000D901FE01F59680E201900D928150E1F739
:102900008D819E8126960FB6F894DEBF0FBECDBF97
:10291000CF91DF911F910F91FF90EF90DF90CF90BB
:10292000BF90AF909F908F907F906F905F904F90EF
:102930003F902F9008952F923F924F925F926F9207
:102940007F928F929F92AF92BF92CF92DF92EF923F
:10295000FF920F931F93DF93CF9300D000D000D04E
:10296000CDB7DEB78D839E837C836B8389A09AA0CD
:102970006BA07CA04DA05EA02FA038A48B8D9C8D59
:102980009A838983689CB001699C700D789C700D56
:102990001124882777FD8095982F0E94491C7B0180
:1029A0008C016DA77EA78FA798ABB201882777FD12
:1029B0008095982F0E94491C9B01AC01C801B7016A
:1029C0000E94AE1B9B01AC0160E070E080E89FE3D9
:1029D0000E94AE1B69A77AA78BA79CA7B101882785
:1029E00077FD8095982F0E94491C69AB7AAB8BAB21
:1029F0009CAB8DB79EB7CA970FB6F8949EBF0FBE1B
:102A00008DBF2DB73EB72F5F3F4FD901FE017B969B
:102A10008AE101900D928150E1F7D9015A96FE01A9
:102A2000F59680E201900D928150E1F7CE01C596B6
:102A30006B817C810E94FC128D819E819C01D90159
:102A4000FE01F59680E201900D928150E1F78DB77D
:102A50009EB7CA960FB6F8949EBF0FBE8DBF8D81EC
:102A60009E8126960FB6F894DEBF0FBECDBFCF91E4
:102A7000DF911F910F91FF90EF90DF90CF90BF906B
:102A8000AF909F908F907F906F905F904F903F900E
:102A90002F9008958FE061E00E948F1680E161E041
:102AA0000E948F1608951F920F920FB60F92112455
:102AB0002F933F938F939F93AF93BF938091AB05D9
:102AC0009091AC05A091AD05B091AE053091AF05E8
:102AD0000196A11DB11D232F2D5F2D3720F02D57FD
:102AE0000196A11DB11D2093AF058093AB05909376
:102AF000AC05A093AD05B093AE058091A70590916C
:102B0000A805A091A905B091AA050196A11DB11D26
:102B10008093A7059093A805A093A905B093AA0553
:102B2000BF91AF919F918F913F912F910F900FBEC9
:102B30000F901F9018958FB7F8942091AB053091A6
:102B4000AC054091AD055091AE058FBFB901CA01EA
:102B500008959FB7F8942091A7053091A80540915A
:102B6000A9055091AA0586B5A89B06C08F3F21F004
:102B70002F5F3F4F4F4F5F4F9FBF542F432F322F39
:102B80002227280F311D411D511D82E0220F331FC6
:102B9000441F551F8A95D1F7B901CA0108959B01B9
:102BA000AC017FB7F8948091A7059091A805A091FA
:102BB000A905B091AA0566B5A89B05C06F3F19F09D
:102BC0000196A11DB11D7FBFBA2FA92F982F88276D
:102BD000860F911DA11DB11D62E0880F991FAA1FCC
:102BE000BB1F6A95D1F7BC012DC0FFB7F894809147
:102BF000A7059091A805A091A905B091AA05E6B5F1
:102C0000A89B05C0EF3F19F00196A11DB11DFFBFA4
:102C1000BA2FA92F982F88278E0F911DA11DB11DA6
:102C2000E2E0880F991FAA1FBB1FEA95D1F7861B08
:102C3000970B885E9340C8F221503040404050408E
:102C400068517C4F211531054105510571F60895F4
:102C5000019739F0880F991F880F991F02970197E4
:102C6000F1F70895789484B5826084BD84B581605D
:102C700084BD85B5826085BD85B5816085BDEEE684
:102C8000F0E0808181608083E1E8F0E01082808163
:102C900082608083808181608083E0E8F0E08081D1
:102CA00081608083E1EBF0E0808184608083E0EBF1
:102CB000F0E0808181608083EAE7F0E080818460D9
:102CC0008083808182608083808181608083808135
:102CD000806880831092C1000895982F8E3008F08C
:102CE0009E5097708091F7048295880F880F807CA2
:102CF000892B80937C0080917A00806480937A0095
:102D000080917A0086FDFCCF209178004091790077
:102D1000942F80E030E0282B392BC9010895482FEB
:102D200050E0CA0186569F4FFC0124914A575F4FDD
:102D3000FA0184918823C1F0E82FF0E0EE0FFF1F25
:102D4000E859FF4FA591B491662341F49FB7F894D9
:102D50008C91209582238C939FBF08959FB7F89400
:102D60008C91822B8C939FBF0895482F50E0CA010D
:102D700082559F4FFC012491CA0186569F4FFC014A
:102D800094914A575F4FFA013491332309F440C0BC
:102D9000222351F1233071F0243028F42130A1F0A6
:102DA000223011F514C02630B1F02730C1F02430A4
:102DB000D9F404C0809180008F7703C08091800097
:102DC0008F7D8093800010C084B58F7702C084B55A
:102DD0008F7D84BD09C08091B0008F7703C0809142
:102DE000B0008F7D8093B000E32FF0E0EE0FFF1F67
:102DF000EE58FF4FA591B4912FB7F894662321F4B4
:102E00008C919095892302C08C91892B8C932FBF34
:102E1000089508951F920F920FB60F9211242F93C9
:102E20003F934F938F939F93EF93FF934091C600EF
:102E30002091F0053091F1052F5F3F4F2F733070D7
:102E40008091F2059091F3052817390759F0E09128
:102E5000F005F091F105E055FA4F40833093F1050C
:102E60002093F005FF91EF919F918F914F913F91AA
:102E70002F910F900FBE0F901F901895E091440670
:102E8000F0914506E05CFF4F819191912081318165
:102E9000821B930B8F739070892B11F00E9409177E
:102EA00008951F920F920FB60F9211242F933F9304
:102EB0004F935F936F937F938F939F93AF93BF9342
:102EC000EF93FF93209134063091350680913606BA
:102ED000909137062817390731F48091C1008F7D12
:102EE0008093C10016C0E0913606F0913706EC5091
:102EF000FA4F40818091360690913706019660E442
:102F000070E00E94E41D909337068093360640934C
:102F1000C600FF91EF91BF91AF919F918F917F91EB
:102F20006F915F914F913F912F910F900FBE0F9036
:102F30001F901895AF92BF92DF92EF92FF920F937E
:102F40001F93CF93DF93EC017A018B01DD24403096
:102F500081EE580780E0680780E0780711F0DD24F3
:102F6000D39491E0A92EB12CEC89FD89DD2069F084
:102F7000C5010E8C02C0880F991F0A94E2F7808366
:102F800060E079E08DE390E005C0108260E874E8CD
:102F90008EE190E0A80197010E94F71D215030407A
:102FA00040405040569547953795279580E1203011
:102FB000380720F0DD2011F0DD24D6CFE889F9892B
:102FC0003083EA89FB892083EE89FF89408121E0F3
:102FD00030E0C9010A8C02C0880F991F0A94E2F7F9
:102FE000482B4083EE89FF894081C9010B8C02C0C8
:102FF000880F991F0A94E2F7482B4083EE89FF89D6
:103000004081C9010C8C02C0880F991F0A94E2F715
:10301000482B4083EE89FF8980810D8C02C0220FEE
:10302000331F0A94E2F7209528232083DF91CF9164
:103030001F910F91FF90EF90DF90BF90AF90089598
:10304000DC011C96ED91FC911D97E05CFF4F2191F6
:10305000319180819181281B390B2F733070C90108
:103060000895DC011C96ED91FC911D97E05CFF4FEB
:1030700020813181E054F040DF01AE5BBF4F8D9184
:103080009C9111972817390719F42FEF3FEF07C0CC
:103090008D919C91E80FF91F8081282F30E0C901A4
:1030A0000895DC011C96ED91FC911D97E05CFF4FAB
:1030B00020813181E054F040DF01AE5BBF4F8D9144
:1030C0009C9111972817390719F42FEF3FEF10C083
:1030D0008D919C911197E80FF91F20818D919C9102
:1030E000119701968F73907011969C938E9330E098
:1030F000C9010895FC0186859785DC01A05CBF4F5E
:10310000FC01EE5BFF4F2D913C91119780819181E5
:1031100028173907C1F70895CF93DF93EC01462FA5
:10312000EE85FF85E05CFF4F80819181E054F040A7
:10313000019660E470E00E94E41D9C01DF01AE5B3B
:10314000BF4F8D919C91119728173907D1F3E05CFF
:10315000FF4F80819181E054F040E80FF91F4083D8
:10316000EE85FF85E05CFF4F31832083EE89FF8988
:10317000208181E090E00D8C02C0880F991F0A9495
:10318000E2F7282B208381E090E0DF91CF91089532
:1031900010923B0610923A0688EE93E0A0E0B0E071
:1031A00080933C0690933D06A0933E06B0933F0665
:1031B0008CE095E0909339068093380680EB95E09B
:1031C000909345068093440684EF95E090934706DC
:1031D0008093460685EC90E09093490680934806DC
:1031E00084EC90E090934B0680934A0680EC90E04C
:1031F00090934D0680934C0681EC90E090934F069F
:1032000080934E0686EC90E0909351068093500692
:1032100084E08093520683E08093530687E0809396
:10322000540685E08093550681E080935606089504
:10323000CF93DF930E9432160E949802CEE3D7E12B
:103240000E948B022097E1F30E943E17F9CFCF92A4
:10325000DF92EF92FF920F931F93CF93DF937C0146
:103260006B018A01C0E0D0E00FC0D6016D916D0105
:10327000D701ED91FC910190F081E02DC7010995F6
:10328000C80FD91F015010400115110571F7CE016B
:10329000DF91CF911F910F91FF90EF90DF90CF9032
:1032A0000895EF92FF920F931F938C01DC01ED9133
:1032B000FC910190F081E02D6DE009957C01D80131
:1032C000ED91FC910190F081E02DC8016AE0099533
:1032D0009C012E0D3F1DC9011F910F91FF90EF9092
:1032E0000895CF93DF93DB010D900020E9F711974C
:1032F000A61BB70BEC01E881F9810280F381E02D78
:10330000AD010995DF91CF9108954F925F927F9221
:103310008F929F92AF92BF92CF92DF92EF92FF92E5
:103320000F931F93DF93CF93CDB7DEB7A1970FB65F
:10333000F894DEBF0FBECDBF2C01742ECB0122301E
:1033400008F42AE019A231E2C32ED12CCC0EDD1EE6
:10335000822E9924AA24BB24672D752FA5019401E0
:103360000E94F71D79018A01C801B701A5019401E6
:103370000E94C51D472D461B0894C108D1084A303C
:1033800014F4405D01C0495CF6014083E114F1048E
:103390000105110521F07E2C5F2DC801DDCFC20192
:1033A000B6010E947119A1960FB6F894DEBF0FBE48
:1033B000CDBFCF91DF911F910F91FF90EF90DF90E4
:1033C000CF90BF90AF909F908F907F905F904F90E5
:1033D0000895DC012115310541F4ED91FC91019036
:1033E000F081E02D642F099508950E9485190895B4
:1033F000CF92DF92EF92FF920F931F93CF93DF93C1
:10340000EC016A017B012115310541F4E881F98164
:103410000190F081E02D642F09951FC02A303105FD
:10342000D1F477FF17C0E881F9810190F081E02D98
:103430006DE209958C0144275527BA014C195D09A5
:103440006E097F09CE012AE00E9485199801280F94
:10345000391F04C02AE00E9485199C01C901DF912F
:10346000CF911F910F91FF90EF90DF90CF90089533
:10347000EF92FF920F931F937C010E94F8198C0129
:10348000C7010E9451199C01200F311FC9011F91D2
:103490000F91FF90EF900895EF92FF920F931F937B
:1034A0007B019A010027F7FC0095102FB801A701B6
:1034B0000E94F8191F910F91FF90EF900895CF92FD
:1034C000DF92EF92FF920F931F936C017B019A01A1
:1034D0000027F7FC0095102FB801A7010E94F819EA
:1034E0008C01C6010E945119080F191FC8011F91B4
:1034F0000F91FF90EF90DF90CF9008950E94711987
:1035000008957F928F929F92AF92BF92CF92DF9257
:10351000EF92FF920F931F93CF93DF934C017A01A9
:103520008B01722ECB01BA0120E030E040E050E088
:103530000E94AA1B87FD03C0C0E0D0E00EC0D401EA
:10354000ED91FC910190F081E02DC4016DE20995AF
:10355000EC0117FB109517F9109520E030E040E0E2
:103560005FE3AA240BC0CA01B90120E030E040E2C9
:1035700051E40E94AE1B9B01AC01A394A71498F3E5
:10358000C801B7010E94461B5B016C010E941B1C15
:103590007B018C01C401B801A7012AE030E00E9440
:1035A000E919C80FD91F772039F0C40165EF74E01D
:1035B0000E947119C80FD91FC801B7010E94471C8A
:1035C0009B01AC01C601B5010E94451B24C020E04F
:1035D00030E040E251E40E94FD1C7B018C010E941E
:1035E000161C5B016C01CC24B7FCC094DC2CC4011C
:1035F000B601A5012AE030E00E94F819C80FD91FD2
:10360000C601B5010E94491C9B01AC01C801B7016C
:103610000E94451B7A947720D1F6CE01DF91CF919D
:103620001F910F91FF90EF90DF90CF90BF90AF90E0
:103630009F908F907F9008950E94811A0895EF9235
:10364000FF920F931F937C010E94811A8C01C70186
:103650000E945119080F191FC8011F910F91FF9067
:10366000EF900895EF92FF920F931F937C010E94B9
:1036700071198C01C7010E945119080F191FC80147
:103680001F910F91FF90EF9008955058BB27AA27E4
:103690000ED075C166D130F06BD120F031F49F3F70
:1036A00011F41EF45BC10EF4E095E7FB51C1E92F64
:1036B00077D180F3BA17620773078407950718F06C
:1036C00071F49EF58FC10EF4E0950B2EBA2FA02D4C
:1036D0000B01B90190010C01CA01A0011124FF27BF
:1036E000591B99F0593F50F4503E68F11A16F040BA
:1036F000A22F232F342F4427585FF3CF46953795B9
:103700002795A795F0405395C9F77EF41F16BA0B7D
:10371000620B730B840BBAF09150A1F0FF0FBB1F2B
:10372000661F771F881FC2F70EC0BA0F621F731F74
:10373000841F48F4879577956795B795F7959E3FD1
:1037400008F0B3CF9395880F08F09927EE0F97955F
:1037500087950895D9D008F481E008950CD00FC161
:1037600007D140F0FED030F021F45F3F19F0F0C0F7
:10377000511139C1F3C014D198F39923C9F35523DA
:10378000B1F3951B550BBB27AA2762177307840754
:1037900038F09F5F5F4F220F331F441FAA1FA9F30A
:1037A00033D00E2E3AF0E0E830D091505040E695FC
:1037B000001CCAF729D0FE2F27D0660F771F881F5D
:1037C000BB1F261737074807AB07B0E809F0BB0B4C
:1037D000802DBF01FF2793585F4F2AF09E3F510570
:1037E00068F0B6C000C15F3FECF3983EDCF386950D
:1037F00077956795B795F7959F5FC9F7880F911DE6
:103800009695879597F90895E1E0660F771F881FD1
:10381000BB1F621773078407BA0720F0621B730B84
:10382000840BBA0BEE1F88F7E095089504D06894D6
:10383000B111D9C00895BCD088F09F5790F0B92F2E
:103840009927B751A0F0D1F0660F771F881F991FF5
:103850001AF0BA95C9F712C0B13081F0C3D0B1E007
:103860000895C0C0672F782F8827B85F39F0B93F17
:10387000CCF3869577956795B395D9F73EF49095F7
:103880008095709561957F4F8F4F9F4F0895E89475
:1038900009C097FB3EF490958095709561957F4F98
:1038A0008F4F9F4F9923A9F0F92F96E9BB27939546
:1038B000F695879577956795B795F111F8CFFAF456
:1038C000BB0F11F460FF1BC06F5F7F4F8F4F9F4F87
:1038D00016C0882311F096E911C0772321F09EE8E5
:1038E000872F762F05C0662371F096E8862F70E04B
:1038F00060E02AF09A95660F771F881FDAF7880F25
:103900009695879597F90895990F0008550FAA0B7A
:10391000E0E8FEEF16161706E807F907C0F01216E2
:103920001306E407F50798F0621B730B840B950BE5
:1039300039F40A2661F0232B242B252B21F408953A
:103940000A2609F4A140A6958FEF811D811D0895D7
:1039500097F99F6780E870E060E008959FEF80EC42
:10396000089500240A9416161706180609060895E5
:1039700000240A9412161306140605060895092E4B
:103980000394000C11F4882352F0BB0F40F4BF2BBA
:1039900011F460FF04C06F5F7F4F8F4F9F4F0895FA
:1039A00057FD9058440F551F59F05F3F71F04795F0
:1039B000880F97FB991F61F09F3F79F087950895D5
:1039C000121613061406551FF2CF4695F1DF08C0F4
:1039D000161617061806991FF1CF86957105610511
:1039E00008940895E894BB2766277727CB0197F9B9
:1039F00008958ADF08F48FEF08950BD0C0CFB1DFB0
:103A000028F0B6DF18F0952309F0A2CFA7CF112434
:103A1000EACFC6DFA0F3959FD1F3950F50E0551F75
:103A2000629FF001729FBB27F00DB11D639FAA2713
:103A3000F00DB11DAA1F649F6627B00DA11D661F62
:103A4000829F2227B00DA11D621F739FB00DA11D83
:103A5000621F839FA00D611D221F749F3327A00D3D
:103A6000611D231F849F600D211D822F762F6A2FD9
:103A700011249F5750408AF0E1F088234AF0EE0F5E
:103A8000FF1FBB1F661F771F881F91505040A9F76B
:103A90009E3F510570F05CCFA6CF5F3FECF3983EA0
:103AA000DCF3869577956795B795F795E7959F5FD2
:103AB000C1F7FE2B880F911D9695879597F908956C
:103AC00011F40EF44BCF4AC073DFD0F39923D9F32E
:103AD000CEF39F57550B87FF51D056959795B0E081
:103AE00020F4660F771F881FBB1F1F930F930024BE
:103AF0009001A0018001F001A0E80E0F1F1F0A1E17
:103B0000511D601B710B8009B50B48F4600F711FCC
:103B1000801DB51F0E1B1F0B0A0A510907C02E0F6F
:103B20003F1F4A1F0E0F1F1F0A1E511D660F771FD2
:103B3000881FBB1FA695F795E795F8F60617170798
:103B400008065B07211D311D411D0F911F91B90111
:103B5000842F9158880F9695879508959F3F49F037
:103B6000915028F4869577956795B7959F5F803833
:103B70009F4F880F9695879597F9089591505040DB
:103B8000660F771F881FD2F70895629FD001739F39
:103B9000F001829FE00DF11D649FE00DF11D929FE9
:103BA000F00D839FF00D749FF00D659FF00D992728
:103BB000729FB00DE11DF91F639FB00DE11DF91F4C
:103BC000BD01CF011124089597FB092E07260AD0C5
:103BD00077FD04D02ED006D000201AF470956195A0
:103BE0007F4F0895F6F7909581959F4F0895A1E234
:103BF0001A2EAA1BBB1BFD010DC0AA1FBB1FEE1F67
:103C0000FF1FA217B307E407F50720F0A21BB30BB1
:103C1000E40BF50B661F771F881F991F1A9469F72D
:103C200060957095809590959B01AC01BD01CF0189
:103C30000895AA1BBB1B51E107C0AA1FBB1FA617F3
:103C4000B70710F0A61BB70B881F991F5A95A9F745
:103C500080959095BC01CD010895EE0FFF1F059052
:0A3C6000F491E02D0994F894FFCFD1
:103C6A004D6F746F72697A6564205261696C00766F
:103C7A00302E31002053696D706C65204D6F76656A
:103C8A000020536D6172742053657175656E6365AA
:103C9A00003E002042617369632053657175656E49
:103CAA0063650020002053706565643A0020506FF8
:103CBA00736974696F6E3A00204650533A00204F78
:103CCA0075747075743A00204576656E743A0020F2
:103CDA0052616E67653A00205374617274002D0058
:103CEA002044656C61793A00204672616D65733AC9
:103CFA0000204D6F76653A004D6F746F72697A6570
:103D0A00642043616D6572610073746172745F63EC
:103D1A00757272656E744C6F636174696F6E3A2066
:103D2A0000656E645F63757272656E744C6F636171
:103D3A0074696F6E3A20002A2A2A2A2A2A2A2A2AEB
:103D4A002A2A2A2A2A2A2A2A2A2A2A2A2A2A2A2AC9
:103D5A002A2A2A2A2A004E4F20414343454C4552DB
:103D6A004154494F4E2C20544F20534C4F57212138
:103D7A00210043414E204E4F54204D454554204486
:103D8A004541444C494E452C20544F2046415354FA
:103D9A00212121004E4F20414343454C4552415475
:103DAA00494F4E2C20544F2053484F525421212121
:103DBA00006D6F7665546F74616C3A200073746598
:103DCA0070733A200053746172742073706565646D
:103DDA003A20002046756C6C2073706565643A2041
:103DEA000074696D6552616D703A200066756C6C7D
:103DFA0053706565643A2000416363656C53686F6C
:103E0A00756C643A20002F2F52616D70696E6720BD
:103E1A0075700053746172742073746570207065D4
:103E2A0072696F643A2000206D6963726F7365630B
:103E3A006F6E64730064656C617920696E63726584
:103E4A006D656E743A2000537465702054696D650F
:103E5A003A20002054696D653A2000206D730020D5
:103E6A00416363656C65726174696F6E49733A2068
:103E7A00002073746570732F735E3200202D2D2D10
:103E8A002D2D2D2D2D2D2D2D2D2D2D2D2D2D2D2D58
:103E9A002D2D2D2D2D2D2D2D2D2D2D002D2D436F1D
:103EAA006E7374616E742073706565640020737438
:103EBA006570733A20002073746570732F73002045
:103ECA00436F6E7374616E742064656C61792070DF
:103EDA00657220737465703A20002064656C61799C
:103EEA0020696E6372656D656E743A200020300039
:103EFA005C52616D70696E6720646F776E00204551
:103F0A006E642073706565643A200020456E6420F3
:103F1A0064656C61793A2000207265766F6C7574FD
:103F2A00696F6E733A20002064697374616E636509
:103F3A003A20004162736F6C757465205065726334
:103F4A00656E74204D6F766500202A2A2A2A2A2A4D
:103F5A002A2A2A2A2A2A2A2A2A2A2A2A2A2A2A2AB7
:103F6A002A2A2A2A2A2A2A2A0009097065726365D6
:103F7A006E743A20002D2D2D2D2D2D2D5354415286
:103F8A0054494E472053494D504C45204D4F5645B4
:103F9A002C20706172616D65746572733A2D2D2DD6
:103FAA002D2D2D2D00706172616D65746572732EF1
:103FBA0062617369634D6F766544656C61793A2015
:103FCA0000706172616D65746572732E62617369E6
:103FDA00634D6F76654672616D65733A2000706154
:103FEA0072616D65746572732E62617369634D6F78
:103FFA00766552616E67653A2000696E74657276FD
:10400A00616C4C656E6768743A20006D6F76655412
:10401A00696D653A20002D2D2D2D2D2D2D2D2D2D3F
:10402A002D2D2D2D2D2D2D2D2D2D2D2D2D2D2D2DB6
:10403A002D006672616D6520233A20004475726115
:10404A0074696F6E3A200045787472612064656CF9
:10405A0061793A20002E000100000000440127196E
:10406A000000400014005400000000008C182719BA
:08407A002018511831187A18C2
:00000001FF
