:100000000C9465000C948D000C948D000C948D0064
:100010000C948D000C948D000C948D000C948D002C
:100020000C948D000C948D000C948D000C948D001C
:100030000C948D000C948D000C948D000C948D000C
:100040000C9474110C948D000C942B130C9472135B
:100050000C948D000C948D000C948D000C948D00EC
:100060000C948D000C948D000000000024002700EB
:100070002A0000000000250028002B0000000000DE
:1000800023002600290004040404040404040202DA
:100090000202020203030303030301020408102007
:1000A0004080010204081020010204081020000012
:1000B0000007000201000003040600000000000029
:1000C000000087025706CD0FE91411241FBECFEFA1
:1000D000D8E0DEBFCDBF14E0A0E0B1E0E8E1F4E39A
:1000E00002C005900D92AE35B107D9F715E0AEE527
:1000F000B4E001C01D92AD3AB107E1F710E0CAECDF
:10010000D0E004C02297FE010E94061AC23CD1072B
:10011000C9F70E9439150C940A1A0C9400000F9329
:100120001F938C01FC01868160E00E94D61281E061
:1001300090E00E944912F801868161E00E94D61287
:1001400081E090E00E944912F801868160E00E94FF
:10015000D61284E690E00E9449121F910F910895F3
:10016000CF92DF92EF92FF920F931F93CF93DF9383
:10017000D82EC92E282F392FC9018C01C0E0D0E01C
:10018000E62EFF24F801878161E00E94B012B701DA
:100190000C2E02C0759567950A94E2F76170F8011C
:1001A00087810E94D61221960F5F1F4FC830D1055C
:1001B00049F78D2D9C2D0E948F00DF91CF911F91CB
:1001C0000F91FF90EF90DF90CF900895CF92DF9244
:1001D000EF92FF920F931F93CF93DF93D82EC92EE8
:1001E000282F392FC9018C01C0E0D0E0E62EFF2472
:1001F000F801878161E00E94B012B7010C2E02C0A5
:10020000759567950A94E2F76170F80187810E94FD
:10021000D61221960F5F1F4FC430D10549F78D2D9F
:100220009C2D0E948F00DF91CF911F910F91FF9025
:10023000EF90DF90CF9008951F93CF93DF93EC0161
:10024000162F8C81642F0E94D6128D818F3F19F05A
:1002500060E00E94D6128F8584FF05C0CE01612F19
:100260000E94B0000EC0612F70E084E07595679524
:100270008A95E1F7CE010E94E600CE01612F0E942F
:10028000E600DF91CF911F91089541E00E941C018B
:1002900081E090E0089540E00E941C010895FC0177
:1002A00060896D7F608B68600E944B010895FC013E
:1002B0006089862F8460808B6C60CF010E944B0127
:1002C0000895DF93CF93CDB7DEB728970FB6F89494
:1002D000DEBF0FBECDBF9C01FE013196A5E4B4E0A8
:1002E00088E00D9001928150E1F7F9018389481768
:1002F00010F0482F4150E42FF0E0EE0FFF1FEC0FFD
:10030000FD1F8181680F6068C9010E944B0128961A
:100310000FB6F894DEBF0FBECDBFCF91DF91089529
:1003200061E00E944B0180ED97E00E944912089520
:10033000CF93DF93EC01423018F08F8588608F8770
:100340004B8B1C8A222329F0413019F48F8584605D
:100350008F8780E593EC0E9449128C8160E00E94B7
:10036000D6128E8160E00E94D6128D818F3F19F0E7
:1003700060E00E94D6126F8564FD1DC0CE0163E06F
:100380000E94E60084E991E10E944912CE0163E0F7
:100390000E94E60084E991E10E944912CE0163E0E7
:1003A0000E94E60086E990E00E944912CE0162E0D8
:1003B0000E94E60016C06062CE010E944B0184E9F3
:1003C00091E10E9449126F856062CE010E944B014B
:1003D00086E990E00E9449126F856062CE010E941A
:1003E0004B016F856062CE010E944B0184E0888BD7
:1003F000CE010E945701CE010E94900182E0898BBC
:10040000CE0166E00E944B01DF91CF9108956F927B
:100410007F928F92AF92CF92EF920F931F93DF93C1
:10042000CF93CDB7DEB73C01162F842FF301448361
:1004300025830683E782C086A18682869D85938771
:100440009E8594879F8595879889968761E00E940D
:10045000B012F30185818F3F19F061E00E94B01264
:10046000F301868161E00E94B012112319F0F301BB
:10047000178603C080E1F3018787C30160E141E093
:1004800020E00E949801CF91DF911F910F91EF9092
:10049000CF90AF908F907F906F9008958F92AF9292
:1004A000CF92EF920F931F93CF93DF93DC01362F00
:1004B000542F722F102FAE2C8C2C13961C921E9240
:1004C000129781E494E011969C938E9300D000D013
:1004D000EDB7FEB73196CDB7DEB719821182128221
:1004E0001382CD0161E0432F2FEF052FE72EC12EA0
:1004F0000E9407020F900F900F900F90DF91CF9105
:100500001F910F91EF90CF90AF908F9008958EE54F
:1005100094E00E94350B08950F931F930EE514E0AD
:10052000C8010E94BD06C8010E94C2061F910F911A
:1005300008958EE895E040E052EC61E070E00E94A2
:10054000BB130895EF92FF920F931F93CF93DF9306
:10055000EC01162F072F862F972F0E949001EAA0FB
:10056000FBA085E0E816F10409F426C186E0E81650
:10057000F104ECF482E0E816F10409F482C083E0AF
:10058000E816F1044CF4E114F104A9F181E0E81655
:10059000F10409F083C24CC083E0E816F10409F4C9
:1005A00097C084E0E816F10409F078C2C2C088E080
:1005B000E816F10409F493C189E0E816F1045CF44B
:1005C00086E0E816F10409F43EC187E0E816F1047C
:1005D00009F064C261C18AE0E816F10409F401C2BD
:1005E0008AE0E816F1040CF4BFC18BE0E816F104D0
:1005F00009F054C21BC2812F902F60E040E00E949E
:100600006101812F902F60E071E00E949F16812F81
:10061000902F60E041E00E946101812F902F6FE0F8
:1006200071E00E949F161DA21CA21FA21EA236C22C
:10063000812F902F60E040E00E946101812F902F78
:1006400064E171E00E949F16812F902F60E041E0ED
:100650000E946101812F902F61E271E00E949F163C
:10066000812F902F60E048A10E946101812F902F7F
:1006700061E371E00E949F16FFA2EEA282E090E08B
:10068000ADC1812F902F60E040E00E946101812F79
:10069000902F63E371E00E949F16812F902F60E0FE
:1006A00041E00E946101812F902F63E471E00E947C
:1006B0009F16812F902F60E048A10E946101812F39
:1006C000902F61E371E00E949F1681E090E0E1C00D
:1006D000812F902F60E040E00E946101812F902FD8
:1006E0006EE471E00E949F164A815B816C817D817E
:1006F000812F902F22E030E00E943D17812F902F14
:1007000060E041E00E946101812F902F67E571E078
:100710000E949F1668817981812F902F4AE050E0D6
:100720000E946D16812F902F63E671E00E949F1644
:10073000A5C1812F902F60E040E00E946101812FD0
:10074000902F66E671E00E949F166E817F81812F57
:10075000902F4AE050E00E946D16812F902F6CE69A
:1007600071E00E949F16812F902F60E041E00E946F
:100770006101812F902F6FE671E00E949F166885BE
:100780007985812F902F4AE050E00E946D16812FCD
:10079000902F68E771E00E949F16812F902F60E0F4
:1007A00048A10E946101812F902F61E371E00E94B6
:1007B0009F16FFA2EEA244C0812F902F60E040E080
:1007C0000E946101812F902F6BE771E00E949F16BC
:1007D0006A857B85812F902F4AE050E00E946D163C
:1007E000812F902F63E871E00E949F16812F902F38
:1007F00060E041E00E946101812F902F68E871E084
:100800000E949F166C857D85812F902F4AE050E0D5
:100810000E946D16812F902F63E671E00E949F1653
:10082000812F902F60E048A10E946101812F902FBD
:1008300061E371E00E949F1684E090E09FA38EA385
:1008400086E090E0CBC0812F902F60E040E00E94D6
:100850006101812F902F60E971E00E949F16812F26
:10086000902F60E041E00E946101812F902F67E9A5
:1008700071E00E949F16812F902F60E048A10E9496
:100880006101812F902F61E371E00E949F1684E047
:1008900090E09FA38EA300C1812F902F60E040E0E5
:1008A0000E946101812F902F67E971E00E949F16DD
:1008B000812F902F60E041E00E946101812F902FF5
:1008C00067E971E00E949F16812F902F60E048A198
:1008D0000E946101812F902F6EE971E0A4C0812FE9
:1008E000902F60E040E00E946101812F902F60EA2C
:1008F00071E00E949F166E857F85812F902F4AE0C0
:1009000050E00E946D16812F902F68E771E00E94E1
:100910009F16812F902F60E041E00E946101812F9E
:10092000902F68EA71E00E949F16488959896A8968
:100930007B89812F902F22E030E00E943D17812F8C
:10094000902F6CE671E00E949F16812F902F60E03F
:1009500048A10E946101812F902F61E371E00E9404
:100960009F16FFA2EEA238C0812F902F60E040E0DA
:100970000E946101812F902F61EB71E00E949F1610
:100980004C895D896E897F89812F902F22E030E02C
:100990000E943D17812F902F68EB71E00E949F16F7
:1009A000812F902F60E041E00E946101812F902F04
:1009B00060E971E00E949F16812F902F60E048A1AE
:1009C0000E946101812F902F61E371E00E949F16C8
:1009D00088E090E09FA38EA389E090E09DA38CA384
:1009E0005DC0812F902F60E040E00E946101812F67
:1009F000902F67E971E00E949F16812F902F60E091
:100A000041E00E946101812F902F67E971E00E940F
:100A10009F16812F902F60E048A10E946101812FD5
:100A2000902F61E371E00E949F1638C0812F902FB4
:100A300060E040E00E946101812F902F6CEB71E03B
:100A40000E949F16698D7A8D812F902F4AE050E089
:100A50000E946D16812F902F60E041E00E9461019D
:100A6000812F902F65EC71E00E949F166B8D7C8D1D
:100A7000812F902F4AE050E00E946D16812F902F19
:100A800060E048A10E946101812F902F61E371E035
:100A90000E949F16FFA2EEA2FDA2ECA2DF91CF91D1
:100AA0001F910F91FF90EF900895EF92FF920F9397
:100AB0001F938C01F62EE72E862F972F60E142E0E0
:100AC00020E00E94980188E061E00E94B01288E076
:100AD00061E00E94D6128F2D9E2D0E9490018F2DD5
:100AE0009E2D60E040E00E9461018F2D9E2D6FECF5
:100AF00071E00E949F168F2D9E2D60E041E00E94C4
:100B000061018F2D9E2D6FE071E00E949F16F8010C
:100B1000118210821782168280E090E0AAEFB5E47D
:100B200082839383A483B5831186108613861286ED
:100B3000158614861786168680E090E0A6E1B4E458
:100B4000808B918BA28BB38B80E090E0A0E0B0E033
:100B5000848B958BA68BB78B108E13A212A2178E47
:100B6000168E158E1F910F91FF90EF90089583E0E0
:100B7000653878079CF5CB018D5B9240873C9105E9
:100B800018F421E030E02CC0CB0189559240833627
:100B9000910518F422E030E023C0CB018159914047
:100BA000873C910518F423E030E01AC0CB018D5248
:100BB00091408336910518F424E030E011C0CB0158
:100BC00085569040873C910518F425E030E008C038
:100BD000643671051CF426E030E002C020E030E00D
:100BE000C90108950F931F93CF93DF93EC0181E127
:100BF0000E948E12BC01CE010E94B7058C010E949A
:100C0000CA119B01AC0101151105D9F18C819D819F
:100C1000AE81BF8180579F42AC4FBF4F8217930771
:100C2000A407B50774F561E070E080E090E00E94F1
:100C3000F01181E10E948E12BC01CE010E94B70525
:100C400008171907F1F461E070E080E090E00E947D
:100C5000F01181E10E948E12BC01CE010E94B70505
:100C60009C010817190729F48A819B8101969B83AF
:100C70008A83398328830E94CA116C837D838E8383
:100C80009F83DF91CF911F910F9108950F931F9331
:100C90008C0181E160E00E94B01281E161E00E947C
:100CA000D612F801118210821F910F910895CF92F0
:100CB000EF920F93DF93CF93CDB7DEB765970FB663
:100CC000F894DEBF0FBECDBF86E794E063E170E02D
:100CD00042E150E00E94850F82E994E00E944606BE
:100CE0008AE994E062E043E024E005E056E0E52E86
:100CF00037E0C32E0E944E0280919C0490919D0487
:100D00009C838B8381E494E09A83898380919E0401
:100D10008D8380919F048E838091A0048F83DE0158
:100D20001896E1EAF4E088E001900D928150E1F735
:100D30008091A904888B8091AA04898B8091AB044F
:100D40008A8B8091AC048B8B8091AD048C8B8091CD
:100D5000AE048D8B8FEA94E0BE016F5F7F4F0E94DF
:100D6000550565960FB6F894DEBF0FBECDBFCF9187
:100D7000DF910F91EF90CF90089582E994E00E9467
:100D8000F2050895DF93CF93CDB7DEB7C85AD040B0
:100D90000FB6F894DEBF0FBECDBF9C0180919204C8
:100DA000909193048330910509F4B4C08430910587
:100DB00044F48130910509F472C1029709F04BC4E3
:100DC0000CC08530910509F4F2C3853091050CF40F
:100DD00049C2069709F03FC428C38091CF0490917F
:100DE000D004019709F443C081E090E09093D004CF
:100DF0008093CF048091CD049091CE04019690937E
:100E0000CE048093CD0480919C0490919D049C839A
:100E10008B8381E494E09A83898380919E048D83FF
:100E200080919F048E838091A0048F83DE011896A9
:100E3000E1EAF4E088E001900D928150E1F78091C1
:100E4000A904888B8091AA04898B8091AB048A8B3A
:100E50008091AC048B8B8091AD048C8B8091AE041F
:100E60008D8B8FEA94E0BE016F5F7F4F11C120919F
:100E7000D1043091D2048091D3049091D4042817E6
:100E800039070CF007C11092D0041092CF042F5FE5
:100E90003F4F3093D2042093D1048091CD049091A0
:100EA000CE0401969093CE048093CD0480919C044F
:100EB00090919D04998F888F81E494E09F8B8E8B15
:100EC00080919E048A8F80919F048B8F8091A004D3
:100ED0008C8FDE015D96E1EAF4E088E001900D92EE
:100EE0008150E1F78091A9048DA38091AA048EA37B
:100EF0008091AB048FA38091AC0488A78091AD044E
:100F000089A78091AE048AA78FEA94E0BE016A5E49
:100F10007F4FBEC08091CF049091D004892B09F4FB
:100F200041C01092D0041092CF048091CD049091D2
:100F3000CE0401979093CE048093CD0480919C04BD
:100F400090919D049EA78DA781E494E09CA78BA718
:100F500080919E048FA780919F0488AB8091A0040C
:100F600089ABDE01D296E1EAF4E088E001900D92CF
:100F70008150E1F78091A9048AAF8091AA048BAFD8
:100F80008091AB048CAF8091AC048DAF8091AD04A7
:100F90008EAF8091AE048FAF8FEA94E0BE01655DA5
:100FA0007F4F76C02091D1043091D2048091D50436
:100FB0009091D604821793070CF06CC081E090E00A
:100FC0009093D0048093CF04215030403093D204CA
:100FD0002093D1048091CD049091CE0401979093F9
:100FE000CE048093CD0480919C0490919D04FE01D9
:100FF000EE5BFF4F9183808381E494E0FE01E05C2F
:10100000FF4F9183808380919E04FE01EC5BFF4F34
:10101000808380919F04FE01EB5BFF4F8083809172
:10102000A004FE01EA5BFF4F8083DE01A95BBF4F96
:10103000E1EAF4E088E001900D928150E1F78091BF
:10104000A904FE01E15BFF4F80838091AA04FE01A9
:10105000E05BFF4F80838091AB04FE01EF5AFF4FAE
:1010600080838091AC04FE01EE5AFF4F8083809113
:10107000AD04FE01ED5AFF4F80838091AE04FE0166
:10108000EC5AFF4F80838FEA94E0BE01605C7F4F93
:101090000E94A2021092930410929204DCC28091EA
:1010A000D1049091D2048330910561F52091CF0451
:1010B0003091D00421153105B9F46091B1047091DB
:1010C000B2048091B3049091B40420E030E04AEF80
:1010D00053E40E9466176093B1047093B204809346
:1010E000B3049093B40498C02130310509F076C060
:1010F0008091AF049091B00405979093B0048093D1
:10110000AF048AC084309105E9F48091CF049091B6
:10111000D004009751F48091B5049091B6040197E2
:101120009093B6048093B50477C0019709F074C01A
:101130008091B7049091B80401979093B80480937C
:10114000B7046AC085309105E9F48091CF0490918D
:10115000D004009751F48091B9049091BA0401979A
:101160009093BA048093B90457C0019709F054C012
:101170008091BB049091BC0401979093BC04809330
:10118000BB044AC08830910549F58091CF04909105
:10119000D004009751F48091BD049091BE04019752
:1011A0009093BE048093BD0437C00197A9F5609168
:1011B000BF047091C0048091C1049091C20420E0EA
:1011C00030E040E85FE30E9466176093BF047093CD
:1011D000C0048093C1049093C2041EC00997E1F437
:1011E0008091CF049091D004892BB1F46091C30415
:1011F0007091C4048091C5049091C60420E030E051
:1012000040E85FE30E9466176093C3047093C404D0
:101210008093C5049093C604109293041092920494
:10122000FE01EB5AFF4F80919C0490919D049383A3
:10123000828381E494E09183808380919E048483FF
:1012400080919F0485838091A00486833796A1EACC
:10125000B4E088E00D9001928150E1F7FE01EB5A75
:10126000FF4FE2C18091D1049091D2048330910567
:1012700061F52091CF043091D00421153105B9F4E6
:101280006091B1047091B2048091B3049091B40460
:1012900020E030E04AEF53E40E9467176093B10406
:1012A0007093B2048093B3049093B40498C0213037
:1012B000310509F076C08091AF049091B004059695
:1012C0009093B0048093AF048AC084309105E9F410
:1012D0008091CF049091D004009751F48091B5048F
:1012E0009091B60401969093B6048093B50477C0AC
:1012F000019709F074C08091B7049091B8040196E9
:101300009093B8048093B7046AC085309105E9F4DE
:101310008091CF049091D004009751F48091B9044A
:101320009091BA0401969093BA048093B90457C07F
:10133000019709F054C08091BB049091BC040196C0
:101340009093BC048093BB044AC08830910549F552
:101350008091CF049091D004009751F48091BD0406
:101360009091BE0401969093BE048093BD0437C053
:101370000197A9F56091BF047091C0048091C104E8
:101380009091C20420E030E040E85FE30E946717DC
:101390006093BF047093C0048093C1049093C2040F
:1013A0001EC00997E1F48091CF049091D004892B5D
:1013B000B1F46091C3047091C4048091C50490910C
:1013C000C60420E030E040E85FE30E9467176093C6
:1013D000C3047093C4048093C5049093C604109210
:1013E000930410929204FE01E659FF4F80919C04F1
:1013F00090919D049383828381E494E09183808320
:1014000080919E04848380919F0485838091A004B1
:1014100086833796A1EAB4E088E00D90019281506E
:10142000E1F7FE01E659FF4FFFC08091D104909192
:10143000D2048230910581F1833091052CF4813002
:10144000910509F08EC008C08330910509F46AC087
:10145000099709F086C042C09093D8048093D704BE
:101460008091CD049091CE049093DA048093D904B6
:101470008091CF049091D0049093DC048093DB049E
:10148000009721F0019709F06CC003C083E090E061
:101490001CC084E090E019C09093D8048093D704D6
:1014A0008091CD049091CE049093DA048093D90476
:1014B0008091CF049091D0049093DC048093DB045E
:1014C000892B09F04EC088E090E09093D20480937D
:1014D000D1041092D0041092CF0443C08091CF0465
:1014E0009091D0040197E9F58DB79EB748970FB654
:1014F000F8949EBF0FBE8DBFADB7BEB71196EFEA91
:10150000F4E088E101900D928150E1F7C9010E9459
:10151000D60F8DB79EB748960FB6F8949EBF0FBEF4
:101520008DBF1FC086E794E064EF71E00E94A60BB8
:101530006091B1047091B2048091B3049091B404AD
:101540000E9437189B01AC0186E794E0B9010E9424
:10155000A20B6091AF047091B00486E794E00E9402
:101560002F0F1092930410929204FE01E158FF4F46
:1015700080919C0490919D049383828381E494E004
:101580009183808380919E04848380919F048583CE
:101590008091A00486833796A1EAB4E088E00D909C
:1015A00001928150E1F7FE01E158FF4F3DC080916B
:1015B000D7049091D8049093D2048093D104809161
:1015C000D9049091DA049093CE048093CD04809155
:1015D000DB049091DC049093D0048093CF041092AC
:1015E000930410929204FE01EC56FF4F80919C04EC
:1015F00090919D049383828381E494E0918380831E
:1016000080919E04848380919F0485838091A004AF
:1016100086833796A1EAB4E088E00D90019281506C
:10162000E1F7FE01EC56FF4F8091A9048787809176
:10163000AA04808B8091AB04818B8091AC04828B57
:101640008091AD04838B8091AE04848B8FEA94E00B
:10165000BF010E94A202C855DF4F0FB6F894DEBF4B
:101660000FBECDBFCF91DF910895DF93CF93CDB75C
:10167000DEB765970FB6F894DEBF0FBECDBF0E94F0
:101680006B118DE061E00E94B0128DE060E00E947D
:10169000D6128AE994E060E142E020E00E949801DD
:1016A0008AE994E00E944F0181E090E09093D20497
:1016B0008093D1041092CE041092CD0480919C04AA
:1016C00090919D049C838B8381E494E09A83898329
:1016D00080919E048D8380919F048E838091A004CD
:1016E0008F83DE011896E1EAF4E088E001900D9224
:1016F0008150E1F78091A904888B8091AA04898B9D
:101700008091AB048A8B8091AC048B8B8091AD046B
:101710008C8B8091AE048D8B8FEA94E0BE016F5F5D
:101720007F4F0E94A20265960FB6F894DEBF0FBEEF
:10173000CDBFCF91DF910895FC014087518762872B
:1017400073870895FC01758764870895FC01738F82
:10175000628F08952F923F924F925F926F927F9285
:101760008F929F92AF92BF92CF92DF92EF92FF92B1
:101770000F931F93DF93CF93CDB7DEB760970FB66C
:10178000F894DEBF0FBECDBF2C015A016B018EE86D
:1017900095E060EE71E00E949F16D2011E964D9179
:1017A0005D916D917C9151978EE895E022E030E05B
:1017B0000E944017F2018781882321F1C601B501FB
:1017C000A60195010E9467172BED3FE049E450E424
:1017D0000E941E192CE839EB4BE45FE30E941E19AE
:1017E00020E030E048EC55E40E94CF179B01AC01AB
:1017F000D2011E966D917D918D919C9151970E9481
:10180000661723C0C601B501A60195010E9467179E
:101810002BED3FE049E450E40E941E192CE839EB1F
:101820004BE45FE30E941E1920E030E048EC55E4F1
:101830000E94CF179B01AC01D2011E966D917D9144
:101840008D919C9151970E946717F2016687778767
:10185000808B918B8EE895E068EF71E00E949F1677
:10186000D2011E964D915D916D917C9151978EE8BC
:1018700095E022E030E00E9440178EE895E06EE0AF
:1018800072E00E945317F201818167810E94D61293
:1018900062E370E080E090E00E94F011D2011896BF
:1018A000ED90FD900D911C911B97C801B70120E0B0
:1018B00030E040E050E00E94CB17882369F0C80177
:1018C000B70125E83CE740E55AE30E94CF170E94A4
:1018D0003718F20175876487D2011C960D911C910F
:1018E0001D97C601B50120E030E048EC53E40E94AA
:1018F000CB178823ACF4AD82BE82CF82D88680E03D
:1019000090E0A0E0B0E089879A87AB87BC878BEA3C
:101910009AEAA6E2B4E489839A83AB83BC8327C0A6
:10192000C601B50120E030E048EC53E40E946617A0
:101930006D837E838F8398879801442737FD409578
:10194000542F60E472E48FE090E00E94D519CA0140
:10195000B9010E946A1869837A838B839C8380E033
:1019600090E0A8E4B3E489879A87AB87BC87B80185
:10197000882777FD8095982F0E946A187B018C013B
:1019800020E030E84BEB54E40E94CB1787FD0AC0FF
:101990000F2EF0E0EF2EF0E8FF2EFBEB0F2FF4E41C
:1019A0001F2FF02D69817A818B819C812BEA3AEA85
:1019B00046E254E40E94661729853A854B855C858A
:1019C0000E94CF176D877E878F87988BD2018C916D
:1019D000882309F46DC08EE895E06EE272E00E9403
:1019E0009F168EE895E0B601A50122E030E00E9446
:1019F00040178EE895E067E372E00E9453178EE887
:101A000095E069E372E00E949F168EE895E0B801C8
:101A1000A70122E030E00E943D178EE895E068E4DF
:101A200072E00E949F16F201648575858EE895E04C
:101A30004AE050E00E9480168EE895E066E572E08C
:101A40000E9453178EE895E066E772E00E945317F4
:101A50008EE895E06EE272E00E949F168EE895E0B7
:101A600049855A856B857C8522E030E00E944017CD
:101A70008EE895E062E872E00E949F168EE895E09D
:101A80004BEA5AEA66E274E422E030E00E94401732
:101A90008EE895E06AE972E00E949F168EE895E074
:101AA0004D855E856F85788922E030E00E94401781
:101AB0000F2EFBEAAF2EFAEABF2EF6E2CF2EF4E4A9
:101AC000DF2EF02D8AE9282E82E0382E00E010E08B
:101AD00039C0D20113968C9161E00E94D612C101E7
:101AE0000E944912F201838160E00E94D612C10176
:101AF0000E944912C601B5012D853E854F85588942
:101B00000E9467175B016C0120E030E040E050E08C
:101B10000E941A1988234CF0C601B50120E030E07C
:101B200040E05FE30E94671708C0C601B50120E0EE
:101B300030E040E05FE30E9466170E9437181B0107
:101B40000F5F1F4FB801882777FD8095982F0E945F
:101B50006A1829853A854B855C850E94CB1787FDDD
:101B6000B8CFD2018C918823C9F18EE895E066E563
:101B700072E00E9453178EE895E06DEA72E00E94D1
:101B800053178EE895E06EE272E00E949F168EE891
:101B900095E04D815E816F81788522E030E00E9482
:101BA00040178EE895E068E472E00E949F16F2010B
:101BB000648575858EE895E04AE050E00E948016C5
:101BC0008EE895E06DEB72E00E949F168EE895E03E
:101BD000A501B60122E030E00E9440176624772478
:101BE00043011EC0D20113968C9161E00E94D6126F
:101BF00069817A818B819C810E943C187B018C01D8
:101C0000CB010E944912F201838160E00E94D6124A
:101C1000C7010E9449120894611C711C811C911C0F
:101C2000C401B3010E946A182D813E814F815885FD
:101C30000E94CB1787FDD6CFD2018C918823E1F08B
:101C40008EE895E066E572E00E9453178EE895E015
:101C500068ED72E00E9453178EE895E06EE272E044
:101C60000E949F168EE895E049855A856B857C8594
:101C700022E030E00E94401700E010E039C0F2019D
:101C8000838161E00E94D612C1010E944912D201F3
:101C900013968C9160E00E94D612C1010E944912F5
:101CA000C601B5012D853E854F8558890E9466176E
:101CB0005B016C0120E030E040E050E00E941A1926
:101CC00088234CF0C601B50120E030E040E05FE33E
:101CD0000E94671708C0C601B50120E030E040E06F
:101CE0005FE30E9466170E9437181B010F5F1F4FAA
:101CF000B801882777FD8095982F0E946A1829855A
:101D00003A854B855C850E94CB1787FDB8CFF201E1
:101D100080818823A1F08EE895E066EE72E00E9453
:101D20009F168EE895E0B601A50122E030E00E9402
:101D300040178EE895E067E372E00E9453176096C3
:101D40000FB6F894DEBF0FBECDBFCF91DF911F91CC
:101D50000F91FF90EF90DF90CF90BF90AF909F904A
:101D60008F907F906F905F904F903F902F9008954D
:101D7000EF92FF920F931F93CF93DF93EC017A01C1
:101D80008B018881882371F08EE895E063EF72E023
:101D90000E949F168EE895E0B801A70122E030E08E
:101DA0000E944017C801B70120E030E048EC55E43C
:101DB0000E941E19AB01BC01CE010E94AA0BDF914B
:101DC000CF911F910F91FF90EF900895EF92FF92A6
:101DD0000F931F93CF93DF93EC017A018B018881DE
:101DE000882371F08EE895E062E073E00E949F1610
:101DF0008EE895E0B801A70122E030E00E9440178C
:101E0000C801B70120E030E040E050E00E94CB176D
:101E10002D813E81882344F417FB109517F9109506
:101E20002130310521F406C02130310519F481E05B
:101E30008F8301C01F82C801B7012DE431E040EA61
:101E400050E40E94CF17AB01BC01CE010E94B80E36
:101E5000DF91CF911F910F91FF90EF900895CF9256
:101E6000DF92EF92FF920F931F93CF93DF93EC01DA
:101E70008B01CE84DF84E888F98888818823F9F093
:101E80008EE895E066E572E00E9453178EE895E0D3
:101E90006EE073E00E9453178EE895E06EE072E00A
:101EA0000E9453178EE895E064E273E00E949F164B
:101EB0008EE895E0B8014AE050E00E94801688E480
:101EC00090E09C01029FC001039F900D129F900D16
:101ED000112464E670E00E94A019882777FD8095A0
:101EE000982F0E946A18A70196010E946617AB01FD
:101EF000BC01CE010E94E60EDF91CF911F910F91A0
:101F0000FF90EF90DF90CF900895CF92DF92EF9205
:101F1000FF920F931F938C01F62ED72EE42EC52E21
:101F2000862F61E00E94B0128E2D61E00E94B012F7
:101F3000F801F182D2828FEF9FEF96838583E3824F
:101F4000C48281E0878320E030E040E050E02087D9
:101F5000318742875387808380E090E0A0E9B2E434
:101F6000828B938BA48BB58B158614862687378737
:101F7000408B518B8DEC9CECACECBDE3868B978B4E
:101F8000A08FB18F88EC90E0938F828F1F910F917B
:101F9000FF90EF90DF90CF90089581EE94E063E1A1
:101FA00070E042E150E00E94850F08952F923F9229
:101FB0004F925F926F927F928F929F92AF92BF9259
:101FC000CF92DF92EF92FF920F931F93DF93CF9305
:101FD000CDB7DEB74C01DC01FE01759688E10190BA
:101FE0000D928150E1F7F40164897589868997899A
:101FF00020893189428953890E94CF171B012C0106
:1020000020E030E040E251E40E941E197B018C0187
:10201000F40166857785882777FD8095982F0E9443
:102020006A189B01AC01C801B7010E94CF177B0160
:102030008C0181EE94E0A701B8010E949C0B8EE810
:1020400095E060E373E00E9453178EE895E060E648
:1020500073E00E949F16F401668577858EE895E00F
:102060004AE050E00E9480168EE895E06CE773E04D
:102070000E949F16F40140895189628973898EE814
:1020800095E022E030E00E9440178EE895E069E993
:1020900073E00E949F16F401448955896689778907
:1020A0008EE895E022E030E00E9440178EE895E04F
:1020B00065EB73E00E949F168EE895E0B201A101E6
:1020C00022E030E00E9440178EE895E066EC73E075
:1020D0000E949F168EE895E0A701B80122E030E04B
:1020E0000E94401780E161E00E94D61264EF71E027
:1020F00080E090E00E94F0118FE061E00E94D61233
:1021000064EF71E080E090E00E94F0118FE060E009
:102110000E94D61280E160E00E94D61266247724E5
:102120005CC00E94BC11AC01CB01DA017C018D01C5
:1021300081EE94E0B201A1010E94E60E0E94BC1162
:10214000AC01CB01DA015C016D01F4018685978554
:102150009C0148EE53E0249FC001259F900D349FC1
:10216000900D11249C01442737FD4095542FD60132
:10217000C5018E199F09A00BB10B82179307A40705
:10218000B50764F42E0D3F1D401F511F2A193B094E
:102190004C095D09CA01B9010E94F01180E161E0BA
:1021A0000E94D61264EF71E080E090E00E94F0118E
:1021B0008FE061E00E94D61264EF71E080E090E071
:1021C0000E94F0118FE060E00E94D61280E160E092
:1021D0000E94D6120894611C711CB301882777FDF8
:1021E0008095982F0E946A18F401208931894289CC
:1021F00053890E94CB1787FD94CF8EE895E062ED5E
:1022000073E00E9453178EE895E06AEF73E00E9436
:102210009F168EE895E0B801A7012AE030E00E9401
:1022200059168EE895E066E074E00E949F168EE8ED
:1022300095E0B601A5012AE030E00E9459168EE82B
:1022400095E063E174E00E949F16B601A5014E1966
:102250005F09600B710B8EE895E02AE030E00E9488
:1022600059168EE895E06CE274E00E949F16F40126
:102270002685378588EE93E0AC01249FC001259F19
:10228000900D349F900D1124AA2797FDA095BA2F89
:10229000E80EF91E0A1F1B1FEA18FB080C091D098E
:1022A0008EE895E0B801A7012AE030E00E945916B7
:1022B000CF91DF911F910F91FF90EF90DF90CF9022
:1022C000BF90AF909F908F907F906F905F904F9056
:1022D0003F902F9008958FE061E00E94B01280E15E
:1022E00061E00E94B01208951F920F920FB60F92F4
:1022F00011242F933F938F939F93AF93BF9380911C
:10230000010590910205A0910305B091040530915B
:1023100005050196A11DB11D232F2D5F2D3720F03E
:102320002D570196A11DB11D209305058093010530
:1023300090930205A0930305B09304058091FD04DA
:102340009091FE04A091FF04B09100050196A11D9B
:10235000B11D8093FD049093FE04A093FF04B093FD
:102360000005BF91AF919F918F913F912F910F9059
:102370000FBE0F901F9018958FB7F894209101050C
:102380003091020540910305509104058FBFB901BA
:10239000CA0108959FB7F8942091FD043091FE047E
:1023A0004091FF045091000586B5A89B06C08F3F61
:1023B00021F02F5F3F4F4F4F5F4F9FBF542F432F51
:1023C000322F2227280F311D411D511D82E0220F7F
:1023D000331F441F551F8A95D1F7B901CA010895CB
:1023E0009B01AC017FB7F8948091FD049091FE04AD
:1023F000A091FF04B091000566B5A89B05C06F3F92
:1024000019F00196A11DB11D7FBFBA2FA92F982FDA
:102410008827860F911DA11DB11D62E0880F991FAD
:10242000AA1FBB1F6A95D1F7BC012DC0FFB7F89456
:102430008091FD049091FE04A091FF04B0910005ED
:10244000E6B5A89B05C0EF3F19F00196A11DB11D8F
:10245000FFBFBA2FA92F982F88278E0F911DA11D7E
:10246000B11DE2E0880F991FAA1FBB1FEA95D1F7A3
:10247000861B970B885E9340C8F221503040404045
:10248000504068517C4F211531054105510571F6C9
:102490000895019739F0880F991F880F991F0297A7
:1024A0000197F1F70895789484B5826084BD84B56E
:1024B000816084BD85B5826085BD85B5816085BD3F
:1024C000EEE6F0E0808181608083E1E8F0E0108258
:1024D000808182608083808181608083E0E8F0E099
:1024E000808181608083E1EBF0E080818460808383
:1024F000E0EBF0E0808181608083EAE7F0E08081BA
:102500008460808380818260808380818160808319
:102510008081806880831092C1000895982F8E304A
:1025200008F09E50977080913C048295880F880F28
:10253000807C892B80937C0080917A0080648093DA
:102540007A0080917A0086FDFCCF2091780040913E
:102550007900942F80E030E0282B392BC9010895B1
:10256000482F50E0CA0186569F4FFC0124914A57DC
:102570005F4FFA0184918823C1F0E82FF0E0EE0F5D
:10258000FF1FE859FF4FA591B491662341F49FB70F
:10259000F8948C91209582238C939FBF08959FB7C8
:1025A000F8948C91822B8C939FBF0895482F50E014
:1025B000CA0182559F4FFC012491CA0186569F4F44
:1025C000FC0194914A575F4FFA013491332309F487
:1025D00040C0222351F1233071F0243028F42130FF
:1025E000A1F0223011F514C02630B1F02730C1F02F
:1025F0002430D9F404C0809180008F7703C080918B
:1026000080008F7D8093800010C084B58F7702C0DA
:1026100084B58F7D84BD09C08091B0008F7703C0E1
:102620008091B0008F7D8093B000E32FF0E0EE0F3B
:10263000FF1FEE58FF4FA591B4912FB7F894662372
:1026400021F48C919095892302C08C91892B8C93D5
:102650002FBF089508951F920F920FB60F92112465
:102660002F933F934F938F939F93EF93FF934091BB
:10267000C60020914605309147052F5F3F4F2F73CD
:10268000307080914805909149052817390759F015
:10269000E0914605F0914705EA5FFA4F4083309399
:1026A000470520934605FF91EF919F918F914F91A0
:1026B0003F912F910F900FBE0F901F901895E091B2
:1026C0009A05F0919B05E05CFF4F819191912081EB
:1026D0003181821B930B8F739070892B11F00E94B4
:1026E0002A1308951F920F920FB60F9211242F9361
:1026F0003F934F935F936F937F938F939F93AF938A
:10270000BF93EF93FF9320918A0530918B058091C1
:102710008C0590918D052817390731F48091C100FF
:102720008F7D8093C10016C0E0918C05F0918D05DE
:10273000E65BFA4F408180918C0590918D05019662
:1027400060E470E00E94A01990938D0580938C0541
:102750004093C600FF91EF91BF91AF919F918F91F0
:102760007F916F915F914F913F912F910F900FBE8D
:102770000F901F901895AF92BF92DF92EF92FF9249
:102780000F931F93CF93DF93EC017A018B01DD242C
:10279000403081EE580780E0680780E0780711F04C
:1027A000DD24D39491E0A92EB12CEC89FD89DD20A4
:1027B00069F0C5010E8C02C0880F991F0A94E2F7D8
:1027C000808360E079E08DE390E005C0108260E8EE
:1027D00074E88EE190E0A80197010E94B31921509E
:1027E000304040405040569547953795279580E1B9
:1027F0002030380720F0DD2011F0DD24D6CFE88925
:10280000F9893083EA89FB892083EE89FF89408139
:1028100021E030E0C9010A8C02C0880F991F0A9498
:10282000E2F7482B4083EE89FF894081C9010B8C78
:1028300002C0880F991F0A94E2F7482B4083EE8963
:10284000FF894081C9010C8C02C0880F991F0A942E
:10285000E2F7482B4083EE89FF8980810D8C02C00E
:10286000220F331F0A94E2F7209528232083DF915B
:10287000CF911F910F91FF90EF90DF90BF90AF909D
:102880000895DC011C96ED91FC911D97E05CFF4FD3
:102890002191319180819181281B390B2F733070E8
:1028A000C9010895DC011C96ED91FC911D97E05C37
:1028B000FF4F20813181E054F040DF01AE5BBF4F1C
:1028C0008D919C9111972817390719F42FEF3FEF3D
:1028D00007C08D919C91E80FF91F8081282F30E06F
:1028E000C9010895DC011C96ED91FC911D97E05CF7
:1028F000FF4F20813181E054F040DF01AE5BBF4FDC
:102900008D919C9111972817390719F42FEF3FEFFC
:1029100010C08D919C911197E80FF91F20818D9126
:102920009C91119701968F73907011969C938E9342
:1029300030E0C9010895FC0186859785DC01A05C23
:10294000BF4FFC01EE5BFF4F2D913C9111978081B1
:10295000918128173907C1F70895CF93DF93EC01D0
:10296000462FEE85FF85E05CFF4F80819181E0542A
:10297000F040019660E470E00E94A0199C01DF0124
:10298000AE5BBF4F8D919C91119728173907D1F3FA
:10299000E05CFF4F80819181E054F040E80FF91F27
:1029A0004083EE85FF85E05CFF4F31832083EE8915
:1029B000FF89208181E090E00D8C02C0880F991F73
:1029C0000A94E2F7282B208381E090E0DF91CF91F9
:1029D0000895109291051092900588EE93E0A0E082
:1029E000B0E08093920590939305A0939405B093E3
:1029F000950581E594E090938F0580938E0586E0A0
:102A000095E090939B0580939A058AE495E09093D6
:102A10009D0580939C0585EC90E090939F058093A5
:102A20009E0584EC90E09093A1058093A00580EC36
:102A300090E09093A3058093A20581EC90E09093A1
:102A4000A5058093A40586EC90E09093A70580935C
:102A5000A60584E08093A80583E08093A90587E01C
:102A60008093AA0585E08093AB0581E08093AC0557
:102A70000895CF93DF930E9453120E949902CFE5ED
:102A8000D3E10E948C022097E1F30E945F13F9CFFB
:102A9000CF92DF92EF92FF920F931F93CF93DF932A
:102AA0007C016B018A01C0E0D0E00FC0D6016D91BE
:102AB0006D01D701ED91FC910190F081E02DC701EE
:102AC0000995C80FD91F015010400115110571F764
:102AD000CE01DF91CF911F910F91FF90EF90DF908A
:102AE000CF900895EF92FF920F931F938C01DC011A
:102AF000ED91FC910190F081E02D6DE009957C0154
:102B0000D801ED91FC910190F081E02DC8016AE0BF
:102B100009959C012E0D3F1DC9011F910F91FF903A
:102B2000EF900895CF93DF93DB010D900020E9F73C
:102B30001197A61BB70BEC01E881F9810280F381A4
:102B4000E02DAD010995DF91CF9108954F925F92ED
:102B50007F928F929F92AF92BF92CF92DF92EF922D
:102B6000FF920F931F93DF93CF93CDB7DEB7A1975B
:102B70000FB6F894DEBF0FBECDBF2C01742ECB0173
:102B8000223008F42AE019A231E2C32ED12CCC0E57
:102B9000DD1E822E9924AA24BB24672D752FA50142
:102BA00094010E94B31979018A01C801B701A501F6
:102BB00094010E948119472D461B0894C108D10831
:102BC0004A3014F4405D01C0495CF6014083E114D1
:102BD000F1040105110521F07E2C5F2DC801DDCF28
:102BE000C201B6010E949215A1960FB6F894DEBFFD
:102BF0000FBECDBFCF91DF911F910F91FF90EF904E
:102C0000DF90CF90BF90AF909F908F907F905F901C
:102C10004F900895DC012115310541F4ED91FC91AF
:102C20000190F081E02D642F099508950E94A6156A
:102C30000895CF92DF92EF92FF920F931F93CF935D
:102C4000DF93EC016A017B012115310541F4E88134
:102C5000F9810190F081E02D642F09951FC02A3081
:102C60003105D1F477FF17C0E881F9810190F08137
:102C7000E02D6DE209958C0144275527BA014C19C6
:102C80005D096E097F09CE012AE00E94A615980110
:102C9000280F391F04C02AE00E94A6159C01C90113
:102CA000DF91CF911F910F91FF90EF90DF90CF9028
:102CB0000895EF92FF920F931F937C010E941916C3
:102CC0008C01C7010E9472159C01200F311FC901A0
:102CD0001F910F91FF90EF900895EF92FF920F9345
:102CE0001F937B019A010027F7FC0095102FB80174
:102CF000A7010E9419161F910F91FF90EF90089560
:102D0000CF92DF92EF92FF920F931F936C017B01A2
:102D10009A010027F7FC0095102FB801A7010E9427
:102D200019168C01C6010E947215080F191FC801DF
:102D30001F910F91FF90EF90DF90CF9008950E9428
:102D4000921508957F928F929F92AF92BF92CF92E9
:102D5000DF92EF92FF920F931F93CF93DF934C017B
:102D60007A018B01722ECB01BA0120E030E040E005
:102D700050E00E94CB1787FD03C0C0E0D0E00EC03A
:102D8000D401ED91FC910190F081E02DC4016DE240
:102D90000995EC0117FB109517F9109520E030E02C
:102DA00040E05FE3AA240BC0CA01B90120E030E093
:102DB00040E251E40E94CF179B01AC01A394A714F9
:102DC00098F3C801B7010E9467175B016C010E946C
:102DD0003C187B018C01C401B801A7012AE030E056
:102DE0000E940A16C80FD91F772039F0C4016AE380
:102DF00074E00E949215C80FD91FC801B7010E9444
:102E000068189B01AC01C601B5010E94661724C079
:102E100020E030E040E251E40E941E197B018C0169
:102E20000E9437185B016C01CC24B7FCC094DC2CE9
:102E3000C401B601A5012AE030E00E941916C80FAE
:102E4000D91FC601B5010E946A189B01AC01C801D7
:102E5000B7010E9466177A947720D1F6CE01DF91F0
:102E6000CF911F910F91FF90EF90DF90CF90BF9087
:102E7000AF909F908F907F9008950E94A216089522
:102E8000EF92FF920F931F937C010E94A2168C0178
:102E9000C7010E947215080F191FC8011F910F91D9
:102EA000FF90EF900895EF92FF920F931F937C0194
:102EB0000E9492158C01C7010E947215080F191FFC
:102EC000C8011F910F91FF90EF9008955058BB27B4
:102ED000AA270ED075C166D130F06BD120F031F445
:102EE0009F3F11F41EF45BC10EF4E095E7FB51C166
:102EF000E92F77D180F3BA17620773078407950724
:102F000018F071F49EF58FC10EF4E0950B2EBA2FD8
:102F1000A02D0B01B90190010C01CA01A0011124DF
:102F2000FF27591B99F0593F50F4503E68F11A168B
:102F3000F040A22F232F342F4427585FF3CF46951C
:102F400037952795A795F0405395C9F77EF41F163E
:102F5000BA0B620B730B840BBAF09150A1F0FF0F08
:102F6000BB1F661F771F881FC2F70EC0BA0F621FF4
:102F7000731F841F48F4879577956795B795F795E4
:102F80009E3F08F0B3CF9395880F08F09927EE0F76
:102F9000979587950895D9D008F481E008950CD0CD
:102FA0000FC107D140F0FED030F021F45F3F19F09F
:102FB000F0C0511139C1F3C014D198F39923C9F36A
:102FC0005523B1F3951B550BBB27AA27621773072F
:102FD000840738F09F5F5F4F220F331F441FAA1FE3
:102FE000A9F333D00E2E3AF0E0E830D091505040A3
:102FF000E695001CCAF729D0FE2F27D0660F771F51
:10300000881FBB1F261737074807AB07B0E809F032
:10301000BB0B802DBF01FF2793585F4F2AF09E3FC7
:10302000510568F0B6C000C15F3FECF3983EDCF399
:10303000869577956795B795F7959F5FC9F7880F40
:10304000911D9695879597F90895E1E0660F771F92
:10305000881FBB1F621773078407BA0720F0621B23
:10306000730B840BBA0BEE1F88F7E095089504D01C
:103070006894B111D9C00895BCD088F09F5790F0E2
:10308000B92F9927B751A0F0D1F0660F771F881F8D
:10309000991F1AF0BA95C9F712C0B13081F0C3D0A8
:1030A000B1E00895C0C0672F782F8827B85F39F046
:1030B000B93FCCF3869577956795B395D9F73EF4EC
:1030C00090958095709561957F4F8F4F9F4F089594
:1030D000E89409C097FB3EF49095809570956195B2
:1030E0007F4F8F4F9F4F9923A9F0F92F96E9BB2768
:1030F0009395F695879577956795B795F111F8CFE4
:10310000FAF4BB0F11F460FF1BC06F5F7F4F8F4F4E
:103110009F4F16C0882311F096E911C0772321F044
:103120009EE8872F762F05C0662371F096E8862FDC
:1031300070E060E02AF09A95660F771F881FDAF733
:10314000880F9695879597F90895990F0008550F60
:10315000AA0BE0E8FEEF16161706E807F907C0F01D
:1031600012161306E407F50798F0621B730B840B25
:10317000950B39F40A2661F0232B242B252B21F4FF
:1031800008950A2609F4A140A6958FEF811D811D9F
:10319000089597F99F6780E870E060E008959FEFD9
:1031A00080EC089500240A941616170618060906DE
:1031B000089500240A9412161306140605060895AD
:1031C000092E0394000C11F4882352F0BB0F40F435
:1031D000BF2B11F460FF04C06F5F7F4F8F4F9F4F75
:1031E000089557FD9058440F551F59F05F3F71F0F7
:1031F0004795880F97FB991F61F09F3F79F087955E
:103200000895121613061406551FF2CF4695F1DFE6
:1032100008C0161617061806991FF1CF8695710576
:10322000610508940895E894BB2766277727CB01AA
:1032300097F908958ADF08F48FEF08950BD0C0CF77
:10324000B1DF28F0B6DF18F0952309F0A2CFA7CFA1
:103250001124EACFC6DFA0F3959FD1F3950F50E07C
:10326000551F629FF001729FBB27F00DB11D639F38
:10327000AA27F00DB11DAA1F649F6627B00DA11DDE
:10328000661F829F2227B00DA11D621F739FB00D84
:10329000A11D621F839FA00D611D221F749F3327F4
:1032A000A00D611D231F849F600D211D822F762F8D
:1032B0006A2F11249F5750408AF0E1F088234AF08A
:1032C000EE0FFF1FBB1F661F771F881F91505040D6
:1032D000A9F79E3F510570F05CCFA6CF5F3FECF39E
:1032E000983EDCF3869577956795B795F795E795C2
:1032F0009F5FC1F7FE2B880F911D9695879597F9D3
:103300000895629FD001739FF001829FE00DF11D2F
:10331000649FE00DF11D929FF00D839FF00D749F4F
:10332000F00D659FF00D9927729FB00DE11DF91FFB
:10333000639FB00DE11DF91FBD01CF011124089558
:1033400097FB092E07260AD077FD04D049D006D076
:1033500000201AF4709561957F4F0895F6F79095C7
:1033600081959F4F0895A1E21A2EAA1BBB1BFD0158
:103370000DC0AA1FBB1FEE1FFF1FA217B307E40754
:10338000F50720F0A21BB30BE40BF50B661F771FAC
:10339000881F991F1A9469F760957095809590958C
:1033A0009B01AC01BD01CF01089597FB092E0526B5
:1033B0000ED057FD04D0D7DF0AD0001C38F450954A
:1033C0004095309521953F4F4F4F5F4F0895F6F749
:1033D00090958095709561957F4F8F4F9F4F089581
:1033E000AA1BBB1B51E107C0AA1FBB1FA617B7072B
:1033F00010F0A61BB70B881F991F5A95A9F7809547
:103400009095BC01CD010895EE0FFF1F0590F4913A
:08341000E02D0994F894FFCFB0
:103418004D6F746F72697A6564205261696C0076C9
:10342800302E31002053696D706C65204D6F7665C4
:103438000020536D6172742053657175656E636504
:10344800003E002042617369632053657175656EA3
:1034580063650020202020202020202020002053E9
:10346800706565643A200020506F736974696F6EE7
:103478003A2000202500204650533A0020230020FF
:103488004F75747075743A00207300204576656E28
:10349800743A00206D696E002052616E67653A00CB
:1034A80020537461727400202020202020002D00F9
:1034B8002044656C61793A00204672616D65733A03
:1034C80000204D6F76653A0020636D004275747474
:1034D8006F6E3A2000507265737365643A20004D30
:1034E8006F746F72697A65642043616D65726100FB
:1034F80073746172745F63757272656E744C6F6316
:103508006174696F6E3A2000656E645F63757272EC
:10351800656E744C6F636174696F6E3A2000202A7F
:103528002A2A2A2A2A2A2A2A2A2A2A2A2A2A2A2AF3
:103538002A2A2A2A2A2A2A2A2A2A2A2A2A002073CE
:10354800746570733A2000200020537461727420EF
:1035580073706565643A20002046756C6C20737042
:103568006565643A2000202D2D2D2D2D2D2D2D2D16
:103578002D2D2D2D2D2D2D2D2D2D2D2D2D2D2D2D73
:103588002D2D2D2D2D002052616D70696E672075CF
:1035980070002073746172742064656C61792070A6
:1035A800657220737465703A20002064656C6179D7
:1035B80020696E6372656D656E743A200020436FF2
:1035C8006E7374616E742073706565640020436F58
:1035D8006E7374616E742064656C617920706572B5
:1035E80020737465703A20002052616D70696E67AF
:1035F80020646F776E0020456E642064656C617985
:103608003A2000207265766F6C7574696F6E733A34
:1036180020002064697374616E63653A200041621A
:10362800736F6C7574652050657263656E74204D98
:103638006F766500090970657263656E743A2000DB
:103648002D2D2D2D2D2D2D5354415254494E4720AB
:1036580053494D504C45204D4F56452C20706172B2
:10366800616D65746572733A2D2D2D2D2D2D2D00EC
:10367800706172616D65746572732E6261736963DE
:103688004D6F766544656C61793A200070617261AE
:103698006D65746572732E62617369634D6F7665CB
:1036A8004672616D65733A2000706172616D657470
:1036B8006572732E62617369634D6F766552616ED0
:1036C80067653A2000696E74657276616C4C656E48
:1036D8006768743A20006C696E6553706565643A72
:1036E80020002D2D2D2D2D2D2D454E442053494D97
:1036F800504C45204D4F56452C2073756D6D6172A9
:10370800793A2D2D2D2D2D2D2D0074696D6553744D
:103718006172743A200074696D6546696E697368F0
:103728003A200074696D6546696E697368202D20BA
:1037380074696D6553746172743A200045787472C7
:10374800612064656C61793A20002E000100000058
:103758000045014815000040001400540000000016
:0E37680000AD1448154114721452149B140045
:00000001FF
