:100000000C9464000C948C000C948C000C948C0068
:100010000C948C000C948C000C948C000C948C0030
:100020000C948C000C948C000C948C000C948C0020
:100030000C948C000C948C000C948C000C948C0010
:100040000C940E0F0C948C000C94B7100C94FE10B2
:100050000C948C000C948C000C948C000C948C00F0
:100060000C948C000C948C000000000024002700ED
:100070002A0000000000250028002B0000000000DE
:1000800023002600290004040404040404040202DA
:100090000202020203030303030301020408102007
:1000A0004080010204081020010204081020000012
:1000B0000007000201000003040600000000000029
:1000C000000086024006751211241FBECFEFD8E053
:1000D000DEBFCDBF13E0A0E0B1E0E8E0FFE202C088
:1000E00005900D92A435B107D9F714E0A4E5B3E06B
:1000F00001C01D92AA36B107E1F710E0C8ECD0E0CC
:1001000004C02297FE010E947E17C23CD107C9F7A6
:100110000E94C5120C9482170C9400000F931F9339
:100120008C01FC01868160E00E94621081E090E019
:100130000E94D50FF801868161E00E94621081E083
:1001400090E00E94D50FF801868160E00E94621065
:1001500084E690E00E94D50F1F910F910895CF92F1
:10016000DF92EF92FF920F931F93CF93DF93D82EDE
:10017000C92E282F392FC9018C01C0E0D0E0E62E0E
:10018000FF24F801878161E00E943C10B7010C2E2A
:1001900002C0759567950A94E2F76170F80187814E
:1001A0000E94621021960F5F1F4FC830D10549F79A
:1001B0008D2D9C2D0E948E00DF91CF911F910F916C
:1001C000FF90EF90DF90CF900895CF92DF92EF9263
:1001D000FF920F931F93CF93DF93D82EC92E282F12
:1001E000392FC9018C01C0E0D0E0E62EFF24F801D0
:1001F000878161E00E943C10B7010C2E02C075950A
:1002000067950A94E2F76170F80187810E94621095
:1002100021960F5F1F4FC430D10549F78D2D9C2DBE
:100220000E948E00DF91CF911F910F91FF90EF9070
:10023000DF90CF9008951F93CF93DF93EC01162F9B
:100240008C81642F0E9462108D818F3F19F060E0D5
:100250000E9462108F8584FF05C0CE01612F0E942D
:10026000AF000EC0612F70E084E0759567958A95A8
:10027000E1F7CE010E94E500CE01612F0E94E5006A
:10028000DF91CF911F91089541E00E941B0181E011
:1002900090E0089540E00E941B010895FC016089F0
:1002A0006D7F608B68600E944A010895FC0160893F
:1002B000862F8460808B6C60CF010E944A01089574
:1002C000DF93CF93CDB7DEB728970FB6F894DEBF94
:1002D0000FBECDBF9C01FE013196ABE3B3E088E0D9
:1002E0000D9001928150E1F7F9018389481710F0D0
:1002F000482F4150E42FF0E0EE0FFF1FEC0FFD1FE1
:100300008181680F6068C9010E944A0128960FB672
:10031000F894DEBF0FBECDBFCF91DF91089561E0AD
:100320000E944A0180ED97E00E94D50F0895CF9377
:10033000DF93EC01423018F08F8588608F874B8BFC
:100340001C8A222329F0413019F48F8584608F871D
:1003500080E593EC0E94D50F8C8160E00E946210D2
:100360008E8160E00E9462108D818F3F19F060E005
:100370000E9462106F8564FD1DC0CE0163E00E9483
:10038000E50084E991E10E94D50FCE0163E00E946F
:10039000E50084E991E10E94D50FCE0163E00E945F
:1003A000E50086E990E00E94D50FCE0162E00E9450
:1003B000E50016C06062CE010E944A0184E991E125
:1003C0000E94D50F6F856062CE010E944A0186E9C6
:1003D00090E00E94D50F6F856062CE010E944A01B5
:1003E0006F856062CE010E944A0184E0888BCE0155
:1003F0000E945601CE010E948F0182E0898BCE01BE
:1004000066E00E944A01DF91CF9108956F927F923A
:100410008F92AF92CF92EF920F931F93DF93CF9370
:10042000CDB7DEB73C01162F842FF301448325831B
:100430000683E782C086A18682869D8593879E85F6
:1004400094879F8595879889968761E00E943C10E4
:10045000F30185818F3F19F061E00E943C10F301A8
:10046000868161E00E943C10112319F0F301178688
:1004700003C080E1F3018787C30160E141E020E030
:100480000E949701CF91DF911F910F91EF90CF9034
:10049000AF908F907F906F9008958F92AF92CF9290
:1004A000EF920F931F93CF93DF93DC01362F542FDE
:1004B000722F102FAE2C8C2C13961C921E9212971A
:1004C00087E393E011969C938E9300D000D0EDB714
:1004D000FEB73196CDB7DEB7198211821282138230
:1004E000CD0161E0432F2FEF052FE72EC12E0E9493
:1004F00006020F900F900F900F90DF91CF911F91F8
:100500000F91EF90CF90AF908F90089584E593E096
:100510000E94980A08950F931F9304E513E0C80101
:100520000E94A606C8010E94AB061F910F91089574
:100530008BE494E040E052EC61E070E00E944711EF
:100540000895EF92FF920F931F93CF93DF93EC01E7
:10055000162F072F862F972F0E948F01EC8CFD8C72
:1005600085E0E816F10409F424C186E0E816F104F8
:10057000ECF482E0E816F10409F482C083E0E816A6
:10058000F1044CF4E114F104A9F181E0E816F1045E
:1005900009F07DC24CC083E0E816F10409F497C06D
:1005A00084E0E816F10409F072C2C0C088E0E816E1
:1005B000F10409F491C189E0E816F1045CF486E0E5
:1005C000E816F10409F43CC187E0E816F10409F0EB
:1005D0005EC25FC18AE0E816F10409F4FBC18AE05B
:1005E000E816F1040CF4BBC18BE0E816F10409F045
:1005F0004EC215C2812F902F60E040E00E94600142
:10060000812F902F60E071E00E941714812F902FAE
:1006100060E041E00E946001812F902F6FE071E067
:100620000E9417141F8E1E8E19A218A230C2812F8D
:10063000902F60E040E00E946001812F902F64E1E4
:1006400071E00E941714812F902F60E041E00E941A
:100650006001812F902F61E271E00E941714812FB9
:10066000902F60E04A8D0E946001812F902F61E3FE
:1006700071E00E941714F9A2E8A282E090E0A7C1FD
:10068000812F902F60E040E00E946001812F902F29
:1006900063E371E00E941714812F902F60E041E026
:1006A0000E946001812F902F63E471E00E94171473
:1006B000812F902F60E04A8D0E946001812F902F42
:1006C00061E371E00E94171481E090E0DFC0812FA8
:1006D000902F60E040E00E946001812F902F6EE437
:1006E00071E00E9417146A817B81812F902F4AE06C
:1006F00050E00E94E513812F902F60E041E00E94BE
:100700006001812F902F67E571E00E9417146881C6
:100710007981812F902F4AE050E00E94E513812FCC
:10072000902F63E671E00E941714A1C1812F902FD2
:1007300060E040E00E946001812F902F66E671E04A
:100740000E9417146C817D81812F902F4AE050E028
:100750000E94E513812F902F6CE671E00E94171420
:10076000812F902F60E041E00E946001812F902F47
:100770006FE671E00E9417146E817F81812F902FA8
:100780004AE050E00E94E513812F902F68E771E066
:100790000E941714812F902F60E04A8D0E94600103
:1007A000812F902F61E371E00E941714F9A2E8A253
:1007B00044C0812F902F60E040E00E946001812FB3
:1007C000902F6BE771E00E94171468857985812F5F
:1007D000902F4AE050E00E94E513812F902F63E8AC
:1007E00071E00E941714812F902F60E041E00E9479
:1007F0006001812F902F68E871E00E9417146A85CC
:100800007B85812F902F4AE050E00E94E513812FD5
:10081000902F63E671E00E941714812F902F60E003
:100820004A8D0E946001812F902F61E371E00E9448
:10083000171484E090E099A388A386E090E0C7C0F5
:10084000812F902F60E040E00E946001812F902F67
:1008500060E971E00E941714812F902F60E041E061
:100860000E946001812F902F67E971E00E941714A8
:10087000812F902F60E04A8D0E946001812F902F80
:1008800061E371E00E94171484E090E099A388A3CB
:10089000FCC0812F902F60E040E00E946001812F1A
:1008A000902F67E971E00E941714812F902F60E06C
:1008B00041E00E946001812F902F67E971E00E9462
:1008C0001714812F902F60E04A8D0E946001812FC4
:1008D000902F6EE971E0A0C0812F902F60E040E082
:1008E0000E946001812F902F60EA71E00E9417142E
:1008F0006C857D85812F902F4AE050E00E94E513A2
:10090000812F902F68E771E00E941714812F902F9C
:1009100060E041E00E946001812F902F68EA71E061
:100920000E9417146E857F85812F902F4AE050E03A
:100930000E94E513812F902F6CE671E00E9417143E
:10094000812F902F60E04A8D0E946001812F902FAF
:1009500061E371E00E941714F9A2E8A236C0812F6A
:10096000902F60E040E00E946001812F902F61EBAA
:1009700071E00E94171468897989812F902F4AE0CD
:1009800050E00E94E513812F902F68EB71E00E94E8
:100990001714812F902F60E041E00E946001812FA9
:1009A000902F60E971E00E941714812F902F60E072
:1009B0004A8D0E946001812F902F61E371E00E94B7
:1009C000171488E090E099A388A389E090E09F8FB6
:1009D0008E8F5DC0812F902F60E040E00E9460010B
:1009E000812F902F67E971E00E941714812F902FBB
:1009F00060E041E00E946001812F902F67E971E083
:100A00000E941714812F902F60E04A8D0E94600190
:100A1000812F902F61E371E00E94171438C0812F5D
:100A2000902F60E040E00E946001812F902F6CEBDE
:100A300071E00E9417146B897C89812F902F4AE006
:100A400050E00E94E513812F902F60E041E00E946A
:100A50006001812F902F65EC71E00E9417146D8961
:100A60007E89812F902F4AE050E00E94E513812F6C
:100A7000902F60E04A8D0E946001812F902F61E3EA
:100A800071E00E941714F9A2E8A2FF8EEE8EDF91AA
:100A9000CF911F910F91FF90EF900895EF92FF92E9
:100AA0000F931F938C01F62EE72E862F972F60E170
:100AB00042E020E00E94970188E061E00E943C1043
:100AC00088E061E00E9462108F2D9E2D0E948F01B0
:100AD0008F2D9E2D60E040E00E9460018F2D9E2DA5
:100AE0006FEC71E00E9417148F2D9E2D60E041E0A5
:100AF0000E9460018F2D9E2D6FE071E00E941714FF
:100B0000F801118210821582148280E197E29383AA
:100B100082831782168211861086138612861586A6
:100B2000148617861686118A108A128A158E148EDC
:100B3000118E108E178A1F910F91FF90EF900895DC
:100B400083E0653878079CF5CB018D5B9240873C4C
:100B5000910518F421E030E02CC0CB01895592407A
:100B60008336910518F422E030E023C0CB0181598F
:100B70009140873C910518F423E030E01AC0CB0186
:100B80008D5291408336910518F424E030E011C075
:100B9000CB0185569040873C910518F425E030E064
:100BA00008C0643671051CF426E030E002C020E085
:100BB00030E0C90108950F931F93CF93DF93EC01A9
:100BC00081E10E941A10BC01CE010E94A0058C0197
:100BD0000E94560F9B01AC0101151105D9F18C81C2
:100BE0009D81AE81BF8180579F42AC4FBF4F82171E
:100BF0009307A407B50774F561E070E080E090E02A
:100C00000E947C0F81E10E941A10BC01CE010E945B
:100C1000A00508171907F1F461E070E080E090E0AA
:100C20000E947C0F81E10E941A10BC01CE010E943B
:100C3000A0059C010817190729F48A819B81019658
:100C40009B838A83398328830E94560F6C837D831C
:100C50008E839F83DF91CF911F910F9108950F9302
:100C60001F938C0181E160E00E943C1081E161E012
:100C70000E946210F801118210821F910F91089555
:100C8000CF92EF920F93DF93CF93CDB7DEB76597F7
:100C90000FB6F894DEBF0FBECDBF85E593E063E1EC
:100CA00070E042E150E00E94C20E81E793E00E94B2
:100CB0002F0689E793E062E043E024E005E056E098
:100CC000E52E37E0C32E0E944D0280917B03909168
:100CD0007C039C838B8387E393E09A838983809151
:100CE0007D038D8380917E038E8380917F038F832C
:100CF000DE011896E0E8F3E088E001900D92815063
:100D0000E1F780918803888B80918903898B80919A
:100D10008A038A8B80918B038B8B80918C038C8BC5
:100D200080918D038D8B8EE893E0BE016F5F7F4FC6
:100D30000E944E0565960FB6F894DEBF0FBECDBF7C
:100D4000CF91DF910F91EF90CF90089581E793E0DD
:100D50000E94DB050895DF93CF93CDB7DEB7C85A65
:100D6000D0400FB6F894DEBF0FBECDBF80917103A7
:100D7000909172038330910509F4B4C084309105D9
:100D800044F48130910509F472C1029709F0C6C399
:100D90000CC08530910509F46DC3853091050CF4C4
:100DA00022C2069709F0BAC3DAC28091A8039091D3
:100DB000A903019709F443C081E090E09093A9034F
:100DC0008093A8038091A6039091A7030196909326
:100DD000A7038093A60380917B0390917C039C835F
:100DE0008B8387E393E09A83898380917D038D834E
:100DF00080917E038E8380917F038F83DE0118961E
:100E0000E0E8F3E088E001900D928150E1F78091F5
:100E10008803888B80918903898B80918A038A8BD0
:100E200080918B038B8B80918C038C8B80918D03B5
:100E30008D8B8EE893E0BE016F5F7F4F11C12091D3
:100E4000AA033091AB038091AC039091AD032817B6
:100E500039070CF007C11092A9031092A8032F5F65
:100E60003F4F3093AB032093AA038091A603909148
:100E7000A70301969093A7038093A60380917B0319
:100E800090917C03998F888F87E393E09F8B8E8B63
:100E900080917D038A8F80917E038B8F80917F0369
:100EA0008C8FDE015D96E0E8F3E088E001900D9222
:100EB0008150E1F7809188038DA3809189038EA3EF
:100EC00080918A038FA380918B0388A780918C03E4
:100ED00089A780918D038AA78EE893E0BE016A5EA0
:100EE0007F4FBEC08091A8039091A903892B09F47C
:100EF00041C01092A9031092A8038091A60390917B
:100F0000A70301979093A7038093A60380917B0387
:100F100090917C039EA78DA787E393E09CA78BA766
:100F200080917D038FA780917E0388AB80917F03A2
:100F300089ABDE01D296E0E8F3E088E001900D9203
:100F40008150E1F7809188038AAF809189038BAF4C
:100F500080918A038CAF80918B038DAF80918C033D
:100F60008EAF80918D038FAF8EE893E0BE01655DFB
:100F70007F4F76C02091AA033091AB038091AE03DE
:100F80009091AF03821793070CF06CC081E090E062
:100F90009093A9038093A803215030403093AB0372
:100FA0002093AA038091A6039091A70301979093A1
:100FB000A7038093A60380917B0390917C03FE019D
:100FC000EE5BFF4F9183808387E393E0FE01E05C5B
:100FD000FF4F9183808380917D03FE01EC5BFF4F87
:100FE000808380917E03FE01EB5BFF4F80838091C5
:100FF0007F03FE01EA5BFF4F8083DE01A95BBF4FE9
:10100000E0E8F3E088E001900D928150E1F78091F3
:101010008803FE01E15BFF4F808380918903FE011D
:10102000E05BFF4F808380918A03FE01EF5AFF4F00
:10103000808380918B03FE01EE5AFF4F8083809165
:101040008C03FE01ED5AFF4F808380918D03FE01DA
:10105000EC5AFF4F80838EE893E0BE01605C7F4FC7
:101060000E94A102109272031092710357C28091E4
:10107000AA039091AB038330910501F52091A80359
:101080003091A9032115310559F480919003909175
:101090009103845F914090939103809390037DC06E
:1010A0002130310509F068C080918E0390918F0343
:1010B000059790938F0380938E036FC084309105C2
:1010C000E9F48091A8039091A903009751F48091CD
:1010D00092039091930301979093930380939203CB
:1010E0005CC0019709F059C08091940390919503D9
:1010F000019790939503809394034FC08530910599
:10110000E1F48091A8039091A903009751F4809194
:10111000960390919703019790939703809396037A
:101120003CC00197D1F58091980390919903019764
:10113000909399038093980330C088309105E1F42F
:101140008091A8039091A903009751F480919A038C
:1011500090919B03019790939B0380939A031DC0EA
:101160000197D9F480919C0390919D0301979093EE
:101170009D0380939C0311C0099779F48091A80383
:101180009091A903892B49F480919E0390919F032C
:10119000019790939F0380939E0310927203109285
:1011A0007103FE01EB5AFF4F80917B0390917C030A
:1011B0009383828387E393E09183808380917D038F
:1011C000848380917E03858380917F038683379615
:1011D000A0E8B3E088E00D9001928150E1F7FE01B4
:1011E000EB5AFF4F84C18091AA039091AB038330E7
:1011F000910501F52091A8033091A903211531052E
:1012000059F480919003909191038C509E4F90934C
:101210009103809390037DC02130310509F068C0AF
:1012200080918E0390918F03059690938F03809306
:101230008E036FC084309105E9F48091A8039091EA
:10124000A903009751F48091920390919303019622
:1012500090939303809392035CC0019709F059C067
:1012600080919403909195030196909395038093B8
:1012700094034FC085309105E1F48091A8039091CB
:10128000A903009751F480919603909197030196DA
:1012900090939703809396033CC00197D1F580917A
:1012A00098039091990301969093990380939803E2
:1012B00030C088309105E1F48091A8039091A90392
:1012C000009751F480919A0390919B03019690931B
:1012D0009B0380939A031DC00197D9F480919C03CE
:1012E00090919D03019690939D0380939C0311C060
:1012F000099779F48091A8039091A903892B49F467
:1013000080919E0390919F03019690939F038093F9
:101310009E031092720310927103FE01E659FF4F73
:1013200080917B0390917C039383828387E393E096
:101330009183808380917D03848380917E03858364
:1013400080917F0386833796A0E8B3E088E00D9014
:1013500001928150E1F7FE01E659FF4FC8C080912C
:10136000AA039091AB038230910539F18330910546
:1013700009F444C08130910509F056C09093B1033F
:101380008093B0038091A6039091A7039093B30339
:101390008093B2038091A8039091A9039093B50321
:1013A0008093B403009719F00197F1F503C083E02F
:1013B00090E01BC084E090E018C09093B10380934C
:1013C000B0038091A6039091A7039093B3038093F9
:1013D000B2038091A8039091A9039093B5038093E1
:1013E000B403892B09F588E090E09093AB038093D8
:1013F000AA031092A9031092A80316C085E593E0F2
:1014000064EF71E00E94010B609190037091910371
:1014100085E593E00E94FD0A60918E0370918F0331
:1014200085E593E00E946C0E109272031092710396
:10143000FE01E158FF4F80917B0390917C039383E1
:10144000828387E393E09183808380917D0384830B
:1014500080917E03858380917F0386833796A0E801
:10146000B3E088E00D9001928150E1F7FE01E15870
:10147000FF4F3DC08091B0039091B1039093AB03B7
:101480008093AA038091B2039091B3039093A70332
:101490008093A6038091B4039091B5039093A90320
:1014A0008093A8031092720310927103FE01EC5610
:1014B000FF4F80917B0390917C039383828387E32A
:1014C00093E09183808380917D03848380917E0368
:1014D000858380917F0386833796A0E8B3E088E018
:1014E0000D9001928150E1F7FE01EC56FF4F809183
:1014F0008803878780918903808B80918A03818B01
:1015000080918B03828B80918C03838B80918D03E0
:10151000848B8EE893E0BF010E94A102C855DF4F83
:101520000FB6F894DEBF0FBECDBFCF91DF91089507
:10153000DF93CF93CDB7DEB765970FB6F894DEBFD4
:101540000FBECDBF8DE061E00E943C108DE060E0F9
:101550000E94621089E793E060E142E020E00E948F
:10156000970189E793E00E944E0181E090E090931B
:10157000AB038093AA031092A7031092A603809155
:101580007B0390917C039C838B8387E393E09A8316
:10159000898380917D038D8380917E038E838091EA
:1015A0007F038F83DE011896E0E8F3E088E0019086
:1015B0000D928150E1F780918803888B8091890397
:1015C000898B80918A038A8B80918B038B8B80918E
:1015D0008C038C8B80918D038D8B8EE893E0BE0104
:1015E0006F5F7F4F0E94A10265960FB6F894DEBF31
:1015F0000FBECDBFCF91DF910895FC017587648741
:101600000895FC01738F628F08952F923F924F923D
:101610005F926F927F928F929F92AF92BF92CF9282
:10162000DF92EF92FF920F931F93DF93CF93CDB78B
:10163000DEB760970FB6F894DEBF0FBECDBF2C01AA
:101640003A014B018BE494E060EE71E00E941714C4
:10165000D2011E964D915D916D917C9151978BE4D5
:1016600094E022E030E00E94B814F20187818823E0
:1016700021F1C401B301A40193010E94DF142BEDF9
:101680003FE049E450E40E9496162CE839EB4BE425
:101690005FE30E94961620E030E048EC55E40E949B
:1016A00047159B01AC01D2011E966D917D918D91E4
:1016B0009C9151970E94DE1423C0C401B301A40180
:1016C00093010E94DF142BED3FE049E450E40E94B7
:1016D00096162CE839EB4BE45FE30E94961620E067
:1016E00030E048EC55E40E9447159B01AC01D20163
:1016F0001E966D917D918D919C9151970E94DF1462
:10170000F20166877787808B918B8BE494E068EF9A
:1017100071E00E941714D2011E964D915D916D915A
:101720007C9151978BE494E022E030E00E94B81461
:101730008BE494E06EE072E00E94CB14F2018181B0
:1017400067810E94621062E370E080E090E00E9496
:101750007C0FD2011C960D911C911D97C401B30101
:1017600020E030E84BEB54E40E9443158823ACF4AE
:101770006D827E828F82988680E090E0A0E0B0E06B
:1017800089879A87AB87BC8780E090E0AAE7B4E4BA
:1017900089839A83AB83BC8327C0C401B30120E053
:1017A00030E04AE754E40E94DE146D837E838F8329
:1017B00098879801442737FD4095542F60E472E4E0
:1017C0008FE090E00E944D17CA01B9010E94E21516
:1017D00069837A838B839C8380E090E0AAEFB3E4F3
:1017E00089879A87AB87BC87B801882777FD809562
:1017F000982F0E94E2155B016C0120E030E04AE77F
:1018000054E40E94431587FD0AC00F2EF0E0AF2E6E
:10181000F0E0BF2EFAE7CF2EF4E4DF2EF02D698141
:101820007A818B819C8120E030E04AE754E40E9479
:10183000DE1429853A854B855C850E9447156D87A6
:101840007E878F87988BD2018C91882309F46DC095
:101850008BE494E06EE272E00E9417148BE494E053
:10186000B401A30122E030E00E94B8148BE494E0BC
:1018700067E372E00E94CB148BE494E069E372E0CA
:101880000E9417148BE494E0B601A50122E030E039
:101890000E94B5148BE494E068E472E00E9417148F
:1018A000F201648575858BE494E04AE050E00E9483
:1018B000F8138BE494E066E572E00E94CB148BE4AD
:1018C00094E066E772E00E94CB148BE494E06EE251
:1018D00072E00E9417148BE494E049855A856B8569
:1018E0007C8522E030E00E94B8148BE494E062E84A
:1018F00072E00E9417148BE494E040E050E06AE745
:1019000074E422E030E00E94B8148BE494E06AE9C9
:1019100072E00E9417148BE494E04D855E856F851C
:10192000788922E030E00E94B8140F2EF0E0AF2E4C
:10193000F0E0BF2EFAE7CF2EF4E4DF2EF02D88EE94
:10194000282E83E0382E00E010E039C0D201139633
:101950008C9161E00E946210C1010E94D50FF201DA
:10196000838160E00E946210C1010E94D50FC60110
:10197000B5012D853E854F8558890E94DF145B0196
:101980006C0120E030E040E050E00E949216882395
:101990004CF0C601B50120E030E040E05FE30E947A
:1019A000DF1408C0C601B50120E030E040E05FE38D
:1019B0000E94DE140E94AF151B010F5F1F4FB8017C
:1019C000882777FD8095982F0E94E21529853A8512
:1019D0004B855C850E94431587FDB8CFD2018C9161
:1019E0008823C9F18BE494E066E572E00E94CB1491
:1019F0008BE494E06DEA72E00E94CB148BE494E0F7
:101A00006EE272E00E9417148BE494E04D815E81D7
:101A10006F81788522E030E00E94B8148BE494E076
:101A200068E472E00E941714F201648575858BE406
:101A300094E04AE050E00E94F8138BE494E06DEBF0
:101A400072E00E9417148BE494E0A501B60122E035
:101A500030E00E94B8146624772443011EC0D201EE
:101A600013968C9161E00E94621069817A818B816A
:101A70009C810E94B4157B018C01CB010E94D50F83
:101A8000F201838160E00E946210C7010E94D50FBD
:101A90000894611C711C811C911CC401B3010E943B
:101AA000E2152D813E814F8158850E94431587FDA7
:101AB000D6CFD2018C918823E1F08BE494E066E5E7
:101AC00072E00E94CB148BE494E068ED72E00E9417
:101AD000CB148BE494E06EE272E00E9417148BE466
:101AE00094E049855A856B857C8522E030E00E9430
:101AF000B81400E010E039C0F201838161E00E9477
:101B00006210C1010E94D50FD20113968C9160E042
:101B10000E946210C1010E94D50FC601B5012D853A
:101B20003E854F8558890E94DE145B016C0120E0E0
:101B300030E040E050E00E94921688234CF0C6014D
:101B4000B50120E030E040E05FE30E94DF1408C010
:101B5000C601B50120E030E040E05FE30E94DE1402
:101B60000E94AF151B010F5F1F4FB801882777FD3B
:101B70008095982F0E94E21529853A854B855C85D2
:101B80000E94431587FDB8CFF20180818823A1F020
:101B90008BE494E066EE72E00E9417148BE494E00C
:101BA000B601A50122E030E00E94B8148BE494E075
:101BB00067E372E00E94CB1460960FB6F894DEBF24
:101BC0000FBECDBFCF91DF911F910F91FF90EF908E
:101BD000DF90CF90BF90AF909F908F907F906F904D
:101BE0005F904F903F902F900895EF92FF920F9348
:101BF0001F93CF93DF93EC017A018B0188818823B7
:101C000071F08BE494E063EF72E00E9417148BE4B0
:101C100094E0B801A70122E030E00E94B814C801A6
:101C2000B70120E030E048EC55E40E949616AB0185
:101C3000BC01CE010E94050BDF91CF911F910F9146
:101C4000FF90EF900895EF92FF920F931F93CF9321
:101C5000DF93EC017A018B018881882371F08BE49A
:101C600094E062E073E00E9417148BE494E0B80102
:101C7000A70122E030E00E94B814C801B70120E0BB
:101C800030E040E050E00E9443152D813E818823E2
:101C900044F417FB109517F910952130310521F404
:101CA00006C02130310519F481E08F8301C01F8205
:101CB000C801B7012DE431E040EA50E40E94471525
:101CC000AB01BC01CE010E94F50DDF91CF911F91B8
:101CD0000F91FF90EF900895CF92DF92EF92FF92D5
:101CE0000F931F93CF93DF93EC018B01CE84DF849E
:101CF000E888F98888818823F9F08BE494E066E528
:101D000072E00E94CB148BE494E06EE073E00E94DA
:101D1000CB148BE494E06EE072E00E94CB148BE471
:101D200094E064E273E00E9417148BE494E0B8013D
:101D30004AE050E00E94F81388E490E09C01029F82
:101D4000C001039F900D129F900D112464E670E076
:101D50000E941817882777FD8095982F0E94E2151A
:101D6000A70196010E94DE14AB01BC01CE010E94C6
:101D7000230EDF91CF911F910F91FF90EF90DF9095
:101D8000CF900895CF92DF92EF92FF920F931F931F
:101D90008C01F62ED72EE42EC52E862F61E00E94F0
:101DA0003C108E2D61E00E943C10F801F182D2823D
:101DB0008FEF9FEF96838583E382C48221E02783A0
:101DC00080E090E0A0E8BFE380879187A287B38797
:101DD000208380E090E0A0E9B2E4828B938BA48B17
:101DE000B58B1586148680E090E0A0E0B0E0868791
:101DF0009787A08BB18B8DEC9CECACECBDE3868B14
:101E0000978BA08FB18F84EF91E0938F828F1F917A
:101E10000F91FF90EF90DF90CF9008951F920F9257
:101E20000FB60F9211242F933F938F939F93AF93ED
:101E3000BF938091BE039091BF03A091C003B09166
:101E4000C1033091C2030196A11DB11D232F2D5F47
:101E50002D3720F02D570196A11DB11D2093C203EF
:101E60008093BE039093BF03A093C003B093C103BC
:101E70008091BA039091BB03A091BC03B091BD03C4
:101E80000196A11DB11D8093BA039093BB03A0934B
:101E9000BC03B093BD03BF91AF919F918F913F91D0
:101EA0002F910F900FBE0F901F9018959FB7F89429
:101EB0002091BA033091BB034091BC035091BD0304
:101EC00086B5A89B06C08F3F21F02F5F3F4F4F4F35
:101ED0005F4F9FBF542F432F322F2227280F311DD2
:101EE000411D511D82E0220F331F441F551F8A954B
:101EF000D1F7B901CA0108959B01AC017FB7F894ED
:101F00008091BA039091BB03A091BC03B091BD0333
:101F100066B5A89B05C06F3F19F00196A11DB11DC4
:101F20007FBFBA2FA92F982F8827860F911DA11D3B
:101F3000B11D62E0880F991FAA1FBB1F6A95D1F7D8
:101F4000BC012DC0FFB7F8948091BA039091BB03F8
:101F5000A091BC03B091BD03E6B5A89B05C0EF3FBF
:101F600019F00196A11DB11DFFBFBA2FA92F982FFF
:101F700088278E0F911DA11DB11DE2E0880F991FCA
:101F8000AA1FBB1FEA95D1F7861B970B885E93406B
:101F9000C8F2215030404040504068517C4F2115DC
:101FA00031054105510571F60895019739F0880F03
:101FB000991F880F991F02970197F1F70895789458
:101FC00084B5826084BD84B5816084BD85B582603E
:101FD00085BD85B5816085BDEEE6F0E080818160DC
:101FE0008083E1E8F0E010828081826080838081DC
:101FF00081608083E0E8F0E0808181608083E1EBB4
:10200000F0E0808184608083E0EBF0E0808181609B
:102010008083EAE7F0E08081846080838081826051
:10202000808380818160808380818068808310923A
:10203000C1000895982F8E3008F09E5097708091BF
:1020400032038295880F880F807C892B80937C00D7
:1020500080917A00806480937A0080917A0086FD76
:10206000FCCF2091780040917900942F80E030E0FF
:10207000282B392BC9010895482F50E0CA018656F4
:102080009F4FFC0124914A575F4FFA0184918823A6
:10209000C1F0E82FF0E0EE0FFF1FE859FF4FA591C8
:1020A000B491662341F49FB7F8948C9120958223D4
:1020B0008C939FBF08959FB7F8948C91822B8C933B
:1020C0009FBF0895482F50E0CA0182559F4FFC01E1
:1020D0002491CA0186569F4FFC0194914A575F4F45
:1020E000FA013491332309F440C0222351F1233003
:1020F00071F0243028F42130A1F0223011F514C001
:102100002630B1F02730C1F02430D9F404C08091DA
:1021100080008F7703C0809180008F7D8093800046
:1021200010C084B58F7702C084B58F7D84BD09C08F
:102130008091B0008F7703C08091B0008F7D809335
:10214000B000E32FF0E0EE0FFF1FEE58FF4FA59118
:10215000B4912FB7F894662321F48C91909589233C
:1021600002C08C91892B8C932FBF089508951F92E4
:102170000F920FB60F9211242F933F934F938F938B
:102180009F93EF93FF934091C600209103043091F9
:1021900004042F5F3F4F2F7330708091050490919E
:1021A00006042817390759F0E0910304F09104045C
:1021B000ED53FC4F40833093040420930304FF91BC
:1021C000EF919F918F914F913F912F910F900FBE63
:1021D0000F901F901895E0915704F0915804E05C1F
:1021E000FF4F8191919120813181821B930B8F73DD
:1021F0009070892B11F00E94B61008951F920F92D3
:102200000FB60F9211242F933F934F935F936F93C9
:102210007F938F939F93AF93BF93EF93FF932091FF
:102220004704309148048091490490914A0428174A
:10223000390731F48091C1008F7D8093C10016C0B1
:10224000E0914904F0914A04E95FFB4F408180919D
:10225000490490914A04019660E470E00E941817C6
:1022600090934A04809349044093C600FF91EF91F4
:10227000BF91AF919F918F917F916F915F914F919E
:102280003F912F910F900FBE0F901F901895AF9216
:10229000BF92DF92EF92FF920F931F93CF93DF9342
:1022A000EC017A018B01DD24403081EE580780E09B
:1022B000680780E0780711F0DD24D39491E0A92E1F
:1022C000B12CEC89FD89DD2069F0C5010E8C02C0BE
:1022D000880F991F0A94E2F7808360E079E08DE32C
:1022E00090E005C0108260E874E88EE190E0A801FB
:1022F00097010E942B172150304040405040569586
:1023000047953795279580E12030380720F0DD206C
:1023100011F0DD24D6CFE889F9893083EA89FB8979
:102320002083EE89FF89408121E030E0C9010A8CD9
:1023300002C0880F991F0A94E2F7482B4083EE8968
:10234000FF894081C9010B8C02C0880F991F0A9434
:10235000E2F7482B4083EE89FF894081C9010C8C4C
:1023600002C0880F991F0A94E2F7482B4083EE8938
:10237000FF8980810D8C02C0220F331F0A94E2F77F
:10238000209528232083DF91CF911F910F91FF90FB
:10239000EF90DF90BF90AF900895DC011C96ED9117
:1023A000FC911D97E05CFF4F2191319180819181DB
:1023B000281B390B2F733070C9010895DC011C965E
:1023C000ED91FC911D97E05CFF4F20813181E0543D
:1023D000F040DF01AE5BBF4F8D919C9111972817A4
:1023E000390719F42FEF3FEF07C08D919C91E80F4B
:1023F000F91F8081282F30E0C9010895DC011C9667
:10240000ED91FC911D97E05CFF4F20813181E054FC
:10241000F040DF01AE5BBF4F8D919C911197281763
:10242000390719F42FEF3FEF10C08D919C91119750
:10243000E80FF91F20818D919C91119701968F7360
:10244000907011969C938E9330E0C9010895FC0121
:1024500086859785DC01A05CBF4FFC01EE5BFF4FDA
:102460002D913C9111978081918128173907C1F7EF
:102470000895CF93DF93EC01462FEE85FF85E05C56
:10248000FF4F80819181E054F040019660E470E05C
:102490000E9418179C01DF01AE5BBF4F8D919C918C
:1024A000119728173907D1F3E05CFF4F80819181A4
:1024B000E054F040E80FF91F4083EE85FF85E05CB3
:1024C000FF4F31832083EE89FF89208181E090E0F6
:1024D0000D8C02C0880F991F0A94E2F7282B2083E5
:1024E00081E090E0DF91CF91089510924E04109218
:1024F0004D0488EE93E0A0E0B0E080934F04909309
:102500005004A0935104B093520487E493E0909355
:102510004C0480934B0483EC93E090935804809395
:10252000570487E094E090935A048093590485EC13
:1025300090E090935C0480935B0484EC90E0909333
:102540005E0480935D0480EC90E09093600480933F
:102550005F0481EC90E0909362048093610486ECC8
:1025600090E0909364048093630484E08093650416
:1025700083E08093660487E08093670485E080931E
:10258000680481E0809369040895CF93DF930E94EB
:10259000DF0F0E949802CBEED0E10E948B022097C1
:1025A000E1F30E94EB10F9CFCF92DF92EF92FF920E
:1025B0000F931F93CF93DF937C016B018A01C0E0DF
:1025C000D0E00FC0D6016D916D01D701ED91FC9166
:1025D0000190F081E02DC7010995C80FD91F015066
:1025E00010400115110571F7CE01DF91CF911F91B8
:1025F0000F91FF90EF90DF90CF900895EF92FF92B0
:102600000F931F938C01DC01ED91FC910190F081FF
:10261000E02D6DE009957C01D801ED91FC910190D0
:10262000F081E02DC8016AE009959C012E0D3F1D47
:10263000C9011F910F91FF90EF900895CF93DF9301
:10264000DB010D900020E9F71197A61BB70BEC01F9
:10265000E881F9810280F381E02DAD010995DF91D8
:10266000CF9108954F925F927F928F929F92AF92F7
:10267000BF92CF92DF92EF92FF920F931F93DF935F
:10268000CF93CDB7DEB7A1970FB6F894DEBF0FBEDC
:10269000CDBF2C01742ECB01223008F42AE019A200
:1026A00031E2C32ED12CCC0EDD1E822E9924AA2419
:1026B000BB24672D752FA50194010E942B1779016A
:1026C0008A01C801B701A50194010E94F916472D9E
:1026D000461B0894C108D1084A3014F4405D01C07B
:1026E000495CF6014083E114F1040105110521F074
:1026F0007E2C5F2DC801DDCFC201B6010E941E13E2
:10270000A1960FB6F894DEBF0FBECDBFCF91DF917B
:102710001F910F91FF90EF90DF90CF90BF90AF90FF
:102720009F908F907F905F904F900895DC012115CE
:10273000310541F4ED91FC910190F081E02D642F81
:10274000099508950E9432130895CF92DF92EF9277
:10275000FF920F931F93CF93DF93EC016A017B01EC
:102760002115310541F4E881F9810190F081E02DD6
:10277000642F09951FC02A303105D1F477FF17C0A7
:10278000E881F9810190F081E02D6DE209958C01DD
:1027900044275527BA014C195D096E097F09CE01FE
:1027A0002AE00E9432139801280F391F04C02AE042
:1027B0000E9432139C01C901DF91CF911F910F91AB
:1027C000FF90EF90DF90CF900895EF92FF920F93DC
:1027D0001F937B019A010027F7FC0095102FB80189
:1027E000A7010E94A5131F910F91FF90EF900895EC
:1027F000CF92DF92EF92FF920F931F936C017B01B8
:102800009A010027F7FC0095102FB801A7010E943C
:10281000A5138C01C6010E94FE12080F191FC801E2
:102820001F910F91FF90EF90DF90CF9008950E943D
:102830001E1308957F928F929F92AF92BF92CF9274
:10284000DF92EF92FF920F931F93CF93DF934C0190
:102850007A018B01722ECB01BA0120E030E040E01A
:1028600050E00E94431587FD03C0C0E0D0E00EC0D9
:10287000D401ED91FC910190F081E02DC4016DE255
:102880000995EC0117FB109517F9109520E030E041
:1028900040E05FE3AA240BC0CA01B90120E030E0A8
:1028A00040E251E40E9447159B01AC01A394A71498
:1028B00098F3C801B7010E94DF145B016C010E940C
:1028C000B4157B018C01C401B801A7012AE030E0F6
:1028D0000E949613C80FD91F772039F0C40160E316
:1028E00073E00E941E13C80FD91FC801B7010E94D0
:1028F000E0159B01AC01C601B5010E94DE1424C0A5
:1029000020E030E040E251E40E9496167B018C0109
:102910000E94AF155B016C01CC24B7FCC094DC2C89
:10292000C401B601A5012AE030E00E94A513C80F3A
:10293000D91FC601B5010E94E2159B01AC01C80177
:10294000B7010E94DE147A947720D1F6CE01DF9190
:10295000CF911F910F91FF90EF90DF90CF90BF909C
:10296000AF909F908F907F9008950E941A140895C1
:10297000EF92FF920F931F937C010E941A148C0117
:10298000C7010E94FE12080F191FC8011F910F9165
:10299000FF90EF900895EF92FF920F931F937C01A9
:1029A0000E941E138C01C7010E94FE12080F191FFE
:1029B000C8011F910F91FF90EF9008955058BB27C9
:1029C000AA270ED075C166D130F06BD120F031F45A
:1029D0009F3F11F41EF45BC10EF4E095E7FB51C17B
:1029E000E92F77D180F3BA17620773078407950739
:1029F00018F071F49EF58FC10EF4E0950B2EBA2FEE
:102A0000A02D0B01B90190010C01CA01A0011124F4
:102A1000FF27591B99F0593F50F4503E68F11A16A0
:102A2000F040A22F232F342F4427585FF3CF469531
:102A300037952795A795F0405395C9F77EF41F1653
:102A4000BA0B620B730B840BBAF09150A1F0FF0F1D
:102A5000BB1F661F771F881FC2F70EC0BA0F621F09
:102A6000731F841F48F4879577956795B795F795F9
:102A70009E3F08F0B3CF9395880F08F09927EE0F8B
:102A8000979587950895D9D008F481E008950CD0E2
:102A90000FC107D140F0FED030F021F45F3F19F0B4
:102AA000F0C0511139C1F3C014D198F39923C9F37F
:102AB0005523B1F3951B550BBB27AA276217730744
:102AC000840738F09F5F5F4F220F331F441FAA1FF8
:102AD000A9F333D00E2E3AF0E0E830D091505040B8
:102AE000E695001CCAF729D0FE2F27D0660F771F66
:102AF000881FBB1F261737074807AB07B0E809F048
:102B0000BB0B802DBF01FF2793585F4F2AF09E3FDC
:102B1000510568F0B6C000C15F3FECF3983EDCF3AE
:102B2000869577956795B795F7959F5FC9F7880F55
:102B3000911D9695879597F90895E1E0660F771FA7
:102B4000881FBB1F621773078407BA0720F0621B38
:102B5000730B840BBA0BEE1F88F7E095089504D031
:102B60006894B111D9C00895BCD088F09F5790F0F7
:102B7000B92F9927B751A0F0D1F0660F771F881FA2
:102B8000991F1AF0BA95C9F712C0B13081F0C3D0BD
:102B9000B1E00895C0C0672F782F8827B85F39F05B
:102BA000B93FCCF3869577956795B395D9F73EF401
:102BB00090958095709561957F4F8F4F9F4F0895A9
:102BC000E89409C097FB3EF49095809570956195C7
:102BD0007F4F8F4F9F4F9923A9F0F92F96E9BB277D
:102BE0009395F695879577956795B795F111F8CFF9
:102BF000FAF4BB0F11F460FF1BC06F5F7F4F8F4F64
:102C00009F4F16C0882311F096E911C0772321F059
:102C10009EE8872F762F05C0662371F096E8862FF1
:102C200070E060E02AF09A95660F771F881FDAF748
:102C3000880F9695879597F90895990F0008550F75
:102C4000AA0BE0E8FEEF16161706E807F907C0F032
:102C500012161306E407F50798F0621B730B840B3A
:102C6000950B39F40A2661F0232B242B252B21F414
:102C700008950A2609F4A140A6958FEF811D811DB4
:102C8000089597F99F6780E870E060E008959FEFEE
:102C900080EC089500240A941616170618060906F3
:102CA000089500240A9412161306140605060895C2
:102CB000092E0394000C11F4882352F0BB0F40F44A
:102CC000BF2B11F460FF04C06F5F7F4F8F4F9F4F8A
:102CD000089557FD9058440F551F59F05F3F71F00C
:102CE0004795880F97FB991F61F09F3F79F0879573
:102CF0000895121613061406551FF2CF4695F1DFFC
:102D000008C0161617061806991FF1CF869571058B
:102D1000610508940895E894BB2766277727CB01BF
:102D200097F908958ADF08F48FEF08950BD0C0CF8C
:102D3000B1DF28F0B6DF18F0952309F0A2CFA7CFB6
:102D40001124EACFC6DFA0F3959FD1F3950F50E091
:102D5000551F629FF001729FBB27F00DB11D639F4D
:102D6000AA27F00DB11DAA1F649F6627B00DA11DF3
:102D7000661F829F2227B00DA11D621F739FB00D99
:102D8000A11D621F839FA00D611D221F749F332709
:102D9000A00D611D231F849F600D211D822F762FA2
:102DA0006A2F11249F5750408AF0E1F088234AF09F
:102DB000EE0FFF1FBB1F661F771F881F91505040EB
:102DC000A9F79E3F510570F05CCFA6CF5F3FECF3B3
:102DD000983EDCF3869577956795B795F795E795D7
:102DE0009F5FC1F7FE2B880F911D9695879597F9E8
:102DF0000895629FD001739FF001829FE00DF11D45
:102E0000649FE00DF11D929FF00D839FF00D749F64
:102E1000F00D659FF00D9927729FB00DE11DF91F10
:102E2000639FB00DE11DF91FBD01CF01112408956D
:102E300097FB092E07260AD077FD04D049D006D08B
:102E400000201AF4709561957F4F0895F6F79095DC
:102E500081959F4F0895A1E21A2EAA1BBB1BFD016D
:102E60000DC0AA1FBB1FEE1FFF1FA217B307E40769
:102E7000F50720F0A21BB30BE40BF50B661F771FC1
:102E8000881F991F1A9469F76095709580959095A1
:102E90009B01AC01BD01CF01089597FB092E0526CA
:102EA0000ED057FD04D0D7DF0AD0001C38F450955F
:102EB0004095309521953F4F4F4F5F4F0895F6F75E
:102EC00090958095709561957F4F8F4F9F4F089596
:102ED000AA1BBB1B51E107C0AA1FBB1FA617B70740
:102EE00010F0A61BB70B881F991F5A95A9F780955C
:102EF0009095BC01CD010895EE0FFF1F0590F49150
:082F0000E02D0994F894FFCFC5
:102F08004D6F746F72697A6564205261696C0076DE
:102F1800302E31002053696D706C65204D6F7665D9
:102F28000020536D6172742053657175656E636519
:102F3800003E002042617369632053657175656EB8
:102F480063650020202020202020202020002053FE
:102F5800706565643A200020506F736974696F6EFC
:102F68003A2000202500204650533A002023002014
:102F78004F75747075743A00207300204576656E3D
:102F8800743A00206D696E002052616E67653A00E0
:102F980020537461727400202020202020002D000E
:102FA8002044656C61793A00204672616D65733A18
:102FB80000204D6F76653A0020636D004275747489
:102FC8006F6E3A2000507265737365643A20004D45
:102FD8006F746F72697A65642043616D6572610010
:102FE80073746172745F63757272656E744C6F632B
:102FF8006174696F6E3A2000656E645F6375727202
:10300800656E744C6F636174696F6E3A2000202A94
:103018002A2A2A2A2A2A2A2A2A2A2A2A2A2A2A2A08
:103028002A2A2A2A2A2A2A2A2A2A2A2A2A002073E3
:10303800746570733A200020002053746172742004
:1030480073706565643A20002046756C6C20737057
:103058006565643A2000202D2D2D2D2D2D2D2D2D2B
:103068002D2D2D2D2D2D2D2D2D2D2D2D2D2D2D2D88
:103078002D2D2D2D2D002052616D70696E672075E4
:1030880070002073746172742064656C61792070BB
:10309800657220737465703A20002064656C6179EC
:1030A80020696E6372656D656E743A200020436F07
:1030B8006E7374616E742073706565640020436F6D
:1030C8006E7374616E742064656C617920706572CA
:1030D80020737465703A20002052616D70696E67C4
:1030E80020646F776E0020456E642064656C61799A
:1030F8003A2000207265766F6C7574696F6E733A4A
:1031080020002064697374616E63653A200041622F
:10311800736F6C7574652050657263656E74204DAD
:103128006F766500090970657263656E743A2000F0
:103138002E0001000000004401D4120000400014D9
:10314800005400000000003912D412CD11FE11DE27
:043158001127120029
:00000001FF
