:100000000C9482000C94AA000C94AA000C94AA00F0
:100010000C94AA000C94AA000C94AA000C94AA00B8
:100020000C94AA000C94AA000C94AA000C94AA00A8
:100030000C94AA000C94AA000C94AA000C94AA0098
:100040000C94CF1A0C94AA000C94861C0C94CD1C12
:100050000C94AA000C94AA000C94AA000C94AA0078
:100060000C94AA000C94AA000000000024002700B1
:100070002A0000000000250028002B0000000000DE
:1000800023002600290004040404040404040202DA
:100090000202020203030303030301020408102007
:1000A0004080010204081020010204081020000012
:1000B0000007000201000003040600000000000029
:1000C0000000494E46494E4954594E414ECDCCCC84
:1000D0003D0AD7233C17B7D13877CC2B329595E61C
:1000E000241FB14F0A000020410000C84200401CFC
:1000F0004620BCBE4CCA1B0E5AAEC59D74001106EC
:10010000B20D441E11241FBECFEFD8E0DEBFCDBF1D
:1001100014E0A0E0B1E0E2EFF7E402C005900D9238
:10012000A238B107D9F716E0A2E8B4E001C01D92E9
:10013000AD3BB107E1F710E0C4E0D1E004C0229785
:10014000FE010E94B123CE3FD107C9F70E94941E41
:100150000C94F7230C940000662777270C94B000CA
:10016000A0E0B0E0E6EBF0E00C94C623EC015B010C
:100170006115710519F0FB0191838083F9908F2D32
:1001800090E00E94B523892BC9F7FDE2FF1621F408
:10019000F990EE24E39405C02BE2F21609F4F990ED
:1001A000EE248E0101501040C80162EC70E043E083
:1001B00050E00E941002892B01F58E010E5F1F4F47
:1001C000C80165EC70E045E050E00E941002892B08
:1001D00019F48E01095F1F4FA114B10419F0F50144
:1001E00011830083E0FC04C070E090E080E814C05C
:1001F00070E090E080E86FEF08C1C8016AEC70E041
:1002000043E050E00E941002892B69F4A114B1046C
:1002100029F470E090E080EC6FE7F7C02296F501DA
:10022000D183C083F6CF8824992440E050E060E079
:1002300070E0EF2DE053EA30A0F5F2E0EF2A8E2DCA
:1002400090E09C0128703070E2FE06C0232B79F507
:100250000894811C911C2BC0232B19F00894810851
:100260009108DB01CA0112E0880F991FAA1FBB1F6A
:100270001A95D1F7480F591F6A1F7B1F440F551F4E
:10028000661F771F4E0F511D611D711D483929E9E9
:10029000520729E9620729E1720748F084E0E82A59
:1002A00006C0EE3F31F4E3FC39C098E0E92AF9904A
:1002B000C0CFE53311F0E53189F529912D3219F4DC
:1002C000E0E1EE2A05C02B3219F081E090E003C096
:1002D000299182E090E0E22FE053EA3018F0C81B49
:1002E000D90B1CC020E030E0FCE020383F075CF474
:1002F000C901880F991F880F991F280F391F220FD6
:10030000331F2E0F311DE991E053EA3068F3E4FE0C
:1003100003C0309521953F4F820E931ECE2CDD24D5
:10032000E1FE07C0A114B10421F02197F501D183AA
:10033000C083CB01BA010E94C9217B018C01F3E08B
:10034000CF22DD2423E0C216D10421F417FB10953F
:1003500017F9109557016801C801B70120E030E096
:1003600040E050E00E942C21882309F44AC097FE07
:100370000DC021EEE22E20E0F22E9094819491089F
:100380009394C0E2D0E000E010E012C099EFE92EB3
:1003900090E0F92EF6CFF7012591359145915491D2
:1003A000C601B5010E947F225B016C018C1A9D0A77
:1003B0008C169D0684F7D595C7950F5F1F4F0630A5
:1003C000110529F08CEF9FEFE80EF91EF1CFC50162
:1003D000D6017C018D018C2D880F8D2D881F8F3FBC
:1003E00051F0C601B50120E030E040E050E00E944D
:1003F0002C21882331F482E290E09093BC06809314
:10040000BB067E2D9F2D802F612F272F392F482F40
:10041000562FB901CA01CDB7DEB7ECE00C94E22348
:10042000FB01DC014150504088F08D9181341CF07B
:100430008B350CF4805E659161341CF06B350CF4E7
:10044000605E861B611171F3990B0895881BFCCFC8
:100450000F931F938C01FC01868160E00E94311C88
:1004600081E090E00E94A41BF801868161E00E9477
:10047000311C81E090E00E94A41BF801868160E0BD
:100480000E94311C84E690E00E94A41B1F910F91F2
:100490000895CF92DF92EF92FF920F931F93CF9325
:1004A000DF93D82EC92E282F392FC9018C01C0E027
:1004B000D0E0E62EFF24F801878161E00E940B1C4A
:1004C000B7010C2E02C0759567950A94E2F761702A
:1004D000F80187810E94311C21960F5F1F4FC830A1
:1004E000D10549F78D2D9C2D0E942802DF91CF91D7
:1004F0001F910F91FF90EF90DF90CF900895CF92D2
:10050000DF92EF92FF920F931F93CF93DF93D82E3A
:10051000C92E282F392FC9018C01C0E0D0E0E62E6A
:10052000FF24F801878161E00E940B1CB7010C2EAB
:1005300002C0759567950A94E2F76170F8018781AA
:100540000E94311C21960F5F1F4FC430D10549F71F
:100550008D2D9C2D0E942802DF91CF911F910F912C
:10056000FF90EF90DF90CF9008951F93CF93DF938C
:10057000EC01162F8C81642F0E94311C8D818F3FDE
:1005800019F060E00E94311C8F8584FF05C0CE0108
:10059000612F0E9449020EC0612F70E084E07595C2
:1005A00067958A95E1F7CE010E947F02CE01612F07
:1005B0000E947F02DF91CF911F91089541E00E9438
:1005C000B50281E090E0089540E00E94B5020895F0
:1005D000FC0160896D7F608B68600E94E402089571
:1005E000FC016089862F8460808B6C60CF010E9443
:1005F000E4020895DF93CF93CDB7DEB728970FB607
:10060000F894DEBF0FBECDBF9C01FE013196A1E67E
:10061000B4E088E00D9001928150E1F7F9018389FF
:10062000481710F0482F4150E42FF0E0EE0FFF1F65
:10063000EC0FFD1F8181680F6068C9010E94E40210
:1006400028960FB6F894DEBF0FBECDBFCF91DF91D5
:10065000089561E00E94E40280ED97E00E94A41BEF
:100660000895CF93DF93EC01423018F08F858860B6
:100670008F874B8B1C8A222329F0413019F48F85F8
:1006800084608F8780E593EC0E94A41B8C8160E0DE
:100690000E94311C8E8160E00E94311C8D818F3F51
:1006A00019F060E00E94311C6F8564FD1DC0CE0111
:1006B00063E00E947F0284E991E10E94A41BCE01C5
:1006C00063E00E947F0284E991E10E94A41BCE01B5
:1006D00063E00E947F0286E990E00E94A41BCE01A5
:1006E00062E00E947F0216C06062CE010E94E402B6
:1006F00084E991E10E94A41B6F856062CE010E9493
:10070000E40286E990E00E94A41B6F856062CE013E
:100710000E94E4026F856062CE010E94E40284E0E0
:10072000888BCE010E94F002CE010E94290382E054
:10073000898BCE0166E00E94E402DF91CF9108959B
:100740006F927F928F92AF92CF92EF920F931F93FF
:10075000DF93CF93CDB7DEB73C01162F842FF30183
:10076000448325830683E782C086A18682869D8591
:1007700093879E8594879F8595879889968761E062
:100780000E940B1CF30185818F3F19F061E00E94EC
:100790000B1CF301868161E00E940B1C112319F0F0
:1007A000F301178603C080E1F3018787C30160E18D
:1007B00041E020E00E943103CF91DF911F910F9122
:1007C000EF90CF90AF908F907F906F9008958F9221
:1007D000AF92CF92EF920F931F93CF93DF93DC01F1
:1007E000362F542F722F102FAE2C8C2C13961C9258
:1007F0001E9212978DE594E011969C938E9300D0F3
:1008000000D0EDB7FEB73196CDB7DEB719821182B1
:1008100012821382CD0161E0432F2FEF052FE72EC7
:10082000C12E0E94A0030F900F900F900F90DF91A8
:10083000CF911F910F91EF90CF90AF908F9008952F
:10084000FC01138212828DE694E091838083E55B44
:10085000FF4F1082EB54F040DF01AE51BF4F1196B5
:100860001C921E92EC51FF4F8EE190E091838083A9
:10087000EA59F04082E18083329783E180838BE103
:10088000829332968BE3808334971182108237965D
:100890008D919C91119781939193EA17FB07C1F772
:1008A0000895E42FF0E03A97EE0FFF1FE80FF91FCD
:1008B000718360830895DF92EF92FF920F931F93ED
:1008C0008C01D62E8CE9E82E86E0F82E065B1F4FB1
:1008D000C701F80160810E94CD1EC7016D2D4AE05D
:1008E00050E00E947C1F02501040C701F801608157
:1008F0000E94CD1E1F910F91FF90EF90DF90089501
:100900008CE996E04AE050E00E947C1F0895CF9267
:10091000DF92EF92FF920F931F938C016B019CE982
:10092000E92E96E0F92E065B1F4FC701F8016081A2
:100930000E94CD1EC701B6010E9400200250104047
:10094000C701F80160810E94CD1E1F910F91FF9099
:10095000EF90DF90CF900895CF92DF92FF920F93A8
:100960001F93CF93DF93EC01FD80EF2DF0E0EB3789
:10097000F105D4F53A97EE0FFF1FE80FF91F00813C
:1009800011810115110569F18C818130E9F1FE01B8
:10099000EB5BFF4F81E090E091838083DE0141E0DB
:1009A00050E0BE01675B7F4F6F0115C016962C911A
:1009B000169730E0FB018081992787FD90952817D5
:1009C000390731F4F601808191810196918380830A
:1009D0004F5F5F4F11968C8190E04817590734F3B1
:1009E0003FC060E071E047C0C55BDF4F8881CB54FA
:1009F000D0408823E9F1CE51DF4F08811981C25ED2
:100A0000D0408C81813019F460E070E02DC0FE018F
:100A1000EB5BFF4F81E090E091838083DE0141E05A
:100A200050E0BE01675B7F4F6F0115C016962C9199
:100A3000169730E0FB018081992787FD9095281754
:100A4000390731F4F6018081918101969183808389
:100A50004F5F5F4F11968C8190E04817590734F330
:100A6000CB5BDF4F688179818F2DF801099509C033
:100A7000CE0166E171E00E948704CE016D810E9483
:100A80005B04DF91CF911F910F91FF90DF90CF908A
:100A90000895CF92DF92EF92FF920F931F93DF930F
:100AA000CF93CDB7DEB7FC01EDB6FEB68481482FFB
:100AB00050E08DB79EB7841B950B0FB6F8949EBF80
:100AC0000FBE8DBFADB7BEB711966F011A2F0B2F9A
:100AD000BD0121E030E007C0F6018581FB01819373
:100AE000BF012F5F3F4F0894C11CD11C241735074D
:100AF0009CF3A40FB51F11971C92812F902F0E9479
:100B0000AC000FB6F894FEBE0FBEEDBECF91DF91E4
:100B10001F910F91FF90EF90DF90CF9008950E946A
:100B200049050895AF92BF92CF92DF92EF92FF9264
:100B30000F931F93CF93DF93EC0137E4A32EB12CD7
:100B4000A80EB91E28E4C22ED12CC80ED91E8C01C5
:100B50000B5B1F4F94EEE92EF12CEC0EFD1E37C0FF
:100B60008CE996E00E94CD1D482F282F30E0F5013A
:100B70008081992787FD90952817390741F4FE0158
:100B800080E015828F5F31968034D9F712C0F6016C
:100B90008081992787FD90952817390779F4CE0130
:100BA0000E94AC04FE0180E015828F5F3196803494
:100BB000D9F71C82F8011182108209C08C8180341F
:100BC00020F5FE01E80FF11D45838F5F8C838CE9D2
:100BD00096E00E949C1D1816190614F28CE996E006
:100BE0000E949C1D1816190694F3F70180819181CB
:100BF000009711F00E94A41B8CE996E00E949C1DB6
:100C00001816190624F381E001C080E0DF91CF912E
:100C10001F910F91FF90EF90DF90CF90BF90AF901A
:100C2000089582E894E00E9400118AEA94E00E940C
:100C3000200408958AEA94E00E948F05AB01BC016C
:100C400082E894E00E94180E08950F931F9302E823
:100C500014E0C8010E941D0EC8010E942A0E8AEAF3
:100C600094E00E9492051F910F9108958AEA94E002
:100C70006AE176E04FE60E9451048CE996E040E09C
:100C800052EC61E070E00E94161D08950895FC0189
:100C900086A197A1019751F081E090E097A386A3E8
:100CA00084A195A1019695A384A3089520A531A5BB
:100CB00084A595A5281739075CF417A216A22F5F03
:100CC0003F4F31A720A784A195A1019695A384A3A6
:100CD0000895FC0186A197A1892B41F017A216A2C5
:100CE00084A195A1019795A384A3089520A531A57A
:100CF00086A597A5821793076CF481E090E097A3EF
:100D000086A32150304031A720A784A195A1019747
:100D100095A384A30895FC0181E090E095A384A3AA
:100D200080A591A581309105A9F486A197A100978E
:100D300019F0019769F507C083E090E091A780A7BB
:100D40008DE090E016C084E090E091A780A78EE04F
:100D500090E00FC00297E1F486A197A1009719F0E7
:100D60000197B1F40BC088E090E091A780A78FE0D5
:100D700090E093A782A717A216A208958BE090E0B7
:100D800091A780A780E190E093A782A717A216A25F
:100D90000895FC0180A591A591AB80AB84A195A19C
:100DA00093AB82AB86A197A195AB84AB0895FC0170
:100DB00080A991A991A780A78CE090E093A782A732
:100DC00082A993A995A384A384A995A997A386A38F
:100DD0000895FC01428F538F648F758F08958F9211
:100DE0009F92AF92BF92CF92DF92EF92FF920F93BA
:100DF0001F93DF93CF93CDB7DEB7A0970FB6F894CC
:100E0000DEBF0FBECDBF6C015E010894A11CB11CFA
:100E1000C5010E946B11F60100A511A50330110553
:100E2000F1F486A197A1009781F462817381848196
:100E3000958120E030E04AEF53E40E94C720F6019C
:100E4000628373838483958380C1019709F0E8C02E
:100E5000F6018081918105979183808376C104306A
:100E60001105A9F4F60186A197A1009731F48681B6
:100E7000978101979783868368C1019709F065C1BF
:100E8000F601808591850197918780875EC1053045
:100E90001105A9F4F60186A197A1009731F4828586
:100EA000938501979387828750C1019709F04DC1BF
:100EB000F6018485958501979587848746C108301A
:100EC000110509F0ADC0F60186A197A1009709F0C0
:100ED00043C0668577858089918920E030E040E8CD
:100EE0005FE30E94C72020E030E040E85FE30E941B
:100EF0007B2288230CF494C0F60146895789608DC3
:100F0000718D0289138924893589C5010E94AA112E
:100F10007B018C01F601668577858089918920E0C7
:100F200030E040E85FE30E94C7204B015C01C8014C
:100F3000B70120E030E040E85FE30E94C820A5014F
:100F400094010E942C2118160CF4FFC0F60186862D
:100F50009786A08AB18AF9C0019709F061C0F601AD
:100F6000628973898489958920E030E040E85FE3F5
:100F70000E94C7207B018C0120E030E040E85FE365
:100F80000E947B2288230CF4E0C0F601E28AF38AF7
:100F9000048B158B46895789608D718DC501980129
:100FA00087010E94AA1120E030E040E85FE30E9440
:100FB000C820F60126853785408951890E947B2209
:100FC00018160CF0C2C0F60146895789608D718DE4
:100FD0000289138924893589C5010E94AA1120E05C
:100FE00030E040E05FE30E94C82020E030E040E8CD
:100FF0005FE30E94C82020E030E040E050E00E9423
:101000007B22F60146895789608D718D028913898B
:1010100024893589882314F0C50164C0C50178C0CE
:101020000930110509F091C0F60186A197A1892B1D
:1010300009F08BC066897789808D918D20E030E042
:1010400040E85FE30E94C720AB01BC01CA01DB019D
:10105000F601868B978BA08FB18F02891389248923
:1010600035897E010894E11CF11CC7010E94AA1178
:1010700020E030E040E85FE30E94C820F6012685CA
:101080003785408951890E947B2218160CF05DC07B
:10109000F60146895789608D718D028913892489EB
:1010A0003589C7010E94AA1120E030E040E05FE3EB
:1010B0000E94C82020E030E040E85FE30E94C820A2
:1010C00020E030E040E050E00E947B22F6014689BB
:1010D0005789608D718D0289138924893589882308
:1010E000B4F0C7010E94AA1120E030E040E05FE3C5
:1010F0000E94C82020E030E040E85FE30E94C82062
:1011000020E030E040E05FE30E94C82015C0C70146
:101110000E94AA1120E030E040E05FE30E94C82076
:1011200020E030E040E85FE30E94C82020E030E0AB
:1011300040E05FE30E94C7200E9498210E94CB21DB
:10114000F60166877787808B918BA0960FB6F8940F
:10115000DEBF0FBECDBFCF91DF911F910F91FF90EA
:10116000EF90DF90CF90BF90AF909F908F900895B9
:10117000CF92DF92EF92FF920F931F93DF93CF9363
:10118000CDB7DEB7A0970FB6F894DEBF0FBECDBFC8
:101190007C016E010894C11CD11CC6010E946B1118
:1011A000F70180A591A58330910501F526A137A10E
:1011B0002115310581F4628173818481958120E05C
:1011C00030E04AEF53E40E94C820F7016283738342
:1011D00084839583FFC02130310509F067C0F70192
:1011E00080819181059691838083F4C0843091053C
:1011F000A9F4F70186A197A1009731F48681978120
:10120000019697838683E6C0019709F0E3C0F70152
:1012100080859185019691878087DCC08530910516
:10122000A9F4F70186A197A1009731F482859385EF
:10123000019693878287CEC0019709F0CBC0F70152
:1012400084859585019695878487C4C088309105EB
:1012500069F5F70186A197A1009759F4668577850E
:101260008089918920E030E040E85FE30E94C82057
:10127000ACC0019709F0AEC0F70162897389848917
:10128000958920E030E040E85FE30E94C8208B01B0
:101290009C01C801D901F701828B938BA48BB58B7C
:1012A00046895789608D718DC60125C0099709F05F
:1012B00091C0F70186A197A1892B09F08BC066899F
:1012C0007789808D918D20E030E040E85FE30E94D7
:1012D000C820AB01BC01CA01DB01F701868B978BEB
:1012E000A08FB18F02891389248935896E010894F2
:1012F000C11CD11CC6010E94AA1120E030E040E8C8
:101300005FE30E94C820F70126853785408951890F
:101310000E947B2218160CF05DC0F70146895789A0
:10132000608D718D0289138924893589C6010E94D7
:10133000AA1120E030E040E05FE30E94C82020E0F6
:1013400030E040E85FE30E94C82020E030E040E069
:1013500050E00E947B22F70146895789608D718D8C
:1013600002891389248935898823B4F0C6010E9433
:10137000AA1120E030E040E05FE30E94C82020E0B6
:1013800030E040E85FE30E94C82020E030E040E029
:101390005FE30E94C82015C0C6010E94AA1120E088
:1013A00030E040E05FE30E94C82020E030E040E809
:1013B0005FE30E94C82020E030E040E05FE30E944D
:1013C000C7200E9498210E94CB21F701668777876A
:1013D000808B918BA0960FB6F894DEBF0FBECDBF69
:1013E000CF91DF911F910F91FF90EF90DF90CF9001
:1013F0000895EF92FF920F931F93CF93DF93EC0129
:10140000162F072F862F972F0E942903E8A4F9A4EF
:1014100085E0E816F10409F414C186E0E816F10449
:10142000ECF482E0E816F10409F482C083E0E816E7
:10143000F1044CF4E114F104A9F181E0E816F1049F
:1014400009F04FC24CC083E0E816F10409F497C0DC
:1014500084E0E816F10409F044C2BCC088E0E81654
:10146000F10409F475C189E0E816F1045CF486E042
:10147000E816F10409F420C187E0E816F10409F048
:1014800030C243C18AE0E816F10409F4D3C18AE00E
:10149000E816F1040CF497C18BE0E816F10409F0AA
:1014A00020C2EDC1812F902F60E040E00E94FA023F
:1014B000812F902F6BE271E00E940020812F902FEE
:1014C00060E041E00E94FA02812F902F6AE371E010
:1014D0000E9400201DA61CA61FA61EA602C2812FC8
:1014E000902F60E040E00E94FA02812F902F6FE37E
:1014F00071E00E940020812F902F60E041E00E9467
:10150000FA02812F902F6CE471E00E940020812F5D
:10151000902F60E04EA10E94FA02812F902F6CE57F
:1015200071E00E940020FFA6EEA682E090E07FC15D
:10153000812F902F60E040E00E94FA02812F902FCF
:101540006EE571E00E940020812F902F60E041E065
:101550000E94FA02812F902F6EE671E00E94002017
:10156000812F902F60E04EA10E94FA02812F902FD0
:101570006CE571E00E94002081E090E0C3C0812F03
:10158000902F60E040E00E94FA02812F902F69E7DF
:1015900071E00E9400204A815B816C817D81812FF6
:1015A000902F22E030E00E949E20812F902F60E05B
:1015B00041E00E94FA02812F902F61E871E00E94C1
:1015C000002068817981812F902F4AE050E00E94AD
:1015D000CE1F77C1812F902F60E040E00E94FA0279
:1015E000812F902F6CE871E00E9400206E817F8136
:1015F000812F902F4AE050E00E94CE1F812F902F24
:1016000060E041E00E94FA02812F902F62E971E0D0
:101610000E94002068857985812F902F4AE050E054
:101620000E94CE1F812F902F60E04EA10E94FA02EF
:10163000812F902F6CE571E00E940020FFA6EEA69E
:1016400038C0812F902F60E040E00E94FA02812F85
:10165000902F6BE971E00E9400206A857B85812FC5
:10166000902F4AE050E00E94CE1F812F902F60E023
:1016700041E00E94FA02812F902F63EA71E00E94FC
:1016800000206C857D85812F902F4AE050E00E94DC
:10169000CE1F812F902F60E04EA10E94FA02812F71
:1016A000902F6CE571E00E94002084E090E09FA7FD
:1016B0008EA786E090E0BBC0812F902F60E040E0D5
:1016C0000E94FA02812F902F6BEA71E00E940020A5
:1016D000812F902F60E041E00E94FA02812F902F2D
:1016E00062EB71E00E940020812F902F60E04EA1FC
:1016F0000E94FA02812F902F6CE571E00E94002079
:1017000084E090E09FA78EA7EAC0812F902F60E031
:1017100040E00E94FA02812F902F62EB71E00E945C
:101720000020812F902F60E041E00E94FA02812F7B
:10173000902F62EB71E00E940020812F902F60E0DB
:101740004EA10E94FA02812F902F64EB71E094C0A9
:10175000812F902F60E040E00E94FA02812F902FAD
:1017600066EB71E00E9400204E855F85688979896B
:10177000812F902F22E030E00E949E20812F902F19
:1017800060E041E00E94FA02812F902F6EEB71E041
:101790000E9400204A895B896C897D89812F902F66
:1017A00022E030E00E949E20812F902F60E04EA129
:1017B0000E94FA02812F902F6CE571E00E940020B8
:1017C000FFA6EEA632C0812F902F60E040E00E947D
:1017D000FA02812F902F67EC71E00E9400204E8961
:1017E0005F89688D798D812F902F22E030E00E94F3
:1017F0009E20812F902F60E041E00E94FA02812F0D
:10180000902F6BEA71E00E940020812F902F60E002
:101810004EA10E94FA02812F902F6CE571E00E9488
:10182000002088E090E09FA78EA789E090E09DA728
:101830008CA757C0812F902F60E040E00E94FA02F1
:10184000812F902F62EB71E00E940020812F902F5A
:1018500060E041E00E94FA02812F902F62EB71E07C
:101860000E940020812F902F60E04EA10E94FA027A
:10187000812F902F6CE571E00E94002032C0812FF3
:10188000902F60E040E00E94FA02812F902F6EECD2
:1018900071E00E9400204A8D5B8D6C8D7D8D812FC3
:1018A000902F22E030E00E949E20812F902F60E058
:1018B00041E00E94FA02812F902F62EB71E00E94BA
:1018C0000020812F902F60E04EA10E94FA02812F0C
:1018D000902F6CE571E00E940020FFA6EEA6FDA609
:1018E000ECA6DF91CF911F910F91FF90EF9008959B
:1018F000EF92FF920F931F938C01F62EE72E862F07
:10190000972F60E142E020E00E94310388E061E02F
:101910000E940B1C88E061E00E94311C8F2D9E2DDF
:101920000E9429038F2D9E2D60E040E00E94FA0264
:101930008F2D9E2D69ED71E00E9400208F2D9E2D30
:1019400060E041E00E94FA028F2D9E2D6AE371E073
:101950000E940020F801118210821782168280E016
:1019600090E0AAE7B5E482839383A483B5831186CC
:101970001086138612861586148680E090E0A0E813
:10198000BFE386879787A08BB18B828B938BA48BC9
:10199000B58B80E090E0A0E0B0E0868B978BA08FC5
:1019A000B18F168E11A610A68CE090E093A782A7A7
:1019B00015A214A213A21F910F91FF90EF9008950A
:1019C00083E0653878079CF5CB018D5B9240873CBE
:1019D000910518F421E030E02CC0CB0189559240EC
:1019E0008336910518F422E030E023C0CB01815901
:1019F0009140873C910518F423E030E01AC0CB01F8
:101A00008D5291408336910518F424E030E011C0E6
:101A1000CB0185569040873C910518F425E030E0D5
:101A200008C0643671051CF426E030E002C020E0F6
:101A300030E0C9010895CF92DF92EF92FF920F93A9
:101A40001F93CF93DF93EC0181E10E94E91BBC015E
:101A5000CE010E94E00C6C010E94251B9B01AC0191
:101A60008A819B81069744F060E8E62E68E3F62EB3
:101A700061E0062F112D07C090E4E92E9DE0F92EBC
:101A800093E0092F112D88859985AA85BB858058FB
:101A9000954EA94FBF4F82179307A407B5074CF483
:101AA0001B821A8280E4E82E8DE0F82E83E0082F56
:101AB000112DC114D10409F440C088859985AA85E7
:101AC000BB85E80EF91E0A1F1B1FE216F30604076A
:101AD00015079CF58A819B8101969B838A8361E02F
:101AE00070E080E090E00E944B1B81E10E94E91BC6
:101AF000BC01CE010E94E00CC816D906F1F461E0E9
:101B000070E080E090E00E944B1B81E10E94E91BA5
:101B1000BC01CE010E94E00C8C01C816D90629F444
:101B2000888199810196998388830E94251B688703
:101B300079878A879B87980102C020E030E0C9013D
:101B4000DF91CF911F910F91FF90EF90DF90CF9099
:101B5000089581E160E00E940B1C81E161E00E9438
:101B6000311C0895CF92EF920F93DF93CF93CDB7AF
:101B7000DEB765970FB6F894DEBF0FBECDBF80E924
:101B800095E063E170E042E150E00E94DE1880EBF6
:101B900095E00E94A90D8CEB95E062E043E024E023
:101BA00005E056E0E52E37E0C32E0E94E703809162
:101BB000BE059091BF059C838B838DE594E09A834D
:101BC00089838091C0058D838091C1058E8380912A
:101BD000C2058F83DE011896E3ECF5E088E0019002
:101BE0000D928150E1F78091CB05888B8091CC05D7
:101BF000898B8091CD058A8B8091CE058B8B8091CE
:101C0000CF058C8B8091D0058D8B81ED95E0BE0149
:101C10006F5F7F4F0E94780C65960FB6F894DEBF19
:101C20000FBECDBFCF91DF910F91EF90CF90089570
:101C300081ED95E00E94E90608950F931F938C01B2
:101C400080EB95E00E941B0DF801978F868F1F9106
:101C50000F910895CF92DF92EF92FF920F931F930F
:101C6000DF93CF93CDB7DEB7C35BD0400FB6F89408
:101C7000DEBF0FBECDBF6C01DC015E968D919C91E5
:101C80005F978330910509F4B2C0843091055CF40C
:101C90008130910509F4EAC0823091050CF06AC0E8
:101CA000892B69F09DC28530910509F45AC28530AF
:101CB00091050CF438C1069709F092C25FC1F60194
:101CC000E4A0F5A006A117A18AEF90E0A0E0B0E0A3
:101CD000E80EF91E0A1F1B1F0E94171BE616F706C7
:101CE0000807190708F07CC28091FB059091FC055C
:101CF000409709F075C28091BE059091BF059C8305
:101D00008B838DE594E09A8389838091C0058D83D0
:101D10008091C1058E838091C2058F83DE01189664
:101D2000E3ECF5E088E001900D928150E1F78091BD
:101D3000CB05888B8091CC05898B8091CD058A8BD2
:101D40008091CE058B8B8091CF058C8B8091D005B7
:101D50008D8B81ED95E0BE016F5F7F4F0E94F90989
:101D60000E94171BD60194966D937D938D939C933F
:101D7000979736C281ED95E00E9447068091BE0597
:101D80009091BF05998F888F8DE594E09F8B8E8B06
:101D90008091C0058A8F8091C1058B8F8091C2058B
:101DA0008C8FDE015D96E3ECF5E088E001900D920A
:101DB0008150E1F78091CB058DA38091CC058EA356
:101DC0008091CD058FA38091CE0588A78091CF0506
:101DD00089A78091D0058AA781ED95E0BE016A5E52
:101DE0007F4F0E94F909F601178E168EF9C181ED19
:101DF00095E00E9469068091BE059091BF059EA75F
:101E00008DA78DE594E09CA78BA78091C0058FA737
:101E10008091C10588AB8091C20589ABDE01D29665
:101E2000E3ECF5E088E001900D928150E1F78091BC
:101E3000CB058AAF8091CC058BAF8091CD058CAF5F
:101E40008091CE058DAF8091CF058EAF8091D0056A
:101E50008FAF81ED95E0BE01655D7F4F0E94F9096E
:101E6000D6015F961C921E925E97BAC181ED95E0F5
:101E70000E94EF06F601178E168E8091BE05909196
:101E8000BF05FE01EE5BFF4F918380838DE594E0FB
:101E9000FE01E05CFF4F918380838091C005FE01CD
:101EA000EC5BFF4F80838091C105FE01EB5BFF4F30
:101EB00080838091C205FE01EA5BFF4F8083DE01D3
:101EC000A95BBF4FE3ECF5E088E001900D928150F3
:101ED000E1F78091CB05FE01E15BFF4F80838091AC
:101EE000CC05FE01E05BFF4F80838091CD05FE01B4
:101EF000EF5AFF4F80838091CE05FE01EE5AFF4FCF
:101F000080838091CF05FE01ED5AFF4F8083809141
:101F1000D005FE01EC5AFF4F808381ED95E0BE01B4
:101F2000605C7F4F5BC181ED95E00E94B808D601EF
:101F30005F961C921E925E97FE01EB5AFF4F8091B6
:101F4000BE059091BF05938382838DE594E09183D4
:101F500080838091C00584838091C10585838091B1
:101F6000C20586833796A3ECB5E088E00D90019218
:101F70008150E1F7FE01EB5AFF4F1BC18091FB0539
:101F80009091FC058D30910509F499C08E30910532
:101F900024F40C9709F0BEC007C08E30910569F09B
:101FA0000F9709F0B7C04AC081ED95E00E94C906BD
:101FB00081ED95E00E948B06ADC08091F505909172
:101FC000F605059709F0A6C08DE061E00E94311C7E
:101FD000EDB7FEB7FE970FB6F894FEBF0FBEEDBF8C
:101FE0002DB73EB72F5F3F4FD901E1EDF5E08EE110
:101FF00001900D928150E1F7D9015E96E0E9F5E09C
:1020000080E201900D928150E1F7CE018C569F4FF6
:10201000B6010E94261AA0E9B5E0FE01EC56FF4F7A
:1020200080E201900D928150E1F78DB79EB7CE9678
:102030000FB6F8949EBF0FBE8DBF6CC08091F505A2
:102040009091F605049709F065C08DE061E00E946B
:10205000311CADB7BEB7DE970FB6F894BEBF0FBE4A
:10206000ADBF2DB73EB72F5F3F4FD901E1EDF5E092
:102070008EE101900D928150E1F7D9015E96E0E981
:10208000F5E080E201900D928150E1F7CE018C568F
:102090009F4FB6010E942619A0E9B5E0FE01EC565B
:1020A000FF4F80E201900D928150E1F7EDB7FEB74E
:1020B000FE960FB6F894FEBF0FBEEDBF2BC080E9B1
:1020C00095E06CE271E00E94701180E090E0A0E089
:1020D000B0E08093900590939105A0939205B09302
:1020E00093056091D3057091D4058091D5059091A9
:1020F000D6050E9498219B01AC0180E995E0B901C9
:102100000E946C116091D1057091D20580E995E033
:102110000E948818D6015F961C921E925E97FE015F
:10212000E659FF4F8091BE059091BF05938382834E
:102130008DE594E0918380838091C00584838091B4
:10214000C10585838091C20586833796A3ECB5E0EF
:1021500088E00D9001928150E1F7FE01E659FF4FB2
:1021600028C081ED95E00E94D706F601178E168EE5
:10217000FE01E158FF4F8091BE059091BF0593830A
:1021800082838DE594E0918380838091C005848370
:102190008091C10585838091C20586833796A3EC23
:1021A000B5E088E00D9001928150E1F7FE01E15821
:1021B000FF4F8091CB0587878091CC05808B8091E4
:1021C000CD05818B8091CE05828B8091CF05838B4D
:1021D0008091D005848B81ED95E0BF010E94F909C3
:1021E000CD54DF4F0FB6F894DEBF0FBECDBFCF91F9
:1021F000DF911F910F91FF90EF90DF90CF900895A6
:10220000DF93CF93CDB7DEB765970FB6F894DEBFF7
:102210000FBECDBF0E94C61A8DE061E00E940B1C6C
:102220008DE060E00E94311C8CEB95E060E142E0C3
:1022300020E00E9431038CEB95E00E94E80281E0EF
:1022400090E09093FA058093F9051092F6051092AC
:10225000F50581ED95E00E9446068091BE059091BE
:10226000BF059C838B838DE594E09A83898380915D
:10227000C0058D838091C1058E838091C2058F83B7
:10228000DE011896E3ECF5E088E001900D928150B4
:10229000E1F78091CB05888B8091CC05898B80916B
:1022A000CD058A8B8091CE058B8B8091CF058C8B51
:1022B0008091D0058D8B81ED95E0BE016F5F7F4FE2
:1022C0000E94F90965960FB6F894DEBF0FBECDBF28
:1022D000CF91DF9108950895FC01718B608B089573
:1022E000FC01778F668F0895EF92FF920F931F93F3
:1022F000CB01BA0120E030E048EC55E40E947F2297
:102300002DE431E040EA50E40E9430217B018C0151
:1023100020E030E040E050E00E947B2288234CF037
:10232000C801B70120E030E040E05FE30E94C82030
:1023300008C0C801B70120E030E040E05FE30E9440
:10234000C7200E9498210E94CB211F910F91FF90DE
:10235000EF9008958F929F92AF92BF92CF92DF92AB
:10236000EF92FF920F931F93CF93DF93EC016A01DB
:102370007B0148015901CB01BA0120E030E040E087
:1023800050E00E942C21882329F4E0E070E080E0F6
:1023900060E01FC0C701B601A50194010E94302171
:1023A000AB01BC01CE010E94741120E030E048EC8A
:1023B00053E40E94C72020E030E84BEB55E40E9434
:1023C000302121EC3FE04CEF5DE30E94C820E62F76
:1023D000692F2E2F372F482F562FB901CA01DF91B1
:1023E000CF911F910F91FF90EF90DF90CF90BF9012
:1023F000AF909F908F9008952F923F924F925F924F
:102400006F927F928F929F92AF92BF92CF92DF9204
:10241000EF92FF920F931F93DF93CF93CDB7DEB769
:102420006A970FB6F894DEBF0FBECDBF9A8F898F23
:102430001A012B01DC0114968C91882391F08CE910
:1024400096E06AEE71E00E940020E98DFA8D4289E3
:102450005389648975898CE996E022E030E00E9416
:10246000A120A98DBA8D1B968C911B971996CD90A2
:10247000DC901A97882391F1C201B101A201910168
:102480000E94C8202BED3FE049E450E40E947F22E7
:102490002CE839EB4BE45FE30E947F2220E030E040
:1024A00048EC55E40E9430217B018C01B60188275D
:1024B00077FD8095982F0E94CB219B01AC01C8012C
:1024C000B7010E947F229B01AC01E98DFA8D6289E0
:1024D0007389848995890E94C82031C0C201B101E5
:1024E000A20191010E94C8202BED3FE049E450E495
:1024F0000E947F222CE839EB4BE45FE30E947F22AD
:1025000020E030E048EC55E40E9430217B018C0152
:10251000B601882777FD8095982F0E94CB219B01DB
:10252000AC01C801B7010E947F229B01AC01E98D7B
:10253000FA8D62897389848995890E94C720A98D43
:10254000BA8D52966D937D938D939C935597E98D9B
:10255000FA8D84818823D1F08CE996E062E072E004
:102560000E940020A98DBA8D52964D915D916D917A
:102570007C9155978CE996E022E030E00E94A12002
:102580008CE996E068E172E00E94B420E98DFA8D52
:10259000E484F58406851785C801B70120E030E0A2
:1025A00040E050E00E942C21882381F0C801B7014F
:1025B00025E83CE740E55AE30E9430210E9498213B
:1025C000A98DBA8D51967C936E935097C201B1013B
:1025D00020E030E048EC53E40E94C72069837A830E
:1025E0008B839C83E98DFA8D6080718082809380DB
:1025F000C401B30120E030E04AEF53E40E947F229F
:102600009B01AC0169817A818B819C810E94C720EA
:102610007B018C01C201B10120E030E040E050ECD0
:102620000E947F229B01AC01C801B7010E94C82013
:102630005B016C01A60195010E947F227B018C0148
:10264000C201B10129813A814B815C810E94C7207E
:102650009B01AC01C401B3010E947F2220E030E065
:102660004AE755EC0E947F229B01AC01C801B701EB
:102670000E94C8200E94E6229B01AC01D7FAD094A8
:10268000D7F8D094C601B5010E94C72020E030E001
:102690004AEF54E40E9430215B016C0120E030E0FD
:1026A0004AEF53E40E947F2220E030E048EC53E4FC
:1026B0000E94C8207B018C01C601B50120E030E0FA
:1026C0004AE754EC0E947F229B01AC01C801B7018C
:1026D0000E94C820A60195010E9430213B014C01B7
:1026E00020E030E04AEF53E40E942C218823B4F428
:1026F000A98DBA8D14968C91882331F08CE996E0DF
:1027000067E372E00E94B4200F2EF0E06F2EF0E03D
:102710007F2EFAEF8F2EF3E49F2EF02DE98DFA8DA8
:10272000608171818281938120E030E040E050E05F
:102730000E942C21882371F4A98DBA8D50966D9139
:102740007C915197882777FD8095982F0E94CB2107
:102750003B014C01C401B30120E030E84BEB55E4F0
:102760000E947B221816ACF4E98DFA8D84818823AF
:1027700031F08CE996E063E572E00E94B4200F2E00
:10278000F0E06F2EF0E87F2EFBEB8F2EF5E49F2E0E
:10279000F02DC401B30120E030E04AEF53E40E9481
:1027A000C720698B7A8B8B8B9C8B60E074E284E70B
:1027B00099E4A40193010E94302120E030E04AEF27
:1027C00054E40E94C72020E030E048E453E40E9433
:1027D00030216D837E838F839887A98DBA8D15965E
:1027E0008C9115971B966C910E94311C62E370E0EE
:1027F00080E090E00E944B1BC201B10120E030E07C
:1028000048EC53E40E942C2187FD05C080E090E055
:10281000A8E4B3E414C0A98DBA8D14968C918823D2
:1028200031F08CE996E065E772E00E94B4202982DD
:102830003A824B825C8280E090E0A0E0B0E0898741
:102840009A87AB87BC87A98DBA8D14968C91882303
:1028500009F4B2C08CE996E062E972E00E940020BF
:10286000E98DFA8D40815181628173818CE996E016
:1028700022E030E00E94A1208CE996E06EE972E04F
:102880000E9400208CE996E0B201A10122E030E034
:102890000E94A1208CE996E066EA72E00E94002086
:1028A0008CE996E040E050E06AEF73E422E030E02B
:1028B0000E949E208CE996E064EB72E00E9400206A
:1028C0008CE996E0B401A30122E030E00E94A1204F
:1028D0008CE996E062EC72E00E9400208CE996E0C0
:1028E000B601A50122E030E00E94A1208CE996E02B
:1028F0006DEC72E00E9400208CE996E0B401A30127
:1029000022E030E00E94A1208CE996E069ED72E0BF
:102910000E94002069897A898B899C89A60195018A
:102920000E943021AB01BC018CE996E022E030E04E
:102930000E94A1208CE996E068E172E00E94B42038
:102940008CE996E067EE72E00E94B4208CE996E094
:102950006EE972E00E9400208CE996E049855A8574
:102960006B857C8522E030E00E94A1208CE996E016
:1029700064EF72E00E9400208CE996E040E050E0B5
:102980006AEF74E422E030E00E949E208CE996E039
:1029900068E073E00E94B4208CE996E066E173E0A1
:1029A0000E9400208CE996E04D815E816F817885E0
:1029B00022E030E00E94A1200E94171B6D877E87D5
:1029C0008F87988B0F2EF0E02F2EF0E03F2EFAEF3E
:1029D0004F2EF4E45F2EF02DCC24DD246BC0A98DA6
:1029E000BA8D17968C9161E00E94311CC201B10131
:1029F00020E030E040E05FE30E947F227B018C0119
:102A000020E030E040E050E00E947B2288234CF040
:102A1000C801B70120E030E040E05FE30E94C82039
:102A200008C0C801B70120E030E040E05FE30E9449
:102A3000C7200E949821CB01C2970E94A41BE98D58
:102A4000FA8D878160E00E94311CC801B70120E047
:102A500030E048E452E40E94C7207B018C0120E072
:102A600030E040E050E00E947B2288234CF0C80117
:102A7000B70120E030E040E05FE30E94C82008C0DA
:102A8000C801B70120E030E040E05FE30E94C720CA
:102A90000E949821CB010E94A41BC201B1012D818B
:102AA0003E814F8158850E94C8201B012C0108944B
:102AB000C11CD11CB601882777FD8095982F0E94F4
:102AC000CB2129853A854B855C850E942C2187FD89
:102AD00086CF2D8A3E8A4F8A588E0E94171B9B01F3
:102AE000AC01A98DBA8D14968C91882309F45EC02F
:102AF00059016A018D859E85AF85B889A81AB90AE2
:102B0000CA0ADB0A8CE996E068E273E00E940020C2
:102B10008CE996E040E050E060E070E02AE030E0D0
:102B20000E948E1F8CE996E068E073E00E94B4205A
:102B30008CE996E064E373E00E9400208CE996E063
:102B4000B601A5012AE030E00E948E1F8CE996E0D4
:102B50006CE373E00E94B4208CE996E060E473E0DB
:102B60000E94002069897A898B899C8920E030E065
:102B70004AE754E40E947F227B018C01C601B50123
:102B80000E94CB219B01AC01C801B7010E943021FA
:102B9000AB01BC018CE996E022E030E00E949E206F
:102BA0008CE996E062E573E00E94B420A98DBA8DAD
:102BB00014968C91882309F45AC08CE996E06DE54F
:102BC00073E00E94B4208CE996E06DE773E00E9408
:102BD000B4208CE996E06EE873E00E9400208CE956
:102BE00096E049815A816B817C8122E030E00E942D
:102BF000A1208CE996E064EB72E00E9400208CE951
:102C000096E0B401A30122E030E00E949E208CE90E
:102C100096E067E973E00E94B4208CE996E060EAF0
:102C200073E00E9400208CE996E02D893E89EF89AF
:102C3000F88DA901BF0122E030E00E949E208CE9BE
:102C400096E068E073E00E94B4208CE996E06BEBBC
:102C500073E00E9400208CE996E06EEC73E00E9425
:102C600000208CE996E068E073E00E94B4200E94A6
:102C7000171B5B016C0166247724430166C0E98D54
:102C8000FA8D878161E00E94311CC201B10120E010
:102C900030E040E05FE30E947F227B018C0120E076
:102CA00030E040E050E00E947B2288234CF0C801D5
:102CB000B70120E030E040E05FE30E94C82008C098
:102CC000C801B70120E030E040E05FE30E94C72088
:102CD0000E949821CB01C2970E94A41BA98DBA8D96
:102CE00017968C9160E00E94311CC801B70120E06A
:102CF00030E040E050E00E947B2288234CF0C80185
:102D0000B70120E030E040E05FE30E94C82008C047
:102D1000C801B70120E030E040E05FE30E94C72037
:102D20000E949821CB01C2970E94A41BC201B1014D
:102D300020E030E040E050E00E94C8201B012C0160
:102D40000894611C711C811C911CC401B3010E9478
:102D5000CB2129813A814B815C810E942C2187FD06
:102D60008ECF0E94171B7B018C01E98DFA8D848127
:102D7000882309F460C08CE996E068E273E00E9461
:102D800000208CE996E040E050E060E070E02AE04E
:102D900030E00E948E1F8CE996E068E073E00E94AC
:102DA000B4208CE996E064E373E00E940020EA1806
:102DB000FB080C091D098CE996E0B801A7012AE07F
:102DC00030E00E948E1F8CE996E06CE373E00E9475
:102DD000B4208CE996E06DE573E00E94B4208CE9A4
:102DE00096E061ED73E00E94B4208CE996E06EE815
:102DF00073E00E9400208CE996E049855A856B8536
:102E00007C8522E030E00E94A1208CE996E06FED05
:102E100073E00E9400208CE996E040E050E06AEF09
:102E200073E422E030E00E949E208CE996E067E99E
:102E300073E00E94B4200E94171B4B015C01CC245C
:102E4000DD2464C0A98DBA8D17968C9161E00E9433
:102E5000311CC201B10120E030E040E05FE30E949C
:102E60007F227B018C0120E030E040E050E00E94B6
:102E70007B2288234CF0C801B70120E030E040E01D
:102E80005FE30E94C82008C0C801B70120E030E01D
:102E900040E05FE30E94C7200E949821CB01C297C7
:102EA0000E94A41BE98DFA8D878160E00E94311C8D
:102EB000C801B70120E030E040E050E00E947B22F2
:102EC00088234CF0C801B70120E030E040E05FE328
:102ED0000E94C82008C0C801B70120E030E040E0EF
:102EE0005FE30E94C7200E949821CB01C2970E94F5
:102EF000A41BC201B1012D813E814F8158850E94E2
:102F0000C7201B012C010894C11CD11CB6018827C5
:102F100077FD8095982F0E94CB2129853A854B8596
:102F20005C850E942C2187FD8DCF0E94171B7B01A1
:102F30008C01A98DBA8D14968C91882309F458C000
:102F40008CE996E068E273E00E9400208CE996E04C
:102F500040E050E060E070E02AE030E00E948E1F28
:102F60008CE996E068E073E00E94B4208CE996E07A
:102F70006CEE73E00E9400208CE996E0B201A101A2
:102F800022E030E00E94A1208CE996E068E073E046
:102F90000E94B4208CE996E06BEB73E00E94002065
:102FA0008CE996E04D815E816F81788522E030E08A
:102FB0000E949E208CE996E068E073E00E94B420B5
:102FC0008CE996E064E373E00E940020E818F908B9
:102FD0000A091B098CE996E0B801A7012AE030E054
:102FE0000E948E1F8CE996E06CE373E00E94B4208F
:102FF0006A960FB6F894DEBF0FBECDBFCF91DF91BA
:103000001F910F91FF90EF90DF90CF90BF90AF9006
:103010009F908F907F906F905F904F903F902F90F8
:103020000895EF92FF920F931F93CF93DF93EC01DC
:103030007A018B018C81882371F08CE996E069EF2D
:1030400073E00E9400208CE996E0B801A70122E01D
:1030500030E00E94A120C801B70120E030E048EC38
:1030600055E40E947F22AB01BC01CE010E94FC11FD
:10307000DF91CF911F910F91FF90EF900895EF9204
:10308000FF920F931F93CF93DF93EC017A018B0193
:103090008C81882371F08CE996E068E074E00E94EE
:1030A00000208CE996E0B801A70122E030E00E9400
:1030B000A120C801B70120E030E040E050E00E94CC
:1030C0002C2129853A85882344F417FB109517F99C
:1030D00010952130310521F406C02130310519F455
:1030E00081E08B8701C01B86C801B7012DE431E068
:1030F00040EA50E40E943021AB01BC01CE010E94A5
:103100001118DF91CF911F910F91FF90EF900895CB
:10311000CF92DF92EF92FF920F931F93CF93DF93A3
:10312000EC018B01CA88DB88EC88FD888C818823C0
:10313000F9F08CE996E06DE573E00E94B4208CE92B
:1031400096E064E174E00E94B4208CE996E06AE2C3
:1031500074E00E94B4208CE996E06AE474E00E9476
:1031600000208CE996E0B8014AE050E00E94E11F9F
:1031700088E490E09C01029FC001039F900D129F84
:10318000900D112464E670E00E946623882777FD85
:103190008095982F0E94CB21A70196010E94C720FD
:1031A000AB01BC01CE010E943F18DF91CF911F916E
:1031B0000F91FF90EF90DF90CF900895CF92DF9224
:1031C000EF92FF920F931F938C01F62ED72EE42ED1
:1031D000C52E862F61E00E940B1C8E2D61E00E949F
:1031E0000B1CF801F582D68281E090E092878187FE
:1031F000E782C08681E0838720E030E040E050E055
:103200002487358746875787148280E090E0A0E9BD
:10321000B2E4868B978BA08FB18F118A108A228B94
:10322000338B448B558B8DEC9CECACECBDE3828FE7
:10323000938FA48FB58F88EC90E0978F868F1F9126
:103240000F91FF90EF90DF90CF9008952F923F92D3
:103250004F925F926F927F928F929F92AF92BF92A6
:10326000CF92DF92EF92FF920F931F93DF93CF9352
:1032700000D000D0CDB7DEB7382E292E4B01DB01B0
:10328000FE0179968EE101900D928150E1F7F401F3
:1032900066897789808D918D228933894489558902
:1032A0000E94302169837A838B839C83F401A684F6
:1032B000B784C088D188C601B50120E030E040E87D
:1032C0005FE30E94C7207B018C0120E030E040E0FA
:1032D00050E00E947B2218162CF4EFAAF8AE09AF3A
:1032E0001AAF04C0AFAAB8AEC9AEDAAE80E161E0F1
:1032F0000E94311C60E971E080E090E00E944B1B6D
:103300008FE061E00E94311C60E971E080E090E0B4
:103310000E944B1B8FE060E00E94311C80E160E066
:103320000E94311C6624772487E3482E512C4C0ED2
:103330005D1E59C00E94171B7B018C01C2012981AF
:103340003A81EB81FC81A901BF010E943F180E94D4
:10335000171B605E7C4F8F4F9F4F6E197F09800B4C
:10336000910B0E94CB215B016C01F401668577858E
:103370008089918920E030E04AE754E40E947F226E
:103380007B018C01C601B501A80197010E942C2187
:10339000882354F4C801B701A60195010E94C720F3
:1033A0000E949D210E944B1B80E161E00E94311C24
:1033B00060E971E080E090E00E944B1B8FE061E0EB
:1033C0000E94311C60E971E080E090E00E944B1B9C
:1033D0008FE060E00E94311C80E160E00E94311CBF
:1033E0000894611C711CB301882777FD8095982F84
:1033F0000E94CB21F40122893389448955890E9496
:103400002C2187FD97CF832D922D9C01D901F201AC
:1034100080E201900D928150E1F7832D922D0F9063
:103420000F900F900F90CF91DF911F910F91FF9010
:10343000EF90DF90CF90BF90AF909F908F907F9054
:103440006F905F904F903F902F9008952F923F92F2
:103450004F925F926F927F928F929F92AF92BF92A4
:10346000CF92DF92EF92FF920F931F93DF93CF9350
:10347000CDB7DEB7382E292E2B01CB8CDC8CAD8C52
:10348000BE8C8F8C98A069A07AA0AC9CB001AD9C3A
:10349000700DBC9C700D1124882777FD8095982FA6
:1034A0000E94CB217B018C016FA378A789A79AA7E3
:1034B000B401882777FD8095982F0E94CB219B012E
:1034C000AC01C801B7010E9430219B01AC0160E052
:1034D00070E080E89FE30E9430216BA37CA38DA362
:1034E0009EA3B301882777FD8095982F0E94CB215A
:1034F0006BA77CA78DA79EA78DB79EB7CE970FB65B
:10350000F8949EBF0FBE8DBF2DB73EB72F5F3F4FC4
:10351000D901FE0175968EE101900D928150E1F77F
:10352000D9015E96FE01F39680E201900D928150E2
:10353000E1F7CE01C396B2010E942619832D922D88
:103540009C01D901FE01F39680E201900D92815019
:10355000E1F78DB79EB7CE960FB6F8949EBF0FBE1B
:103560008DBF832D922DCF91DF911F910F91FF90F1
:10357000EF90DF90CF90BF90AF909F908F907F9013
:103580006F905F904F903F902F9008958FE061E093
:103590000E940B1C80E161E00E940B1C08951F92A9
:1035A0000F920FB60F9211242F933F938F939F93F7
:1035B000AF93BF9380910F0690911006A0911106D2
:1035C000B0911206309113060196A11DB11D232F53
:1035D0002D5F2D3720F02D570196A11DB11D209391
:1035E000130680930F0690931006A0931106B093D4
:1035F000120680910B0690910C06A0910D06B091D9
:103600000E060196A11DB11D80930B0690930C062A
:10361000A0930D06B0930E06BF91AF919F918F912D
:103620003F912F910F900FBE0F901F9018958FB75D
:10363000F89420910F063091100640911106509198
:1036400012068FBFB901CA0108959FB7F89420915F
:103650000B0630910C0640910D0650910E0686B572
:10366000A89B06C08F3F21F02F5F3F4F4F4F5F4F0A
:103670009FBF542F432F322F2227280F311D411D6A
:10368000511D82E0220F331F441F551F8A95D1F729
:10369000B901CA0108959B01AC017FB7F8948091EC
:1036A0000B0690910C06A0910D06B0910E0666B522
:1036B000A89B05C06F3F19F00196A11DB11D7FBFEA
:1036C000BA2FA92F982F8827860F911DA11DB11DF4
:1036D00062E0880F991FAA1FBB1F6A95D1F7BC0132
:1036E0002DC0FFB7F89480910B0690910C06A09125
:1036F0000D06B0910E06E6B5A89B05C0EF3F19F088
:103700000196A11DB11DFFBFBA2FA92F982F8827A1
:103710008E0F911DA11DB11DE2E0880F991FAA1FF8
:10372000BB1FEA95D1F7861B970B885E9340C8F2C2
:10373000215030404040504068517C4F21153105A8
:103740004105510571F60895019739F0880F991FC9
:10375000880F991F02970197F1F70895789484B51F
:10376000826084BD84B5816084BD85B5826085BD7D
:1037700085B5816085BDEEE6F0E080818160808363
:10378000E1E8F0E010828081826080838081816046
:103790008083E0E8F0E0808181608083E1EBF0E00D
:1037A000808184608083E0EBF0E0808181608083B1
:1037B000EAE7F0E08081846080838081826080839A
:1037C0008081816080838081806880831092C100C5
:1037D0000895982F8E3008F09E509770809158046D
:1037E0008295880F880F807C892B80937C00809144
:1037F0007A00806480937A0080917A0086FDFCCF05
:103800002091780040917900942F80E030E0282BBF
:10381000392BC9010895482F50E0CA0186569F4FA1
:10382000FC0124914A575F4FFA0184918823C1F02B
:10383000E82FF0E0EE0FFF1FE859FF4FA591B4917C
:10384000662341F49FB7F8948C91209582238C9342
:103850009FBF08959FB7F8948C91822B8C939FBF44
:103860000895482F50E0CA0182559F4FFC012491D2
:10387000CA0186569F4FFC0194914A575F4FFA0147
:103880003491332309F440C0222351F1233071F0E5
:10389000243028F42130A1F0223011F514C0263054
:1038A000B1F02730C1F02430D9F404C080918000F9
:1038B0008F7703C0809180008F7D8093800010C03F
:1038C00084B58F7702C084B58F7D84BD09C0809197
:1038D000B0008F7703C08091B0008F7D8093B000DF
:1038E000E32FF0E0EE0FFF1FEE58FF4FA591B491CC
:1038F0002FB7F894662321F48C919095892302C008
:103900008C91892B8C932FBF089508951F920F924D
:103910000FB60F9211242F933F934F938F939F9342
:10392000EF93FF934091C6002091540630915506C5
:103930002F5F3F4F2F73307080915606909157063E
:103940002817390759F0E0915406F0915506EC5EBE
:10395000F94F40833093550620935406FF91EF9121
:103960009F918F914F913F912F910F900FBE0F908C
:103970001F901895E091A806F091A906E05CFF4F12
:103980008191919120813181821B930B8F73907073
:10399000892B11F00E94851C08951F920F920FB67B
:1039A0000F9211242F933F934F935F936F937F93C5
:1039B0008F939F93AF93BF93EF93FF9320919806BC
:1039C0003091990680919A0690919B0628173907A5
:1039D00031F48091C1008F7D8093C10016C0E091C9
:1039E0009A06F0919B06E85AF94F408180919A0619
:1039F00090919B06019660E470E00E94662390938C
:103A00009B0680939A064093C600FF91EF91BF9169
:103A1000AF919F918F917F916F915F914F913F9166
:103A20002F910F900FBE0F901F901895AF92BF92DD
:103A3000DF92EF92FF920F931F93CF93DF93EC01EE
:103A40007A018B01DD24403081EE580780E0680761
:103A500080E0780711F0DD24D39491E0A92EB12CF9
:103A6000EC89FD89DD2069F0C5010E8C02C0880F4C
:103A7000991F0A94E2F7808360E079E08DE390E09B
:103A800005C0108260E874E88EE190E0A80197011B
:103A90000E94792321503040404050405695479530
:103AA0003795279580E12030380720F0DD2011F090
:103AB000DD24D6CFE889F9893083EA89FB89208320
:103AC000EE89FF89408121E030E0C9010A8C02C003
:103AD000880F991F0A94E2F7482B4083EE89FF89EB
:103AE0004081C9010B8C02C0880F991F0A94E2F72C
:103AF000482B4083EE89FF894081C9010C8C02C0AC
:103B0000880F991F0A94E2F7482B4083EE89FF89BA
:103B100080810D8C02C0220F331F0A94E2F720959A
:103B200028232083DF91CF911F910F91FF90EF9079
:103B3000DF90BF90AF900895DC011C96ED91FC9151
:103B40001D97E05CFF4F2191319180819181281B6D
:103B5000390B2F733070C9010895DC011C96ED916B
:103B6000FC911D97E05CFF4F20813181E054F040D3
:103B7000DF01AE5BBF4F8D919C91119728173907DC
:103B800019F42FEF3FEF07C08D919C91E80FF91FBB
:103B90008081282F30E0C9010895DC011C96ED9149
:103BA000FC911D97E05CFF4F20813181E054F04093
:103BB000DF01AE5BBF4F8D919C911197281739079C
:103BC00019F42FEF3FEF10C08D919C911197E80FE2
:103BD000F91F20818D919C91119701968F739070A0
:103BE00011969C938E9330E0C9010895FC0186855F
:103BF0009785DC01A05CBF4FFC01EE5BFF4F2D9170
:103C00003C9111978081918128173907C1F7089558
:103C1000CF93DF93EC01462FEE85FF85E05CFF4FED
:103C200080819181E054F040019660E470E00E9450
:103C300066239C01DF01AE5BBF4F8D919C91119774
:103C400028173907D1F3E05CFF4F80819181E05460
:103C5000F040E80FF91F4083EE85FF85E05CFF4FE1
:103C600031832083EE89FF89208181E090E00D8CF3
:103C700002C0880F991F0A94E2F7282B208381E065
:103C800090E0DF91CF91089510929F0610929E06CA
:103C900088EE93E0A0E0B0E08093A0069093A106A8
:103CA000A093A206B093A30685E794E090939D06A7
:103CB00080939C0684E196E09093A9068093A806E1
:103CC00088E596E09093AB068093AA0685EC90E099
:103CD0009093AD068093AC0684EC90E09093AF0691
:103CE0008093AE0680EC90E09093B1068093B0068E
:103CF00081EC90E09093B3068093B20686EC90E05E
:103D00009093B5068093B40684E08093B60683E072
:103D10008093B70687E08093B80685E08093B90664
:103D200081E08093BA060895CF93DF930E94AE1B83
:103D30000E943606CAEBDCE10E9425062097E1F3DB
:103D40000E94BA1CF9CFCF92DF92EF92FF920F93AD
:103D50001F93CF93DF937C016B018A01C0E0D0E019
:103D60000FC0D6016D916D01D701ED91FC910190CD
:103D7000F081E02DC7010995C80FD91F01501040EF
:103D80000115110571F7CE01DF91CF911F910F91B0
:103D9000FF90EF90DF90CF900895DC01ED91FC91C2
:103DA0000190F081E02D09950895EF92FF920F9315
:103DB0001F938C01DC01ED91FC910190F081E02DCD
:103DC0006DE009957C01D801ED91FC910190F081A5
:103DD000E02DC8016AE009959C012E0D3F1DC90127
:103DE0001F910F91FF90EF900895CF93DF93DB0128
:103DF0000D900020E9F71197A61BB70BEC01E881A5
:103E0000F9810280F381E02DAD010995DF91CF9119
:103E100008954F925F927F928F929F92AF92BF923E
:103E2000CF92DF92EF92FF920F931F93DF93CF9386
:103E3000CDB7DEB7A1970FB6F894DEBF0FBECDBFEA
:103E40002C01742ECB01223008F42AE019A231E2B1
:103E5000C32ED12CCC0EDD1E822E9924AA24BB2485
:103E6000672D752FA50194010E94792379018A019C
:103E7000C801B701A50194010E944723472D461BA5
:103E80000894C108D1084A3014F4405D01C0495C6F
:103E9000F6014083E114F1040105110521F07E2CA7
:103EA0005F2DC801DDCFC201B6010E94F51EA196AB
:103EB0000FB6F894DEBF0FBECDBFCF91DF911F913B
:103EC0000F91FF90EF90DF90CF90BF90AF909F90B9
:103ED0008F907F905F904F900895DC012115310500
:103EE00041F4ED91FC910190F081E02D642F099552
:103EF00008950E94091F0895EF92FF920F931F9358
:103F00009A01E62EFF2400E010E0B801A7010E940C
:103F10006D1F1F910F91FF90EF900895CF92DF9248
:103F2000EF92FF920F931F93CF93DF93EC016A01FF
:103F30007B012115310541F4E881F9810190F0817F
:103F4000E02D642F09951FC02A303105D1F477FF89
:103F500017C0E881F9810190F081E02D6DE20995AB
:103F60008C0144275527BA014C195D096E097F0958
:103F7000CE012AE00E94091F9801280F391F04C0B2
:103F80002AE00E94091F9C01C901DF91CF911F9176
:103F90000F91FF90EF90DF90CF900895EF92FF92F6
:103FA0000F931F937B019A010027F7FC0095102FB8
:103FB000B801A7010E948E1F1F910F91FF90EF90F3
:103FC0000895CF92DF92EF92FF920F931F936C01AF
:103FD0007B019A010027F7FC0095102FB801A7017B
:103FE0000E948E1F8C01C6010E94D51E080F191F4A
:103FF000C8011F910F91FF90EF90DF90CF9008952F
:104000000E94F51E08957F928F929F92AF92BF9269
:10401000CF92DF92EF92FF920F931F93CF93DF9394
:104020004C017A018B01722ECB01BA0120E030E005
:1040300040E050E00E942C2187FD03C0C0E0D0E0AA
:104040000EC0D401ED91FC910190F081E02DC401EE
:104050006DE20995EC0117FB109517F9109520E01A
:1040600030E040E05FE3AA240BC0CA01B90120E0C0
:1040700030E040E251E40E9430219B01AC01A39466
:10408000A71498F3C801B7010E94C8205B016C0116
:104090000E949D217B018C01C401B801A7012AE087
:1040A00030E00E946D1FC80FD91F772039F0C4017E
:1040B00066E574E00E94F51EC80FD91FC801B7015C
:1040C0000E94C9219B01AC01C601B5010E94C72015
:1040D00024C020E030E040E251E40E947F227B01D6
:1040E0008C010E9498215B016C01CC24B7FCC09428
:1040F000DC2CC401B601A5012AE030E00E948E1F2D
:10410000C80FD91FC601B5010E94CB219B01AC018C
:10411000C801B7010E94C7207A947720D1F6CE015A
:10412000DF91CF911F910F91FF90EF90DF90CF9093
:10413000BF90AF909F908F907F9008950E94032032
:104140000895EF92FF920F931F937C010E9403202A
:104150008C01C7010E94D51E080F191FC8011F91AD
:104160000F91FF90EF900895EF92FF920F931F939E
:104170007C010E94F51E8C01C7010E94D51E080F0C
:10418000191FC8011F910F91FF90EF90089550588B
:10419000BB27AA270ED075C166D130F06BD120F0B5
:1041A00031F49F3F11F41EF45BC10EF4E095E7FB80
:1041B00051C1E92F77D180F3BA17620773078407DB
:1041C000950718F071F49EF58FC10EF4E0950B2E53
:1041D000BA2FA02D0B01B90190010C01CA01A00159
:1041E0001124FF27591B99F0593F50F4503E68F1B4
:1041F0001A16F040A22F232F342F4427585FF3CFF5
:10420000469537952795A795F0405395C9F77EF4C5
:104210001F16BA0B620B730B840BBAF09150A1F00E
:10422000FF0FBB1F661F771F881FC2F70EC0BA0F94
:10423000621F731F841F48F4879577956795B7951C
:10424000F7959E3F08F0B3CF9395880F08F0992714
:10425000EE0F979587950895D9D008F481E00895D9
:104260000CD00FC107D140F0FED030F021F45F3FF9
:1042700019F0F0C0511139C1F3C014D198F399234A
:10428000C9F35523B1F3951B550BBB27AA2762171A
:104290007307840738F09F5F5F4F220F331F441F5F
:1042A000AA1FA9F333D00E2E3AF0E0E830D0915097
:1042B0005040E695001CCAF729D0FE2F27D0660F84
:1042C000771F881FBB1F261737074807AB07B0E8C3
:1042D00009F0BB0B802DBF01FF2793585F4F2AF0D9
:1042E0009E3F510568F0B6C000C15F3FECF3983EB9
:1042F000DCF3869577956795B795F7959F5FC9F736
:10430000880F911D9695879597F90895E1E0660FBE
:10431000771F881FBB1F621773078407BA0720F037
:10432000621B730B840BBA0BEE1F88F7E0950895A0
:1043300004D06894B111D9C00895BCD088F09F57BB
:1043400090F0B92F9927B751A0F0D1F0660F771FE1
:10435000881F991F1AF0BA95C9F712C0B13081F0C1
:10436000C3D0B1E00895C0C0672F782F8827B85F09
:1043700039F0B93FCCF3869577956795B395D9F722
:104380003EF490958095709561957F4F8F4F9F4F2C
:104390000895E89409C097FB3EF490958095709538
:1043A00061957F4F8F4F9F4F9923A9F0F92F96E981
:1043B000BB279395F695879577956795B795F111F6
:1043C000F8CFFAF4BB0F11F460FF1BC06F5F7F4F93
:1043D0008F4F9F4F16C0882311F096E911C07723A5
:1043E00021F09EE8872F762F05C0662371F096E8AE
:1043F000862F70E060E02AF09A95660F771F881F7D
:10440000DAF7880F9695879597F90895990F000820
:10441000550FAA0BE0E8FEEF16161706E807F90796
:10442000C0F012161306E407F50798F0621B730B31
:10443000840B950B39F40A2661F0232B242B252BB2
:1044400021F408950A2609F4A140A6958FEF811D55
:10445000811D089597F99F6780E870E060E00895F6
:104460009FEF80EC089500240A941616170618068C
:104470000906089500240A94121613061406050668
:104480000895092E0394000C11F4882352F0BB0FF9
:1044900040F4BF2B11F460FF04C06F5F7F4F8F4F5C
:1044A0009F4F089557FD9058440F551F59F05F3F97
:1044B00071F04795880F97FB991F61F09F3F79F046
:1044C00087950895121613061406551FF2CF4695C8
:1044D000F1DF08C0161617061806991FF1CF86954A
:1044E0007105610508940895E894BB27662777272E
:1044F000CB0197F908958ADF08F48FEF08950BD068
:10450000C0CFB1DF28F0B6DF18F0952309F0A2CFB5
:10451000A7CF1124EACFC6DFA0F3959FD1F3950F63
:1045200050E0551F629FF001729FBB27F00DB11D37
:10453000639FAA27F00DB11DAA1F649F6627B00DC7
:10454000A11D661F829F2227B00DA11D621F739FB0
:10455000B00DA11D621F839FA00D611D221F749FBE
:104560003327A00D611D231F849F600D211D822F05
:10457000762F6A2F11249F5750408AF0E1F088234C
:104580004AF0EE0FFF1FBB1F661F771F881F915059
:104590005040A9F79E3F510570F05CCFA6CF5F3F1A
:1045A000ECF3983EDCF3869577956795B795F7958C
:1045B000E7959F5FC1F7FE2B880F911D9695879514
:1045C00097F9089511F40EF44BCF4AC073DFD0F37E
:1045D0009923D9F3CEF39F57550B87FF51D05695AA
:1045E0009795B0E020F4660F771F881FBB1F1F93BD
:1045F0000F9300249001A0018001F001A0E80E0FAC
:104600001F1F0A1E511D601B710B8009B50B48F45A
:10461000600F711F801DB51F0E1B1F0B0A0A510969
:1046200007C02E0F3F1F4A1F0E0F1F1F0A1E511DCE
:10463000660F771F881FBB1FA695F795E795F8F6BD
:104640000617170708065B07211D311D411D0F9135
:104650001F91B901842F9158880F969587950895D9
:104660009F3F49F0915028F4869577956795B795C7
:104670009F5F80389F4F880F9695879597F908958B
:1046800091505040660F771F881FD2F70895629FA0
:10469000D001739FF001829FE00DF11D649FE00D3A
:1046A000F11D929FF00D839FF00D749FF00D659F9B
:1046B000F00D9927729FB00DE11DF91F639FB00D9A
:1046C000E11DF91FBD01CF011124089597FB092EAB
:1046D00007260AD077FD04D02ED006D000201AF489
:1046E000709561957F4F0895F6F7909581959F4F4E
:1046F0000895A1E21A2EAA1BBB1BFD010DC0AA1F23
:10470000BB1FEE1FFF1FA217B307E407F50720F03A
:10471000A21BB30BE40BF50B661F771F881F991FB5
:104720001A9469F760957095809590959B01AC01FE
:10473000BD01CF010895AA1BBB1B51E107C0AA1FF1
:10474000BB1FA617B70710F0A61BB70B881F991F32
:104750005A95A9F780959095BC01CD010895EE0F6B
:10476000FF1F0590F491E02D0994911106C080324D
:1047700019F089508550D0F7089599278827089512
:104780002F923F924F925F926F927F928F929F9261
:10479000AF92BF92CF92DF92EF92FF920F931F934F
:1047A000CF93DF93CDB7DEB7CA1BDB0B0FB6F89400
:1047B000DEBF0FBECDBF09942A88398848885F8440
:1047C0006E847D848C849B84AA84B984C884DF80B1
:1047D000EE80FD800C811B81AA81B981CE0FD11D95
:1047E0000FB6F894DEBF0FBECDBFED010895F8946B
:0247F000FFCFF9
:1047F200466C6167206E6F742072656769737465B9
:104802007265643A2000466C6167206F7574206F90
:104812006620626F756E64733A20004D6F746F721A
:10482200697A6564205261696C0076302E3100200D
:1048320053696D706C65204D6F76650020536D6114
:1048420072742053657175656E6365003E00204287
:10485200617369632053657175656E6365002042FB
:104862006C7565746F6F7468002053706565643A87
:104872000020506F736974696F6E3A00204650537E
:104882003A00204F75747075743A00204576656E53
:10489200743A002052616E67653A00205374617267
:1048A200740020002D002044656C61793A00204696
:1048B20072616D65733A00204D6F76653A00205241
:1048C200656369657665643A004D6F746F72697AE3
:1048D20065642043616D6572610073746172745F17
:1048E20063757272656E744C6F636174696F6E3A50
:1048F2002000656E645F63757272656E744C6F63DF
:104902006174696F6E3A20002A2A2A2A2A2A2A2AE0
:104912002A2A2A2A2A2A2A2A2A2A2A2A2A2A2A2AF5
:104922002A2A2A2A2A2A004E4F20414343454C452F
:10493200524154494F4E2C20544F20534C4F572133
:1049420021210043414E204E4F54204D45455420D5
:10495200444541444C494E452C20544F2046415336
:1049620054212121004E4F20414343454C455241A1
:1049720054494F4E2C20544F2053484F525421211A
:1049820021006D6F7665546F74616C3A2000737408
:104992006570733A20005374617274207370656598
:1049A200643A20002046756C6C2073706565643A29
:1049B200200074696D6552616D703A200066756CF5
:1049C2006C53706565643A2000416363656C53689B
:1049D2006F756C643A20002F2F52616D70696E679B
:1049E2002075700053746172742073746570207046
:1049F2006572696F643A2000206D6963726F736536
:104A0200636F6E64730064656C617920696E6372B2
:104A1200656D656E743A2000537465702054696D3B
:104A2200653A20002054696D653A2000206D7300BC
:104A320020416363656C65726174696F6E49733A94
:104A420020002073746570732F735E3200202D2D49
:104A52002D2D2D2D2D2D2D2D2D2D2D2D2D2D2D2D84
:104A62002D2D2D2D2D2D2D2D2D2D2D2D002D2D438B
:104A72006F6E7374616E7420737065656400207369
:104A8200746570733A20002073746570732F73001D
:104A920020436F6E7374616E742064656C6179205B
:104AA20070657220737465703A20002064656C61D1
:104AB2007920696E6372656D656E743A20002030EC
:104AC200005C52616D70696E6720646F776E0020C2
:104AD200456E642073706565643A200020456E64FB
:104AE2002064656C61793A2000207265766F6C757E
:104AF20074696F6E733A20002064697374616E6327
:104B0200653A20004162736F6C757465205065725E
:104B120063656E74204D6F766500202A2A2A2A2A40
:104B22002A2A2A2A2A2A2A2A2A2A2A2A2A2A2A2AE3
:104B32002A2A2A2A2A2A2A2A2A000909706572633D
:104B4200656E743A20002E000100000000DE02A310
:104B52001E0000400014005400000000008004A366
:104B62001E00000000081EA31E9C1DCD1DAD1DF6DB
:024B72001D0024
:00000001FF
