:100000000C9467000C948F000C948F000C948F005C
:100010000C948F000C948F000C948F000C948F0024
:100020000C948F000C948F000C948F000C948F0014
:100030000C948F000C948F000C948F000C948F0004
:100040000C947C140C948F000C9433160C947A1638
:100050000C948F000C948F000C948F000C948F00E4
:100060000C948F000C948F000000000024002700E7
:100070002A0000000000250028002B0000000000DE
:1000800023002600290004040404040404040202DA
:100090000202020203030303030301020408102007
:1000A0004080010204081020010204081020000012
:1000B0000007000201000003040600000000000029
:1000C0000000700475055509CF12F1176E05112453
:1000D0001FBECFEFD8E0DEBFCDBF14E0A0E0B1E09F
:1000E000E8E7FCE302C005900D92A836B107D9F706
:1000F00016E0A8E6B4E001C01D92AE34B107E1F706
:1001000010E0CCECD0E004C02297FE010E94F41D68
:10011000C23CD107C9F70E9441180C942F1E0C94C1
:100120000000CF93DF93BC018230910510F462E0B0
:1001300070E0A0914C06B0914D06ED01E0E0F0E0DA
:1001400040E050E021C0888199818617970769F4C3
:100150008A819B81309719F09383828304C09093A6
:100160004D0680934C06FE0134C06817790738F4B9
:100170004115510519F08417950708F4AC01FE01EB
:100180008A819B819C01E9012097E9F6411551057F
:10019000A9F1CA01861B970B049708F4BA01E0E0A5
:1001A000F0E02AC08D919C91119784179507F9F47E
:1001B0006417750781F412968D919C91139730976F
:1001C00019F09383828304C090934D0680934C066C
:1001D000FD0132964CC0CA01861B970BFD01E80F4A
:1001E000F91F6193719302978D939C9340C0FD0119
:1001F000828193819C01D9011097A1F680914A06D2
:1002000090914B06892B41F48091420490914304D4
:1002100090934B0680934A064091440450914504C4
:100220004115510541F44DB75EB78091400490915E
:100230004104481B590B20914A0630914B06CA01D4
:10024000821B930B8617970780F0AB014E5F5F4FC1
:100250008417950750F0420F531F50934B0640935D
:100260004A06F9016193719302C0E0E0F0E0CF012A
:10027000DF91CF910895CF93DF93009709F450C099
:10028000EC0122971B821A82A0914C06B0914D0678
:10029000109709F140E050E0AC17BD0708F1BB83AF
:1002A000AA83FE0121913191E20FF31FAE17BF0720
:1002B00079F48D919C911197280F391F2E5F3F4F34
:1002C0003983288312968D919C9113979B838A83FF
:1002D0004115510571F4D0934D06C0934C0620C0D2
:1002E00012968D919C911397AD01009711F0DC014E
:1002F000D3CFFA01D383C28321913191E20FF31F4F
:10030000CE17DF0769F488819981280F391F2E5F86
:100310003F4FFA01318320838A819B8193838283BB
:10032000DF91CF910895A0E0B0E0E9E9F1E00C940D
:10033000FA1D6C01009729F4CB010E9491006C0119
:10034000C1C08EEF882E8FEF982E8C0C9D1C8601DD
:10035000060F171F0815190508F4B2C0F401A08193
:10036000B181A617B707B8F0A530B10508F4AAC047
:10037000CD0104978617970708F4A4C01297A61B0F
:10038000B70BF801A193B193D4016D937C93CF0186
:100390000E943B0197C07B01EA1AFB0AEEEFFFEFD8
:1003A000EE0EFF1E36016A0E7B1EC0914C06D091E8
:1003B0004D0644245524AA24BB244AC0C615D7059B
:1003C000E1F5488159814E155F05B8F1CA010497DE
:1003D0008E159F05B0F41296A40FB51FF401B183DA
:1003E000A0832A813B814114510431F0D20113963C
:1003F0003C932E93129766C030934D0620934C0683
:1004000061C08A819B81F80193838283425050406E
:100410004E195F09518340834114510431F0D201D8
:1004200013961C930E93129704C010934D060093DD
:100430004C06F4017183608345C088819981A816B8
:10044000B90608F45C012E018A819B819C01E901B7
:10045000209709F0B3CF80914A0690914B068615FC
:100460009705E9F4A616B706D0F42091440430911C
:1004700045042115310541F42DB73EB78091400464
:1004800090914104281B390B02171307C8F41093ED
:100490004B0600934A06D4016D937C9313C0CB01A5
:1004A0000E949100EC01009759F0F40140815181C4
:1004B000B6010E946802C6010E943B016E0102C0A3
:1004C000CC24DD24C601CDB7DEB7E0E10C94161EC6
:1004D000FB01DC0102C001900D9241505040D8F761
:1004E0000895FB01DC0101900D920020E1F70895D1
:1004F0000F931F938C01FC01868160E00E94DE1542
:1005000081E090E00E945115F801868161E00E942F
:10051000DE1581E090E00E945115F801868160E0CF
:100520000E94DE1584E690E00E9451151F910F9104
:100530000895CF92DF92EF92FF920F931F93CF9384
:10054000DF93D82EC92E282F392FC9018C01C0E086
:10055000D0E0E62EFF24F801878161E00E94B81503
:10056000B7010C2E02C0759567950A94E2F7617089
:10057000F80187810E94DE1521960F5F1F4FC8305A
:10058000D10549F78D2D9C2D0E947802DF91CF91E6
:100590001F910F91FF90EF90DF90CF900895CF9231
:1005A000DF92EF92FF920F931F93CF93DF93D82E9A
:1005B000C92E282F392FC9018C01C0E0D0E0E62ECA
:1005C000FF24F801878161E00E94B815B7010C2E65
:1005D00002C0759567950A94E2F76170F80187810A
:1005E0000E94DE1521960F5F1F4FC430D10549F7D9
:1005F0008D2D9C2D0E947802DF91CF911F910F913C
:10060000FF90EF90DF90CF9008951F93CF93DF93EB
:10061000EC01162F8C81642F0E94DE158D818F3F97
:1006200019F060E00E94DE158F8584FF05C0CE01C1
:10063000612F0E9499020EC0612F70E084E07595D1
:1006400067958A95E1F7CE010E94CF02CE01612F16
:100650000E94CF02DF91CF911F91089541E00E9447
:10066000050381E090E0089540E00E9405030895AD
:10067000FC0160896D7F608B68600E94340308957F
:10068000FC016089862F8460808B6C60CF010E94A2
:1006900034030895DF93CF93CDB7DEB728970FB615
:1006A000F894DEBF0FBECDBF9C01FE013196AFE4D2
:1006B000B4E088E00D9001928150E1F7F90183895F
:1006C000481710F0482F4150E42FF0E0EE0FFF1FC5
:1006D000EC0FFD1F8181680F6068C9010E9434031F
:1006E00028960FB6F894DEBF0FBECDBFCF91DF9135
:1006F000089561E00E94340380ED97E00E94511557
:100700000895CF93DF93EC01423018F08F85886015
:100710008F874B8B1C8A222329F0413019F48F8557
:1007200084608F8780E593EC0E9451158C8160E096
:100730000E94DE158E8160E00E94DE158D818F3F64
:1007400019F060E00E94DE156F8564FD1DC0CE01CA
:1007500063E00E94CF0284E991E10E945115CE012D
:1007600063E00E94CF0284E991E10E945115CE011D
:1007700063E00E94CF0286E990E00E945115CE010D
:1007800062E00E94CF0216C06062CE010E94340374
:1007900084E991E10E9451156F856062CE010E944B
:1007A000340386E990E00E9451156F856062CE01A6
:1007B0000E9434036F856062CE010E94340384E09E
:1007C000888BCE010E944003CE010E94790382E013
:1007D000898BCE0166E00E943403DF91CF910895AA
:1007E0006F927F928F92AF92CF92EF920F931F935F
:1007F000DF93CF93CDB7DEB73C01162F842FF301E3
:10080000448325830683E782C086A18682869D85F0
:1008100093879E8594879F8595879889968761E0C1
:100820000E94B815F30185818F3F19F061E00E94A5
:10083000B815F301868161E00E94B815112319F003
:10084000F301178603C080E1F3018787C30160E1EC
:1008500041E020E00E948103CF91DF911F910F9131
:10086000EF90CF90AF908F907F906F9008958F9280
:10087000AF92CF92EF920F931F93CF93DF93DC0150
:10088000362F542F722F102FAE2C8C2C13961C92B7
:100890001E9212978BE494E011969C938E9300D055
:1008A00000D0EDB7FEB73196CDB7DEB71982118211
:1008B00012821382CD0161E0432F2FEF052FE72E27
:1008C000C12E0E94F0030F900F900F900F90DF91B8
:1008D000CF911F910F91EF90CF90AF908F9008958F
:1008E00088E694E00E94330E08950F931F9308E664
:1008F00014E0C8010E94BB09C8010E94C0091F91F1
:100900000F9108958BE296E040E052EC61E070E0D8
:100910000E94C31608958130910509F083C06F5F6E
:100920007F4F09F0DAC080E894E060E071E00E9457
:100930001B1B87E894E060E071E00E941B1B8EE8BF
:1009400094E060E071E00E941B1B85E994E060E0A8
:1009500071E00E941B1B8CE994E060E071E00E9452
:100960001B1B83EA94E060E071E00E941B1B8AEA93
:1009700094E060E071E00E941B1B81EB94E060E07A
:1009800071E00E941B1B88EB94E060E071E00E9424
:100990001B1B8FEB94E060E071E00E941B1B86EC58
:1009A00094E060E071E00E941B1B8DEC94E060E03D
:1009B00071E00E941B1B84ED94E060E071E00E94F6
:1009C0001B1B8BED94E060E071E00E941B1B82EE2C
:1009D00094E060E071E00E941B1B89EE94E060E00F
:1009E00071E00E941B1B80EF94E060E071E00E94C8
:1009F0001B1B87EF94E060E071E00E941B1B8EEFF1
:100A000094E060E071E00E941B1B85E095E060E0EF
:100A100071E00E941B1B8CE095E060E071E00E9499
:100A20001B1B0895892B09F058C06F5F7F4F09F099
:100A300054C08CE095E00E944E1B85E095E00E943A
:100A40004E1B8EEF94E00E944E1B87EF94E00E94B5
:100A50004E1B80EF94E00E944E1B89EE94E00E94B2
:100A60004E1B82EE94E00E944E1B8BED94E00E94A0
:100A70004E1B84ED94E00E944E1B8DEC94E00E948E
:100A80004E1B86EC94E00E944E1B8FEB94E00E947C
:100A90004E1B88EB94E00E944E1B81EB94E00E9479
:100AA0004E1B8AEA94E00E944E1B83EA94E00E9467
:100AB0004E1B8CE994E00E944E1B85E994E00E9455
:100AC0004E1B8EE894E00E944E1B87E894E00E9443
:100AD0004E1B80E894E00E944E1B089580E090E059
:100AE0006FEF7FEF0E948B04089581E090E06FEF3D
:100AF0007FEF0E948B040895EF92FF920F931F9354
:100B0000CF93DF93EC01162F072F862F972F0E948C
:100B10007903EAA0FBA085E0E816F10409F41DC101
:100B200086E0E816F104ECF482E0E816F10409F43A
:100B30007DC083E0E816F1044CF4E114F10481F186
:100B400081E0E816F10409F023C247C083E0E8160B
:100B5000F10409F492C084E0E816F10409F018C227
:100B6000C5C088E0E816F10409F47CC189E0E81604
:100B7000F1045CF486E0E816F10409F429C187E089
:100B8000E816F10409F004C24AC189E0E816F1044C
:100B900009F4A5C18AE0E816F10409F0F9C1D4C14D
:100BA000812F902F60E040E00E944A03812F902F18
:100BB00067E874E00E946E1A812F902F60E041E098
:100BC0000E944A03812F902F6EE874E00E946E1AF3
:100BD0001DA21CA21FA21EA2DBC1812F902F60E0CC
:100BE00040E00E944A03812F902F6CE974E00E943C
:100BF0006E1A812F902F60E041E00E944A03812FFE
:100C0000902F63EA74E00E946E1A812F902F60E0AB
:100C100048A10E944A03812F902F61E071E00E9459
:100C2000A719FFA2EEA282E090E056C1812F902F7B
:100C300060E040E00E944A03812F902F6AEA74E04E
:100C40000E946E1A812F902F60E041E00E944A03BB
:100C5000812F902F63E071E00E94A719812F902FC0
:100C600060E048A10E944A03812F902F61E071E06B
:100C70000E94A71981E090E062C1812F902F60E06F
:100C800040E00E944A03812F902F68EB74E00E949D
:100C90006E1A4A815B816C817D81812F902F22E0C9
:100CA00030E00E94451A812F902F60E041E00E94C1
:100CB0004A03812F902F68EB74E00E946E1A6881BE
:100CC0007981812F902F4AE050E00E947519812F81
:100CD000902F60E048A10E944A03812F902F61E08D
:100CE00071E00E94A719FFA2EEA22BC1812F902FC5
:100CF00060E040E00E944A03812F902F6DEC74E089
:100D00000E946E1A6E817F81812F902F4AE050E001
:100D10000E947519812F902F60E041E00E944A03E4
:100D2000812F902F64ED74E00E946E1A688579859A
:100D3000812F902F4AE050E00E947519812F902F4B
:100D400060E048A10E944A03812F902F61E071E08A
:100D50000E94A719FFA2EEA238C0812F902F60E059
:100D600040E00E944A03812F902F6BED74E00E94B7
:100D70006E1A6A857B85812F902F4AE050E00E9491
:100D80007519812F902F60E041E00E944A03812F66
:100D9000902F62EE74E00E946E1A6C857D85812F23
:100DA000902F4AE050E00E947519812F902F60E04B
:100DB00048A10E944A03812F902F61E071E00E94B8
:100DC000A71984E090E09FA38EA386E090E084C002
:100DD000812F902F60E040E00E944A03812F902FE6
:100DE00069EE74E00E946E1A812F902F60E041E05E
:100DF0000E944A03812F902F63E071E00E94A7199F
:100E0000812F902F60E048A10E944A03812F902FEC
:100E100061E071E00E94A71984E090E090C0812F0A
:100E2000902F60E040E00E944A03812F902F63E002
:100E300071E00E94A719812F902F60E041E00E948D
:100E40004A03812F902F63E071E00E94A719812F40
:100E5000902F60E048A10E944A03812F902F65E007
:100E600071E094C0812F902F60E040E00E944A031F
:100E7000812F902F67EF74E00E946E1A6E857F8538
:100E8000812F902F4AE050E00E947519812F902FFA
:100E900060E041E00E944A03812F902F6EEF74E0E2
:100EA0000E946E1A488959896A897B89812F902FFF
:100EB00022E030E00E94451A812F902F60E048A187
:100EC0000E944A03812F902F61E071E00E94A719D0
:100ED000FFA2EEA289E090E09DA38CA359C0812FD0
:100EE000902F60E040E00E944A03812F902F65E040
:100EF00075E00E946E1A4C895D896E897F89812F09
:100F0000902F22E030E00E94451A812F902F60E060
:100F100041E00E944A03812F902F6CE075E00E940F
:100F20006E1A812F902F60E048A10E944A03812F02
:100F3000902F61E071E00E94A71988E090E09FA3E4
:100F40008EA3FDA2ECA224C0812F902F60E040E090
:100F50000E944A03812F902F63E071E00E94A7193D
:100F6000812F902F60E041E00E944A03812F902F53
:100F700063E071E00E94A719812F902F60E048A1E3
:100F80000E944A03812F902F61E071E00E94A7190F
:100F9000DF91CF911F910F91FF90EF9008950F93E4
:100FA0001F9300E814E0C80167E071E00E94351B60
:100FB000C80107966DE071E00E94351BC8010E96CE
:100FC0006CE171E00E94351BC801459661E271E059
:100FD0000E94351BC8014C966BE271E00E94351BE4
:100FE000C801839668E371E00E94351BC8018A96A8
:100FF00068E471E00E94351BC801C19668E571E0A4
:101000000E94351BC801C89664E671E00E94351B3A
:10101000C801CF966CE671E00E94351B86EC94E027
:1010200067E771E00E94351B8DEC94E066E871E0A3
:101030000E94351B84ED94E06CE871E00E94351B42
:101040008BED94E065E971E00E94351B82EE94E03F
:101050006DE971E00E94351B05EA11E089EE94E02C
:10106000B8010E94351B80EF94E06CEA71E00E94A9
:10107000351B87EF94E06BEB71E00E94351B8EEF20
:1010800094E063EC71E00E94351B85E095E06CEC28
:1010900071E00E94351B8CE095E0B8010E94351B81
:1010A0001F910F910895EF92FF920F931F938C0160
:1010B000F62EE72E862F972F60E142E020E00E9477
:1010C000810388E061E00E94B81588E061E00E9439
:1010D000DE158F2D9E2D0E9479038F2D9E2D60E0B1
:1010E00040E00E944A038F2D9E2D63ED71E00E9427
:1010F000A7198F2D9E2D60E041E00E944A038F2D9D
:101100009E2D6CE171E00E94A719F80111821082F6
:101110001782168280E090E0AAEFB5E48283938381
:10112000A483B583118610861386128615861486CD
:101130001786168680E090E0A6E1B4E4808B918B60
:10114000A28BB38B80E090E0A0E0B0E0848B958B25
:10115000A68BB78B108E13A212A2178E168E158E29
:101160001F910F91FF90EF90089583E06538780705
:101170009CF5CB018D5B9240873C910518F421E0F2
:1011800030E02CC0CB01895592408336910518F48C
:1011900022E030E023C0CB0181599140873C91058A
:1011A00018F423E030E01AC0CB018D529140833611
:1011B000910518F424E030E011C0CB018556904031
:1011C000873C910518F425E030E008C064367105CD
:1011D0001CF426E030E002C020E030E0C9010895B0
:1011E0000F931F93CF93DF93EC0181E10E9496153B
:1011F000BC01CE010E94B5088C010E94D2149B0153
:10120000AC0101151105D9F18C819D81AE81BF81A1
:1012100080579F42AC4FBF4F82179307A407B50773
:1012200074F561E070E080E090E00E94F81481E1E4
:101230000E949615BC01CE010E94B5080817190737
:10124000F1F461E070E080E090E00E94F81481E148
:101250000E949615BC01CE010E94B5089C0108179A
:10126000190729F48A819B8101969B838A8339839C
:1012700028830E94D2146C837D838E839F83DF91A9
:10128000CF911F910F9108950F931F938C0181E1CE
:1012900060E00E94B81581E161E00E94DE15F8016E
:1012A000118210821F910F910895CF92EF920F93A8
:1012B000DF93CF93CDB7DEB765970FB6F894DEBF57
:1012C0000FBECDBF83E195E063E170E042E150E005
:1012D0000E9487128FE295E00E94440987E395E01F
:1012E00062E043E024E005E056E0E52E37E0C32E5F
:1012F0000E9437048091390590913A059C838B8335
:101300008BE494E09A83898380913B058D8380915F
:101310003C058E8380913D058F83DE011896EEE3B8
:10132000F5E088E001900D928150E1F7809146054B
:10133000888B80914705898B809148058A8B8091A5
:1013400049058B8B80914A058C8B80914B058D8B49
:101350008CE495E0BE016F5F7F4F0E945308659655
:101360000FB6F894DEBF0FBECDBFCF91DF910F91C6
:10137000EF90CF9008958FE295E00E94F0080895D5
:10138000DF93CF93CDB7DEB7C85AD0400FB6F894ED
:10139000DEBF0FBECDBF9C0180912F05909130051F
:1013A0008330910509F4B4C08430910544F4813050
:1013B000910509F472C1029709F04BC40CC0853045
:1013C000910509F4F2C3853091050CF449C20697E2
:1013D00009F03FC428C380916C0590916D05019779
:1013E00009F443C081E090E090936D0580936C0513
:1013F00080916A0590916B05019690936B0580939F
:101400006A058091390590913A059C838B838BE422
:1014100094E09A83898380913B058D8380913C057C
:101420008E8380913D058F83DE011896EEE3F5E013
:1014300088E001900D928150E1F780914605888BFC
:1014400080914705898B809148058A8B8091490559
:101450008B8B80914A058C8B80914B058D8B8CE416
:1014600095E0BE016F5F7F4F11C120916E053091F5
:101470006F058091700590917105281739070CF060
:1014800007C110926D0510926C052F5F3F4F30938E
:101490006F0520936E0580916A0590916B0501960A
:1014A00090936B0580936A058091390590913A0578
:1014B000998F888F8BE494E09F8B8E8B80913B0576
:1014C0008A8F80913C058B8F80913D058C8FDE014A
:1014D0005D96EEE3F5E088E001900D928150E1F732
:1014E000809146058DA3809147058EA38091480584
:1014F0008FA38091490588A780914A0589A780918B
:101500004B058AA78CE495E0BE016A5E7F4FBEC0A2
:1015100080916C0590916D05892B09F441C0109262
:101520006D0510926C0580916A0590916B0501978D
:1015300090936B0580936A058091390590913A05E7
:101540009EA78DA78BE494E09CA78BA780913B0579
:101550008FA780913C0588AB80913D0589ABDE016A
:10156000D296EEE3F5E088E001900D928150E1F72C
:10157000809146058AAF809147058BAF80914805E1
:101580008CAF809149058DAF80914A058EAF8091D7
:101590004B058FAF8CE495E0BE01655D7F4F76C053
:1015A00020916E0530916F058091720590917305C1
:1015B000821793070CF06CC081E090E090936D056A
:1015C00080936C052150304030936F0520936E0559
:1015D00080916A0590916B05019790936B058093BC
:1015E0006A058091390590913A05FE01EE5BFF4F47
:1015F000918380838BE494E0FE01E05CFF4F918354
:10160000808380913B05FE01EC5BFF4F80838091DE
:101610003C05FE01EB5BFF4F808380913D05FE01A1
:10162000EA5BFF4F8083DE01A95BBF4FEEE3F5E08D
:1016300088E001900D928150E1F780914605FE010E
:10164000E15BFF4F808380914705FE01E05BFF4F28
:10165000808380914805FE01EF5AFF4F808380917F
:101660004905FE01EE5AFF4F808380914A05FE0135
:10167000ED5AFF4F808380914B05FE01EC5AFF4FDE
:1016800080838CE495E0BE01605C7F4F0E947C0506
:101690001092300510922F05DCC280916E0590915A
:1016A0006F058330910561F520916C0530916D05D2
:1016B00021153105B9F460914E0570914F05809167
:1016C00050059091510520E030E04AEF53E40E942C
:1016D000541B60934E0570934F0580935005909373
:1016E000510598C02130310509F076C080914C0534
:1016F00090914D05059790934D0580934C058AC0B8
:1017000084309105E9F480916C0590916D05009706
:1017100051F4809152059091530501979093530590
:101720008093520577C0019709F074C080915405E9
:1017300090915505019790935505809354056AC083
:1017400085309105E9F480916C0590916D050097C5
:1017500051F4809156059091570501979093570544
:101760008093560557C0019709F054C080915805E1
:1017700090915905019790935905809358054AC057
:101780008830910549F580916C0590916D05009721
:1017900051F480915A0590915B05019790935B05F8
:1017A00080935A0537C00197A9F560915C05709147
:1017B0005D0580915E0590915F0520E030E040E896
:1017C0005FE30E94541B60935C0570935D058093FA
:1017D0005E0590935F051EC00997E1F480916C054A
:1017E00090916D05892BB1F4609160057091610550
:1017F000809162059091630520E030E040E85FE36E
:101800000E94541B6093600570936105809362058C
:10181000909363051092300510922F05FE01EB5A4C
:10182000FF4F8091390590913A05938382838BE431
:1018300094E09183808380913B05848380913C0573
:10184000858380913D0586833796AEE3B5E088E0D9
:101850000D9001928150E1F7FE01EB5AFF4FE2C17A
:1018600080916E0590916F058330910561F520910F
:101870006C0530916D0521153105B9F460914E0567
:1018800070914F05809150059091510520E030E016
:101890004AEF53E40E94551B60934E0570934F0529
:1018A000809350059093510598C02130310509F07F
:1018B00076C080914C0590914D05059690934D050D
:1018C00080934C058AC084309105E9F480916C05C1
:1018D00090916D05009751F48091520590915305B8
:1018E0000196909353058093520577C0019709F0B4
:1018F00074C08091540590915505019690935505BB
:10190000809354056AC085309105E9F480916C0597
:1019100090916D05009751F480915605909157056F
:101920000196909357058093560557C0019709F08B
:1019300054C080915805909159050196909359058E
:10194000809358054AC08830910549F580916C050F
:1019500090916D05009751F480915A0590915B0527
:10196000019690935B0580935A0537C00197A9F5BE
:1019700060915C0570915D0580915E0590915F05B9
:1019800020E030E040E85FE30E94551B60935C0577
:1019900070935D0580935E0590935F051EC0099767
:1019A000E1F480916C0590916D05892BB1F4609103
:1019B000600570916105809162059091630520E05A
:1019C00030E040E85FE30E94551B60936005709330
:1019D0006105809362059093630510923005109223
:1019E0002F05FE01E659FF4F8091390590913A0588
:1019F000938382838BE494E09183808380913B0581
:101A0000848380913C05858380913D05868337964C
:101A1000AEE3B5E088E00D9001928150E1F7FE0160
:101A2000E659FF4FFFC080916E0590916F0582309F
:101A3000910581F1833091052CF48130910509F0F5
:101A40008EC008C08330910509F46AC0099709F077
:101A500086C042C0909375058093740580916A0595
:101A600090916B05909377058093760580916C0536
:101A700090916D059093790580937805009721F0FA
:101A8000019709F06CC003C083E090E01CC084E0C3
:101A900090E019C0909375058093740580916A0554
:101AA00090916B05909377058093760580916C05F6
:101AB00090916D059093790580937805892B09F0B5
:101AC0004EC088E090E090936F0580936E05109271
:101AD0006D0510926C0543C080916C0590916D0569
:101AE0000197E9F58DB79EB748970FB6F8949EBF5A
:101AF0000FBE8DBFADB7BEB71196ECE4F5E088E13F
:101B000001900D928150E1F7C9010E94D8128DB762
:101B10009EB748960FB6F8949EBF0FBE8DBF1FC0EC
:101B200083E195E064EF71E00E94A80E60914E059C
:101B300070914F0580915005909151050E94251C90
:101B40009B01AC0183E195E0B9010E94A40E609174
:101B50004C0570914D0583E195E00E943112109281
:101B6000300510922F05FE01E158FF4F8091390595
:101B700090913A05938382838BE494E091838083F0
:101B800080913B05848380913C05858380913D0550
:101B900086833796AEE3B5E088E00D9001928150E0
:101BA000E1F7FE01E158FF4F3DC08091740590912F
:101BB000750590936F0580936E05809176059091E1
:101BC000770590936B0580936A05809178059091D5
:101BD000790590936D0580936C05109230051092F5
:101BE0002F05FE01EC56FF4F8091390590913A0583
:101BF000938382838BE494E09183808380913B057F
:101C0000848380913C05858380913D05868337964A
:101C1000AEE3B5E088E00D9001928150E1F7FE015E
:101C2000EC56FF4F80914605878780914705808B52
:101C300080914805818B80914905828B80914A056E
:101C4000838B80914B05848B8CE495E0BF010E94CF
:101C50007C05C855DF4F0FB6F894DEBF0FBECDBF71
:101C6000CF91DF910895DF93CF93CDB7DEB765971E
:101C70000FB6F894DEBF0FBECDBF0E9473148DE087
:101C800061E00E94B8158DE060E00E94DE1587E3F8
:101C900095E060E142E020E00E94810387E395E067
:101CA0000E94380381E090E090936F0580936E0569
:101CB00010926B0510926A058CE495E00E94CF07A4
:101CC0008091390590913A059C838B838BE494E055
:101CD0009A83898380913B058D8380913C058E8317
:101CE00080913D058F83DE011896EEE3F5E088E0F4
:101CF00001900D928150E1F780914605888B80918B
:101D00004705898B809148058A8B809149058B8B8B
:101D100080914A058C8B80914B058D8B8CE495E0EE
:101D2000BE016F5F7F4F0E947C0565960FB6F894E9
:101D3000DEBF0FBECDBFCF91DF910895FC0140877C
:101D40005187628773870895FC01758764870895BA
:101D5000FC01738F628F08952F923F924F925F9292
:101D60006F927F928F929F92AF92BF92CF92DF92AB
:101D7000EF92FF920F931F93DF93CF93CDB7DEB710
:101D800060970FB6F894DEBF0FBECDBF2C015A018D
:101D90006B018BE296E064EE71E00E94A719D2011C
:101DA0001E964D915D916D917C9151978BE296E0DD
:101DB00022E030E00E94481AF2018781882321F155
:101DC000C601B501A60195010E94551B2BED3FE010
:101DD00049E450E40E940C1D2CE839EB4BE45FE32E
:101DE0000E940C1D20E030E048EC55E40E94BD1B31
:101DF0009B01AC01D2011E966D917D918D919C91BC
:101E000051970E94541B23C0C601B501A60195013C
:101E10000E94551B2BED3FE049E450E40E940C1D4D
:101E20002CE839EB4BE45FE30E940C1D20E030E02E
:101E300048EC55E40E94BD1B9B01AC01D2011E96EB
:101E40006D917D918D919C9151970E94551BF2014E
:101E500066877787808B918B8BE296E06CEF71E0E1
:101E60000E94A719D2011E964D915D916D917C91B2
:101E700051978BE296E022E030E00E94481A8BE214
:101E800096E062E172E00E945B1AF2018181678153
:101E90000E94DE1562E370E080E090E00E94F8149A
:101EA000D2011896ED90FD900D911C911B97C801E1
:101EB000B70120E030E040E050E00E94B91B8823E9
:101EC00069F0C801B70125E83CE740E55AE30E9404
:101ED000BD1B0E94251CF20175876487D2011C96E8
:101EE0000D911C911D97C601B50120E030E048EC32
:101EF00053E40E94B91B8823ACF4AD82BE82CF822A
:101F0000D88680E090E0A0E0B0E089879A87AB8730
:101F1000BC878BEA9AEAA6E2B4E489839A83AB830E
:101F2000BC8327C0C601B50120E030E048EC53E493
:101F30000E94541B6D837E838F839887980144276A
:101F400037FD4095542F60E472E48FE090E00E94EA
:101F5000C31DCA01B9010E94581C69837A838B830F
:101F60009C8380E090E0A8E4B3E489879A87AB87FC
:101F7000BC87B801882777FD8095982F0E94581C50
:101F80007B018C0120E030E84BEB54E40E94B91B4C
:101F900087FD0AC00F2EF0E0EF2EF0E8FF2EFBEBDE
:101FA0000F2FF4E41F2FF02D69817A818B819C81A2
:101FB0002BEA3AEA46E254E40E94541B29853A850A
:101FC0004B855C850E94BD1B6D877E878F87988BB4
:101FD000D2018C91882309F46DC08BE296E062E314
:101FE00072E00E94A7198BE296E0B601A50122E0FB
:101FF00030E00E94481A8BE296E06BE372E00E94A8
:102000005B1A8BE296E06DE372E00E94A7198BE207
:1020100096E0B801A70122E030E00E94451A8BE269
:1020200096E06CE472E00E94A719F2016485758560
:102030008BE296E04AE050E00E9488198BE296E03D
:102040006AE572E00E945B1A8BE296E06AE772E052
:102050000E945B1A8BE296E062E372E00E94A7198D
:102060008BE296E049855A856B857C8522E030E0DD
:102070000E94481A8BE296E066E872E00E94A71977
:102080008BE296E04BEA5AEA66E274E422E030E042
:102090000E94481A8BE296E06EE972E00E94A7194E
:1020A0008BE296E04D855E856F85788922E030E091
:1020B0000E94481A0F2EFBEAAF2EFAEABF2EF6E274
:1020C000CF2EF4E4DF2EF02D8AE9282E82E0382E80
:1020D00000E010E039C0D20113968C9161E00E94BB
:1020E000DE15C1010E945115F201838160E00E945A
:1020F000DE15C1010E945115C601B5012D853E8531
:102100004F8558890E94551B5B016C0120E030E02F
:1021100040E050E00E94081D88234CF0C601B50144
:1021200020E030E040E05FE30E94551B08C0C6019C
:10213000B50120E030E040E05FE30E94541B0E94C4
:10214000251C1B010F5F1F4FB801882777FD809565
:10215000982F0E94581C29853A854B855C850E94E2
:10216000B91B87FDB8CFD2018C918823C9F18BE2CE
:1021700096E06AE572E00E945B1A8BE296E061EB02
:1021800072E00E945B1A8BE296E062E372E00E94CA
:10219000A7198BE296E04D815E816F81788522E000
:1021A00030E00E94481A8BE296E06CE472E00E94F4
:1021B000A719F201648575858BE296E04AE050E04C
:1021C0000E9488198BE296E061EC72E00E94A719E8
:1021D0008BE296E0A501B60122E030E00E94481AA9
:1021E0006624772443011EC0D20113968C9161E0CE
:1021F0000E94DE1569817A818B819C810E942A1C54
:102200007B018C01CB010E945115F201838160E0BA
:102210000E94DE15C7010E9451150894611C711CB3
:10222000811C911CC401B3010E94581C2D813E8168
:102230004F8158850E94B91B87FDD6CFD2018C9162
:102240008823E1F08BE296E06AE572E00E945B1A77
:102250008BE296E06CED72E00E945B1A8BE296E0F6
:1022600062E372E00E94A7198BE296E049855A85E5
:102270006B857C8522E030E00E94481A00E010E087
:1022800039C0F201838161E00E94DE15C1010E9424
:102290005115D20113968C9160E00E94DE15C101A8
:1022A0000E945115C601B5012D853E854F8558897F
:1022B0000E94541B5B016C0120E030E040E050E0E4
:1022C0000E94081D88234CF0C601B50120E030E0D3
:1022D00040E05FE30E94551B08C0C601B50120E045
:1022E00030E040E05FE30E94541B0E94251C1B016C
:1022F0000F5F1F4FB801882777FD8095982F0E94A8
:10230000581C29853A854B855C850E94B91B87FD41
:10231000B8CFF20180818823A1F08BE296E06AEECB
:1023200072E00E94A7198BE296E0B601A50122E0B7
:1023300030E00E94481A8BE296E06BE372E00E9464
:102340005B1A60960FB6F894DEBF0FBECDBFCF917B
:10235000DF911F910F91FF90EF90DF90CF90BF9092
:10236000AF909F908F907F906F905F904F903F9035
:102370002F900895EF92FF920F931F93CF93DF93C7
:10238000EC017A018B018881882371F08BE296E061
:1023900067EF72E00E94A7198BE296E0B801A701EF
:1023A00022E030E00E94481AC801B70120E030E086
:1023B00048EC55E40E940C1DAB01BC01CE010E940B
:1023C000AC0EDF91CF911F910F91FF90EF90089588
:1023D000EF92FF920F931F93CF93DF93EC017A015B
:1023E0008B018881882371F08BE296E066E073E0D0
:1023F0000E94A7198BE296E0B801A70122E030E025
:102400000E94481AC801B70120E030E040E050E0E7
:102410000E94B91B2D813E81882344F417FB10953F
:1024200017F910952130310521F406C0213031050E
:1024300019F481E08F8301C01F82C801B7012DE428
:1024400031E040EA50E40E94BD1BAB01BC01CE016B
:102450000E94BA11DF91CF911F910F91FF90EF90E1
:102460000895CF92DF92EF92FF920F931F93CF9335
:10247000DF93EC018B01CE84DF84E888F9888881C2
:102480008823F9F08BE296E06AE572E00E945B1A1D
:102490008BE296E062E173E00E945B1A8BE296E0C9
:1024A00062E172E00E945B1A8BE296E068E273E000
:1024B0000E94A7198BE296E0B8014AE050E00E9422
:1024C000881988E490E09C01029FC001039F900D51
:1024D000129F900D112464E670E00E948E1D8827E3
:1024E00077FD8095982F0E94581CA70196010E94A5
:1024F000541BAB01BC01CE010E94E811DF91CF91CA
:102500001F910F91FF90EF90DF90CF900895CF92A1
:10251000DF92EF92FF920F931F938C01F62ED72E2E
:10252000E42EC52E862F61E00E94B8158E2D61E045
:102530000E94B815F801F182D2828FEF9FEF968347
:102540008583E382C48281E0878320E030E040E03D
:1025500050E02087318742875387808380E090E076
:10256000A0E9B2E4828B938BA48BB58B158614867D
:1025700026873787408B518B8DEC9CECACECBDE310
:10258000868B978BA08FB18F88EC90E0938F828F92
:102590001F910F91FF90EF90DF90CF9008958EE7FD
:1025A00095E063E170E042E150E00E9487120895F7
:1025B0002F923F924F925F926F927F928F929F9253
:1025C000AF92BF92CF92DF92EF92FF920F931F9341
:1025D000DF93CF93CDB7DEB74C01DC01FE017596DA
:1025E00088E101900D928150E1F7F40164897589C9
:1025F0008689978920893189428953890E94BD1B28
:102600001B012C0120E030E040E251E40E940C1D4F
:102610007B018C01F40166857785882777FD80959D
:10262000982F0E94581C9B01AC01C801B7010E9461
:10263000BD1B7B018C018EE795E0A701B8010E94CC
:102640009E0E8BE296E064E373E00E945B1A8BE2DD
:1026500096E064E673E00E94A719F4016685778529
:102660008BE296E04AE050E00E9488198BE296E007
:1026700060E873E00E94A719F401408951896289DA
:1026800073898BE296E022E030E00E94481A8BE2E8
:1026900096E06DE973E00E94A719F4014489558919
:1026A000668977898BE296E022E030E00E94481A42
:1026B0008BE296E069EB73E00E94A7198BE296E04B
:1026C000B201A10122E030E00E94481A8BE296E0BC
:1026D0006AEC73E00E94A7198BE296E0A701B801AB
:1026E00022E030E00E94481A80E161E00E94DE159D
:1026F00064EF71E080E090E00E94F8148FE061E008
:102700000E94DE1564EF71E080E090E00E94F81412
:102710008FE060E00E94DE1580E160E00E94DE153F
:10272000EE24FF248701AA24BB24650166247724B4
:102730005CC00E94C414AC01CB01DA017C018D01A4
:102740008EE795E0B201A1010E94E8110E94C41435
:10275000AC01CB01DA015C016D01F401868597853E
:102760009C0148EE53E0249FC001259F900D349FAB
:10277000900D11249C01442737FD4095542FD6011C
:10278000C5018E199F09A00BB10B82179307A407EF
:10279000B50764F42E0D3F1D401F511F2A193B0938
:1027A0004C095D09CA01B9010E94F81480E161E099
:1027B0000E94DE1564EF71E080E090E00E94F81462
:1027C0008FE061E00E94DE1564EF71E080E090E050
:1027D0000E94F8148FE060E00E94DE1580E160E066
:1027E0000E94DE150894611C711CB301882777FDD7
:1027F0008095982F0E94581CF401208931894289C4
:1028000053890E94B91B87FD94CF8BE296E066ED59
:1028100073E00E945B1A8BE296E06EEF73E00E9419
:10282000A7198BE296E0B801A7012AE030E00E94E8
:1028300061198BE296E06AE074E00E94A7198BE2CE
:1028400096E0B601A5012AE030E00E9461198BE212
:1028500096E067E174E00E94A719B601A5014E1940
:102860005F09600B710B8BE296E02AE030E00E947A
:1028700061198BE296E060E374E00E94A719F4010D
:102880002685378588EE93E0AC01249FC001259F03
:10289000900D349F900D1124AA2797FDA095BA2F73
:1028A000E80EF91E0A1F1B1FEA18FB080C091D0978
:1028B0008BE296E0B801A7012AE030E00E9461199E
:1028C000CF91DF911F910F91FF90EF90DF90CF900C
:1028D000BF90AF909F908F907F906F905F904F9040
:1028E0003F902F9008958FE061E00E94B81580E13D
:1028F00061E00E94B81508951F920F920FB60F92D3
:1029000011242F933F938F939F93AF93BF93809105
:102910009E0590919F05A091A005B091A1053091D1
:10292000A2050196A11DB11D232F2D5F2D3720F08B
:102930002D570196A11DB11D2093A20580939E05E0
:1029400090939F05A093A005B093A10580919A054F
:1029500090919B05A0919C05B0919D050196A11DAC
:10296000B11D80939A0590939B05A0939C05B0930D
:102970009D05BF91AF919F918F913F912F910F90A6
:102980000FBE0F901F9018958FB7F89420919E0559
:1029900030919F054091A0055091A1058FBFB901CD
:1029A000CA0108959FB7F89420919A0530919B052C
:1029B00040919C0550919D0586B5A89B06C08F3F10
:1029C00021F02F5F3F4F4F4F5F4F9FBF542F432F3B
:1029D000322F2227280F311D411D511D82E0220F69
:1029E000331F441F551F8A95D1F7B901CA010895B5
:1029F0009B01AC017FB7F89480919A0590919B055B
:102A0000A0919C05B0919D0566B5A89B05C06F3F40
:102A100019F00196A11DB11D7FBFBA2FA92F982FC4
:102A20008827860F911DA11DB11D62E0880F991F97
:102A3000AA1FBB1F6A95D1F7BC012DC0FFB7F89440
:102A400080919A0590919B05A0919C05B0919D0560
:102A5000E6B5A89B05C0EF3F19F00196A11DB11D79
:102A6000FFBFBA2FA92F982F88278E0F911DA11D68
:102A7000B11DE2E0880F991FAA1FBB1FEA95D1F78D
:102A8000861B970B885E9340C8F22150304040402F
:102A9000504068517C4F211531054105510571F6B3
:102AA0000895019739F0880F991F880F991F029791
:102AB0000197F1F70895789484B5826084BD84B558
:102AC000816084BD85B5826085BD85B5816085BD29
:102AD000EEE6F0E0808181608083E1E8F0E0108242
:102AE000808182608083808181608083E0E8F0E083
:102AF000808181608083E1EBF0E08081846080836D
:102B0000E0EBF0E0808181608083EAE7F0E08081A3
:102B10008460808380818260808380818160808303
:102B20008081806880831092C1000895982F8E3034
:102B300008F09E509770809146048295880F880F08
:102B4000807C892B80937C0080917A0080648093C4
:102B50007A0080917A0086FDFCCF20917800409128
:102B60007900942F80E030E0282B392BC90108959B
:102B7000482F50E0CA0186569F4FFC0124914A57C6
:102B80005F4FFA0184918823C1F0E82FF0E0EE0F47
:102B9000FF1FE859FF4FA591B491662341F49FB7F9
:102BA000F8948C91209582238C939FBF08959FB7B2
:102BB000F8948C91822B8C939FBF0895482F50E0FE
:102BC000CA0182559F4FFC012491CA0186569F4F2E
:102BD000FC0194914A575F4FFA013491332309F471
:102BE00040C0222351F1233071F0243028F42130E9
:102BF000A1F0223011F514C02630B1F02730C1F019
:102C00002430D9F404C0809180008F7703C0809174
:102C100080008F7D8093800010C084B58F7702C0C4
:102C200084B58F7D84BD09C08091B0008F7703C0CB
:102C30008091B0008F7D8093B000E32FF0E0EE0F25
:102C4000FF1FEE58FF4FA591B4912FB7F89466235C
:102C500021F48C919095892302C08C91892B8C93BF
:102C60002FBF089508951F920F920FB60F9211244F
:102C70002F933F934F938F939F93EF93FF934091A5
:102C8000C6002091E3053091E4052F5F3F4F2F737D
:102C900030708091E5059091E6052817390759F0C5
:102CA000E091E305F091E405ED55FA4F4083309350
:102CB000E4052093E305FF91EF919F918F914F9150
:102CC0003F912F910F900FBE0F901F901895E0919C
:102CD0003706F0913806E05CFF4F81919191208199
:102CE0003181821B930B8F739070892B11F00E949E
:102CF000321608951F920F920FB60F9211242F9340
:102D00003F934F935F936F937F938F939F93AF9373
:102D1000BF93EF93FF93209127063091280680916F
:102D2000290690912A062817390731F48091C100AD
:102D30008F7D8093C10016C0E0912906F0912A068C
:102D4000E951FA4F40818091290690912A06019617
:102D500060E470E00E948E1D90932A0680932906FD
:102D60004093C600FF91EF91BF91AF919F918F91DA
:102D70007F916F915F914F913F912F910F900FBE77
:102D80000F901F901895AF92BF92DF92EF92FF9233
:102D90000F931F93CF93DF93EC017A018B01DD2416
:102DA000403081EE580780E0680780E0780711F036
:102DB000DD24D39491E0A92EB12CEC89FD89DD208E
:102DC00069F0C5010E8C02C0880F991F0A94E2F7C2
:102DD000808360E079E08DE390E005C0108260E8D8
:102DE00074E88EE190E0A80197010E94A11D215096
:102DF000304040405040569547953795279580E1A3
:102E00002030380720F0DD2011F0DD24D6CFE8890E
:102E1000F9893083EA89FB892083EE89FF89408123
:102E200021E030E0C9010A8C02C0880F991F0A9482
:102E3000E2F7482B4083EE89FF894081C9010B8C62
:102E400002C0880F991F0A94E2F7482B4083EE894D
:102E5000FF894081C9010C8C02C0880F991F0A9418
:102E6000E2F7482B4083EE89FF8980810D8C02C0F8
:102E7000220F331F0A94E2F7209528232083DF9145
:102E8000CF911F910F91FF90EF90DF90BF90AF9087
:102E90000895DC011C96ED91FC911D97E05CFF4FBD
:102EA0002191319180819181281B390B2F733070D2
:102EB000C9010895DC011C96ED91FC911D97E05C21
:102EC000FF4F20813181E054F040DF01AE5BBF4F06
:102ED0008D919C9111972817390719F42FEF3FEF27
:102EE00007C08D919C91E80FF91F8081282F30E059
:102EF000C9010895DC011C96ED91FC911D97E05CE1
:102F0000FF4F20813181E054F040DF01AE5BBF4FC5
:102F10008D919C9111972817390719F42FEF3FEFE6
:102F200010C08D919C911197E80FF91F20818D9110
:102F30009C91119701968F73907011969C938E932C
:102F400030E0C9010895FC0186859785DC01A05C0D
:102F5000BF4FFC01EE5BFF4F2D913C91119780819B
:102F6000918128173907C1F70895CF93DF93EC01BA
:102F7000462FEE85FF85E05CFF4F80819181E05414
:102F8000F040019660E470E00E948E1D9C01DF011C
:102F9000AE5BBF4F8D919C91119728173907D1F3E4
:102FA000E05CFF4F80819181E054F040E80FF91F11
:102FB0004083EE85FF85E05CFF4F31832083EE89FF
:102FC000FF89208181E090E00D8C02C0880F991F5D
:102FD0000A94E2F7282B208381E090E0DF91CF91E3
:102FE000089510922E0610922D0688EE93E0A0E030
:102FF000B0E080932F0690933006A0933106B093F3
:1030000032068BE594E090932C0680932B0683EA9E
:1030100095E0909338068093370687EE95E090937D
:103020003A068093390685EC90E090933C068093B5
:103030003B0684EC90E090933E0680933D0680EC46
:1030400090E09093400680933F0681EC90E090934F
:1030500042068093410686EC90E09093440680936C
:10306000430684E08093450683E08093460687E02C
:103070008093470685E08093480681E08093490667
:103080000895CF93DF930E945B150E948204C7E6E8
:10309000D6E10E9475042097E1F30E946716F9CFEC
:1030A000CF92DF92EF92FF920F931F93CF93DF9314
:1030B0007C016B018A01C0E0D0E00FC0D6016D91A8
:1030C0006D01D701ED91FC910190F081E02DC701D8
:1030D0000995C80FD91F015010400115110571F74E
:1030E000CE01DF91CF911F910F91FF90EF90DF9074
:1030F000CF900895EF92FF920F931F938C01DC0104
:10310000ED91FC910190F081E02D6DE009957C013D
:10311000D801ED91FC910190F081E02DC8016AE0A9
:1031200009959C012E0D3F1DC9011F910F91FF9024
:10313000EF900895CF93DF93DB010D900020E9F726
:103140001197A61BB70BEC01E881F9810280F3818E
:10315000E02DAD010995DF91CF9108954F925F92D7
:103160007F928F929F92AF92BF92CF92DF92EF9217
:10317000FF920F931F93DF93CF93CDB7DEB7A19745
:103180000FB6F894DEBF0FBECDBF2C01742ECB015D
:10319000223008F42AE019A231E2C32ED12CCC0E41
:1031A000DD1E822E9924AA24BB24672D752FA5012C
:1031B00094010E94A11D79018A01C801B701A501EE
:1031C00094010E946F1D472D461B0894C108D10829
:1031D0004A3014F4405D01C0495CF6014083E114BB
:1031E000F1040105110521F07E2C5F2DC801DDCF12
:1031F000C201B6010E949A18A1960FB6F894DEBFDC
:103200000FBECDBFCF91DF911F910F91FF90EF9037
:10321000DF90CF90BF90AF909F908F907F905F9006
:103220004F900895DC012115310541F4ED91FC9199
:103230000190F081E02D642F099508950E94AE1849
:103240000895CF92DF92EF92FF920F931F93CF9347
:10325000DF93EC016A017B012115310541F4E8811E
:10326000F9810190F081E02D642F09951FC02A306B
:103270003105D1F477FF17C0E881F9810190F08121
:10328000E02D6DE209958C0144275527BA014C19B0
:103290005D096E097F09CE012AE00E94AE189801EF
:1032A000280F391F04C02AE00E94AE189C01C901F2
:1032B000DF91CF911F910F91FF90EF90DF90CF9012
:1032C0000895EF92FF920F931F937C010E942119A2
:1032D0008C01C7010E947A189C01200F311FC9017F
:1032E0001F910F91FF90EF900895EF92FF920F932F
:1032F0001F937B019A010027F7FC0095102FB8015E
:10330000A7010E9421191F910F91FF90EF9008953E
:10331000CF92DF92EF92FF920F931F936C017B018C
:103320009A010027F7FC0095102FB801A7010E9411
:1033300021198C01C6010E947A18080F191FC801B3
:103340001F910F91FF90EF90DF90CF9008950E9412
:103350009A1808957F928F929F92AF92BF92CF92C8
:10336000DF92EF92FF920F931F93CF93DF934C0165
:103370007A018B01722ECB01BA0120E030E040E0EF
:1033800050E00E94B91B87FD03C0C0E0D0E00EC032
:10339000D401ED91FC910190F081E02DC4016DE22A
:1033A0000995EC0117FB109517F9109520E030E016
:1033B00040E05FE3AA240BC0CA01B90120E030E07D
:1033C00040E251E40E94BD1B9B01AC01A394A714F1
:1033D00098F3C801B7010E94551B5B016C010E9464
:1033E0002A1C7B018C01C401B801A7012AE030E04E
:1033F0000E941219C80FD91F772039F0C4016EE35B
:1034000074E00E949A18C80FD91FC801B7010E9422
:10341000561C9B01AC01C601B5010E94541B24C07F
:1034200020E030E040E251E40E940C1D7B018C0161
:103430000E94251C5B016C01CC24B7FCC094DC2CE1
:10344000C401B601A5012AE030E00E942119C80F8D
:10345000D91FC601B5010E94581C9B01AC01C801CF
:10346000B7010E94541B7A947720D1F6CE01DF91E8
:10347000CF911F910F91FF90EF90DF90CF90BF9071
:10348000AF909F908F907F9008950E94AA19089501
:10349000EF92FF920F931F937C010E94AA198C0157
:1034A000C7010E947A18080F191FC8011F910F91B8
:1034B000FF90EF900895EF92FF920F931F937C017E
:1034C0000E949A188C01C7010E947A18080F191FD0
:1034D000C8011F910F91FF90EF900895AF92BF9296
:1034E000CF92DF92EF92FF920F931F93CF93DF93D0
:1034F0005C016B01EE24FF24C0E0D0E010C0D501D8
:10350000ED91FC9100811181C601BE010E94A11ABA
:10351000682FC501F8010995E80EF91E2196F601FC
:1035200084819581C817D90750F3C701DF91CF91E6
:103530001F910F91FF90EF90DF90CF90BF90AF90D1
:103540000895FC01848195816817790748F40190FA
:10355000F081E02D309721F0E60FF71F808108956C
:1035600080E008950F931F93CF93DF93EC018B01BD
:103570006F5F7F4F888199810E949301009711F4BA
:1035800080E005C0998388831B830A8381E0DF91F3
:10359000CF911F910F910895CF93DF93EC01888114
:1035A0009981892B29F08A819B818617970760F47E
:1035B000CE010E94B21A882341F08C819D81892B13
:1035C00019F4E881F981108281E0DF91CF910895AB
:1035D000CF93DF93EC0188819981009711F00E94CD
:1035E0003B01198218821D821C821B821A82DF9184
:1035F000CF910895EF92FF920F931F93CF93DF9394
:10360000EC017B018A01BA010E94CC1A882321F4C3
:10361000CE010E94E81A07C01D830C83888199811E
:10362000B7010E947102CE01DF91CF911F910F91DE
:10363000FF90EF900895CF93DF93EC0119821882E9
:103640001B821A821D821C821E826115710551F037
:10365000DB010D900020E9F71197A61BB70BAD0118
:103660000E94FA1ADF91CF9108950F931F93182F9C
:10367000092F6115710559F0DB010D900020E9F764
:103680001197A61BB70BAD010E94FA1A02C00E9447
:10369000E81A812F902F1F910F910895FC018081CE
:1036A00091810E943B0108955058BB27AA270ED054
:1036B00075C166D130F06BD120F031F49F3F11F429
:1036C0001EF45BC10EF4E095E7FB51C1E92F77D101
:1036D00080F3BA17620773078407950718F071F42F
:1036E0009EF58FC10EF4E0950B2EBA2FA02D0B0185
:1036F000B90190010C01CA01A0011124FF27591B37
:1037000099F0593F50F4503E68F11A16F040A22F3C
:10371000232F342F4427585FF3CF469537952795AD
:10372000A795F0405395C9F77EF41F16BA0B620BAC
:10373000730B840BBAF09150A1F0FF0FBB1F661FF3
:10374000771F881FC2F70EC0BA0F621F731F841F36
:1037500048F4879577956795B795F7959E3F08F05C
:10376000B3CF9395880F08F09927EE0F979587951B
:103770000895D9D008F481E008950CD00FC107D185
:1037800040F0FED030F021F45F3F19F0F0C051114D
:1037900039C1F3C014D198F39923C9F35523B1F378
:1037A000951B550BBB27AA2762177307840738F0B0
:1037B0009F5F5F4F220F331F441FAA1FA9F333D00F
:1037C0000E2E3AF0E0E830D091505040E695001CC3
:1037D000CAF729D0FE2F27D0660F771F881FBB1F7F
:1037E000261737074807AB07B0E809F0BB0B802D59
:1037F000BF01FF2793585F4F2AF09E3F510568F0A5
:10380000B6C000C15F3FECF3983EDCF38695779538
:103810006795B795F7959F5FC9F7880F911D9695A6
:10382000879597F90895E1E0660F771F881FBB1F02
:10383000621773078407BA0720F0621B730B840BAF
:10384000BA0BEE1F88F7E095089504D06894B11183
:10385000D9C00895BCD088F09F5790F0B92F992710
:10386000B751A0F0D1F0660F771F881F991F1AF08B
:10387000BA95C9F712C0B13081F0C3D0B1E0089554
:10388000C0C0672F782F8827B85F39F0B93FCCF3D5
:10389000869577956795B395D9F73EF49095809581
:1038A000709561957F4F8F4F9F4F0895E89409C0A1
:1038B00097FB3EF490958095709561957F4F8F4F63
:1038C0009F4F9923A9F0F92F96E9BB279395F69579
:1038D000879577956795B795F111F8CFFAF4BB0FF7
:1038E00011F460FF1BC06F5F7F4F8F4F9F4F16C05B
:1038F000882311F096E911C0772321F09EE8872FE5
:10390000762F05C0662371F096E8862F70E060E0A0
:103910002AF09A95660F771F881FDAF7880F969519
:10392000879597F90895990F0008550FAA0BE0E8BD
:10393000FEEF16161706E807F907C0F01216130671
:10394000E407F50798F0621B730B840B950B39F4B1
:103950000A2661F0232B242B252B21F408950A2617
:1039600009F4A140A6958FEF811D811D089597F957
:103970009F6780E870E060E008959FEF80EC089515
:1039800000240A941616170618060906089500243E
:103990000A9412161306140605060895092E0394B8
:1039A000000C11F4882352F0BB0F40F4BF2B11F42C
:1039B00060FF04C06F5F7F4F8F4F9F4F089557FD8B
:1039C0009058440F551F59F05F3F71F04795880F8D
:1039D00097FB991F61F09F3F79F087950895121624
:1039E00013061406551FF2CF4695F1DF08C01616D0
:1039F00017061806991FF1CF869571056105089481
:103A00000895E894BB2766277727CB0197F9089597
:103A10008ADF08F48FEF08950BD0C0CFB1DF28F014
:103A2000B6DF18F0952309F0A2CFA7CF1124EACF73
:103A3000C6DFA0F3959FD1F3950F50E0551F629F0D
:103A4000F001729FBB27F00DB11D639FAA27F00DF7
:103A5000B11DAA1F649F6627B00DA11D661F829F1E
:103A60002227B00DA11D621F739FB00DA11D621F03
:103A7000839FA00D611D221F749F3327A00D611D20
:103A8000231F849F600D211D822F762F6A2F112402
:103A90009F5750408AF0E1F088234AF0EE0FFF1F55
:103AA000BB1F661F771F881F91505040A9F79E3F8C
:103AB000510570F05CCFA6CF5F3FECF3983EDCF38E
:103AC000869577956795B795F795E7959F5FC1F7C9
:103AD000FE2B880F911D9695879597F90895629F03
:103AE000D001739FF001829FE00DF11D649FE00DF6
:103AF000F11D929FF00D839FF00D749FF00D659F57
:103B0000F00D9927729FB00DE11DF91F639FB00D55
:103B1000E11DF91FBD01CF011124089597FB092E66
:103B200007260AD077FD04D049D006D000201AF429
:103B3000709561957F4F0895F6F7909581959F4F09
:103B40000895A1E21A2EAA1BBB1BFD010DC0AA1FDE
:103B5000BB1FEE1FFF1FA217B307E407F50720F0F6
:103B6000A21BB30BE40BF50B661F771F881F991F71
:103B70001A9469F760957095809590959B01AC01BA
:103B8000BD01CF01089597FB092E05260ED057FDE4
:103B900004D0D7DF0AD0001C38F4509540953095FA
:103BA00021953F4F4F4F5F4F0895F6F790958095C1
:103BB000709561957F4F8F4F9F4F0895AA1BBB1B38
:103BC00051E107C0AA1FBB1FA617B70710F0A61B1D
:103BD000B70B881F991F5A95A9F780959095BC013E
:103BE000CD010895EE0FFF1F0590F491E02D09948B
:103BF0002F923F924F925F926F927F928F929F92FD
:103C0000AF92BF92CF92DF92EF92FF920F931F93EA
:103C1000CF93DF93CDB7DEB7CA1BDB0B0FB6F8949B
:103C2000DEBF0FBECDBF09942A88398848885F84DB
:103C30006E847D848C849B84AA84B984C884DF804C
:103C4000EE80FD800C811B81AA81B981CE0FD11D30
:103C50000FB6F894DEBF0FBECDBFED01089510E0A2
:103C6000CCECD0E004C0FE010E94F41D2296CE3CB4
:083C7000D107C9F7F894FFCF5A
:103C7800003E0020002D00496E74726F004D6F7475
:103C88006F72697A6564205261696C0076302E31F2
:103C9800004D61696E204D656E75002053696D7029
:103CA8006C65204D6F76650020536D6172742053EA
:103CB800657175656E6365002042617369632053A1
:103CC800657175656E63650053696D706C65204D2F
:103CD8006F7665002053706565643A0020506F73F5
:103CE8006974696F6E3A00536D617274205365711F
:103CF80075656E636500204650533A00204F757411
:103D08007075743A00204576656E743A00205261E9
:103D18006E67653A0020537461727400426173697A
:103D2800632053657175656E6365002044656C6139
:103D3800793A00204672616D65733A00204D6F76BE
:103D4800653A004D6F746F72697A65642043616DDE
:103D58006572610073746172745F63757272656E07
:103D6800744C6F636174696F6E3A2000656E645FAE
:103D780063757272656E744C6F636174696F6E3AC5
:103D88002000202A2A2A2A2A2A2A2A2A2A2A2A2AC9
:103D98002A2A2A2A2A2A2A2A2A2A2A2A2A2A2A2A7B
:103DA8002A002073746570733A2000200020537431
:103DB8006172742073706565643A20002046756CE2
:103DC8006C2073706565643A2000202D2D2D2D2DF3
:103DD8002D2D2D2D2D2D2D2D2D2D2D2D2D2D2D2D0B
:103DE8002D2D2D2D2D2D2D2D2D002052616D70691D
:103DF8006E67207570002073746172742064656C3E
:103E080061792070657220737465703A20002064AF
:103E1800656C617920696E6372656D656E743A20B0
:103E28000020436F6E7374616E74207370656564EF
:103E38000020436F6E7374616E742064656C6179E1
:103E48002070657220737465703A20002052616D8D
:103E580070696E6720646F776E0020456E64206419
:103E6800656C61793A2000207265766F6C757469AB
:103E78006F6E733A20002064697374616E63653AEB
:103E880020004162736F6C757465205065726365BC
:103E98006E74204D6F766500090970657263656EF2
:103EA800743A20002D2D2D2D2D2D2D535441525473
:103EB800494E472053494D504C45204D4F56452CAF
:103EC80020706172616D65746572733A2D2D2D2DA8
:103ED8002D2D2D00706172616D65746572732E628F
:103EE800617369634D6F766544656C61793A20004A
:103EF800706172616D65746572732E626173696356
:103F08004D6F76654672616D65733A200070617217
:103F1800616D65746572732E62617369634D6F7646
:103F28006552616E67653A2000696E7465727661E4
:103F38006C4C656E6768743A20006C696E655370E6
:103F48006565643A20002D2D2D2D2D2D2D454E44CF
:103F58002053494D504C45204D4F56452C207375E4
:103F68006D6D6172793A2D2D2D2D2D2D2D007469D1
:103F78006D6553746172743A200074696D654669A1
:103F88006E6973683A200074696D6546696E697375
:103F980068202D2074696D6553746172743A20002D
:103FA80045787472612064656C61793A20002E004E
:103FB80020004E06000001000000002E03501800EB
:103FC8000040001400540000000000B517501849C4
:083FD800177A175A17A317000E
:00000001FF
