:100000000C9464000C948C000C948C000C948C0068
:100010000C948C000C948C000C948C000C948C0030
:100020000C948C000C948C000C948C000C948C0020
:100030000C948C000C948C000C948C000C948C0010
:100040000C94730A0C948C000C941C0C0C94630C90
:100050000C948C000C948C000C948C000C948C00F0
:100060000C948C000C948C000000000024002700ED
:100070002A0000000000250028002B0000000000DE
:1000800023002600290004040404040404040202DA
:100090000202020203030303030301020408102007
:1000A0004080010204081020010204081020000012
:1000B0000007000201000003040600000000000029
:1000C000000087021906540D11241FBECFEFD8E09F
:1000D000DEBFCDBF12E0A0E0B1E0E6E3FEE102C08A
:1000E00005900D92A830B107D9F713E0A8E0B2E06F
:1000F00001C01D92A230B107E1F710E0C8ECD0E0DA
:1001000004C02297FE010E94150FC23CD107C9F717
:100110000E94A40D0C94190F0C9400000F931F93D0
:100120008C01FC01868160E00E94C70B81E090E0B9
:100130000E943A0BF801868161E00E94C70B81E0C2
:1001400090E00E943A0BF801868160E00E94C70BA4
:1001500084E690E00E943A0B1F910F910895CF9290
:10016000DF92EF92FF920F931F93CF93DF93D82EDE
:10017000C92E282F392FC9018C01C0E0D0E0E62E0E
:10018000FF24F801878161E00E94A10BB7010C2ECA
:1001900002C0759567950A94E2F76170F80187814E
:1001A0000E94C70B21960F5F1F4FC830D10549F73A
:1001B0008D2D9C2D0E948E00DF91CF911F910F916C
:1001C000FF90EF90DF90CF900895CF92DF92EF9263
:1001D000FF920F931F93CF93DF93D82EC92E282F12
:1001E000392FC9018C01C0E0D0E0E62EFF24F801D0
:1001F000878161E00E94A10BB7010C2E02C07595AA
:1002000067950A94E2F76170F80187810E94C70B35
:1002100021960F5F1F4FC430D10549F78D2D9C2DBE
:100220000E948E00DF91CF911F910F91FF90EF9070
:10023000DF90CF9008951F93CF93DF93EC01162F9B
:100240008C81642F0E94C70B8D818F3F19F060E075
:100250000E94C70B8F8584FF05C0CE01612F0E94CD
:10026000AF000EC0612F70E084E0759567958A95A8
:10027000E1F7CE010E94E500CE01612F0E94E5006A
:10028000DF91CF911F91089541E00E941B0181E011
:1002900090E0089540E00E941B010895FC016089F0
:1002A0006D7F608B68600E944A010895FC0160893F
:1002B000862F8460808B6C60CF010E944A01089574
:1002C000DF93CF93CDB7DEB728970FB6F894DEBF94
:1002D0000FBECDBF9C01FE013196AFEEB1E088E0CC
:1002E0000D9001928150E1F7F9018389481710F0D0
:1002F000482F4150E42FF0E0EE0FFF1FEC0FFD1FE1
:100300008181680F6068C9010E944A0128960FB672
:10031000F894DEBF0FBECDBFCF91DF91089561E0AD
:100320000E944A0180ED97E00E943A0B0895CF9316
:10033000DF93EC01423018F08F8588608F874B8BFC
:100340001C8A222329F0413019F48F8584608F871D
:1003500080E593EC0E943A0B8C8160E00E94C70B11
:100360008E8160E00E94C70B8D818F3F19F060E0A5
:100370000E94C70B6F8564FD1DC0CE0163E00E9423
:10038000E50084E991E10E943A0BCE0163E00E940E
:10039000E50084E991E10E943A0BCE0163E00E94FE
:1003A000E50086E990E00E943A0BCE0162E00E94EF
:1003B000E50016C06062CE010E944A0184E991E125
:1003C0000E943A0B6F856062CE010E944A0186E965
:1003D00090E00E943A0B6F856062CE010E944A0154
:1003E0006F856062CE010E944A0184E0888BCE0155
:1003F0000E945601CE010E948F0182E0898BCE01BE
:1004000066E00E944A01DF91CF9108956F927F923A
:100410008F92AF92CF92EF920F931F93DF93CF9370
:10042000CDB7DEB73C01162F842FF301448325831B
:100430000683E782C086A18682869D8593879E85F6
:1004400094879F8595879889968761E00E94A10B84
:10045000F30185818F3F19F061E00E94A10BF30148
:10046000868161E00E94A10B112319F0F301178628
:1004700003C080E1F3018787C30160E141E020E030
:100480000E949701CF91DF911F910F91EF90CF9034
:10049000AF908F907F906F9008958F92AF92CF9290
:1004A000EF920F931F93CF93DF93DC01362F542FDE
:1004B000722F102FAE2C8C2C13961C921E9212971A
:1004C0008BEE91E011969C938E9300D000D0EDB707
:1004D000FEB73196CDB7DEB7198211821282138230
:1004E000CD0161E0432F2FEF052FE72EC12E0E9493
:1004F00006020F900F900F900F90DF91CF911F91F8
:100500000F91EF90CF90AF908F900895089588E06D
:1005100092E00E940E0A08950F931F9308E012E0E4
:10052000C8010E947706C8010E947C061F910F91A6
:100530000895EF92FF920F931F93CF93DF93EC01F7
:10054000162F072F862F972F0E948F01EC8CFD8C82
:1005500085E0E816F10409F42AC186E0E816F10402
:10056000ECF482E0E816F10409F482C083E0E816B6
:10057000F1044CF4E114F104A9F181E0E816F1046E
:1005800009F060C24CC083E0E816F10409F497C09A
:1005900084E0E816F10409F055C2C6C088E0E81608
:1005A000F10409F474C189E0E816F1045CF486E012
:1005B000E816F10409F442C187E0E816F10409F0F5
:1005C00041C2E3C18AE0E816F10409F4DEC18AE021
:1005D000E816F1040CF49EC18BE0E816F10409F072
:1005E00031C2F8C1812F902F60E040E00E9460018D
:1005F000812F902F60E071E00E94A80E812F902F34
:1006000060E041E00E946001812F902F6FE071E077
:100610000E94A80E1F8E1E8E19A218A213C2812F2F
:10062000902F60E040E00E946001812F902F64E1F4
:1006300071E00E94A80E812F902F60E041E00E949F
:100640006001812F902F61E271E00E94A80E812F3E
:10065000902F60E04A8D0E946001812F902F61E30E
:1006600071E00E94A80EF9A2E8A282E090E08AC19F
:10067000812F902F60E040E00E946001812F902F39
:1006800063E371E00E94A80E812F902F60E041E0AB
:100690000E946001812F902F63E471E00E94A80EF8
:1006A000812F902F60E04A8D0E946001812F902F52
:1006B00061E371E00E94A80E81E090E0E5C0812F27
:1006C000902F60E040E00E946001812F902F6EE447
:1006D00071E00E94A80E812F902F60E041E00E94FF
:1006E0006001812F902F6DE571E00E94A80E688156
:1006F0007981812F902F4AE050E00E94950E812F42
:10070000902F68E041E00E946001812F902F64E605
:1007100071E00E94A80E6A817B81812F902F4AE0B0
:1007200050E00E94950E8AC1812F902F60E040E03A
:100730000E946001812F902F6BE671E00E94A80E4D
:100740006C817D81812F902F4AE050E00E94950EB0
:10075000812F902F61E771E00E94A80E812F902FCA
:1007600060E041E00E946001812F902F64E771E01A
:100770000E94A80E6E817F81812F902F4AE050E069
:100780000E94950E812F902F6DE771E00E94A80EB8
:10079000812F902F60E04A8D0E946001812F902F61
:1007A00061E371E00E94A80EF9A2E8A244C0812F83
:1007B000902F60E040E00E946001812F902F60E860
:1007C00071E00E94A80E68857985812F902F4AE0FC
:1007D00050E00E94950E812F902F68E871E00E94F2
:1007E000A80E812F902F60E041E00E946001812FD0
:1007F000902F6DE871E00E94A80E6A857B85812F9D
:10080000902F4AE050E00E94950E812F902F65E9CD
:1008100071E00E94A80E812F902F60E04A8D0E9407
:100820006001812F902F61E371E00E94A80E84E0A7
:1008300090E099A388A386E090E0A4C0812F902F38
:1008400060E040E00E946001812F902F68E971E034
:100850000E94A80E812F902F60E041E00E9460016D
:10086000812F902F6FE971E00E94A80E812F902FA9
:1008700060E04A8D0E946001812F902F61E371E05A
:100880000E94A80E84E090E099A388A3D9C0812F8C
:10089000902F60E040E00E946001812F902F66EA77
:1008A00071E00E94A80E6C857D85812F902F4AE013
:1008B00050E00E94950E812F902F6DE771E00E940D
:1008C000A80E812F902F60E041E00E946001812FEF
:1008D000902F6EEA71E00E94A80E6E857F85812FB1
:1008E000902F4AE050E00E94950E812F902F61E7F3
:1008F00071E00E94A80E812F902F60E04A8D0E9427
:100900006001812F902F61E371E00E94A80EF9A28F
:10091000E8A236C0812F902F60E040E00E94600185
:10092000812F902F67EB71E00E94A80E688979896A
:10093000812F902F4AE050E00E94950E812F902F3A
:100940006EEB71E00E94A80E812F902F60E041E0D5
:100950000E946001812F902F68E971E00E94A80E2B
:10096000812F902F60E04A8D0E946001812F902F8F
:1009700061E371E00E94A80E88E090E099A388A34B
:1009800089E090E09F8F8E8F5DC0812F902F60E077
:1009900040E00E946001812F902F6FE971E00E947A
:1009A000A80E812F902F60E041E00E946001812F0E
:1009B000902F6FE971E00E94A80E812F902F60E0C8
:1009C0004A8D0E946001812F902F61E371E00E94A7
:1009D000A80E38C0812F902F60E040E00E94600197
:1009E000812F902F62EC71E00E94A80E6B897C89A8
:1009F000812F902F4AE050E00E94950E812F902F7A
:100A000060E041E00E946001812F902F6BEC71E06B
:100A10000E94A80E6D897E89812F902F4AE050E0B8
:100A20000E94950E812F902F60E04A8D0E946001F8
:100A3000812F902F61E371E00E94A80EF9A2E8A235
:100A4000FF8EEE8EDF91CF911F910F91FF90EF906F
:100A50000895EF92FF920F931F938C01F62EE72ECD
:100A6000862F972F60E142E020E00E94970188E006
:100A700061E00E94A10B88E061E00E94C70B8F2D0E
:100A80009E2D0E948F018F2D9E2D60E040E00E94E0
:100A900060018F2D9E2D65ED71E00E94A80E8F2DB7
:100AA0009E2D60E041E00E9460018F2D9E2D6FE041
:100AB00071E00E94A80EF801118210821382128246
:100AC000158214821782168211861086138612866A
:100AD0001586148617861686118A108A128A158E34
:100AE000148E118E108E178A1F910F91FF90EF9028
:100AF000089583E0653878079CF5CB018D5B9240C3
:100B0000873C910518F421E030E02CC0CB018955D9
:100B100092408336910518F422E030E023C0CB01E7
:100B200081599140873C910518F423E030E01AC0C8
:100B3000CB018D5291408336910518F424E030E0CA
:100B400011C0CB0185569040873C910518F425E0F3
:100B500030E008C0643671051CF426E030E002C0C5
:100B600020E030E0C90108950F931F93CF93DF93E6
:100B7000EC0181E10E947F0BBC01CE010E9479054E
:100B80008C010E94BB0A9B01AC0101151105D9F132
:100B90008C819D81AE81BF8180579F42AC4FBF4FFA
:100BA00082179307A407B50774F561E070E080E051
:100BB00090E00E94E10A81E10E947F0BBC01CE011E
:100BC0000E94790508171907F1F461E070E080E0F0
:100BD00090E00E94E10A81E10E947F0BBC01CE01FE
:100BE0000E9479059C010817190729F48A819B81C5
:100BF00001969B838A83398328830E94BB0A6C8376
:100C00007D838E839F83DF91CF911F910F910895F4
:100C10000F931F938C0181E160E00E94A10B81E1A1
:100C200061E00E94C70BF801118210821F910F91A1
:100C30000895CF92EF920F93DF93CF93CDB7DEB7A6
:100C400065970FB6F894DEBF0FBECDBF89E092E086
:100C50000E94080681E192E062E043E024E005E0C2
:100C600056E0E52E37E0C32E0E944D02809113021C
:100C7000909114029C838B838BEE91E09A838983FD
:100C8000809115028D83809116028E8380911702C8
:100C90008F83DE011896E8E1F2E088E001900D9282
:100CA0008150E1F780912002888B80912102898B0D
:100CB000809122028A8B809123028B8B8091240267
:100CC0008C8B809125028D8B86E292E0BE016F5F56
:100CD0007F4F0E94290565960FB6F894DEBF0FBEC0
:100CE000CDBFCF91DF910F91EF90CF90089589E024
:100CF00092E00E94B4050895DF93CF93CDB7DEB79D
:100D0000C85AD0400FB6F894DEBF0FBECDBF809159
:100D1000090290910A028330910509F4B4C084302D
:100D2000910544F48130910509F472C1029709F0EC
:100D30006BC30CC08530910509F412C38530910551
:100D40000CF40CC2069709F05FC3AEC2809140025A
:100D500090914102019709F443C081E090E09093A3
:100D600041028093400280913E0290913F020196A1
:100D700090933F0280933E0280911302909114025F
:100D80009C838B838BEE91E09A83898380911502FB
:100D90008D83809116028E83809117028F83DE01EE
:100DA0001896E8E1F2E088E001900D928150E1F7B9
:100DB00080912002888B80912102898B8091220270
:100DC0008A8B809123028B8B809124028C8B809163
:100DD00025028D8B86E292E0BE016F5F7F4F11C1CD
:100DE0002091420230914302809144029091450249
:100DF000281739070CF007C11092410210924002E7
:100E00002F5F3F4F309343022093420280913E0276
:100E100090913F02019690933F0280933E02809111
:100E2000130290911402998F888F8BEE91E09F8B23
:100E30008E8B809115028A8F809116028B8F809104
:100E400017028C8FDE015D96E8E1F2E088E0019008
:100E50000D928150E1F7809120028DA380912102B3
:100E60008EA3809122028FA38091230288A7809174
:100E7000240289A7809125028AA786E292E0BE011A
:100E80006A5E7F4FBEC08091400290914102892BE3
:100E900009F441C0109241021092400280913E023A
:100EA00090913F02019790933F0280933E02809180
:100EB0001302909114029EA78DA78BEE91E09CA740
:100EC0008BA7809115028FA78091160288AB809125
:100ED000170289ABDE01D296E8E1F2E088E00190EA
:100EE0000D928150E1F7809120028AAF809121021A
:100EF0008BAF809122028CAF809123028DAF8091C5
:100F000024028EAF809125028FAF86E292E0BE016F
:100F1000655D7F4F76C020914202309143028091FF
:100F2000460290914702821793070CF06CC081E053
:100F300090E09093410280934002215030403093E2
:100F400043022093420280913E0290913F0201971A
:100F500090933F0280933E0280911302909114027D
:100F6000FE01EE5BFF4F918380838BEE91E0FE01EB
:100F7000E05CFF4F9183808380911502FE01EC5B62
:100F8000FF4F808380911602FE01EB5BFF4F808351
:100F900080911702FE01EA5BFF4F8083DE01A95BAF
:100FA000BF4FE8E1F2E088E001900D928150E1F757
:100FB00080912002FE01E15BFF4F8083809121023E
:100FC000FE01E05BFF4F808380912202FE01EF5A19
:100FD000FF4F808380912302FE01EE5AFF4F8083F2
:100FE00080912402FE01ED5AFF4F808380912502FB
:100FF000FE01EC5AFF4F808386E292E0BE01605C06
:101000007F4F0E94990210920A0210920902FCC1BD
:1010100080914202909143028330910551F4809176
:10102000260290912702019790932702809326022F
:101030006FC084309105E9F48091400290914102A3
:10104000009751F480912A0290912B02019790937E
:101050002B0280932A025CC0019709F059C080914D
:101060002C0290912D02019790932D0280932C02D7
:101070004FC085309105E1F480914002909141028A
:10108000009751F480912E0290912F020197909336
:101090002F0280932E023CC00197D1F5809130023F
:1010A000909131020197909331028093300230C0C9
:1010B00088309105E1F480914002909141020097BF
:1010C00051F4809132029091330201979093330250
:1010D000809332021DC00197D9F48091340290911F
:1010E00035020197909335028093340211C009971D
:1010F00079F48091400290914102892B49F48091CA
:10110000360290913702019790933702809336020E
:1011100010920A0210920902FE01EB5AFF4F8091D1
:10112000130290911402938382838BEE91E091835A
:10113000808380911502848380911602858380913B
:10114000170286833796A8E1B2E088E00D900192FD
:101150008150E1F7FE01EB5AFF4F3FC180914202FF
:10116000909143028330910551F480912602909131
:101170002702019690932702809326026FC0843045
:101180009105E9F48091400290914102009751F459
:1011900080912A0290912B02019690932B028093CA
:1011A0002A025CC0019709F059C080912C029091ED
:1011B0002D02019690932D0280932C024FC0853012
:1011C0009105E1F48091400290914102009751F421
:1011D00080912E0290912F02019690932F0280937E
:1011E0002E023CC00197D1F58091300290913102DE
:1011F0000196909331028093300230C0883091057F
:10120000E1F48091400290914102009751F4809165
:10121000320290913302019690933302809332020E
:101220001DC00197D9F48091340290913502019646
:10123000909335028093340211C0099779F480911C
:10124000400290914102892B49F48091360290919D
:1012500037020196909337028093360210920A0269
:1012600010920902FE01E659FF4F809113029091FE
:101270001402938382838BEE91E09183808380912B
:1012800015028483809116028583809117028683DC
:101290003796A8E1B2E088E00D9001928150E1F725
:1012A000FE01E659FF4F99C020914202309143025E
:1012B000309349022093480280913E0290913F0270
:1012C00090934B0280934A02809140029091410298
:1012D00090934D0280934C022130310521F0223051
:1012E0003105C1F40BC0009719F0019799F403C0C0
:1012F00083E090E007C084E090E004C0892B51F4C3
:1013000088E090E090934302809342021092410261
:101310001092400210920A0210920902FE01E15856
:10132000FF4F8091130290911402938382838BEE7E
:1013300091E09183808380911502848380911602CD
:1013400085838091170286833796A8E1B2E088E012
:101350000D9001928150E1F7FE01E158FF4F3DC031
:1013600080914802909149029093430280934202F7
:1013700080914A0290914B0290933F0280933E02EB
:1013800080914C0290914D029093410280934002D3
:1013900010920A0210920902FE01EC56FF4F809152
:1013A000130290911402938382838BEE91E09183D8
:1013B00080838091150284838091160285838091B9
:1013C000170286833796A8E1B2E088E00D9001927B
:1013D0008150E1F7FE01EC56FF4F80912002878794
:1013E00080912102808B80912202818B8091230247
:1013F000828B80912402838B80912502848B86E2EC
:1014000092E0BF010E949902C855DF4F0FB6F894D1
:10141000DEBF0FBECDBFCF91DF910895DF93CF9395
:10142000CDB7DEB765970FB6F894DEBF0FBECDBF60
:101430008DE061E00E94A10B8DE060E00E94C70B8F
:1014400081E192E060E142E020E00E94970181E1C9
:1014500092E00E944E0181E090E0909343028093DD
:10146000420210923F0210923E028091130290912C
:1014700014029C838B838BEE91E09A838983809105
:1014800015028D83809116028E83809117028F83BF
:10149000DE011896E8E1F2E088E001900D928150BB
:1014A000E1F780912002888B80912102898B8091C5
:1014B00022028A8B809123028B8B809124028C8B59
:1014C000809125028D8B86E292E0BE016F5F7F4F97
:1014D0000E94990265960FB6F894DEBF0FBECDBF8D
:1014E000CF91DF9108951F920F920FB60F921124A2
:1014F0002F933F938F939F93AF93BF938091560207
:1015000090915702A0915802B091590230915A021D
:101510000196A11DB11D232F2D5F2D3720F02D57D2
:101520000196A11DB11D20935A02809356029093FB
:101530005702A0935802B0935902809152029091A1
:101540005302A0915402B09155020196A11DB11D04
:101550008093520290935302A0935402B093550289
:10156000BF91AF919F918F913F912F910F900FBE9F
:101570000F901F9018959FB7F894209152023091C8
:101580005302409154025091550286B5A89B06C063
:101590008F3F21F02F5F3F4F4F4F5F4F9FBF542F23
:1015A000432F322F2227280F311D411D511D82E06C
:1015B000220F331F441F551F8A95D1F7B901CA0165
:1015C00008959B01AC017FB7F894809152029091ED
:1015D0005302A0915402B091550266B5A89B05C074
:1015E0006F3F19F00196A11DB11D7FBFBA2FA92F22
:1015F000982F8827860F911DA11DB11D62E0880FCD
:10160000991FAA1FBB1F6A95D1F7BC012DC0FFB758
:10161000F8948091520290915302A0915402B0919B
:101620005502E6B5A89B05C0EF3F19F00196A11D34
:10163000B11DFFBFBA2FA92F982F88278E0F911D9C
:10164000A11DB11DE2E0880F991FAA1FBB1FEA95DB
:10165000D1F7861B970B885E9340C8F2215030402B
:101660004040504068517C4F2115310541055105DE
:1016700071F60895019739F0880F991F880F991F07
:1016800002970197F1F70895789484B5826084BD3C
:1016900084B5816084BD85B5826085BD85B5816076
:1016A00085BDEEE6F0E0808181608083E1E8F0E0D6
:1016B0001082808182608083808181608083E0E805
:1016C000F0E0808181608083E1EBF0E080818460E4
:1016D0008083E0EBF0E0808181608083EAE7F0E0E6
:1016E000808184608083808182608083808181604A
:1016F00080838081806880831092C1000895982F34
:101700008E3008F09E5097708091E6018295880F88
:10171000880F807C892B80937C0080917A00806484
:1017200080937A0080917A0086FDFCCF209178002A
:1017300040917900942F80E030E0282B392BC901AB
:101740000895482F50E0CA0186569F4FFC0124910E
:101750004A575F4FFA0184918823C1F0E82FF0E0E7
:10176000EE0FFF1FE859FF4FA591B491662341F496
:101770009FB7F8948C91209582238C939FBF0895F6
:101780009FB7F8948C91822B8C939FBF0895482F1C
:1017900050E0CA0182559F4FFC012491CA01865630
:1017A0009F4FFC0194914A575F4FFA0134913323C4
:1017B00009F440C0222351F1233071F0243028F481
:1017C0002130A1F0223011F514C02630B1F02730BD
:1017D000C1F02430D9F404C0809180008F7703C019
:1017E000809180008F7D8093800010C084B58F77BA
:1017F00002C084B58F7D84BD09C08091B0008F7711
:1018000003C08091B0008F7D8093B000E32FF0E0A3
:10181000EE0FFF1FEE58FF4FA591B4912FB7F8942C
:10182000662321F48C919095892302C08C91892B99
:101830008C932FBF089508951F920F920FB60F92A9
:1018400011242F933F934F938F939F93EF93FF9385
:101850004091C60020919B0230919C022F5F3F4F28
:101860002F73307080919D0290919E022817390746
:1018700059F0E0919B02F0919C02E55AFD4F4083A4
:1018800030939C0220939B02FF91EF919F918F9147
:101890004F913F912F910F900FBE0F901F90189571
:1018A000E091EF02F091F002E05CFF4F81919191A5
:1018B00020813181821B930B8F739070892B11F0E3
:1018C0000E941B0C08951F920F920FB60F921124C5
:1018D0002F933F934F935F936F937F938F939F9338
:1018E000AF93BF93EF93FF932091DF023091E0021B
:1018F0008091E1029091E2022817390731F480913A
:10190000C1008F7D8093C10016C0E091E102F0918B
:10191000E202E156FD4F40818091E1029091E202A6
:10192000019660E470E00E94CA0E9093E2028093F8
:10193000E1024093C600FF91EF91BF91AF919F915B
:101940008F917F916F915F914F913F912F910F9068
:101950000FBE0F901F901895DC011C96ED91FC9125
:101960001D97E05CFF4F2191319180819181281B6F
:10197000390B2F733070C9010895DC011C96ED916D
:10198000FC911D97E05CFF4F20813181E054F040D5
:10199000DF01AE5BBF4F8D919C91119728173907DE
:1019A00019F42FEF3FEF07C08D919C91E80FF91FBD
:1019B0008081282F30E0C9010895DC011C96ED914B
:1019C000FC911D97E05CFF4F20813181E054F04095
:1019D000DF01AE5BBF4F8D919C911197281739079E
:1019E00019F42FEF3FEF10C08D919C911197E80FE4
:1019F000F91F20818D919C91119701968F739070A2
:101A000011969C938E9330E0C9010895FC01868560
:101A10009785DC01A05CBF4FFC01EE5BFF4F2D9171
:101A20003C9111978081918128173907C1F708955A
:101A3000CF93DF93EC01462FEE85FF85E05CFF4FEF
:101A400080819181E054F040019660E470E00E9452
:101A5000CA0E9C01DF01AE5BBF4F8D919C91119727
:101A600028173907D1F3E05CFF4F80819181E05462
:101A7000F040E80FF91F4083EE85FF85E05CFF4FE3
:101A800031832083EE89FF89208181E090E00D8CF5
:101A900002C0880F991F0A94E2F7282B208381E067
:101AA00090E0DF91CF9108951092E6021092E50246
:101AB00088EE93E0A0E0B0E08093E7029093E80224
:101AC000A093E902B093EA028BEF91E09093E402D5
:101AD0008093E3028BE592E09093F0028093EF0213
:101AE0008FE992E09093F2028093F10285EC90E00E
:101AF0009093F4028093F30284EC90E09093F602CA
:101B00008093F50280EC90E09093F8028093F702C6
:101B100081EC90E09093FA028093F90286EC90E0D9
:101B20009093FC028093FB0284E08093FD0283E0AB
:101B30008093FE0287E08093FF0285E0809300039C
:101B400081E0809301030895CF93DF930E94440BBB
:101B50000E948602C0E5DCE00E948C022097E1F33F
:101B60000E94500CF9CFCF92DF92EF92FF920F9329
:101B70001F93CF93DF937C016B018A01C0E0D0E01B
:101B80000FC0D6016D916D01D701ED91FC910190CF
:101B9000F081E02DC7010995C80FD91F01501040F1
:101BA0000115110571F7CE01DF91CF911F910F91B2
:101BB000FF90EF90DF90CF900895CF93DF93DB01FC
:101BC0000D900020E9F71197A61BB70BEC01E881F7
:101BD000F9810280F381E02DAD010995DF91CF916C
:101BE00008954F925F927F928F929F92AF92BF9291
:101BF000CF92DF92EF92FF920F931F93DF93CF93D9
:101C0000CDB7DEB7A1970FB6F894DEBF0FBECDBF3C
:101C10002C01742ECB01223008F42AE019A231E203
:101C2000C32ED12CCC0EDD1E822E9924AA24BB24D7
:101C3000672D752FA50194010E94DD0E79018A019F
:101C4000C801B701A50194010E94AB0E472D461BA8
:101C50000894C108D1084A3014F4405D01C0495CC1
:101C6000F6014083E114F1040105110521F07E2CF9
:101C70005F2DC801DDCFC201B6010E94DD0DA19626
:101C80000FB6F894DEBF0FBECDBFCF91DF911F918D
:101C90000F91FF90EF90DF90CF90BF90AF909F900B
:101CA0008F907F905F904F900895CF92DF92EF9248
:101CB000FF920F931F93CF93DF93EC016A017B0197
:101CC0002115310541F4E881F9810190F081E02D81
:101CD000642F09951FC02A303105D1F477FF17C052
:101CE000E881F9810190F081E02D6DE209958C0188
:101CF00044275527BA014C195D096E097F09CE01A9
:101D00002AE00E94F10D9801280F391F04C02AE033
:101D10000E94F10D9C01C901DF91CF911F910F919C
:101D2000FF90EF90DF90CF900895EF92FF920F9386
:101D30001F937B019A010027F7FC0095102FB80133
:101D4000A7010E94550E1F910F91FF90EF900895EB
:101D50000E94DD0D0895629FD001739FF001829F64
:101D6000E00DF11D649FE00DF11D929FF00D839F2A
:101D7000F00D749FF00D659FF00D9927729FB00DC7
:101D8000E11DF91F639FB00DE11DF91FBD01CF01DA
:101D90001124089597FB092E07260AD077FD04D059
:101DA0002ED006D000201AF4709561957F4F0895CB
:101DB000F6F7909581959F4F0895A1E21A2EAA1BE0
:101DC000BB1BFD010DC0AA1FBB1FEE1FFF1FA217EB
:101DD000B307E407F50720F0A21BB30BE40BF50BE8
:101DE000661F771F881F991F1A9469F76095709571
:101DF000809590959B01AC01BD01CF010895AA1B70
:101E0000BB1B51E107C0AA1FBB1FA617B70710F0E5
:101E1000A61BB70B881F991F5A95A9F78095909517
:101E2000BC01CD010895EE0FFF1F0590F491E02D48
:061E30000994F894FFCFB5
:101E36004D6F746F72697A6564205261696C0076C1
:101E4600302E31002053696D706C65204D6F7665BC
:101E56000020536D6172742053657175656E6365FC
:101E6600002D002042617369632053657175656EAC
:101E760063650020202020202020202020002043F1
:101E86006C69636B20746F206D6F7665003C3C3C1B
:101E96003C533A003E3E3E3E503A00204650533AAE
:101EA60000202300204F75747075743A002073006B
:101EB600204576656E743A00206D696E0020526189
:101EC6006E67653A00202500205374617274002005
:101ED6002020202020002044656C61793A002046AD
:101EE60072616D65733A00204D6F76653A00206326
:101EF6006D00427574746F6E3A200050726573738C
:101F060065643A20004D6F746F72697A6564204388
:101F1600616D6572610001000000004401B30D00AF
:101F26000040001400540000000000180DB30DAC72
:081F36000CDD0CBD0C060D00D2
:00000001FF
