:100000000C9465000C948D000C948D000C948D0064
:100010000C948D000C948D000C948D000C948D002C
:100020000C948D000C948D000C948D000C948D001C
:100030000C948D000C948D000C948D000C948D000C
:100040000C9406140C948D000C94BD150C9404169D
:100050000C948D000C948D000C948D000C948D00EC
:100060000C948D000C948D000000000024002700EB
:100070002A0000000000250028002B0000000000DE
:1000800023002600290004040404040404040202DA
:100090000202020203030303030301020408102007
:1000A0004080010204081020010204081020000012
:1000B0000007000201000003040600000000000029
:1000C000000087022B0659127B1711241FBECFEFA9
:1000D000D8E0DEBFCDBF15E0A0E0B1E0E0EDF9E390
:1000E00002C005900D92A431B107D9F716E0A4E142
:1000F000B5E001C01D92A137B107E1F710E0CAECED
:10010000D0E004C02297FE010E94E21CC23CD1074D
:10011000C9F70E94CB170C94E61C0C9400000F93B7
:100120001F938C01FC01868160E00E94681581E0CC
:1001300090E00E94DB14F801868161E00E9468155E
:1001400081E090E00E94DB14F801868160E00E946B
:10015000681584E690E00E94DB141F910F910895CA
:10016000CF92DF92EF92FF920F931F93CF93DF9383
:10017000D82EC92E282F392FC9018C01C0E0D0E01C
:10018000E62EFF24F801878161E00E944215B70145
:100190000C2E02C0759567950A94E2F76170F8011C
:1001A00087810E94681521960F5F1F4FC830D105C7
:1001B00049F78D2D9C2D0E948F00DF91CF911F91CB
:1001C0000F91FF90EF90DF90CF900895CF92DF9244
:1001D000EF92FF920F931F93CF93DF93D82EC92EE8
:1001E000282F392FC9018C01C0E0D0E0E62EFF2472
:1001F000F801878161E00E944215B7010C2E02C010
:10020000759567950A94E2F76170F80187810E94FD
:10021000681521960F5F1F4FC430D10549F78D2D0A
:100220009C2D0E948F00DF91CF911F910F91FF9025
:10023000EF90DF90CF9008951F93CF93DF93EC0161
:10024000162F8C81642F0E9468158D818F3F19F0C5
:1002500060E00E9468158F8584FF05C0CE01612F84
:100260000E94B0000EC0612F70E084E07595679524
:100270008A95E1F7CE010E94E600CE01612F0E942F
:10028000E600DF91CF911F91089541E00E941C018B
:1002900081E090E0089540E00E941C010895FC0177
:1002A00060896D7F608B68600E944B010895FC013E
:1002B0006089862F8460808B6C60CF010E944B0127
:1002C0000895DF93CF93CDB7DEB728970FB6F89494
:1002D000DEBF0FBECDBF9C01FE013196ACEFB4E096
:1002E00088E00D9001928150E1F7F9018389481768
:1002F00010F0482F4150E42FF0E0EE0FFF1FEC0FFD
:10030000FD1F8181680F6068C9010E944B0128961A
:100310000FB6F894DEBF0FBECDBFCF91DF91089529
:1003200061E00E944B0180ED97E00E94DB1408958C
:10033000CF93DF93EC01423018F08F8588608F8770
:100340004B8B1C8A222329F0413019F48F8584605D
:100350008F8780E593EC0E94DB148C8160E00E9423
:1003600068158E8160E00E9468158D818F3F19F0BD
:1003700060E00E9468156F8564FD1DC0CE0163E0DA
:100380000E94E60084E991E10E94DB14CE0163E063
:100390000E94E60084E991E10E94DB14CE0163E053
:1003A0000E94E60086E990E00E94DB14CE0162E044
:1003B0000E94E60016C06062CE010E944B0184E9F3
:1003C00091E10E94DB146F856062CE010E944B01B7
:1003D00086E990E00E94DB146F856062CE010E9486
:1003E0004B016F856062CE010E944B0184E0888BD7
:1003F000CE010E945701CE010E94900182E0898BBC
:10040000CE0166E00E944B01DF91CF9108956F927B
:100410007F928F92AF92CF92EF920F931F93DF93C1
:10042000CF93CDB7DEB73C01162F842FF301448361
:1004300025830683E782C086A18682869D85938771
:100440009E8594879F8595879889968761E00E940D
:100450004215F30185818F3F19F061E00E9442153A
:10046000F301868161E00E944215112319F0F30126
:10047000178603C080E1F3018787C30160E141E093
:1004800020E00E949801CF91DF911F910F91EF9092
:10049000CF90AF908F907F906F9008958F92AF9292
:1004A000CF92EF920F931F93CF93DF93DC01362F00
:1004B000542F722F102FAE2C8C2C13961C921E9240
:1004C000129788EF94E011969C938E9300D000D001
:1004D000EDB7FEB73196CDB7DEB719821182128221
:1004E0001382CD0161E0432F2FEF052FE72EC12EA0
:1004F0000E9407020F900F900F900F90DF91CF9105
:100500001F910F91EF90CF90AF908F90089584E15D
:1005100095E00E94160B08950F931F9304E115E0D8
:10052000C8010E949106C8010E9496061F910F9172
:10053000089582E596E040E052EC61E070E00E94B0
:100540004D1608950895EF92FF920F931F93CF9346
:10055000DF93EC01162F072F862F972F0E94900113
:10056000EAA0FBA085E0E816F10409F41DC186E0CD
:10057000E816F104ECF482E0E816F10409F47DC019
:1005800083E0E816F1044CF4E114F10481F181E018
:10059000E816F10409F023C247C083E0E816F1042D
:1005A00009F492C084E0E816F10409F018C2C5C04D
:1005B00088E0E816F10409F47CC189E0E816F1044A
:1005C0005CF486E0E816F10409F429C187E0E81636
:1005D000F10409F004C24AC189E0E816F10409F403
:1005E000A5C18AE0E816F10409F0F9C1D4C1812F50
:1005F000902F60E040E00E946101812F902F60E029
:1006000071E00E943119812F902F60E041E00E943B
:100610006101812F902F6FE071E00E9431191DA2BE
:100620001CA21FA21EA2DBC1812F902F60E040E020
:100630000E946101812F902F64E171E00E943119C5
:10064000812F902F60E041E00E946101812F902F67
:1006500061E271E00E943119812F902F60E048A182
:100660000E946101812F902F61E371E00E94311996
:10067000FFA2EEA282E090E056C1812F902F60E0B1
:1006800040E00E946101812F902F63E371E00E949E
:100690003119812F902F60E041E00E946101812F8C
:1006A000902F63E471E00E943119812F902F60E058
:1006B00048A10E946101812F902F61E371E00E94A7
:1006C000311981E090E062C1812F902F60E040E01D
:1006D0000E946101812F902F65E471E00E94311921
:1006E0004A815B816C817D81812F902F22E030E0F7
:1006F0000E94CF19812F902F60E041E00E9461019C
:10070000812F902F6DE471E00E9431196881798109
:10071000812F902F4AE050E00E94FF18812F902FE8
:1007200060E048A10E946101812F902F61E371E098
:100730000E943119FFA2EEA22BC1812F902F60E001
:1007400040E00E946101812F902F68E571E00E94D6
:1007500031196E817F81812F902F4AE050E00E94F5
:10076000FF18812F902F60E041E00E946101812FEE
:10077000902F6EE571E00E94311968857985812F8F
:10078000902F4AE050E00E94FF18812F902F60E0E8
:1007900048A10E946101812F902F61E371E00E94C6
:1007A0003119FFA2EEA238C0812F902F60E040E007
:1007B0000E946101812F902F67E671E00E9431193C
:1007C0006A857B85812F902F4AE050E00E94FF18B8
:1007D000812F902F60E041E00E946101812F902FD6
:1007E0006FE671E00E9431196C857D85812F902F15
:1007F0004AE050E00E94FF18812F902F60E048A14E
:100800000E946101812F902F61E371E00E943119F4
:1008100084E090E09FA38EA386E090E084C0812FC7
:10082000902F60E040E00E946101812F902F67E7E8
:1008300071E00E943119812F902F60E041E00E9409
:100840006101812F902F63E471E00E943119812FA3
:10085000902F60E048A10E946101812F902F61E3F9
:1008600071E00E94311984E090E090C0812F902FB8
:1008700060E040E00E946101812F902F63E471E00D
:100880000E943119812F902F60E041E00E946101A8
:10089000812F902F63E471E00E943119812F902FF6
:1008A00060E048A10E946101812F902F6EE771E006
:1008B00094C0812F902F60E040E00E946101812F61
:1008C000902F60E871E00E9431196E857F85812F3D
:1008D000902F4AE050E00E94FF18812F902F60E097
:1008E00041E00E946101812F902F68E871E00E9431
:1008F0003119488959896A897B89812F902F22E093
:1009000030E00E94CF19812F902F60E048A10E9413
:100910006101812F902F61E371E00E943119FFA2E4
:10092000EEA289E090E09DA38CA359C0812F902F67
:1009300060E040E00E946101812F902F61E971E049
:100940000E9431194C895D896E897F89812F902F92
:1009500022E030E00E94CF19812F902F60E041E02B
:100960000E946101812F902F67E771E00E94311989
:10097000812F902F60E048A10E946101812F902F6C
:1009800061E371E00E94311988E090E09FA38EA39B
:10099000FDA2ECA224C0812F902F60E040E00E94D5
:1009A0006101812F902F63E471E00E943119812F42
:1009B000902F60E041E00E946101812F902F63E45D
:1009C00071E00E943119812F902F60E048A10E94B0
:1009D0006101812F902F61E371E00E943119DF9155
:1009E000CF911F910F91FF90EF900895EF92FF929A
:1009F0000F931F938C01F62EE72E862F972F60E121
:100A000042E020E00E94980188E061E00E944215E7
:100A100088E061E00E9468158F2D9E2D0E94900154
:100A20008F2D9E2D60E040E00E9461018F2D9E2D54
:100A300068E971E00E9431198F2D9E2D60E041E040
:100A40000E9461018F2D9E2D6FE071E00E9431198F
:100A5000F801118210821782168280E090E0AAE7E6
:100A6000B5E482839383A483B583118610861386AD
:100A70001286158614861786168680E090E0A0E020
:100A8000B0E0808B918BA28BB38B848B958BA68BE4
:100A9000B78B108E13A212A2178E168E158E1F9171
:100AA0000F91FF90EF90089583E0653878079CF5EB
:100AB000CB018D5B9240873C910518F421E030E03A
:100AC0002CC0CB01895592408336910518F422E061
:100AD00030E023C0CB0181599140873C910518F447
:100AE00023E030E01AC0CB018D529140833691054E
:100AF00018F424E030E011C0CB0185569040873CCB
:100B0000910518F425E030E008C0643671051CF446
:100B100026E030E002C020E030E0C9010895CF9225
:100B2000DF92EF92FF920F931F93CF93DF93EC012D
:100B300081E10E942015BC01CE010E9454056C0188
:100B40000E945C149B01AC018C819D81069744F04E
:100B500060E8E62E68E3F62E61E0062F112D07C04F
:100B600090E4E92E9DE0F92E93E0092F112D8A855E
:100B70009B85AC85BD858058954EA94FBF4F821788
:100B80009307A407B5074CF41D821C8280E4E82E6D
:100B90008DE0F82E83E0082F112DC114D10409F443
:100BA00040C08A859B85AC85BD85E80EF91E0A1F6D
:100BB0001B1FE216F306040715079CF58C819D8127
:100BC00001969D838C8361E070E080E090E00E945C
:100BD000821481E10E942015BC01CE010E945405BF
:100BE000C816D906F1F461E070E080E090E00E9460
:100BF000821481E10E942015BC01CE010E9454059F
:100C00009C01C816D90629F48A819B8101969B8391
:100C10008A83398328830E945C146A877B878C8748
:100C20009D87DF91CF911F910F91FF90EF90DF9003
:100C3000CF9008950F931F938C0181E160E00E9493
:100C4000421581E161E00E946815F801118210826D
:100C50001F910F910895CF92EF920F93DF93CF934F
:100C6000CDB7DEB765970FB6F894DEBF0FBECDBF28
:100C70008CE295E063E170E042E150E00E941112E5
:100C80008CE495E00E941A068AE595E062E043E074
:100C900024E005E056E0E52E37E0C32E0E944E0228
:100CA00080915C0590915D059C838B8388EF94E037
:100CB0009A83898380915E058D8380915F058E8301
:100CC000809160058F83DE011896E1E6F5E088E00B
:100CD00001900D928150E1F780916905888B809198
:100CE0006A05898B80916B058A8B80916C058B8B53
:100CF00080916D058C8B80916E058D8B8FE695E0D4
:100D0000BE016F5F7F4F0E94F60465960FB6F894A0
:100D1000DEBF0FBECDBFCF91DF910F91EF90CF908F
:100D200008958CE495E00E948F050895DF93CF939A
:100D3000CDB7DEB7C85AD0400FB6F894DEBF0FBEAD
:100D4000CDBF9C0180914C0590914D05833091055C
:100D500009F4B4C08430910544F48130910509F45C
:100D600072C1029709F058C40CC08530910509F48E
:100D7000FFC3853091050CF449C2069709F04CC4B5
:100D800028C380918F0590919005019709F443C085
:100D900081E090E09093900580938F0580918D0580
:100DA00090918E05019690938E0580938D0580918C
:100DB0005C0590915D059C838B8388EF94E09A831A
:100DC000898380915E058D8380915F058E838091FC
:100DD00060058F83DE011896E1E6F5E088E001907A
:100DE0000D928150E1F780916905888B80916A05A9
:100DF000898B80916B058A8B80916C058B8B8091A0
:100E00006D058C8B80916E058D8B8FE695E0BE0114
:100E10006F5F7F4F11C120919105309192058091B4
:100E2000930590919405281739070CF007C110928B
:100E3000900510928F052F5F3F4F309392052093BE
:100E4000910580918D0590918E05019690938E0568
:100E500080938D0580915C0590915D05998F888FB9
:100E600088EF94E09F8B8E8B80915E058A8F8091B6
:100E70005F058B8F809160058C8FDE015D96E1E6CA
:100E8000F5E088E001900D928150E1F780916905CD
:100E90008DA380916A058EA380916B058FA38091AD
:100EA0006C0588A780916D0589A780916E058AA73A
:100EB0008FE695E0BE016A5E7F4FBEC080918F05D0
:100EC00090919005892B09F441C0109290051092E1
:100ED0008F0580918D0590918E05019790938E05D9
:100EE00080938D0580915C0590915D059EA78DA7EF
:100EF00088EF94E09CA78BA780915E058FA78091D7
:100F00005F0588AB8091600589ABDE01D296E1E692
:100F1000F5E088E001900D928150E1F7809169053C
:100F20008AAF80916A058BAF80916B058CAF809101
:100F30006C058DAF80916D058EAF80916E058FAF82
:100F40008FE695E0BE01655D7F4F76C020919105EB
:100F5000309192058091950590919605821793079F
:100F60000CF06CC081E090E09093900580938F0529
:100F700021503040309392052093910580918D054A
:100F800090918E05019790938E0580938D058091A9
:100F90005C0590915D05FE01EE5BFF4F91838083C0
:100FA00088EF94E0FE01E05CFF4F918380838091A5
:100FB0005E05FE01EC5BFF4F808380915F05FE01C3
:100FC000EB5BFF4F808380916005FE01EA5BFF4F82
:100FD0008083DE01A95BBF4FE1E6F5E088E0019088
:100FE0000D928150E1F780916905FE01E15BFF4FB1
:100FF000808380916A05FE01E05BFF4F80838091D2
:101000006B05FE01EF5AFF4F808380916C05FE0156
:10101000EE5AFF4F808380916D05FE01ED5AFF4F20
:10102000808380916E05FE01EC5AFF4F80838FE62E
:1010300095E0BE01605C7F4F0E94A30210924D05B7
:1010400010924C05E9C280919105909192058330F0
:10105000910561F520918F0530919005211531059D
:10106000B9F460917105709172058091730590914A
:10107000740520E030E04AEF53E40E94F8196093D1
:10108000710570937205809373059093740598C0F1
:101090002130310509F076C080916F05909170057F
:1010A00005979093700580936F058AC084309105F1
:1010B000E9F480918F0590919005009751F480910B
:1010C0007505909176050197909376058093750547
:1010D00077C0019709F074C08091770590917805E9
:1010E000019790937805809377056AC085309105C4
:1010F000E9F480918F0590919005009751F48091CB
:10110000790590917A05019790937A0580937905F6
:1011100057C0019709F054C080917B0590917C05E0
:10112000019790937C0580937B054AC08830910598
:1011300049F580918F0590919005009751F4809129
:101140007D0590917E05019790937E0580937D05A6
:1011500037C00197A9F560917F0570918005809156
:1011600081059091820520E030E040E85FE30E9435
:10117000F81960937F0570938005809381059093A3
:1011800082051EC00997E1F480918F05909190052A
:10119000892BB1F460918305709184058091850558
:1011A0009091860520E030E040E85FE30E94F81966
:1011B00060938305709384058093850590938605DD
:1011C00010924D0510924C05FE01EB5AFF4F809195
:1011D0005C0590915D059383828388EF94E0918311
:1011E000808380915E05848380915F0585838091F3
:1011F000600586833796A1E6B5E088E00D90019200
:101200008150E1F7FE01EB5AFF4FEFC1809191054C
:10121000909192058330910561F520918F05309171
:10122000900521153105B9F4609171057091720531
:10123000809173059091740520E030E04AEF53E40B
:101240000E94F9196093710570937205809373057C
:101250009093740598C02130310509F076C08091D3
:101260006F059091700505969093700580936F05BA
:101270008AC084309105E9F480918F0590919005A2
:10128000009751F4809175059091760501969093A1
:1012900076058093750577C0019709F074C0809139
:1012A000770590917805019690937805809377055E
:1012B0006AC085309105E9F480918F059091900581
:1012C000009751F48091790590917A050196909359
:1012D0007A058093790557C0019709F054C0809131
:1012E0007B0590917C05019690937C0580937B050E
:1012F0004AC08830910549F580918F0590919005FD
:10130000009751F480917D0590917E050196909310
:101310007E0580937D0537C00197A9F560917F0513
:1013200070918005809181059091820520E030E0E8
:1013300040E85FE30E94F91960937F057093800590
:1013400080938105909382051EC00997E1F48091F6
:101350008F0590919005892BB1F460918305709170
:101360008405809185059091860520E030E040E875
:101370005FE30E94F919609383057093840580935D
:1013800085059093860510924D0510924C05FE013F
:10139000E659FF4F80915C0590915D0593838283B0
:1013A00088EF94E09183808380915E0584838091AF
:1013B0005F0585838091600586833796A1E6B5E059
:1013C00088E00D9001928150E1F7FE01E659FF4F50
:1013D0000CC180919105909192058230910581F127
:1013E000833091052CF48130910509F09BC008C031
:1013F0008330910509F46BC0099709F093C042C08E
:10140000909398058093970580918D0590918E0516
:1014100090939A058093990580918F0590919005FE
:1014200090939C0580939B05009721F0019709F00C
:1014300079C003C083E090E01CC084E090E019C054
:10144000909398058093970580918D0590918E05D6
:1014500090939A058093990580918F0590919005BE
:1014600090939C0580939B05892B09F05BC088E0D5
:1014700090E09093920580939105109290051092C0
:101480008F0550C080918F0590919005019709F0CC
:1014900049C08DB79EB748970FB6F8949EBF0FBE50
:1014A0008DBFADB7BEB71196EFE6F5E088E10190CC
:1014B0000D928150E1F7C9010E9462128DB79EB76B
:1014C00048960FB6F8949EBF0FBE8DBF2BC08CE21E
:1014D00095E06CE271E00E94850B80E090E0A0E076
:1014E000B0E080932C0590932D05A0932E05B0932A
:1014F0002F0560917105709172058091730590912F
:1015000074050E94C91A9B01AC018CE295E0B901F7
:101510000E94810B60916F05709170058CE295E0DF
:101520000E94BB1110924D0510924C05FE01E1582E
:10153000FF4F80915C0590915D059383828388EFD6
:1015400094E09183808380915E05848380915F0520
:1015500085838091600586833796A1E6B5E088E0B3
:101560000D9001928150E1F7FE01E158FF4F3DC01F
:10157000809197059091980590939205809391059D
:101580008091990590919A0590938E0580938D0591
:1015900080919B0590919C059093900580938F0579
:1015A00010924D0510924C05FE01EC56FF4F8091B4
:1015B0005C0590915D059383828388EF94E091832D
:1015C000808380915E05848380915F05858380910F
:1015D000600586833796A1E6B5E088E00D9001921C
:1015E0008150E1F7FE01EC56FF4F80916905878736
:1015F00080916A05808B80916B05818B80916C0551
:10160000828B80916D05838B80916E05848B8FE634
:1016100095E0BF010E94A302C855DF4F0FB6F894B2
:10162000DEBF0FBECDBFCF91DF910895DF93CF9383
:10163000CDB7DEB765970FB6F894DEBF0FBECDBF4E
:101640000E94FD138DE061E00E9442158DE060E094
:101650000E9468158AE595E060E142E020E00E9482
:1016600098018AE595E00E944F0181E090E0909317
:1016700092058093910510928E0510928D058FE64C
:1016800095E00E94A20280915C0590915D059C838B
:101690008B8388EF94E09A83898380915E058D83A4
:1016A00080915F058E83809160058F83DE0118969F
:1016B000E1E6F5E088E001900D928150E1F780913C
:1016C0006905888B80916A05898B80916B058A8B6F
:1016D00080916C058B8B80916D058C8B80916E0554
:1016E0008D8B8FE695E0BE016F5F7F4F0E94A30256
:1016F00065960FB6F894DEBF0FBECDBFCF91DF91D8
:101700000895FC01718B608B0895FC01778F668FC3
:1017100008952F923F924F925F926F927F928F9295
:101720009F92AF92BF92CF92DF92EF92FF920F9370
:101730001F93DF93CF93CDB7DEB76A970FB6F894B8
:10174000DEBF0FBECDBF9A8F898F1A012B01DC013E
:101750001B968C91882319F1CB01BA01A20191014A
:101760000E94F9192BED3FE049E450E40E94B01BC0
:101770002CE839EB4BE45FE30E94B01B20E030E043
:1017800048EC55E40E94611A9B01AC01E98DFA8D89
:1017900062897389848995890E94F81922C0CB01D6
:1017A000BA01A20191010E94F9192BED3FE049E431
:1017B00050E40E94B01B2CE839EB4BE45FE30E943D
:1017C000B01B20E030E048EC55E40E94611A9B0118
:1017D000AC01E98DFA8D62897389848995890E94AB
:1017E000F919A98DBA8D52966D937D938D939C9323
:1017F0005597E98DFA8DE484F58406851785C8012F
:10180000B70120E030E040E050E00E945D1A8823FC
:1018100081F0C801B70125E83CE740E55AE30E94A2
:10182000611A0E94C91AA98DBA8D51967C936E9344
:101830005097C201B10120E030E048EC53E40E942F
:10184000F81969837A838B839C83E98DFA8D608094
:10185000718082809380C401B30120E030E04AEFC0
:1018600053E40E94B01B9B01AC0169817A818B819A
:101870009C810E94F8197B018C01C201B10120E01A
:1018800030E040E050EC0E94B01B9B01AC01C8016D
:10189000B7010E94F9195B016C01A60195010E9434
:1018A000B01B7B018C01C201B10129813A814B81BE
:1018B0005C810E94F8199B01AC01C401B3010E9434
:1018C000B01B20E030E04AE755EC0E94B01B9B01C2
:1018D000AC01C801B7010E94F9190E94171C9B01B5
:1018E000AC01D7FAD094D7F8D094C601B5010E94C4
:1018F000F81920E030E04AEF54E40E94611A5B01DD
:101900006C0120E030E04AEF53E40E94B01B20E07D
:1019100030E048EC53E40E94F9197B018C01C601C8
:10192000B50120E030E04AE754EC0E94B01B9B0177
:10193000AC01C801B7010E94F919A60195010E94E6
:10194000611A3B014C0120E030E04AEF53E40E9471
:101950005D1A8823B4F4A98DBA8D14968C918823CE
:1019600031F082E596E069EA71E00E94E5190F2EF8
:10197000F0E06F2EF0E07F2EFAEF8F2EF3E49F2E33
:10198000F02DE98DFA8D608171818281938120E053
:1019900030E040E050E00E945D1A882371F4A98D88
:1019A000BA8D50966D917C915197882777FD8095DF
:1019B000982F0E94FC1A3B014C01C401B30120E0A6
:1019C00030E84BEB55E40E94AC1B1816ACF4E98DE3
:1019D000FA8D8481882331F082E596E065EC71E030
:1019E0000E94E5190F2EF0E06F2EF0E87F2EFBEB42
:1019F0008F2EF5E49F2EF02DC401B30120E030E0DE
:101A00004AEF53E40E94F819698B7A8B8B8B9C8B7D
:101A100060E074E284E799E4A40193010E94611AF2
:101A200020E030E04AEF54E40E94F81920E030E072
:101A300048E453E40E94611A6D837E838F83988704
:101A4000A98DBA8D15968C9115971B966C910E9455
:101A5000681562E370E080E090E00E948214C201A9
:101A6000B10120E030E048EC53E40E945D1A87FDAC
:101A700005C080E090E0A8E4B3E414C0A98DBA8D5D
:101A800014968C91882331F082E596E067EE71E040
:101A90000E94E51929823A824B825C8280E090E0C4
:101AA000A0E0B0E089879A87AB87BC87A98DBA8D03
:101AB00014968C91882309F4B2C082E596E064E024
:101AC00072E00E943119E98DFA8D40815181628165
:101AD000738182E596E022E030E00E94D21982E52F
:101AE00096E060E172E00E94311982E596E0B20171
:101AF000A10122E030E00E94D21982E596E068E17F
:101B000072E00E94311982E596E040E050E06AEF11
:101B100073E422E030E00E94CF1982E596E066E2AD
:101B200072E00E94311982E596E0B401A30122E03F
:101B300030E00E94D21982E596E064E372E00E94F0
:101B4000311982E596E0B601A50122E030E00E945D
:101B5000D21982E596E06FE372E00E94311982E5C6
:101B600096E0B401A30122E030E00E94D21982E5A0
:101B700096E06BE472E00E94311969897A898B8959
:101B80009C89A60195010E94611AAB01BC0182E506
:101B900096E022E030E00E94D21982E596E069E505
:101BA00072E00E94E51982E596E068E772E00E9423
:101BB000E51982E596E060E172E00E94311982E564
:101BC00096E049855A856B857C8522E030E00E944D
:101BD000D21982E596E065E872E00E94311982E54B
:101BE00096E040E050E06AEF74E422E030E00E94CA
:101BF000CF1982E596E069E972E00E94E51982E575
:101C000096E067EA72E00E94311982E596E04D8124
:101C10005E816F81788522E030E00E94D2190E94B7
:101C20004E146D877E878F87988B0F2EF0E02F2EB6
:101C3000F0E03F2EFAEF4F2EF4E45F2EF02DCC248F
:101C4000DD246BC0A98DBA8D17968C9161E00E943E
:101C50006815C201B10120E030E040E05FE30E947E
:101C6000B01B7B018C0120E030E040E050E00E949E
:101C7000AC1B88234CF0C801B70120E030E040E005
:101C80005FE30E94F91908C0C801B70120E030E005
:101C900040E05FE30E94F8190E94C91ACB01C29785
:101CA0000E94DB14E98DFA8D878160E00E9468153F
:101CB000C801B70120E030E048E452E40E94F8197E
:101CC0007B018C0120E030E040E050E00E94AC1B42
:101CD00088234CF0C801B70120E030E040E05FE32A
:101CE0000E94F91908C0C801B70120E030E040E0C7
:101CF0005FE30E94F8190E94C91ACB010E94DB140D
:101D0000C201B1012D813E814F8158850E94F91990
:101D10001B012C010894C11CD11CB601882777FD3A
:101D20008095982F0E94FC1A29853A854B855C8501
:101D30000E945D1A87FD86CF2D8A3E8A4F8A588E73
:101D40000E944E149B01AC01A98DBA8D14968C9102
:101D5000882309F45EC059016A018D859E85AF858F
:101D6000B889A81AB90ACA0ADB0A82E596E069EBC3
:101D700072E00E94311982E596E040E050E060E0B8
:101D800070E02AE030E00E94AB1882E596E069E955
:101D900072E00E94E51982E596E065EC72E00E942F
:101DA000311982E596E0B601A5012AE030E00E94F3
:101DB000AB1882E596E06DEC72E00E94E51982E5D1
:101DC00096E061ED72E00E94311969897A898B8908
:101DD0009C8920E030E04AE754E40E94B01B7B017C
:101DE0008C01C601B5010E94FC1A9B01AC01C8011F
:101DF000B7010E94611AAB01BC0182E596E022E0C6
:101E000030E00E94CF1982E596E063EE72E00E9416
:101E1000E519A98DBA8D14968C91882309F45AC0BE
:101E200082E596E06EEE72E00E94E51982E596E0AA
:101E30006EE073E00E94E51982E596E06FE173E0E1
:101E40000E94311982E596E049815A816B817C813B
:101E500022E030E00E94D21982E596E066E272E06C
:101E60000E94311982E596E0B401A30122E030E03E
:101E70000E94CF1982E596E068E273E00E94E519BE
:101E800082E596E061E373E00E94311982E596E015
:101E90002D893E89EF89F88DA901BF0122E030E04C
:101EA0000E94CF1982E596E069E972E00E94E51987
:101EB00082E596E06CE473E00E94311982E596E0D9
:101EC0006FE573E00E94311982E596E069E972E0FE
:101ED0000E94E5190E944E145B016C016624772470
:101EE000430166C0E98DFA8D878161E00E94681523
:101EF000C201B10120E030E040E05FE30E94B01B8E
:101F00007B018C0120E030E040E050E00E94AC1BFF
:101F100088234CF0C801B70120E030E040E05FE3E7
:101F20000E94F91908C0C801B70120E030E040E084
:101F30005FE30E94F8190E94C91ACB01C2970E9460
:101F4000DB14A98DBA8D17968C9160E00E946815FC
:101F5000C801B70120E030E040E050E00E94AC1B37
:101F600088234CF0C801B70120E030E040E05FE397
:101F70000E94F91908C0C801B70120E030E040E034
:101F80005FE30E94F8190E94C91ACB01C2970E9410
:101F9000DB14C201B10120E030E040E050E00E94DB
:101FA000F9191B012C010894611C711C811C911CE6
:101FB000C401B3010E94FC1A29813A814B815C81E2
:101FC0000E945D1A87FD8ECF0E944E147B018C010A
:101FD000E98DFA8D8481882309F460C082E596E05A
:101FE00069EB72E00E94311982E596E040E050E032
:101FF00060E070E02AE030E00E94AB1882E596E0F5
:1020000069E972E00E94E51982E596E065EC72E00C
:102010000E943119EA18FB080C091D0982E596E0B7
:10202000B801A7012AE030E00E94AB1882E596E0F3
:102030006DEC72E00E94E51982E596E06EEE72E0CA
:102040000E94E51982E596E062E673E00E94E519D8
:1020500082E596E06FE173E00E94311982E596E037
:1020600049855A856B857C8522E030E00E94D21933
:1020700082E596E060E773E00E94311982E596E020
:1020800040E050E06AEF73E422E030E00E94CF19B4
:1020900082E596E068E273E00E94E5190E944E1422
:1020A0004B015C01CC24DD2464C0A98DBA8D179648
:1020B0008C9161E00E946815C201B10120E030E01E
:1020C00040E05FE30E94B01B7B018C0120E030E028
:1020D00040E050E00E94AC1B88234CF0C801B701DF
:1020E00020E030E040E05FE30E94F91908C0C80139
:1020F000B70120E030E040E05FE30E94F8190E9461
:10210000C91ACB01C2970E94DB14E98DFA8D878131
:1021100060E00E946815C801B70120E030E040E0AF
:1021200050E00E94AC1B88234CF0C801B70120E0AE
:1021300030E040E05FE30E94F91908C0C801B70130
:1021400020E030E040E05FE30E94F8190E94C91AE5
:10215000CB01C2970E94DB14C201B1012D813E81E7
:102160004F8158850E94F8191B012C010894C11C4D
:10217000D11CB601882777FD8095982F0E94FC1A04
:1021800029853A854B855C850E945D1A87FD8DCF38
:102190000E944E147B018C01A98DBA8D14968C91EE
:1021A000882309F458C082E596E069EB72E00E944A
:1021B000311982E596E040E050E060E070E02AE00E
:1021C00030E00E94AB1882E596E069E972E00E9477
:1021D000E51982E596E06DE773E00E94311982E52A
:1021E00096E0B201A10122E030E00E94D21982E51E
:1021F00096E069E972E00E94E51982E596E06CE4F8
:1022000073E00E94311982E596E04D815E816F8115
:10221000788522E030E00E94CF1982E596E069E9F6
:1022200072E00E94E51982E596E065EC72E00E949A
:102230003119E818F9080A091B0982E596E0B80186
:10224000A7012AE030E00E94AB1882E596E06DEC31
:1022500072E00E94E5196A960FB6F894DEBF0FBED1
:10226000CDBFCF91DF911F910F91FF90EF90DF9045
:10227000CF90BF90AF909F908F907F906F905F9026
:102280004F903F902F900895EF92FF920F931F93DE
:10229000CF93DF93EC017A018B018C81882371F05D
:1022A00082E596E06AE873E00E94311982E596E0E3
:1022B000B801A70122E030E00E94D219C801B7019D
:1022C00020E030E048EC55E40E94B01BAB01BC01BB
:1022D000CE010E94890BDF91CF911F910F91FF904A
:1022E000EF900895EF92FF920F931F93CF93DF9398
:1022F000EC017A018B018C81882371F082E596E0F4
:1023000069E973E00E94311982E596E0B801A701FE
:1023100022E030E00E94D219C801B70120E030E08D
:1023200040E050E00E945D1A29853A85882344F4F4
:1023300017FB109517F910952130310521F406C0CF
:102340002130310519F481E08B8701C01B86C8015B
:10235000B7012DE431E040EA50E40E94611AAB017C
:10236000BC01CE010E944411DF91CF911F910F91CA
:10237000FF90EF900895CF92DF92EF92FF920F932C
:102380001F93CF93DF93EC018B01CA88DB88EC8825
:10239000FD888C818823F9F082E596E06EEE72E08C
:1023A0000E94E51982E596E065EA73E00E94E5196E
:1023B00082E596E06BEB73E00E94E51982E596E01A
:1023C0006BED73E00E94311982E596E0B8014AE0B6
:1023D00050E00E94121988E490E09C01029FC00125
:1023E000039F900D129F900D112464E670E00E94EF
:1023F000971C882777FD8095982F0E94FC1AA701CB
:1024000096010E94F819AB01BC01CE010E94721125
:10241000DF91CF911F910F91FF90EF90DF90CF90C0
:102420000895CF92DF92EF92FF920F931F938C014A
:10243000F62ED72EE42EC52E862F61E00E9442157F
:102440008E2D61E00E944215F801F582D6828FEF51
:102450009FEF92878187E782C08681E0838720E0B3
:1024600030E040E050E02487358746875787148264
:1024700080E090E0A0E9B2E4868B978BA08FB18FCB
:10248000118A108A228B338B448B558B8DEC9CECFC
:10249000ACECBDE3828F938FA48FB58F88EC90E076
:1024A000978F868F1F910F91FF90EF90DF90CF90C5
:1024B000089581EA95E063E170E042E150E00E9416
:1024C000111208952F923F924F925F926F927F92D6
:1024D0008F929F92AF92BF92CF92DF92EF92FF9234
:1024E0000F931F93DF93CF93CDB7DEB74C01DC0181
:1024F000FE01759688E101900D928150E1F7F4019B
:1025000064897589868997892089318942895389A7
:102510000E94611A2B013C01F401668577858827AA
:1025200077FD8095982F0E94FC1A9B01AC01C30196
:10253000B2010E94611A7B018C0120E030E040E092
:1025400050E40E94F9196093A1057093A20580934D
:10255000A3059093A40582E596E067EE73E00E94E0
:10256000E51982E596E067E174E00E943119F40113
:102570006685778582E596E04AE050E00E94121970
:1025800082E596E063E374E00E943119F40140892A
:1025900051896289738982E596E022E030E00E94E9
:1025A000D21982E596E060E574E00E943119F401E9
:1025B000448955896689778982E596E022E030E092
:1025C0000E94D21982E596E06CE674E00E9431190F
:1025D00082E596E0B301A20122E030E00E94D21928
:1025E00082E596E06DE774E00E94311982E596E09D
:1025F000B801A70122E030E00E94D21980E161E039
:102600000E94681564EF71E080E090E00E948214FF
:102610008FE061E00E94681564EF71E080E090E077
:102620000E9482148FE060E00E94681580E160E003
:102630000E946815EE24FF248701AA24BB246501AB
:10264000222433245CC00E944E14AC01CB01DA0179
:102650007C018D0181EA95E0B301A2010E94721113
:102660000E944E14AC01CB01DA015C016D01F40152
:10267000868597859C0148EE53E0249FC001259FE5
:10268000900D349F900D11249C01442737FD4095F7
:10269000542FD601C5018E199F09A00BB10B8217CB
:1026A0009307A407B50764F42E0D3F1D401F511F6B
:1026B0002A193B094C095D09CA01B9010E9482141B
:1026C00080E161E00E94681564EF71E080E090E0D5
:1026D0000E9482148FE061E00E94681564EF71E04F
:1026E00080E090E00E9482148FE060E00E94681514
:1026F00080E160E00E9468150894211C311CB10142
:10270000882777FD8095982F0E94FC1AF401208974
:102710003189428953890E945D1A87FD94CF82E5F1
:1027200096E069E874E00E94E51982E596E061EBC5
:1027300074E00E94311982E596E0B801A7012AE011
:1027400030E00E94EB1882E596E06DEB74E00E94A9
:10275000311982E596E0B601A5012AE030E00E9439
:10276000EB1882E596E06AEC74E00E943119B6013C
:10277000A5014E195F09600B710B82E596E02AE016
:1027800030E00E94EB1882E596E063EE74E00E9470
:102790003119F4012685378588EE93E0AC01249F3A
:1027A000C001259F900D349F900D1124AA2797FDFD
:1027B000A095BA2FE80EF91E0A1F1B1FEA18FB0886
:1027C0000C091D0982E596E0B801A7012AE030E076
:1027D0000E94EB18CF91DF911F910F91FF90EF9026
:1027E000DF90CF90BF90AF909F908F907F906F9031
:1027F0005F904F903F902F9008958FE061E00E948E
:10280000421580E161E00E94421508951F920F92E7
:102810000FB60F9211242F933F938F939F93AF93F3
:10282000BF938091C5059091C605A091C705B09151
:10283000C8053091C9050196A11DB11D232F2D5F3B
:102840002D3720F02D570196A11DB11D2093C905EC
:102850008093C5059093C605A093C705B093C8059E
:102860008091C1059091C205A091C305B091C405A6
:102870000196A11DB11D8093C1059093C205A0933F
:10288000C305B093C405BF91AF919F918F913F91C4
:102890002F910F900FBE0F901F9018958FB7F8943F
:1028A0002091C5053091C6054091C7055091C805D6
:1028B0008FBFB901CA0108959FB7F8942091C1054F
:1028C0003091C2054091C3055091C40586B5A89BBF
:1028D00006C08F3F21F02F5F3F4F4F4F5F4F9FBF8D
:1028E000542F432F322F2227280F311D411D511DF8
:1028F00082E0220F331F441F551F8A95D1F7B9017B
:10290000CA0108959B01AC017FB7F8948091C1057D
:102910009091C205A091C305B091C40566B5A89B6E
:1029200005C06F3F19F00196A11DB11D7FBFBA2FE1
:10293000A92F982F8827860F911DA11DB11D62E038
:10294000880F991FAA1FBB1F6A95D1F7BC012DC024
:10295000FFB7F8948091C1059091C205A091C3057D
:10296000B091C405E6B5A89B05C0EF3F19F00196EC
:10297000A11DB11DFFBFBA2FA92F982F88278E0F39
:10298000911DA11DB11DE2E0880F991FAA1FBB1F59
:10299000EA95D1F7861B970B885E9340C8F22150C9
:1029A00030404040504068517C4F21153105410571
:1029B000510571F60895019739F0880F991F880F16
:1029C000991F02970197F1F70895789484B5826072
:1029D00084BD84B5816084BD85B5826085BD85B5C3
:1029E000816085BDEEE6F0E0808181608083E1E872
:1029F000F0E01082808182608083808181608083AA
:102A0000E0E8F0E0808181608083E1EBF0E08081AC
:102A100084608083E0EBF0E0808181608083EAE77E
:102A2000F0E0808184608083808182608083808107
:102A3000816080838081806880831092C1000895C6
:102A4000982F8E3008F09E5097708091F3048295F5
:102A5000880F880F807C892B80937C0080917A007E
:102A6000806480937A0080917A0086FDFCCF20916B
:102A7000780040917900942F80E030E0282B392BAA
:102A8000C9010895482F50E0CA0186569F4FFC01A6
:102A900024914A575F4FFA0184918823C1F0E82FAF
:102AA000F0E0EE0FFF1FE859FF4FA591B4916623A8
:102AB00041F49FB7F8948C91209582238C939FBF0B
:102AC00008959FB7F8948C91822B8C939FBF0895A3
:102AD000482F50E0CA0182559F4FFC012491CA0142
:102AE00086569F4FFC0194914A575F4FFA013491EB
:102AF000332309F440C0222351F1233071F02430F4
:102B000028F42130A1F0223011F514C02630B1F0A4
:102B10002730C1F02430D9F404C0809180008F7731
:102B200003C0809180008F7D8093800010C084B5A9
:102B30008F7702C084B58F7D84BD09C08091B000BD
:102B40008F7703C08091B0008F7D8093B000E32F1A
:102B5000F0E0EE0FFF1FEE58FF4FA591B4912FB795
:102B6000F894662321F48C919095892302C08C916E
:102B7000892B8C932FBF089508951F920F920FB643
:102B80000F9211242F933F934F938F939F93EF9323
:102B9000FF934091C60020910A0630910B062F5FEB
:102BA0003F4F2F73307080910C0690910D062817BF
:102BB000390759F0E0910A06F0910B06E653FA4FF7
:102BC000408330930B0620930A06FF91EF919F916B
:102BD0008F914F913F912F910F900FBE0F901F90AB
:102BE0001895E0915E06F0915F06E05CFF4F8191E1
:102BF000919120813181821B930B8F739070892B6F
:102C000011F00E94BC1508951F920F920FB60F92FB
:102C100011242F933F934F935F936F937F938F93E1
:102C20009F93AF93BF93EF93FF9320914E06309104
:102C30004F0680915006909151062817390731F4BC
:102C40008091C1008F7D8093C10016C0E091500635
:102C5000F0915106E25FF94F4081809150069091CA
:102C60005106019660E470E00E94971C9093510613
:102C7000809350064093C600FF91EF91BF91AF91B2
:102C80009F918F917F916F915F914F913F912F9184
:102C90000F900FBE0F901F901895AF92BF92DF92CA
:102CA000EF92FF920F931F93CF93DF93EC017A0182
:102CB0008B01DD24403081EE580780E0680780E01A
:102CC000780711F0DD24D39491E0A92EB12CEC8982
:102CD000FD89DD2069F0C5010E8C02C0880F991FA7
:102CE0000A94E2F7808360E079E08DE390E005C02C
:102CF000108260E874E88EE190E0A80197010E94DC
:102D0000AA1C215030404040504056954795379579
:102D1000279580E12030380720F0DD2011F0DD24F8
:102D2000D6CFE889F9893083EA89FB892083EE8947
:102D3000FF89408121E030E0C9010A8C02C0880F80
:102D4000991F0A94E2F7482B4083EE89FF8940815E
:102D5000C9010B8C02C0880F991F0A94E2F7482B17
:102D60004083EE89FF894081C9010C8C02C0880F25
:102D7000991F0A94E2F7482B4083EE89FF898081EE
:102D80000D8C02C0220F331F0A94E2F720952823EE
:102D90002083DF91CF911F910F91FF90EF90DF90F3
:102DA000BF90AF900895DC011C96ED91FC911D97AA
:102DB000E05CFF4F2191319180819181281B390B7B
:102DC0002F733070C9010895DC011C96ED91FC91C0
:102DD0001D97E05CFF4F20813181E054F040DF011E
:102DE000AE5BBF4F8D919C9111972817390719F44D
:102DF0002FEF3FEF07C08D919C91E80FF91F808165
:102E0000282F30E0C9010895DC011C96ED91FC915A
:102E10001D97E05CFF4F20813181E054F040DF01DD
:102E2000AE5BBF4F8D919C9111972817390719F40C
:102E30002FEF3FEF10C08D919C911197E80FF91F74
:102E400020818D919C91119701968F7390701196AE
:102E50009C938E9330E0C9010895FC018685978587
:102E6000DC01A05CBF4FFC01EE5BFF4F2D913C915C
:102E700011978081918128173907C1F70895CF9361
:102E8000DF93EC01462FEE85FF85E05CFF4F8081EC
:102E90009181E054F040019660E470E00E94971C3C
:102EA0009C01DF01AE5BBF4F8D919C91119728175C
:102EB0003907D1F3E05CFF4F80819181E054F0400D
:102EC000E80FF91F4083EE85FF85E05CFF4F3183FB
:102ED0002083EE89FF89208181E090E00D8C02C083
:102EE000880F991F0A94E2F7282B208381E090E055
:102EF000DF91CF910895109255061092540688EEF6
:102F000093E0A0E0B0E08093560690935706A0931C
:102F10005806B093590688E095E090935306809345
:102F200052068AEC95E090935F0680935E068EE0F1
:102F300096E0909361068093600685EC90E0909314
:102F400063068093620684EC90E09093650680931C
:102F5000640680EC90E0909367068093660681ECAF
:102F600090E0909369068093680686EC90E09093D9
:102F70006B0680936A0684E080936C0683E08093FE
:102F80006D0687E080936E0685E080936F0681E092
:102F9000809370060895CF93DF930E94E5140E94FA
:102FA0009902C1EFD5E10E948C022097E1F30E94C3
:102FB000F115F9CFCF92DF92EF92FF920F931F930B
:102FC000CF93DF937C016B018A01C0E0D0E00FC09A
:102FD000D6016D916D01D701ED91FC910190F081C9
:102FE000E02DC7010995C80FD91F015010400115E8
:102FF000110571F7CE01DF91CF911F910F91FF90D5
:10300000EF90DF90CF900895EF92FF920F931F9370
:103010008C01DC01ED91FC910190F081E02D6DE0DF
:1030200009957C01D801ED91FC910190F081E02D92
:10303000C8016AE009959C012E0D3F1DC9011F9131
:103040000F91FF90EF900895CF93DF93DB010D90E8
:103050000020E9F71197A61BB70BEC01E881F98175
:103060000280F381E02DAD010995DF91CF910895A4
:103070004F925F927F928F929F92AF92BF92CF9228
:10308000DF92EF92FF920F931F93DF93CF93CDB711
:10309000DEB7A1970FB6F894DEBF0FBECDBF2C01EF
:1030A000742ECB01223008F42AE019A231E2C32E9B
:1030B000D12CCC0EDD1E822E9924AA24BB24672D90
:1030C000752FA50194010E94AA1C79018A01C801EB
:1030D000B701A50194010E94781C472D461B089456
:1030E000C108D1084A3014F4405D01C0495CF601C2
:1030F0004083E114F1040105110521F07E2C5F2DC0
:10310000C801DDCFC201B6010E942418A1960FB6F6
:10311000F894DEBF0FBECDBFCF91DF911F910F910D
:10312000FF90EF90DF90CF90BF90AF909F908F90E7
:103130007F905F904F900895DC012115310541F497
:10314000ED91FC910190F081E02D642F0995089597
:103150000E9438180895CF92DF92EF92FF920F935A
:103160001F93CF93DF93EC016A017B012115310599
:1031700041F4E881F9810190F081E02D642F0995F7
:103180001FC02A303105D1F477FF17C0E881F981DB
:103190000190F081E02D6DE209958C0144275527BF
:1031A000BA014C195D096E097F09CE012AE00E941F
:1031B00038189801280F391F04C02AE00E943818D7
:1031C0009C01C901DF91CF911F910F91FF90EF906A
:1031D000DF90CF900895EF92FF920F931F937C01A1
:1031E0000E94AB188C01C7010E9404189C01200F9B
:1031F000311FC9011F910F91FF90EF900895EF9239
:10320000FF920F931F937B019A010027F7FC009513
:10321000102FB801A7010E94AB181F910F91FF90CA
:10322000EF900895CF92DF92EF92FF920F931F934A
:103230006C017B019A010027F7FC0095102FB80163
:10324000A7010E94AB188C01C6010E940418080F48
:10325000191FC8011F910F91FF90EF90DF90CF9041
:1032600008950E94241808957F928F929F92AF92A2
:10327000BF92CF92DF92EF92FF920F931F93CF9363
:10328000DF934C017A018B01722ECB01BA0120E051
:1032900030E040E050E00E945D1A87FD03C0C0E0CE
:1032A000D0E00EC0D401ED91FC910190F081E02DB1
:1032B000C4016DE20995EC0117FB109517F9109503
:1032C00020E030E040E05FE3AA240BC0CA01B9016E
:1032D00020E030E040E251E40E94611A9B01AC0121
:1032E000A394A71498F3C801B7010E94F9195B01D0
:1032F0006C010E94CE1A7B018C01C401B801A701A8
:103300002AE030E00E949C18C80FD91F772039F0BE
:10331000C40161EF74E00E942418C80FD91FC801CE
:10332000B7010E94FA1A9B01AC01C601B5010E94C7
:10333000F81924C020E030E040E251E40E94B01BC4
:103340007B018C010E94C91A5B016C01CC24B7FC83
:10335000C094DC2CC401B601A5012AE030E00E9433
:10336000AB18C80FD91FC601B5010E94FC1A9B01FA
:10337000AC01C801B7010E94F8197A947720D1F600
:10338000CE01DF91CF911F910F91FF90EF90DF90D1
:10339000CF90BF90AF909F908F907F9008950E94A4
:1033A00034190895EF92FF920F931F937C010E94AE
:1033B00034198C01C7010E940418080F191FC80195
:1033C0001F910F91FF90EF900895EF92FF920F934E
:1033D0001F937C010E9424188C01C7010E940418CD
:1033E000080F191FC8011F910F91FF90EF900895CA
:1033F0005058BB27AA270ED075C166D130F06BD1CB
:1034000020F031F49F3F11F41EF45BC10EF4E095FF
:10341000E7FB51C1E92F77D180F3BA176207730731
:103420008407950718F071F49EF58FC10EF4E095AE
:103430000B2EBA2FA02D0B01B90190010C01CA016E
:10344000A0011124FF27591B99F0593F50F4503E19
:1034500068F11A16F040A22F232F342F4427585F0B
:10346000F3CF469537952795A795F0405395C9F723
:103470007EF41F16BA0B620B730B840BBAF09150DB
:10348000A1F0FF0FBB1F661F771F881FC2F70EC07A
:10349000BA0F621F731F841F48F48795779567954D
:1034A000B795F7959E3F08F0B3CF9395880F08F036
:1034B0009927EE0F979587950895D9D008F481E064
:1034C00008950CD00FC107D140F0FED030F021F4A8
:1034D0005F3F19F0F0C0511139C1F3C014D198F316
:1034E0009923C9F35523B1F3951B550BBB27AA2785
:1034F00062177307840738F09F5F5F4F220F331FF7
:10350000441FAA1FA9F333D00E2E3AF0E0E830D0C2
:1035100091505040E695001CCAF729D0FE2F27D0C5
:10352000660F771F881FBB1F261737074807AB0793
:10353000B0E809F0BB0B802DBF01FF2793585F4F08
:103540002AF09E3F510568F0B6C000C15F3FECF322
:10355000983EDCF3869577956795B795F7959F5FCD
:10356000C9F7880F911D9695879597F90895E1E021
:10357000660F771F881FBB1F621773078407BA0780
:1035800020F0621B730B840BBA0BEE1F88F7E095DB
:10359000089504D06894B111D9C00895BCD088F0C2
:1035A0009F5790F0B92F9927B751A0F0D1F0660F2F
:1035B000771F881F991F1AF0BA95C9F712C0B1304A
:1035C00081F0C3D0B1E00895C0C0672F782F88275D
:1035D000B85F39F0B93FCCF3869577956795B39589
:1035E000D9F73EF490958095709561957F4F8F4FF8
:1035F0009F4F0895E89409C097FB3EF490958095FD
:10360000709561957F4F8F4F9F4F9923A9F0F92FA8
:1036100096E9BB279395F695879577956795B79526
:10362000F111F8CFFAF4BB0F11F460FF1BC06F5F0C
:103630007F4F8F4F9F4F16C0882311F096E911C01E
:10364000772321F09EE8872F762F05C0662371F03F
:1036500096E8862F70E060E02AF09A95660F771F53
:10366000881FDAF7880F9695879597F90895990F2F
:103670000008550FAA0BE0E8FEEF16161706E8073C
:10368000F907C0F012161306E407F50798F0621B5D
:10369000730B840B950B39F40A2661F0232B242B32
:1036A000252B21F408950A2609F4A140A6958FEF51
:1036B000811D811D089597F99F6780E870E060E0A3
:1036C00008959FEF80EC089500240A9416161706BB
:1036D00018060906089500240A9412161306140603
:1036E00005060895092E0394000C11F4882352F066
:1036F000BB0F40F4BF2B11F460FF04C06F5F7F4F1E
:103700008F4F9F4F089557FD9058440F551F59F004
:103710005F3F71F04795880F97FB991F61F09F3FBE
:1037200079F087950895121613061406551FF2CFE7
:103730004695F1DF08C0161617061806991FF1CF37
:1037400086957105610508940895E894BB2766275E
:103750007727CB0197F908958ADF08F48FEF089552
:103760000BD0C0CFB1DF28F0B6DF18F0952309F0F9
:10377000A2CFA7CF1124EACFC6DFA0F3959FD1F344
:10378000950F50E0551F629FF001729FBB27F00D0F
:10379000B11D639FAA27F00DB11DAA1F649F662764
:1037A000B00DA11D661F829F2227B00DA11D621FB3
:1037B000739FB00DA11D621F839FA00D611D221F6D
:1037C000749F3327A00D611D231F849F600D211D51
:1037D000822F762F6A2F11249F5750408AF0E1F0F4
:1037E00088234AF0EE0FFF1FBB1F661F771F881F3D
:1037F00091505040A9F79E3F510570F05CCFA6CF85
:103800005F3FECF3983EDCF3869577956795B79527
:10381000F795E7959F5FC1F7FE2B880F911D969551
:10382000879597F9089511F40EF44BCF4AC073DFD2
:10383000D0F39923D9F3CEF39F57550B87FF51D07F
:1038400056959795B0E020F4660F771F881FBB1F31
:103850001F930F9300249001A0018001F001A0E8C4
:103860000E0F1F1F0A1E511D601B710B8009B50B27
:1038700048F4600F711F801DB51F0E1B1F0B0A0A35
:10388000510907C02E0F3F1F4A1F0E0F1F1F0A1E90
:10389000511D660F771F881FBB1FA695F795E795EB
:1038A000F8F60617170708065B07211D311D411D95
:1038B0000F911F91B901842F9158880F9695879584
:1038C00008959F3F49F0915028F486957795679524
:1038D000B7959F5F80389F4F880F9695879597F98A
:1038E000089591505040660F771F881FD2F70895B2
:1038F000629FD001739FF001829FE00DF11D649FD4
:10390000E00DF11D929FF00D839FF00D749FF00D5F
:10391000659FF00D9927729FB00DE11DF91F639F00
:10392000B00DE11DF91FBD01CF011124089597FBD2
:10393000092E07260AD077FD04D02ED006D000200D
:103940001AF4709561957F4F0895F6F790958195DB
:103950009F4F0895A1E21A2EAA1BBB1BFD010DC0AB
:10396000AA1FBB1FEE1FFF1FA217B307E407F5072F
:1039700020F0A21BB30BE40BF50B661F771F881F0B
:10398000991F1A9469F760957095809590959B01A1
:10399000AC01BD01CF010895AA1BBB1B51E107C0BB
:1039A000AA1FBB1FA617B70710F0A61BB70B881FCF
:1039B000991F5A95A9F780959095BC01CD0108955E
:1039C000EE0FFF1F0590F491E02D0994F894FFCFBE
:1039D0004D6F746F72697A6564205261696C00760C
:1039E000302E31002053696D706C65204D6F766507
:1039F0000020536D6172742053657175656E636547
:103A0000003E002042617369632053657175656EE5
:103A100063650020002053706565643A0020506F94
:103A2000736974696F6E3A00204650533A00204F14
:103A300075747075743A00204576656E743A00208E
:103A400052616E67653A00205374617274002D00F4
:103A50002044656C61793A00204672616D65733A65
:103A600000204D6F76653A004D6F746F72697A650C
:103A7000642043616D657261004E4F2041434345B0
:103A80004C45524154494F4E2C20544F20534C4FDB
:103A9000572121210043414E204E4F54204D454592
:103AA0005420444541444C494E452C20544F204617
:103AB000415354212121004E4F20414343454C4561
:103AC000524154494F4E2C20544F2053484F52548A
:103AD000212121006D6F7665546F74616C3A20006E
:103AE00073746570733A200053746172742073703C
:103AF0006565643A20002046756C6C2073706565BE
:103B0000643A200074696D6552616D703A200066F8
:103B1000756C6C53706565643A2000416363656C35
:103B200053686F756C643A20002A2A2A2A2A2A2AA6
:103B30002A2A2A2A2A2A2A2A2A2A2A2A2A2A2A2AE5
:103B40002A2A2A2A2A2A2A002F2F52616D70696E8A
:103B500067207570005374617274207374657020EF
:103B6000706572696F643A2000206D6963726F73CB
:103B700065636F6E64730064656C617920696E6360
:103B800072656D656E743A200053746570205469D7
:103B90006D653A20002054696D653A2000206D73F0
:103BA0000020416363656C65726174696F6E49736F
:103BB0003A20002073746570732F735E3200202DDD
:103BC0002D2D2D2D2D2D2D2D2D2D2D2D2D2D2D2D25
:103BD0002D2D2D2D2D2D2D2D2D2D2D2D2D002D2D42
:103BE000436F6E7374616E7420737065656400203A
:103BF00073746570733A20002073746570732F734B
:103C00000020436F6E7374616E742064656C61791B
:103C10002070657220737465703A20002064656CB2
:103C2000617920696E6372656D656E743A2000205B
:103C300030005C52616D70696E6720646F776E0052
:103C400020456E642073706565643A200020456EDF
:103C5000642064656C61793A2000207265766F6C2F
:103C60007574696F6E733A20002064697374616EB5
:103C700063653A20004162736F6C7574652050650E
:103C80007263656E74204D6F766500202A2A2A2A99
:103C90002A2A2A2A2A2A2A2A2A2A2A2A2A2A2A2A84
:103CA0002A2A2A2A2A2A2A2A2A2A00090970657217
:103CB00063656E743A20002D2D2D2D2D2D2D53541E
:103CC000415254494E472053494D504C45204D4F89
:103CD00056452C20706172616D65746572733A2D62
:103CE0002D2D2D2D2D2D00706172616D6574657205
:103CF000732E62617369634D6F766544656C61799B
:103D00003A2000706172616D65746572732E626134
:103D10007369634D6F76654672616D65733A200015
:103D2000706172616D65746572732E62617369632F
:103D30004D6F766552616E67653A2000696E7465F5
:103D40007276616C4C656E6768743A20006C696EBF
:103D50006553706565643A20002D2D2D2D2D2D2D78
:103D6000454E442053494D504C45204D4F56452C0F
:103D70002073756D6D6172793A2D2D2D2D2D2D2DA0
:103D80000074696D6553746172743A200074696DD2
:103D90006546696E6973683A200074696D654669A5
:103DA0006E697368202D2074696D65537461727437
:103DB0003A200045787472612064656C61793A201C
:103DC000002E0001000000004501DA17000040004D
:103DD00014005400000000003F17DA17D316041730
:043DE000E4162D17A1
:00000001FF
