:100000000C9464000C948C000C948C000C948C0068
:100010000C948C000C948C000C948C000C948C0030
:100020000C948C000C948C000C948C000C948C0020
:100030000C948C000C948C000C948C000C948C0010
:100040000C94FE040C948C000C945F060C94A60691
:100050000C948C000C948C000C948C000C948C00F0
:100060000C948C000C948C000000000024002700ED
:100070002A0000000000250028002B0000000000DE
:1000800023002600290004040404040404040202DA
:100090000202020203030303030301020408102007
:1000A0004080010204081020010204081020000012
:1000B0000007000201000003040600000000000029
:1000C00000007F024D04970711241FBECFEFD8E038
:1000D000DEBFCDBF12E0A0E0B1E0ECEBF2E102C088
:1000E00005900D92AC31B107D9F712E0ACE1B2E066
:1000F00001C01D92AD3FB107E1F710E0C8ECD0E0C0
:1001000004C02297FE010E945809C23CD107C9F7DA
:100110000E94E7070C945C090C9400000F931F9356
:100120008C01FC01868160E00E940A0681E090E07B
:100130000E949F05F801868161E00E940A0681E025
:1001400090E00E949F05F801868160E00E940A0607
:1001500084E690E00E949F051F910F910895CF9231
:10016000DF92EF92FF920F931F93CF93DF93D82EDE
:10017000C92E282F392FC9018C01C0E0D0E0E62E0E
:10018000FF24F801878161E00E94E405B7010C2E8D
:1001900002C0759567950A94E2F76170F80187814E
:1001A0000E940A0621960F5F1F4FC830D10549F7FC
:1001B0008D2D9C2D0E948E00DF91CF911F910F916C
:1001C000FF90EF90DF90CF900895CF92DF92EF9263
:1001D000FF920F931F93CF93DF93D82EC92E282F12
:1001E000392FC9018C01C0E0D0E0E62EFF24F801D0
:1001F000878161E00E94E405B7010C2E02C075956D
:1002000067950A94E2F76170F80187810E940A06F7
:1002100021960F5F1F4FC430D10549F78D2D9C2DBE
:100220000E948E00DF91CF911F910F91FF90EF9070
:10023000DF90CF9008951F93CF93DF93EC01162F9B
:100240008C81642F0E940A068D818F3F19F060E037
:100250000E940A068F8584FF05C0CE01612F0E948F
:10026000AF000EC0612F70E084E0759567958A95A8
:10027000E1F7CE010E94E500CE01612F0E94E5006A
:10028000DF91CF911F91089541E00E941B0181E011
:1002900090E0089540E00E941B010895FC016089F0
:1002A000862F8460808B6C60CF010E944A01089584
:1002B000DF93CF93CDB7DEB728970FB6F894DEBFA4
:1002C0000FBECDBF9C01FE013196A3E0B2E088E0F5
:1002D0000D9001928150E1F7F9018389481710F0E0
:1002E000482F4150E42FF0E0EE0FFF1FEC0FFD1FF1
:1002F0008181680F6068C9010E944A0128960FB683
:10030000F894DEBF0FBECDBFCF91DF91089561E0BD
:100310000E944A0180ED97E00E949F050895CF93C7
:10032000DF93EC01423018F08F8588608F874B8B0C
:100330001C8A222329F0413019F48F8584608F872D
:1003400080E593EC0E949F058C8160E00E940A0684
:100350008E8160E00E940A068D818F3F19F060E077
:100360000E940A066F8564FD1DC0CE0163E00E94F5
:10037000E50084E991E10E949F05CE0163E00E94BF
:10038000E50084E991E10E949F05CE0163E00E94AF
:10039000E50086E990E00E949F05CE0162E00E94A0
:1003A000E50016C06062CE010E944A0184E991E135
:1003B0000E949F056F856062CE010E944A0186E916
:1003C00090E00E949F056F856062CE010E944A0105
:1003D0006F856062CE010E944A0184E0888BCE0165
:1003E0000E944E01CE010E94870182E0898BCE01DE
:1003F00066E00E944A01DF91CF9108956F927F924B
:100400008F92AF92CF92EF920F931F93DF93CF9380
:10041000CDB7DEB73C01162F842FF301448325832B
:100420000683E782C086A18682869D8593879E8506
:1004300094879F8595879889968761E00E94E40557
:10044000F30185818F3F19F061E00E94E405F3011B
:10045000868161E00E94E405112319F0F3011786FB
:1004600003C080E1F3018787C30160E141E020E040
:100470000E948F01CF91DF911F910F91EF90CF904C
:10048000AF908F907F906F9008958F92AF92CF92A0
:10049000EF920F931F93CF93DF93DC01362F542FEE
:1004A000722F102FAE2C8C2C13961C921E9212972A
:1004B0008FEF91E011969C938E9300D000D0EDB712
:1004C000FEB73196CDB7DEB7198211821282138240
:1004D000CD0161E0432F2FEF052FE72EC12E0E94A3
:1004E000FE010F900F900F900F90DF91CF911F9111
:1004F0000F91EF90CF90AF908F90089508958CE179
:1005000092E00E94AB04089560ED77E080E090E017
:100510000E94460508950F931F93CF93DF93EC013C
:10052000162F072F862F972F0E948701812F902F3C
:1005300060E040E00E9458018881998185309105F2
:1005400009F4A6C086309105ACF48230910509F417
:100550005AC08330910534F4009739F1019709F0BE
:100560003FC13AC08330910509F464C0049709F093
:1005700037C177C08830910509F4C3C0893091052F
:1005800044F48630910509F49AC0079709F028C110
:10059000ADC08A30910509F4E2C08A3091050CF4AF
:1005A000C7C00B9709F01CC1F3C0812F902F60E0EA
:1005B00040E00E945801812F902F60E071E00E947E
:1005C000EB08812F902F60E041E00E945801812FBD
:1005D000902F6FE071E0D9C0812F902F60E040E054
:1005E0000E945801812F902F64E171E00E94EB0876
:1005F000812F902F60E041E00E945801812F902FC1
:1006000063E271E0C2C0812F902F60E040E00E9461
:100610005801812F902F63E271E00E94EB08812F37
:10062000902F60E041E00E945801812F902F65E3F8
:1006300071E0ABC0812F902F60E040E00E94580134
:10064000812F902F67E471E00E94EB08812F902F9B
:1006500060E041E00E945801812F902F66E571E033
:1006600094C0812F902F60E040E00E945801812FBC
:10067000902F67E671E00E94EB08812F902F60E0D9
:1006800041E00E945801812F902F63E771E07DC007
:10069000812F902F60E040E00E945801812F902F21
:1006A00063E771E00E94EB08812F902F60E041E04A
:1006B0000E945801812F902F63E871E066C0812F5E
:1006C000902F60E040E00E945801812F902F63E856
:1006D00071E00E94EB08812F902F60E041E00E94C2
:1006E0005801812F902F64E971E04FC0812F902F26
:1006F00060E040E00E945801812F902F64E971E092
:1007000038C0812F902F60E040E00E945801812F77
:10071000902F6BEA71E00E94EB08812F902F60E030
:1007200041E00E945801812F902F69EB71E02DC0AC
:10073000812F902F60E040E00E945801812F902F80
:1007400069EB71E00E94EB08812F902F60E041E09F
:100750000E945801812F902F69EC71E016C0812F03
:10076000902F60E040E00E945801812F902F69ECAB
:1007700071E00E94EB08812F902F60E041E00E9421
:100780005801812F902F62EA71E00E94EB0828C087
:10079000812F902F60E040E00E945801812F902F20
:1007A00067ED71E00E94EB086F857889812F902FAB
:1007B0004AE050E00E94D808812F902F60E041E08D
:1007C0000E945801812F902F60EE71E00E94EB088B
:1007D00069897A89812F902F4AE050E00E94D808D9
:1007E000DF91CF911F910F910895EF92FF920F9398
:1007F0001F938C01F62EE72E862F972F60E142E0A3
:1008000020E00E948F0188E061E00E94E40588E01A
:1008100061E00E940A068F2D9E2D0E9487018F2D78
:100820009E2D60E040E00E9458018F2D9E2D6AEEC3
:1008300071E00E94EB088F2D9E2D60E041E00E9448
:1008400058018F2D9E2D6FE071E00E94EB08F8019A
:1008500013821282158214821782168211861086E4
:1008600013861286158614861686118210821F91B1
:100870000F91FF90EF9008950F931F938C0181E1EA
:1008800060E00E94E40581E161E00E940A06F8014F
:10089000118210821F910F910895CF92EF920F93C2
:1008A000DF93CF93CDB7DEB765970FB6F894DEBF71
:1008B0000FBECDBF8DE192E00E943C0485E292E044
:1008C00062E043E024E005E056E0E52E37E0C32E89
:1008D0000E94450280912702909128029C838B837D
:1008E0008FEF91E09A838983809129028D83809193
:1008F0002A028E8380912B028F83DE011896ECE210
:10090000F2E088E001900D928150E1F7809134028D
:10091000888B80913502898B809136028A8B8091F9
:1009200037028B8B809138028C8B809139028D8BB2
:100930008AE392E0BE016F5F7F4F0E94F5036596E8
:100940000FB6F894DEBF0FBECDBFCF91DF910F91F0
:10095000EF90CF900895DF93CF93CDB7DEB7659733
:100960000FB6F894DEBF0FBECDBF85E292E060E126
:1009700042E020E00E948F0110923B0210923A0266
:1009800080912702909128029C838B838FEF91E0C6
:100990009A838983809129028D8380912A028E8394
:1009A00080912B028F83DE011896ECE2F2E088E062
:1009B00001900D928150E1F780913402888B8091F3
:1009C0003502898B809136028A8B809137028B8B1E
:1009D000809138028C8B809139028D8B8AE392E072
:1009E000BE016F5F7F4F0E948B0265960FB6F89431
:1009F000DEBF0FBECDBFCF91DF9108951F920F9242
:100A00000FB60F9211242F933F938F939F93AF9321
:100A1000BF938091510290915202A0915302B091E4
:100A20005402309155020196A11DB11D232F2D5F57
:100A30002D3720F02D570196A11DB11D2093550291
:100A40008093510290935202A0935302B0935402A8
:100A500080914D0290914E02A0914F02B0915002B0
:100A60000196A11DB11D80934D0290934E02A0935B
:100A70004F02B0935002BF91AF919F918F913F91E0
:100A80002F910F900FBE0F901F9018959B01AC01F6
:100A90007FB7F89480914D0290914E02A0914F0241
:100AA000B091500266B5A89B05C06F3F19F0019642
:100AB000A11DB11D7FBFBA2FA92F982F8827860FA0
:100AC000911DA11DB11D62E0880F991FAA1FBB1FB8
:100AD0006A95D1F7BC012DC0FFB7F89480914D0203
:100AE00090914E02A0914F02B0915002E6B5A89BA2
:100AF00005C0EF3F19F00196A11DB11DFFBFBA2F30
:100B0000A92F982F88278E0F911DA11DB11DE2E0FE
:100B1000880F991FAA1FBB1FEA95D1F7861B970B59
:100B2000885E9340C8F221503040404050406851A8
:100B30007C4F211531054105510571F60895019746
:100B400039F0880F991F880F991F02970197F1F7C5
:100B50000895789484B5826084BD84B5816084BD35
:100B600085B5826085BD85B5816085BDEEE6F0E026
:100B7000808181608083E1E8F0E010828081826082
:100B80008083808181608083E0E8F0E08081816003
:100B90008083E1EBF0E0808184608083E0EBF0E033
:100BA000808181608083EAE7F0E0808184608083D7
:100BB0008081826080838081816080838081806881
:100BC00080831092C1000895482F50E0CA018656D4
:100BD0009F4FFC0124914A575F4FFA01849188236B
:100BE000C1F0E82FF0E0EE0FFF1FE859FF4FA5918D
:100BF000B491662341F49FB7F8948C912095822399
:100C00008C939FBF08959FB7F8948C91822B8C93FF
:100C10009FBF0895482F50E0CA0182559F4FFC01A5
:100C20002491CA0186569F4FFC0194914A575F4F09
:100C3000FA013491332309F440C0222351F12330C7
:100C400071F0243028F42130A1F0223011F514C0C5
:100C50002630B1F02730C1F02430D9F404C080919F
:100C600080008F7703C0809180008F7D809380000B
:100C700010C084B58F7702C084B58F7D84BD09C054
:100C80008091B0008F7703C08091B0008F7D8093FA
:100C9000B000E32FF0E0EE0FFF1FEE58FF4FA591DD
:100CA000B4912FB7F894662321F48C919095892301
:100CB00002C08C91892B8C932FBF089508951F92A9
:100CC0000F920FB60F9211242F933F934F938F9350
:100CD0009F93EF93FF934091C6002091960230912D
:100CE00097022F5F3F4F2F73307080919802909141
:100CF00099022817390759F0E0919602F09197026E
:100D0000EA5AFD4F40833093970220939602FF9159
:100D1000EF919F918F914F913F912F910F900FBE27
:100D20000F901F901895E091EA02F091EB02E05CC1
:100D3000FF4F8191919120813181821B930B8F73A1
:100D40009070892B11F00E945E0608951F920F92F9
:100D50000FB60F9211242F933F934F935F936F938E
:100D60007F938F939F93AF93BF93EF93FF932091C4
:100D7000DA023091DB028091DC029091DD022817CB
:100D8000390731F48091C1008F7D8093C10016C076
:100D9000E091DC02F091DD02E656FD4F408180914A
:100DA000DC029091DD02019660E470E00E940D0982
:100DB0009093DD028093DC024093C600FF91EF9197
:100DC000BF91AF919F918F917F916F915F914F9163
:100DD0003F912F910F900FBE0F901F901895DC013F
:100DE0001C96ED91FC911D97E05CFF4F2191319194
:100DF00080819181281B390B2F733070C9010895B0
:100E0000DC011C96ED91FC911D97E05CFF4F208169
:100E10003181E054F040DF01AE5BBF4F8D919C917A
:100E200011972817390719F42FEF3FEF07C08D915D
:100E30009C91E80FF91F8081282F30E0C9010895A7
:100E4000DC011C96ED91FC911D97E05CFF4F208129
:100E50003181E054F040DF01AE5BBF4F8D919C913A
:100E600011972817390719F42FEF3FEF10C08D9114
:100E70009C911197E80FF91F20818D919C911197FA
:100E800001968F73907011969C938E9330E0C901F8
:100E90000895FC0186859785DC01A05CBF4FFC01AD
:100EA000EE5BFF4F2D913C91119780819181281726
:100EB0003907C1F70895CF93DF93EC01462FEE85F4
:100EC000FF85E05CFF4F80819181E054F040019606
:100ED00060E470E00E940D099C01DF01AE5BBF4F32
:100EE0008D919C91119728173907D1F3E05CFF4F42
:100EF00080819181E054F040E80FF91F4083EE8536
:100F0000FF85E05CFF4F31832083EE89FF892081DC
:100F100081E090E00D8C02C0880F991F0A94E2F7DF
:100F2000282B208381E090E0DF91CF9108951092EB
:100F3000E1021092E00288EE93E0A0E0B0E080933E
:100F4000E2029093E302A093E402B093E5028FE003
:100F500092E09093DF028093DE0286E592E0909328
:100F6000EB028093EA028AE992E09093ED0280938B
:100F7000EC0285EC90E09093EF028093EE0284EC1B
:100F800090E09093F1028093F00280EC90E09093D7
:100F9000F3028093F20281EC90E09093F50280934B
:100FA000F40286EC90E09093F7028093F60284E0DE
:100FB0008093F80283E08093F90287E08093FA023D
:100FC00085E08093FB0281E08093FC020895CF933B
:100FD000DF930E94A9050E947E02C3E9D6E00E9429
:100FE00084022097E1F30E949306F9CFCF92DF921B
:100FF000EF92FF920F931F93CF93DF937C016B01CE
:101000008A01C0E0D0E00FC0D6016D916D01D7011B
:10101000ED91FC910190F081E02DC7010995C80F79
:10102000D91F015010400115110571F7CE01DF9154
:10103000CF911F910F91FF90EF90DF90CF90089587
:10104000CF93DF93DB010D900020E9F71197A61BEA
:10105000B70BEC01E881F9810280F381E02DAD014D
:101060000995DF91CF9108954F925F927F928F9271
:101070009F92AF92BF92CF92DF92EF92FF920F9327
:101080001F93DF93CF93CDB7DEB7A1970FB6F89438
:10109000DEBF0FBECDBF2C01742ECB01223008F471
:1010A0002AE019A231E2C32ED12CCC0EDD1E822EF5
:1010B0009924AA24BB24672D752FA50194010E94B1
:1010C000200979018A01C801B701A50194010E9494
:1010D000EE08472D461B0894C108D1084A3014F485
:1010E000405D01C0495CF6014083E114F104010553
:1010F000110521F07E2C5F2DC801DDCFC201B601A4
:101100000E942008A1960FB6F894DEBF0FBECDBF97
:10111000CF91DF911F910F91FF90EF90DF90CF90D3
:10112000BF90AF909F908F907F905F904F90089569
:10113000CF92DF92EF92FF920F931F93CF93DF93A3
:10114000EC016A017B012115310541F4E881F98147
:101150000190F081E02D642F09951FC02A303105E0
:10116000D1F477FF17C0E881F9810190F081E02D7B
:101170006DE209958C0144275527BA014C195D0988
:101180006E097F09CE012AE00E9434089801280FD9
:10119000391F04C02AE00E9434089C01C901DF9174
:1011A000CF911F910F91FF90EF90DF90CF90089516
:1011B000EF92FF920F931F937B019A010027F7FC98
:1011C0000095102FB801A7010E9498081F910F9158
:1011D000FF90EF9008950E9420080895629FD0012B
:1011E000739FF001829FE00DF11D649FE00DF11DE2
:1011F000929FF00D839FF00D749FF00D659FF00D91
:101200009927729FB00DE11DF91F639FB00DE11D7D
:10121000F91FBD01CF011124089597FB092E072660
:101220000AD077FD04D02ED006D000201AF4709595
:1012300061957F4F0895F6F7909581959F4F08959A
:10124000A1E21A2EAA1BBB1BFD010DC0AA1FBB1FCA
:10125000EE1FFF1FA217B307E407F50720F0A21B3C
:10126000B30BE40BF50B661F771F881F991F1A94A9
:1012700069F760957095809590959B01AC01BD01D3
:10128000CF010895AA1BBB1B51E107C0AA1FBB1FBA
:10129000A617B70710F0A61BB70B881F991F5A9502
:1012A000A9F780959095BC01CD010895EE0FFF1F21
:0C12B0000590F491E02D0994F894FFCF14
:1012BC004D6F746F72697A6564205261696C007647
:1012CC00302E310020202053696D706C65204D6FDD
:1012DC00766500202020536D617274205365717502
:1012EC00656E63650020202042617369632053653D
:1012FC007175656E63650020436C69636B20746F58
:10130C00206D6F7665003C3C3C3C533A78783E3E11
:10131C003E3E503A7878002020204650533A787858
:10132C002023002020204F75747075743A787878DB
:10133C002073002020204576656E743A78787820EA
:10134C006D696E0020202052616E67653A787820B6
:10135C0025002020205374617274002020204465E5
:10136C006C61793A78782073002020204672616D88
:10137C0065733A7878782023002020204D6F7665AD
:10138C003A787820636D00427574746F6E3A200061
:10139C00507265737365643A20004D6F746F726997
:1013AC007A65642043616D65726100000000004441
:1013BC0001F6070000400014005400000000005B20
:0C13CC0007F607EF06200700074907009E
:00000001FF
