:100000000C9467000C948F000C948F000C948F005C
:100010000C948F000C948F000C948F000C948F0024
:100020000C948F000C948F000C948F000C948F0014
:100030000C948F000C948F000C948F000C948F0004
:100040000C9420160C948F000C94D7170C941E1847
:100050000C948F000C948F000C948F000C948F00E4
:100060000C948F000C948F000000000024002700E7
:100070002A0000000000250028002B0000000000DE
:1000800023002600290004040404040404040202DA
:100090000202020203030303030301020408102007
:1000A0004080010204081020010204081020000012
:1000B0000007000201000003040600000000000029
:1000C0000000700475055509731495196E05112407
:1000D0001FBECFEFD8E0DEBFCDBF15E0A0E0B1E09E
:1000E000E4E5F0E402C005900D92A630B107D9F71F
:1000F00016E0A6E0B5E001C01D92AC3EB107E1F705
:1001000010E0CCECD0E004C02297FE010E94E21F78
:10011000C23CD107C9F70E94E5190C941D200C942C
:100120000000CF93DF93BC018230910510F462E0B0
:1001300070E0A091EA06B091EB06ED01E0E0F0E09E
:1001400040E050E021C0888199818617970769F4C3
:100150008A819B81309719F09383828304C09093A6
:10016000EB068093EA06FE0134C06817790738F47D
:100170004115510519F08417950708F4AC01FE01EB
:100180008A819B819C01E9012097E9F6411551057F
:10019000A9F1CA01861B970B049708F4BA01E0E0A5
:1001A000F0E02AC08D919C91119784179507F9F47E
:1001B0006417750781F412968D919C91139730976F
:1001C00019F09383828304C09093EB068093EA0630
:1001D000FD0132964CC0CA01861B970BFD01E80F4A
:1001E000F91F6193719302978D939C9340C0FD0119
:1001F000828193819C01D9011097A1F68091E80634
:100200009091E906892B41F48091E1049091E204F8
:100210009093E9068093E8064091E3045091E4044A
:100220004115510541F44DB75EB78091DF049091BF
:10023000E004481B590B2091E8063091E906CA01F9
:10024000821B930B8617970780F0AB014E5F5F4FC1
:100250008417950750F0420F531F5093E9064093BF
:10026000E806F9016193719302C0E0E0F0E0CF018C
:10027000DF91CF910895CF93DF93009709F450C099
:10028000EC0122971B821A82A091EA06B091EB063C
:10029000109709F140E050E0AC17BD0708F1BB83AF
:1002A000AA83FE0121913191E20FF31FAE17BF0720
:1002B00079F48D919C911197280F391F2E5F3F4F34
:1002C0003983288312968D919C9113979B838A83FF
:1002D0004115510571F4D093EB06C093EA0620C096
:1002E00012968D919C911397AD01009711F0DC014E
:1002F000D3CFFA01D383C28321913191E20FF31F4F
:10030000CE17DF0769F488819981280F391F2E5F86
:100310003F4FFA01318320838A819B8193838283BB
:10032000DF91CF910895A0E0B0E0E9E9F1E00C940D
:10033000E81F6C01009729F4CB010E9491006C0129
:10034000C1C08EEF882E8FEF982E8C0C9D1C8601DD
:10035000060F171F0815190508F4B2C0F401A08193
:10036000B181A617B707B8F0A530B10508F4AAC047
:10037000CD0104978617970708F4A4C01297A61B0F
:10038000B70BF801A193B193D4016D937C93CF0186
:100390000E943B0197C07B01EA1AFB0AEEEFFFEFD8
:1003A000EE0EFF1E36016A0E7B1EC091EA06D0914A
:1003B000EB0644245524AA24BB244AC0C615D705FD
:1003C000E1F5488159814E155F05B8F1CA010497DE
:1003D0008E159F05B0F41296A40FB51FF401B183DA
:1003E000A0832A813B814114510431F0D20113963C
:1003F0003C932E93129766C03093EB062093EA0647
:1004000061C08A819B81F80193838283425050406E
:100410004E195F09518340834114510431F0D201D8
:1004200013961C930E93129704C01093EB0600933F
:10043000EA06F4017183608345C088819981A8161A
:10044000B90608F45C012E018A819B819C01E901B7
:10045000209709F0B3CF8091E8069091E9068615C0
:100460009705E9F4A616B706D0F42091E30430917D
:10047000E4042115310541F42DB73EB78091DF0426
:100480009091E004281B390B02171307C8F410934E
:10049000E9060093E806D4016D937C9313C0CB0169
:1004A0000E949100EC01009759F0F40140815181C4
:1004B000B6010E946802C6010E943B016E0102C0A3
:1004C000CC24DD24C601CDB7DEB7E0E10C940420D6
:1004D000FB01DC0102C001900D9241505040D8F761
:1004E0000895FB01DC0101900D920020E1F70895D1
:1004F0000F931F938C01FC01868160E00E9482179C
:1005000081E090E00E94F516F801868161E00E948A
:10051000821781E090E00E94F516F801868160E084
:100520000E94821784E690E00E94F5161F910F91B9
:100530000895CF92DF92EF92FF920F931F93CF9384
:10054000DF93D82EC92E282F392FC9018C01C0E086
:10055000D0E0E62EFF24F801878161E00E945C175D
:10056000B7010C2E02C0759567950A94E2F7617089
:10057000F80187810E94821721960F5F1F4FC830B4
:10058000D10549F78D2D9C2D0E947802DF91CF91E6
:100590001F910F91FF90EF90DF90CF900895CF9231
:1005A000DF92EF92FF920F931F93CF93DF93D82E9A
:1005B000C92E282F392FC9018C01C0E0D0E0E62ECA
:1005C000FF24F801878161E00E945C17B7010C2EBF
:1005D00002C0759567950A94E2F76170F80187810A
:1005E0000E94821721960F5F1F4FC430D10549F733
:1005F0008D2D9C2D0E947802DF91CF911F910F913C
:10060000FF90EF90DF90CF9008951F93CF93DF93EB
:10061000EC01162F8C81642F0E9482178D818F3FF1
:1006200019F060E00E9482178F8584FF05C0CE011B
:10063000612F0E9499020EC0612F70E084E07595D1
:1006400067958A95E1F7CE010E94CF02CE01612F16
:100650000E94CF02DF91CF911F91089541E00E9447
:10066000050381E090E0089540E00E9405030895AD
:10067000FC0160896D7F608B68600E94340308957F
:10068000FC016089862F8460808B6C60CF010E94A2
:1006900034030895DF93CF93CDB7DEB728970FB615
:1006A000F894DEBF0FBECDBF9C01FE013196AEEEC9
:1006B000B4E088E00D9001928150E1F7F90183895F
:1006C000481710F0482F4150E42FF0E0EE0FFF1FC5
:1006D000EC0FFD1F8181680F6068C9010E9434031F
:1006E00028960FB6F894DEBF0FBECDBFCF91DF9135
:1006F000089561E00E94340380ED97E00E94F516B2
:100700000895CF93DF93EC01423018F08F85886015
:100710008F874B8B1C8A222329F0413019F48F8557
:1007200084608F8780E593EC0E94F5168C8160E0F1
:100730000E9482178E8160E00E9482178D818F3F18
:1007400019F060E00E9482176F8564FD1DC0CE0124
:1007500063E00E94CF0284E991E10E94F516CE0188
:1007600063E00E94CF0284E991E10E94F516CE0178
:1007700063E00E94CF0286E990E00E94F516CE0168
:1007800062E00E94CF0216C06062CE010E94340374
:1007900084E991E10E94F5166F856062CE010E94A6
:1007A000340386E990E00E94F5166F856062CE0101
:1007B0000E9434036F856062CE010E94340384E09E
:1007C000888BCE010E944003CE010E94790382E013
:1007D000898BCE0166E00E943403DF91CF910895AA
:1007E0006F927F928F92AF92CF92EF920F931F935F
:1007F000DF93CF93CDB7DEB73C01162F842FF301E3
:10080000448325830683E782C086A18682869D85F0
:1008100093879E8594879F8595879889968761E0C1
:100820000E945C17F30185818F3F19F061E00E94FF
:100830005C17F301868161E00E945C17112319F0B7
:10084000F301178603C080E1F3018787C30160E1EC
:1008500041E020E00E948103CF91DF911F910F9131
:10086000EF90CF90AF908F907F906F9008958F9280
:10087000AF92CF92EF920F931F93CF93DF93DC0150
:10088000362F542F722F102FAE2C8C2C13961C92B7
:100890001E9212978AEE94E011969C938E9300D04C
:1008A00000D0EDB7FEB73196CDB7DEB71982118211
:1008B00012821382CD0161E0432F2FEF052FE72E27
:1008C000C12E0E94F0030F900F900F900F90DF91B8
:1008D000CF911F910F91EF90CF90AF908F9008958F
:1008E00086E095E00E94330E08950F931F9306E073
:1008F00015E0C8010E94BB09C8010E94C0091F91F0
:100900000F91089589EC96E040E052EC61E070E0D0
:100910000E94671808958130910509F083C06F5FC8
:100920007F4F09F0DAC08EE195E060E071E00E944F
:10093000BF1C85E295E060E071E00E94BF1C8CE284
:1009400095E060E071E00E94BF1C83E395E060E009
:1009500071E00E94BF1C8AE395E060E071E00E94B4
:10096000BF1C81E495E060E071E00E94BF1C88E458
:1009700095E060E071E00E94BF1C8FE495E060E0CC
:1009800071E00E94BF1C86E595E060E071E00E9486
:10099000BF1C8DE595E060E071E00E94BF1C84E61D
:1009A00095E060E071E00E94BF1C8BE695E060E09E
:1009B00071E00E94BF1C82E795E060E071E00E9458
:1009C000BF1C89E795E060E071E00E94BF1C80E8F1
:1009D00095E060E071E00E94BF1C87E895E060E070
:1009E00071E00E94BF1C8EE895E060E071E00E941B
:1009F000BF1C85E995E060E071E00E94BF1C8CE9B6
:100A000095E060E071E00E94BF1C83EA95E060E041
:100A100071E00E94BF1C8AEA95E060E071E00E94EC
:100A2000BF1C0895892B09F058C06F5F7F4F09F0F4
:100A300054C08AEA95E00E94F21C83EA95E00E9485
:100A4000F21C8CE995E00E94F21C85E995E00E9479
:100A5000F21C8EE895E00E94F21C87E895E00E9467
:100A6000F21C80E895E00E94F21C89E795E00E9464
:100A7000F21C82E795E00E94F21C8BE695E00E9452
:100A8000F21C84E695E00E94F21C8DE595E00E9440
:100A9000F21C86E595E00E94F21C8FE495E00E942E
:100AA000F21C88E495E00E94F21C81E495E00E942B
:100AB000F21C8AE395E00E94F21C83E395E00E9419
:100AC000F21C8CE295E00E94F21C85E295E00E9407
:100AD000F21C8EE195E00E94F21C089580E090E007
:100AE0006FEF7FEF0E948B04089581E090E06FEF3D
:100AF0007FEF0E948B040895EF92FF920F931F9354
:100B0000CF93DF93EC01162F072F862F972F0E948C
:100B10007903EAA0FBA085E0E816F10409F41DC101
:100B200086E0E816F104ECF482E0E816F10409F43A
:100B30007DC083E0E816F1044CF4E114F10481F186
:100B400081E0E816F10409F023C247C083E0E8160B
:100B5000F10409F492C084E0E816F10409F018C227
:100B6000C5C088E0E816F10409F47CC189E0E81604
:100B7000F1045CF486E0E816F10409F429C187E089
:100B8000E816F10409F004C24AC189E0E816F1044C
:100B900009F4A5C18AE0E816F10409F0F9C1D4C14D
:100BA000812F902F60E040E00E944A03812F902F18
:100BB00065E275E00E94121C812F902F60E041E0F9
:100BC0000E944A03812F902F6CE275E00E94121C54
:100BD0001DA21CA21FA21EA2DBC1812F902F60E0CC
:100BE00040E00E944A03812F902F6AE375E00E9443
:100BF000121C812F902F60E041E00E944A03812F58
:100C0000902F61E475E00E94121C812F902F60E00C
:100C100048A10E944A03812F902F61E071E00E9459
:100C20004B1BFFA2EEA282E090E056C1812F902FD5
:100C300060E040E00E944A03812F902F68E475E055
:100C40000E94121C812F902F60E041E00E944A0315
:100C5000812F902F63E071E00E944B1B812F902F1A
:100C600060E048A10E944A03812F902F61E071E06B
:100C70000E944B1B81E090E062C1812F902F60E0C9
:100C800040E00E944A03812F902F66E575E00E94A4
:100C9000121C4A815B816C817D81812F902F22E023
:100CA00030E00E94E91B812F902F60E041E00E941C
:100CB0004A03812F902F6DE575E00E94121C688118
:100CC0007981812F902F4AE050E00E94191B812FDB
:100CD000902F60E048A10E944A03812F902F61E08D
:100CE00071E00E944B1BFFA2EEA22BC1812F902F1F
:100CF00060E040E00E944A03812F902F6BE675E090
:100D00000E94121C6E817F81812F902F4AE050E05B
:100D10000E94191B812F902F60E041E00E944A033E
:100D2000812F902F62E775E00E94121C68857985FB
:100D3000812F902F4AE050E00E94191B812F902FA5
:100D400060E048A10E944A03812F902F61E071E08A
:100D50000E944B1BFFA2EEA238C0812F902F60E0B3
:100D600040E00E944A03812F902F69E775E00E94BE
:100D7000121C6A857B85812F902F4AE050E00E94EB
:100D8000191B812F902F60E041E00E944A03812FC0
:100D9000902F60E875E00E94121C6C857D85812F84
:100DA000902F4AE050E00E94191B812F902F60E0A5
:100DB00048A10E944A03812F902F61E071E00E94B8
:100DC0004B1B84E090E09FA38EA386E090E084C05C
:100DD000812F902F60E040E00E944A03812F902FE6
:100DE00067E875E00E94121C812F902F60E041E0BF
:100DF0000E944A03812F902F63E071E00E944B1BF9
:100E0000812F902F60E048A10E944A03812F902FEC
:100E100061E071E00E944B1B84E090E090C0812F64
:100E2000902F60E040E00E944A03812F902F63E002
:100E300071E00E944B1B812F902F60E041E00E94E7
:100E40004A03812F902F63E071E00E944B1B812F9A
:100E5000902F60E048A10E944A03812F902F65E007
:100E600071E094C0812F902F60E040E00E944A031F
:100E7000812F902F65E975E00E94121C6E857F8599
:100E8000812F902F4AE050E00E94191B812F902F54
:100E900060E041E00E944A03812F902F6CE975E0E9
:100EA0000E94121C488959896A897B89812F902F59
:100EB00022E030E00E94E91B812F902F60E048A1E2
:100EC0000E944A03812F902F61E071E00E944B1B2A
:100ED000FFA2EEA289E090E09DA38CA359C0812FD0
:100EE000902F60E040E00E944A03812F902F63EA38
:100EF00075E00E94121C4C895D896E897F89812F63
:100F0000902F22E030E00E94E91B812F902F60E0BB
:100F100041E00E944A03812F902F6AEA75E00E9407
:100F2000121C812F902F60E048A10E944A03812F5C
:100F3000902F61E071E00E944B1B88E090E09FA33E
:100F40008EA3FDA2ECA224C0812F902F60E040E090
:100F50000E944A03812F902F63E071E00E944B1B97
:100F6000812F902F60E041E00E944A03812F902F53
:100F700063E071E00E944B1B812F902F60E048A13D
:100F80000E944A03812F902F61E071E00E944B1B69
:100F9000DF91CF911F910F91FF90EF9008950F93E4
:100FA0001F930EE115E0C80167E071E00E94D91CB3
:100FB000C80107966DE071E00E94D91CC8010E9629
:100FC0006CE171E00E94D91CC801459661E271E0B4
:100FD0000E94D91CC8014C966BE271E00E94D91C9A
:100FE000C801839668E371E00E94D91CC8018A9603
:100FF00068E471E00E94D91CC801C19668E571E0FF
:101000000E94D91CC801C89664E671E00E94D91CF0
:10101000C801CF966CE671E00E94D91C84E695E089
:1010200067E771E00E94D91C8BE695E066E871E005
:101030000E94D91C82E795E06CE871E00E94D91CFF
:1010400089E795E065E971E00E94D91C80E895E0A8
:101050006DE971E00E94D91C05EA11E087E895E08E
:10106000B8010E94D91C8EE895E06CEA71E00E94FC
:10107000D91C85E995E06BEB71E00E94D91C8CE9E5
:1010800095E063EC71E00E94D91C83EA95E06CEC7A
:1010900071E00E94D91C8AEA95E0B8010E94D91C2F
:1010A0001F910F910895EF92FF920F931F938C0160
:1010B000F62EE72E862F972F60E142E020E00E9477
:1010C000810388E061E00E945C1788E061E00E9493
:1010D00082178F2D9E2D0E9479038F2D9E2D60E00B
:1010E00040E00E944A038F2D9E2D63ED71E00E9427
:1010F0004B1B8F2D9E2D60E041E00E944A038F2DF7
:101100009E2D6CE171E00E944B1BF8011182108250
:101110001782168280E090E0AAEFB5E48283938381
:10112000A483B583118610861386128615861486CD
:101130001786168680E090E0A6E1B4E4808B918B60
:10114000A28BB38B80E090E0A0E0B0E0848B958B25
:10115000A68BB78B108E13A212A2178E168E158E29
:101160001F910F91FF90EF90089583E06538780705
:101170009CF5CB018D5B9240873C910518F421E0F2
:1011800030E02CC0CB01895592408336910518F48C
:1011900022E030E023C0CB0181599140873C91058A
:1011A00018F423E030E01AC0CB018D529140833611
:1011B000910518F424E030E011C0CB018556904031
:1011C000873C910518F425E030E008C064367105CD
:1011D0001CF426E030E002C020E030E0C9010895B0
:1011E0000F931F93CF93DF93EC0181E10E943A1795
:1011F000BC01CE010E94B5088C010E9476169B01AD
:10120000AC0101151105D9F18C819D81AE81BF81A1
:1012100080579F42AC4FBF4F82179307A407B50773
:1012200074F561E070E080E090E00E949C1681E13E
:101230000E943A17BC01CE010E94B5080817190791
:10124000F1F461E070E080E090E00E949C1681E1A2
:101250000E943A17BC01CE010E94B5089C010817F4
:10126000190729F48A819B8101969B838A8339839C
:1012700028830E9476166C837D838E839F83DF9103
:10128000CF911F910F9108950F931F938C0181E1CE
:1012900060E00E945C1781E161E00E948217F80122
:1012A000118210821F910F910895CF92EF920F93A8
:1012B000DF93CF93CDB7DEB765970FB6F894DEBF57
:1012C0000FBECDBF81EB95E063E170E042E150E0FD
:1012D0000E942B148DEC95E00E94440985ED95E069
:1012E00062E043E024E005E056E0E52E37E0C32E5F
:1012F0000E9437048091D7059091D8059C838B83F9
:101300008AEE94E09A8389838091D9058D838091B8
:10131000DA058E838091DB058F83DE011896ECED74
:10132000F5E088E001900D928150E1F78091E405AD
:10133000888B8091E505898B8091E6058A8B809169
:10134000E7058B8B8091E8058C8B8091E9058D8B6F
:101350008AEE95E0BE016F5F7F4F0E94530865964D
:101360000FB6F894DEBF0FBECDBFCF91DF910F91C6
:10137000EF90CF9008958DEC95E00E94F0080895CD
:10138000DF93CF93CDB7DEB7C85AD0400FB6F894ED
:10139000DEBF0FBECDBF9C018091CD059091CE05E3
:1013A0008330910509F4B4C08430910544F4813050
:1013B000910509F472C1029709F04BC40CC0853045
:1013C000910509F4F2C3853091050CF449C20697E2
:1013D00009F03FC428C380910A0690910B0601973B
:1013E00009F443C081E090E090930B0680930A06D5
:1013F00080910806909109060196909309068093C2
:1014000008068091D7059091D8059C838B838AEE3E
:1014100094E09A8389838091D9058D838091DA0540
:101420008E838091DB058F83DE011896ECEDF5E06D
:1014300088E001900D928150E1F78091E405888B5E
:101440008091E505898B8091E6058A8B8091E7057F
:101450008B8B8091E8058C8B8091E9058D8B8AEED2
:1014600095E0BE016F5F7F4F11C120910C06309156
:101470000D0680910E0690910F06281739070CF083
:1014800007C110920B0610920A062F5F3F4F309350
:101490000D0620930C06809108069091090601968E
:1014A00090930906809308068091D7059091D805FE
:1014B000998F888F8AEE94E09F8B8E8B8091D905CF
:1014C0008A8F8091DA058B8F8091DB058C8FDE010E
:1014D0005D96ECEDF5E088E001900D928150E1F72A
:1014E0008091E4058DA38091E5058EA38091E605AA
:1014F0008FA38091E70588A78091E80589A780914F
:10150000E9058AA78AEE95E0BE016A5E7F4FBEC0FC
:1015100080910A0690910B06892B09F441C0109224
:101520000B0610920A068091080690910906019711
:1015300090930906809308068091D7059091D8056D
:101540009EA78DA78AEE94E09CA78BA78091D905D2
:101550008FA78091DA0588AB8091DB0589ABDE012E
:10156000D296ECEDF5E088E001900D928150E1F724
:101570008091E4058AAF8091E5058BAF8091E60507
:101580008CAF8091E7058DAF8091E8058EAF80919B
:10159000E9058FAF8AEE95E0BE01655D7F4F76C0AD
:1015A00020910C0630910D06809110069091110645
:1015B000821793070CF06CC081E090E090930B06CB
:1015C00080930A062150304030930D0620930C067C
:1015D00080910806909109060197909309068093DF
:1015E00008068091D7059091D805FE01EE5BFF4F6C
:1015F000918380838AEE94E0FE01E05CFF4F91834B
:1016000080838091D905FE01EC5BFF4F8083809140
:10161000DA05FE01EB5BFF4F80838091DB05FE0165
:10162000EA5BFF4F8083DE01A95BBF4FECEDF5E085
:1016300088E001900D928150E1F78091E405FE0170
:10164000E15BFF4F80838091E505FE01E05BFF4F8A
:1016500080838091E605FE01EF5AFF4F80838091E1
:10166000E705FE01EE5AFF4F80838091E805FE01F9
:10167000ED5AFF4F80838091E905FE01EC5AFF4F40
:1016800080838AEE95E0BE01605C7F4F0E947C05FE
:101690001092CE051092CD05DCC280910C0690917F
:1016A0000D068330910561F520910A0630910B06F5
:1016B00021153105B9F46091EC057091ED0580912B
:1016C000EE059091EF0520E030E04AEF53E40E94F0
:1016D000F81C6093EC057093ED058093EE059093F4
:1016E000EF0598C02130310509F076C08091EA05F8
:1016F0009091EB0505979093EB058093EA058AC0DE
:1017000084309105E9F480910A0690910B060097C8
:1017100051F48091F0059091F10501979093F105B6
:101720008093F00577C0019709F074C08091F205AD
:101730009091F30501979093F3058093F2056AC0A9
:1017400085309105E9F480910A0690910B06009787
:1017500051F48091F4059091F50501979093F5056A
:101760008093F40557C0019709F054C08091F605A5
:101770009091F70501979093F7058093F6054AC07D
:101780008830910549F580910A0690910B060097E3
:1017900051F48091F8059091F90501979093F9051E
:1017A0008093F80537C00197A9F56091FA0570910B
:1017B000FB058091FC059091FD0520E030E040E8BC
:1017C0005FE30E94F81C6093FA057093FB05809319
:1017D000FC059093FD051EC00997E1F480910A066F
:1017E00090910B06892BB1F46091FE057091FF0575
:1017F000809100069091010620E030E040E85FE330
:101800000E94F81C6093FE057093FF05809300060C
:10181000909301061092CE051092CD05FE01EB5A71
:10182000FF4F8091D7059091D805938382838AEEEC
:1018300094E0918380838091D90584838091DA0537
:1018400085838091DB0586833796ACEDB5E088E033
:101850000D9001928150E1F7FE01EB5AFF4FE2C17A
:1018600080910C0690910D068330910561F52091D1
:101870000A0630910B0621153105B9F46091EC058B
:101880007091ED058091EE059091EF0520E030E03C
:101890004AEF53E40E94F91C6093EC057093ED0548
:1018A0008093EE059093EF0598C02130310509F043
:1018B00076C08091EA059091EB0505969093EB0533
:1018C0008093EA058AC084309105E9F480910A0684
:1018D00090910B06009751F48091F0059091F105DD
:1018E00001969093F1058093F00577C0019709F078
:1018F00074C08091F2059091F30501969093F305E1
:101900008093F2056AC085309105E9F480910A065A
:1019100090910B06009751F48091F4059091F50594
:1019200001969093F5058093F40557C0019709F04F
:1019300054C08091F6059091F70501969093F705B4
:101940008093F6054AC08830910549F580910A06D2
:1019500090910B06009751F48091F8059091F9054C
:1019600001969093F9058093F80537C00197A9F582
:101970006091FA057091FB058091FC059091FD0541
:1019800020E030E040E85FE30E94F91C6093FA0534
:101990007093FB058093FC059093FD051EC009978D
:1019A000E1F480910A0690910B06892BB1F46091C5
:1019B000FE057091FF05809100069091010620E0E0
:1019C00030E040E85FE30E94F91C6093FE057093ED
:1019D000FF0580930006909301061092CE051092A9
:1019E000CD05FE01E659FF4F8091D7059091D805AE
:1019F000938382838AEE94E0918380838091D905DA
:101A000084838091DA0585838091DB058683379610
:101A1000ACEDB5E088E00D9001928150E1F7FE0158
:101A2000E659FF4FFFC080910C0690910D06823061
:101A3000910581F1833091052CF48130910509F0F5
:101A40008EC008C08330910509F46AC0099709F077
:101A500086C042C0909313068093120680910806B8
:101A600090910906909315068093140680910A06BA
:101A700090910B069093170680931606009721F01D
:101A8000019709F06CC003C083E090E01CC084E0C3
:101A900090E019C090931306809312068091080677
:101AA00090910906909315068093140680910A067A
:101AB00090910B069093170680931606892B09F0D8
:101AC0004EC088E090E090930D0680930C06109233
:101AD0000B0610920A0643C080910A0690910B06ED
:101AE0000197E9F58DB79EB748970FB6F8949EBF5A
:101AF0000FBE8DBFADB7BEB71196EAEEF5E088E137
:101B000001900D928150E1F7C9010E947C148DB7BC
:101B10009EB748960FB6F8949EBF0FBE8DBF1FC0EC
:101B200081EB95E064EF71E00E94A80E6091EC05F6
:101B30007091ED058091EE059091EF050E94C91D11
:101B40009B01AC0181EB95E0B9010E94A40E60916C
:101B5000EA057091EB0581EB95E00E94D513109298
:101B6000CE051092CD05FE01E158FF4F8091D705BB
:101B70009091D805938382838AEE94E09183808349
:101B80008091D90584838091DA0585838091DB0576
:101B900086833796ACEDB5E088E00D9001928150D8
:101BA000E1F7FE01E158FF4F3DC080911206909190
:101BB000130690930D0680930C0680911406909165
:101BC0001506909309068093080680911606909159
:101BD000170690930B0680930A061092CE0510927A
:101BE000CD05FE01EC56FF4F8091D7059091D805A9
:101BF000938382838AEE94E0918380838091D905D8
:101C000084838091DA0585838091DB05868337960E
:101C1000ACEDB5E088E00D9001928150E1F7FE0156
:101C2000EC56FF4F8091E40587878091E505808B16
:101C30008091E605818B8091E705828B8091E80594
:101C4000838B8091E905848B8AEE95E0BF010E9429
:101C50007C05C855DF4F0FB6F894DEBF0FBECDBF71
:101C6000CF91DF910895DF93CF93CDB7DEB765971E
:101C70000FB6F894DEBF0FBECDBF0E9417168DE0E1
:101C800061E00E945C178DE060E00E94821785EDA4
:101C900095E060E142E020E00E94810385ED95E05F
:101CA0000E94380381E090E090930D0680930C062B
:101CB00010920906109208068AEE95E00E94CF075E
:101CC0008091D7059091D8059C838B838AEE94E010
:101CD0009A8389838091D9058D838091DA058E83DB
:101CE0008091DB058F83DE011896ECEDF5E088E04E
:101CF00001900D928150E1F78091E405888B8091ED
:101D0000E505898B8091E6058A8B8091E7058B8BB1
:101D10008091E8058C8B8091E9058D8B8AEE95E0AA
:101D2000BE016F5F7F4F0E947C0565960FB6F894E9
:101D3000DEBF0FBECDBFCF91DF910895FC0140877C
:101D40005187628773870895FC01758764870895BA
:101D5000FC01738F628F08952F923F924F925F9292
:101D60006F927F928F929F92AF92BF92CF92DF92AB
:101D7000EF92FF920F931F93DF93CF93CDB7DEB710
:101D800068970FB6F894DEBF0FBECDBF9E8B8D8BCC
:101D90001A012B0189EC96E064EE71E00E944B1B66
:101DA000AD89BE891E964D915D916D917C91519743
:101DB00089EC96E022E030E00E94EC1BED89FE8980
:101DC0008781882329F1C201B101A20191010E94FA
:101DD000F91C2BED3FE049E450E40E94B01E2CE8D2
:101DE00039EB4BE45FE30E94B01E20E030E048ECAA
:101DF00055E40E94611D9B01AC01AD89BE891E9610
:101E00006D917D918D919C9151970E94F81C24C0F9
:101E1000C201B101A20191010E94F91C2BED3FE02A
:101E200049E450E40E94B01E2CE839EB4BE45FE338
:101E30000E94B01E20E030E048EC55E40E94611D95
:101E40009B01AC01AD89BE891E966D917D918D91EE
:101E50009C9151970E94F91CED89FE8966877787CE
:101E6000808B918B89EC96E06CEF71E00E944B1BAC
:101E7000AD89BE891E964D915D916D917C91519772
:101E800089EC96E022E030E00E94EC1B89EC96E0C1
:101E900062E172E00E94FF1BED89FE89E084F1841B
:101EA00002851385C801B70120E030E040E050E032
:101EB0000E945D1D882381F0C801B70125E83CE739
:101EC00040E55AE30E94611D0E94C91DAD89BE898B
:101ED0001D967C936E931C97C201B10120E030E007
:101EE00048EC53E40E94F81C69877A878B879C87AB
:101EF00020E030E64AEE55E40E94F81C7B018C019C
:101F0000C201B10120E030E040E050EC0E94B01E80
:101F10009B01AC01C801B7010E94F91C5B016C0177
:101F2000A60195010E94B01E7B018C01C201B10186
:101F300029853A854B855C850E94F81C20E030E0BD
:101F400040EA50E40E94B01E20E030E84BE356EC3B
:101F50000E94B01E9B01AC01C801B7010E94F91C90
:101F60000E94171F7B018C01A60195010E94F81C9D
:101F700020E030E84BEB55E40E94611D3B014C0131
:101F800020E030E040EA50E40E94AC1E18167CF4D9
:101F9000C601B5019058A80197010E94F81C20E0E5
:101FA00030E84BEB55E40E94611D3B014C01C4013C
:101FB000B30120E030E84BEB54E40E94B01E20E077
:101FC00030E048EC53E40E94F91C7B018C01C40111
:101FD000B30120E030E84BE355EC0E94B01E9B01BA
:101FE000AC01C801B7010E94F91CA40193010E9431
:101FF000611D69837A838B839C8360E074E284E74C
:1020000099E429813A814B815C810E94611D6D8335
:102010007E838F8398872BEA3AEA46E254E40E9453
:10202000F81C20E030E048E453E40E94611D6D8715
:102030007E878F87988BED89FE89818167810E94D9
:10204000821762E370E080E090E00E949C16C2017B
:10205000B10120E030E048EC53E40E945D1D88238C
:10206000ACF429863A864B865C8680E090E0A0E05E
:10207000B0E0898B9A8BAB8BBC8B8BEA9AEAA6E299
:10208000B4E48D839E83AF83B88708C080E090E07E
:10209000A8E4B3E4898B9A8BAB8BBC8BAD89BE89EA
:1020A0008C91882309F4B4C089EC96E061E372E076
:1020B0000E944B1B89EC96E040E050E060EA70E43F
:1020C00022E030E00E94EC1B89EC96E06DE372E0C8
:1020D0000E944B1B89EC96E0B201A10122E030E0A6
:1020E0000E94EC1B89EC96E065E472E00E944B1BB9
:1020F00089EC96E040E050E86BEB74E422E030E0DD
:102100000E94E91B89EC96E063E572E00E944B1B9C
:1021100089EC96E049815A816B817C8122E030E034
:102120000E94EC1B89EC96E061E672E00E944B1B7A
:1021300089EC96E0B401A30122E030E00E94EC1BA0
:1021400089EC96E06CE672E00E944B1B89EC96E00D
:1021500049815A816B817C8122E030E00E94EC1B36
:1021600089EC96E068E772E00E944B1B69817A81F6
:102170008B819C8120E030E84BEB54E40E94F81CFA
:10218000A40193010E94611DAB01BC0189EC96E0A2
:1021900022E030E00E94EC1B89EC96E062E172E004
:1021A0000E94FF1B89EC96E060E872E00E94FF1B32
:1021B00089EC96E06DE872E00E944B1B89EC96E09A
:1021C00049895A896B897C8922E030E00E94EC1BA6
:1021D00089EC96E066E972E00E944B1B89EC96E080
:1021E0004BEA5AEA66E274E422E030E00E94EC1B1B
:1021F00089EC96E06EEA72E00E944B1B89EC96E057
:102200004D855E856F85788922E030E00E94EC1B69
:102210000E9468161B012C010F2EFBEA6F2EFAEAB2
:102220007F2EF6E28F2EF4E49F2EF02DEAE9F2E005
:10223000F88FEF8B00E010E03EC0AD89BE891396A9
:102240008C9161E00E9482178F89988D0E94F5160B
:10225000ED89FE89838160E00E9482178F89988DC5
:102260000E94F516C401B3012D853E854F8558891E
:102270000E94F91C3B014C0120E030E040E050E0BE
:102280000E94AC1E88234CF0C401B30120E030E072
:1022900040E05FE30E94F91C08C0C401B30120E0E4
:1022A00030E040E05FE30E94F81C0E94C91D788F77
:1022B0006F8B0F5F1F4FB801882777FD8095982F90
:1022C0000E94FC1D29893A894B895C890E945D1D09
:1022D00087FDB3CF0E9468165B016C01A218B3089A
:1022E000C408D508AD89BE891C966D917C911D9757
:1022F000882777FD8095982F0E94FC1D20E030E80C
:102300004BEB54E40E94F81C20E030E04AE754E430
:102310000E94B01E7B018C01C601B5010E94FC1D0C
:102320009B01AC01C801B7010E94611D7B018C01BA
:1023300089EC96E061EC72E00E944B1B89EC96E020
:10234000B601A5012AE030E00E94C51A89EC96E0AA
:1023500069EC72E00E94FF1B89EC96E06DEC72E084
:102360000E944B1B89EC96E0A701B80122E030E007
:102370000E94E91B89EC96E06DED72E00E94FF1B64
:10238000ED89FE898081882309F458C089EC96E0A4
:1023900068EE72E00E94FF1B89EC96E068E073E053
:1023A0000E94FF1B89EC96E06DE872E00E944B1BD7
:1023B00089EC96E049855A856B857C8522E030E082
:1023C0000E94EC1B89EC96E063E572E00E944B1BD7
:1023D00089EC96E049815A816B817C8122E030E072
:1023E0000E94E91B89EC96E069E173E00E94FF1B03
:1023F00089EC96E062E273E00E944B1B89EC96E068
:10240000A301B40122E030E00E94E91B89EC96E0D0
:102410006DE373E00E94FF1B89EC96E06EEA72E0C8
:102420000E944B1B89EC96E06BE473E00E944B1B0F
:1024300089EC96E06DE373E00E94FF1B0E94681632
:102440001B012C01AA24BB24650120C0AD89BE89D3
:1024500013968C9161E00E9482176D817E818F813D
:1024600098850E94CE1D7B018C01CB010E94F51640
:10247000ED89FE89838160E00E948217C7010E9476
:10248000F5160894A11CB11CC11CD11CC601B501D4
:102490000E94FC1D29853A854B855C850E945D1D47
:1024A00087FDD4CF0E9468167B018C0189EC96E0F1
:1024B00061EC72E00E944B1BE218F3080409150955
:1024C00089EC96E0B801A7012AE030E00E94C51A25
:1024D00089EC96E069EC72E00E94FF1BAD89BE8931
:1024E0008C91882391F189EC96E068EE72E00E946D
:1024F000FF1B89EC96E06EE473E00E94FF1B89EC01
:1025000096E06DE872E00E944B1B89EC96E04989E9
:102510005A896B897C8922E030E00E94EC1B89ECAF
:1025200096E06CE573E00E944B1B89EC96E040E07E
:1025300050E86BEB74E422E030E00E94E91B89EC88
:1025400096E069E173E00E94FF1B0E9468165B0140
:102550006C0100E010E03EC0ED89FE89838161E0FE
:102560000E9482178F89988D0E94F516AD89BE89C9
:1025700013968C9160E00E9482178F89988D0E943B
:10258000F516C401B3012D853E854F8558890E94FB
:10259000F81C3B014C0120E030E040E050E00E949C
:1025A000AC1E88234CF0C401B30120E030E040E0D1
:1025B0005FE30E94F91C08C0C401B30120E030E0D1
:1025C00040E05FE30E94F81C0E94C91D788F6F8B6A
:1025D0000F5F1F4FB801882777FD8095982F0E94C5
:1025E000FC1D29893A894B895C890E945D1D87FD04
:1025F000B3CF0E9468167B018C01ED89FE89808132
:10260000882309F442C089EC96E069E673E00E94F1
:102610004B1B89EC96E0B401A30122E030E00E945C
:10262000EC1B89EC96E06DE373E00E94FF1B89ECE4
:1026300096E06EEA72E00E944B1B89EC96E04D85B5
:102640005E856F85788922E030E00E94E91B89EC85
:1026500096E06DE373E00E94FF1B89EC96E061EC6D
:1026600072E00E944B1BEA18FB080C091D0989EC5B
:1026700096E0B801A7012AE030E00E94C51A89EC73
:1026800096E069EC72E00E94FF1B68960FB6F89422
:10269000DEBF0FBECDBFCF91DF911F910F91FF9095
:1026A000EF90DF90CF90BF90AF909F908F907F90F2
:1026B0006F905F904F903F902F900895EF92FF9210
:1026C0000F931F93CF93DF93EC017A018B018881E5
:1026D000882371F089EC96E066E773E00E944B1B5B
:1026E00089EC96E0B801A70122E030E00E94EC1BE3
:1026F000C801B70120E030E048EC55E40E94B01E6C
:10270000AB01BC01CE010E94AC0EDF91CF911F91B5
:102710000F91FF90EF900895EF92FF920F931F9308
:10272000CF93DF93EC017A018B018881882371F0CC
:1027300089EC96E065E873E00E944B1B89EC96E01B
:10274000B801A70122E030E00E94EC1BC801B701EC
:1027500020E030E040E050E00E945D1D2D813E8190
:10276000882344F417FB109517F910952130310593
:1027700021F406C02130310519F481E08F8301C0B6
:102780001F82C801B7012DE431E040EA50E40E9405
:10279000611DAB01BC01CE010E945E13DF91CF91A0
:1027A0001F910F91FF90EF900895CF92DF92EF92DB
:1027B000FF920F931F93CF93DF93EC018B01CE8495
:1027C000DF84E888F98888818823F9F089EC96E02D
:1027D00068EE72E00E94FF1B89EC96E061E973E00D
:1027E0000E94FF1B89EC96E067EA73E00E94FF1BE2
:1027F00089EC96E067EC73E00E944B1B89EC96E055
:10280000B8014AE050E00E942C1B88E490E09C0153
:10281000029FC001039F900D129F900D112464E64A
:1028200070E00E94971F882777FD8095982F0E945F
:10283000FC1DA70196010E94F81CAB01BC01CE0152
:102840000E948C13DF91CF911F910F91FF90EF9019
:10285000DF90CF900895CF92DF92EF92FF920F9387
:102860001F938C01F62ED72EE42EC52E862F61E005
:102870000E945C178E2D61E00E945C17F801F182C6
:10288000D2828FEF9FEF96838583E382C48281E0BB
:10289000878320E030E040E050E0208731874287A6
:1028A0005387808380E090E0A0E9B2E4828B938B31
:1028B000A48BB58B1586148626873787408B518B62
:1028C0008DEC9CECACECBDE3868B978BA08FB18F2D
:1028D00088EC90E0938F828F1F910F91FF90EF9083
:1028E000DF90CF9008958CE196E063E170E042E1E3
:1028F00050E00E942B1408952F923F924F925F92C6
:102900006F927F928F929F92AF92BF92CF92DF92FF
:10291000EF92FF920F931F93DF93CF93CDB7DEB764
:102920004C01DC01FE01759688E101900D92815009
:10293000E1F7F4016489758986899789208931894D
:10294000428953890E94611D1B012C0120E030E067
:1029500040E251E40E94B01E7B018C01F4016685C7
:102960007785882777FD8095982F0E94FC1D9B0115
:10297000AC01C801B7010E94611D7B018C018CE193
:1029800096E0A701B8010E949E0E89EC96E063EDE7
:1029900073E00E94FF1B89EC96E063E074E00E9404
:1029A0004B1BF4016685778589EC96E04AE050E0A0
:1029B0000E942C1B89EC96E06FE174E00E944B1B97
:1029C000F401408951896289738989EC96E022E09B
:1029D00030E00E94EC1B89EC96E06CE374E00E940E
:1029E0004B1BF401448955896689778989EC96E007
:1029F00022E030E00E94EC1B89EC96E068E574E090
:102A00000E944B1B89EC96E0B201A10122E030E06C
:102A10000E94EC1B89EC96E069E674E00E944B1B77
:102A200089EC96E0A701B80122E030E00E94EC1B9F
:102A300080E161E00E94821764EF71E080E090E045
:102A40000E949C168FE061E00E94821764EF71E0A3
:102A500080E090E00E949C168FE060E00E94821768
:102A600080E160E00E948217EE24FF248701AA24FF
:102A7000BB246501662477245CC00E946816AC0103
:102A8000CB01DA017C018D018CE196E0B201A1015C
:102A90000E948C130E946816AC01CB01DA015C0124
:102AA0006D01F401868597859C0148EE53E0249FD3
:102AB000C001259F900D349F900D11249C01442747
:102AC00037FD4095542FD601C5018E199F09A00BE3
:102AD000B10B82179307A407B50764F42E0D3F1DB1
:102AE000401F511F2A193B094C095D09CA01B90150
:102AF0000E949C1680E161E00E94821764EF71E001
:102B000080E090E00E949C168FE061E00E948217B6
:102B100064EF71E080E090E00E949C168FE060E03E
:102B20000E94821780E160E00E9482170894611C75
:102B3000711CB301882777FD8095982F0E94FC1D9A
:102B4000F40120893189428953890E945D1D87FDE6
:102B500094CF89EC96E065E774E00E94FF1B89EC56
:102B600096E06DE974E00E944B1B89EC96E0B80199
:102B7000A7012AE030E00E94051B89EC96E069EA93
:102B800074E00E944B1B89EC96E0B601A5012AE097
:102B900030E00E94051B89EC96E066EB74E00E9431
:102BA0004B1BB601A5014E195F09600B710B89EC37
:102BB00096E02AE030E00E94051B89EC96E06FEC7D
:102BC00074E00E944B1BF4012685378588EE93E064
:102BD000AC01249FC001259F900D349F900D1124BE
:102BE000AA2797FDA095BA2FE80EF91E0A1F1B1FF2
:102BF000EA18FB080C091D0989EC96E0B801A70149
:102C00002AE030E00E94051BCF91DF911F910F91C8
:102C1000FF90EF90DF90CF90BF90AF909F908F90FC
:102C20007F906F905F904F903F902F9008958FE02E
:102C300061E00E945C1780E161E00E945C170895EA
:102C40001F920F920FB60F9211242F933F938F93E1
:102C50009F93AF93BF9380913C0690913D06A091C6
:102C60003E06B0913F06309140060196A11DB11D70
:102C7000232F2D5F2D3720F02D570196A11DB11D5B
:102C80002093400680933C0690933D06A0933E0619
:102C9000B0933F068091380690913906A0913A068C
:102CA000B0913B060196A11DB11D8093380690930B
:102CB0003906A0933A06B0933B06BF91AF919F911E
:102CC0008F913F912F910F900FBE0F901F901895ED
:102CD0008FB7F89420913C0630913D0640913E0616
:102CE00050913F068FBFB901CA0108959FB7F8946C
:102CF000209138063091390640913A0650913B06B2
:102D000086B5A89B06C08F3F21F02F5F3F4F4F4FE6
:102D10005F4F9FBF542F432F322F2227280F311D83
:102D2000411D511D82E0220F331F441F551F8A95FC
:102D3000D1F7B901CA0108959B01AC017FB7F8949E
:102D40008091380690913906A0913A06B0913B06E1
:102D500066B5A89B05C06F3F19F00196A11DB11D76
:102D60007FBFBA2FA92F982F8827860F911DA11DED
:102D7000B11D62E0880F991FAA1FBB1F6A95D1F78A
:102D8000BC012DC0FFB7F8948091380690913906A8
:102D9000A0913A06B0913B06E6B5A89B05C0EF3F6F
:102DA00019F00196A11DB11DFFBFBA2FA92F982FB1
:102DB00088278E0F911DA11DB11DE2E0880F991F7C
:102DC000AA1FBB1FEA95D1F7861B970B885E93401D
:102DD000C8F2215030404040504068517C4F21158E
:102DE00031054105510571F60895019739F0880FB5
:102DF000991F880F991F02970197F1F7089578940A
:102E000084B5826084BD84B5816084BD85B58260EF
:102E100085BD85B5816085BDEEE6F0E0808181608D
:102E20008083E1E8F0E0108280818260808380818D
:102E300081608083E0E8F0E0808181608083E1EB65
:102E4000F0E0808184608083E0EBF0E0808181604D
:102E50008083EAE7F0E08081846080838081826003
:102E600080838081816080838081806880831092EC
:102E7000C1000895982F8E3008F09E509770809171
:102E8000E5048295880F880F807C892B80937C00D5
:102E900080917A00806480937A0080917A0086FD28
:102EA000FCCF2091780040917900942F80E030E0B1
:102EB000282B392BC9010895482F50E0CA018656A6
:102EC0009F4FFC0124914A575F4FFA018491882358
:102ED000C1F0E82FF0E0EE0FFF1FE859FF4FA5917A
:102EE000B491662341F49FB7F8948C912095822386
:102EF0008C939FBF08959FB7F8948C91822B8C93ED
:102F00009FBF0895482F50E0CA0182559F4FFC0192
:102F10002491CA0186569F4FFC0194914A575F4FF6
:102F2000FA013491332309F440C0222351F12330B4
:102F300071F0243028F42130A1F0223011F514C0B2
:102F40002630B1F02730C1F02430D9F404C080918C
:102F500080008F7703C0809180008F7D80938000F8
:102F600010C084B58F7702C084B58F7D84BD09C041
:102F70008091B0008F7703C08091B0008F7D8093E7
:102F8000B000E32FF0E0EE0FFF1FEE58FF4FA591CA
:102F9000B4912FB7F894662321F48C9190958923EE
:102FA00002C08C91892B8C932FBF089508951F9296
:102FB0000F920FB60F9211242F933F934F938F933D
:102FC0009F93EF93FF934091C6002091810630912B
:102FD00082062F5F3F4F2F73307080918306909150
:102FE00084062817390759F0E0918106F09182068E
:102FF000EF5BF94F40833093820620938106FF9167
:10300000EF919F918F914F913F912F910F900FBE14
:103010000F901F901895E091D506F091D606E05CD0
:10302000FF4F8191919120813181821B930B8F738E
:103030009070892B11F00E94D61708951F920F925D
:103040000FB60F9211242F933F934F935F936F937B
:103050007F938F939F93AF93BF93EF93FF932091B1
:10306000C5063091C6068091C7069091C8062817FC
:10307000390731F48091C1008F7D8093C10016C063
:10308000E091C706F091C806EB57F94F4081809157
:10309000C7069091C806019660E470E00E94971FF1
:1030A0009093C8068093C7064093C600FF91EF91A6
:1030B000BF91AF919F918F917F916F915F914F9150
:1030C0003F912F910F900FBE0F901F901895AF92C8
:1030D000BF92DF92EF92FF920F931F93CF93DF93F4
:1030E000EC017A018B01DD24403081EE580780E04D
:1030F000680780E0780711F0DD24D39491E0A92ED1
:10310000B12CEC89FD89DD2069F0C5010E8C02C06F
:10311000880F991F0A94E2F7808360E079E08DE3DD
:1031200090E005C0108260E874E88EE190E0A801AC
:1031300097010E94AA1F21503040404050405695B0
:1031400047953795279580E12030380720F0DD201E
:1031500011F0DD24D6CFE889F9893083EA89FB892B
:103160002083EE89FF89408121E030E0C9010A8C8B
:1031700002C0880F991F0A94E2F7482B4083EE891A
:10318000FF894081C9010B8C02C0880F991F0A94E6
:10319000E2F7482B4083EE89FF894081C9010C8CFE
:1031A00002C0880F991F0A94E2F7482B4083EE89EA
:1031B000FF8980810D8C02C0220F331F0A94E2F731
:1031C000209528232083DF91CF911F910F91FF90AD
:1031D000EF90DF90BF90AF900895DC011C96ED91C9
:1031E000FC911D97E05CFF4F21913191808191818D
:1031F000281B390B2F733070C9010895DC011C9610
:10320000ED91FC911D97E05CFF4F20813181E054EE
:10321000F040DF01AE5BBF4F8D919C911197281755
:10322000390719F42FEF3FEF07C08D919C91E80FFC
:10323000F91F8081282F30E0C9010895DC011C9618
:10324000ED91FC911D97E05CFF4F20813181E054AE
:10325000F040DF01AE5BBF4F8D919C911197281715
:10326000390719F42FEF3FEF10C08D919C91119702
:10327000E80FF91F20818D919C91119701968F7312
:10328000907011969C938E9330E0C9010895FC01D3
:1032900086859785DC01A05CBF4FFC01EE5BFF4F8C
:1032A0002D913C9111978081918128173907C1F7A1
:1032B0000895CF93DF93EC01462FEE85FF85E05C08
:1032C000FF4F80819181E054F040019660E470E00E
:1032D0000E94971F9C01DF01AE5BBF4F8D919C91B7
:1032E000119728173907D1F3E05CFF4F8081918156
:1032F000E054F040E80FF91F4083EE85FF85E05C65
:10330000FF4F31832083EE89FF89208181E090E0A7
:103310000D8C02C0880F991F0A94E2F7282B208396
:1033200081E090E0DF91CF9108951092CC06109249
:10333000CB0688EE93E0A0E0B0E08093CD069093BA
:10334000CE06A093CF06B093D0068AEF94E0909378
:10335000CA068093C90681E496E09093D6068093CE
:10336000D50685E896E09093D8068093D70685EC3D
:1033700090E09093DA068093D90684EC90E09093E5
:10338000DC068093DB0680EC90E09093DE06809371
:10339000DD0681EC90E09093E0068093DF0686ECFA
:1033A00090E09093E2068093E10684E08093E30648
:1033B00083E08093E40687E08093E50685E08093D0
:1033C000E60681E08093E7060895CF93DF930E949D
:1033D000FF160E948204CBE0D8E10E94750420977A
:1033E000E1F30E940B18F9CFCF92DF92EF92FF9298
:1033F0000F931F93CF93DF937C016B018A01C0E091
:10340000D0E00FC0D6016D916D01D701ED91FC9117
:103410000190F081E02DC7010995C80FD91F015017
:1034200010400115110571F7CE01DF91CF911F9169
:103430000F91FF90EF90DF90CF900895EF92FF9261
:103440000F931F938C01DC01ED91FC910190F081B1
:10345000E02D6DE009957C01D801ED91FC91019082
:10346000F081E02DC8016AE009959C012E0D3F1DF9
:10347000C9011F910F91FF90EF900895CF93DF93B3
:10348000DB010D900020E9F71197A61BB70BEC01AB
:10349000E881F9810280F381E02DAD010995DF918A
:1034A000CF9108954F925F927F928F929F92AF92A9
:1034B000BF92CF92DF92EF92FF920F931F93DF9311
:1034C000CF93CDB7DEB7A1970FB6F894DEBF0FBE8E
:1034D000CDBF2C01742ECB01223008F42AE019A2B2
:1034E00031E2C32ED12CCC0EDD1E822E9924AA24CB
:1034F000BB24672D752FA50194010E94AA1F790195
:103500008A01C801B701A50194010E94781F472DC7
:10351000461B0894C108D1084A3014F4405D01C02C
:10352000495CF6014083E114F1040105110521F025
:103530007E2C5F2DC801DDCFC201B6010E943E1A6C
:10354000A1960FB6F894DEBF0FBECDBFCF91DF912D
:103550001F910F91FF90EF90DF90CF90BF90AF90B1
:103560009F908F907F905F904F900895DC01211580
:10357000310541F4ED91FC910190F081E02D642F33
:10358000099508950E94521A0895CF92DF92EF9202
:10359000FF920F931F93CF93DF93EC016A017B019E
:1035A0002115310541F4E881F9810190F081E02D88
:1035B000642F09951FC02A303105D1F477FF17C059
:1035C000E881F9810190F081E02D6DE209958C018F
:1035D00044275527BA014C195D096E097F09CE01B0
:1035E0002AE00E94521A9801280F391F04C02AE0CD
:1035F0000E94521A9C01C901DF91CF911F910F9136
:10360000FF90EF90DF90CF900895EF92FF920F938D
:103610001F937C010E94C51A8C01C7010E941E1ACB
:103620009C01200F311FC9011F910F91FF90EF9056
:103630000895EF92FF920F931F937B019A01002749
:10364000F7FC0095102FB801A7010E94C51A1F9121
:103650000F91FF90EF900895CF92DF92EF92FF923B
:103660000F931F936C017B019A010027F7FC0095D3
:10367000102FB801A7010E94C51A8C01C6010E9433
:103680001E1A080F191FC8011F910F91FF90EF908C
:10369000DF90CF9008950E943E1A08957F928F92F6
:1036A0009F92AF92BF92CF92DF92EF92FF920F93D1
:1036B0001F93CF93DF934C017A018B01722ECB01C4
:1036C000BA0120E030E040E050E00E945D1D87FD3F
:1036D00003C0C0E0D0E00EC0D401ED91FC91019098
:1036E000F081E02DC4016DE20995EC0117FB109506
:1036F00017F9109520E030E040E05FE3AA240BC00A
:10370000CA01B90120E030E040E251E40E94611DAD
:103710009B01AC01A394A71498F3C801B7010E94C0
:10372000F91C5B016C010E94CE1D7B018C01C40160
:10373000B801A7012AE030E00E94B61AC80FD91FCD
:10374000772039F0C4016DED74E00E943E1AC80F75
:10375000D91FC801B7010E94FA1D9B01AC01C60127
:10376000B5010E94F81C24C020E030E040E251E4A2
:103770000E94B01E7B018C010E94C91D5B016C017F
:10378000CC24B7FCC094DC2CC401B601A5012AE00E
:1037900030E00E94C51AC80FD91FC601B5010E94AA
:1037A000FC1D9B01AC01C801B7010E94F81C7A9472
:1037B0007720D1F6CE01DF91CF911F910F91FF902D
:1037C000EF90DF90CF90BF90AF909F908F907F90C1
:1037D00008950E944E1B0895EF92FF920F931F933E
:1037E0007C010E944E1B8C01C7010E941E1A080F0B
:1037F000191FC8011F910F91FF90EF900895EF924C
:10380000FF920F931F937C010E943E1A8C01C70107
:103810000E941E1A080F191FC8011F910F91FF90D7
:10382000EF900895AF92BF92CF92DF92EF92FF9206
:103830000F931F93CF93DF935C016B01EE24FF2462
:10384000C0E0D0E010C0D501ED91FC910081118164
:10385000C601BE010E94451C682FC501F8010995EB
:10386000E80EF91E2196F60184819581C817D907C3
:1038700050F3C701DF91CF911F910F91FF90EF900F
:10388000DF90CF90BF90AF900895FC018481958127
:103890006817790748F40190F081E02D309721F006
:1038A000E60FF71F8081089580E008950F931F931E
:1038B000CF93DF93EC018B016F5F7F4F88819981FC
:1038C0000E949301009711F480E005C099838883DA
:1038D0001B830A8381E0DF91CF911F910F9108959F
:1038E000CF93DF93EC0188819981892B29F08A811C
:1038F0009B818617970760F4CE010E94561C88238F
:1039000041F08C819D81892B19F4E881F981108225
:1039100081E0DF91CF910895CF93DF93EC0188810F
:103920009981009711F00E943B01198218821D8233
:103930001C821B821A82DF91CF910895EF92FF9231
:103940000F931F93CF93DF93EC017B018A01BA01A0
:103950000E94701C882321F4CE010E948C1C07C099
:103960001D830C8388819981B7010E947102CE0169
:10397000DF91CF911F910F91FF90EF900895CF931A
:10398000DF93EC01198218821B821A821D821C822D
:103990001E826115710551F0DB010D900020E9F7E1
:1039A0001197A61BB70BAD010E949E1CDF91CF9112
:1039B00008950F931F93182F092F6115710559F062
:1039C000DB010D900020E9F71197A61BB70BAD01A5
:1039D0000E949E1C02C00E948C1C812F902F1F9160
:1039E0000F910895FC01808191810E943B0108950F
:1039F0005058BB27AA270ED075C166D130F06BD1C5
:103A000020F031F49F3F11F41EF45BC10EF4E095F9
:103A1000E7FB51C1E92F77D180F3BA17620773072B
:103A20008407950718F071F49EF58FC10EF4E095A8
:103A30000B2EBA2FA02D0B01B90190010C01CA0168
:103A4000A0011124FF27591B99F0593F50F4503E13
:103A500068F11A16F040A22F232F342F4427585F05
:103A6000F3CF469537952795A795F0405395C9F71D
:103A70007EF41F16BA0B620B730B840BBAF09150D5
:103A8000A1F0FF0FBB1F661F771F881FC2F70EC074
:103A9000BA0F621F731F841F48F487957795679547
:103AA000B795F7959E3F08F0B3CF9395880F08F030
:103AB0009927EE0F979587950895D9D008F481E05E
:103AC00008950CD00FC107D140F0FED030F021F4A2
:103AD0005F3F19F0F0C0511139C1F3C014D198F310
:103AE0009923C9F35523B1F3951B550BBB27AA277F
:103AF00062177307840738F09F5F5F4F220F331FF1
:103B0000441FAA1FA9F333D00E2E3AF0E0E830D0BC
:103B100091505040E695001CCAF729D0FE2F27D0BF
:103B2000660F771F881FBB1F261737074807AB078D
:103B3000B0E809F0BB0B802DBF01FF2793585F4F02
:103B40002AF09E3F510568F0B6C000C15F3FECF31C
:103B5000983EDCF3869577956795B795F7959F5FC7
:103B6000C9F7880F911D9695879597F90895E1E01B
:103B7000660F771F881FBB1F621773078407BA077A
:103B800020F0621B730B840BBA0BEE1F88F7E095D5
:103B9000089504D06894B111D9C00895BCD088F0BC
:103BA0009F5790F0B92F9927B751A0F0D1F0660F29
:103BB000771F881F991F1AF0BA95C9F712C0B13044
:103BC00081F0C3D0B1E00895C0C0672F782F882757
:103BD000B85F39F0B93FCCF3869577956795B39583
:103BE000D9F73EF490958095709561957F4F8F4FF2
:103BF0009F4F0895E89409C097FB3EF490958095F7
:103C0000709561957F4F8F4F9F4F9923A9F0F92FA2
:103C100096E9BB279395F695879577956795B79520
:103C2000F111F8CFFAF4BB0F11F460FF1BC06F5F06
:103C30007F4F8F4F9F4F16C0882311F096E911C018
:103C4000772321F09EE8872F762F05C0662371F039
:103C500096E8862F70E060E02AF09A95660F771F4D
:103C6000881FDAF7880F9695879597F90895990F29
:103C70000008550FAA0BE0E8FEEF16161706E80736
:103C8000F907C0F012161306E407F50798F0621B57
:103C9000730B840B950B39F40A2661F0232B242B2C
:103CA000252B21F408950A2609F4A140A6958FEF4B
:103CB000811D811D089597F99F6780E870E060E09D
:103CC00008959FEF80EC089500240A9416161706B5
:103CD00018060906089500240A94121613061406FD
:103CE00005060895092E0394000C11F4882352F060
:103CF000BB0F40F4BF2B11F460FF04C06F5F7F4F18
:103D00008F4F9F4F089557FD9058440F551F59F0FE
:103D10005F3F71F04795880F97FB991F61F09F3FB8
:103D200079F087950895121613061406551FF2CFE1
:103D30004695F1DF08C0161617061806991FF1CF31
:103D400086957105610508940895E894BB27662758
:103D50007727CB0197F908958ADF08F48FEF08954C
:103D60000BD0C0CFB1DF28F0B6DF18F0952309F0F3
:103D7000A2CFA7CF1124EACFC6DFA0F3959FD1F33E
:103D8000950F50E0551F629FF001729FBB27F00D09
:103D9000B11D639FAA27F00DB11DAA1F649F66275E
:103DA000B00DA11D661F829F2227B00DA11D621FAD
:103DB000739FB00DA11D621F839FA00D611D221F67
:103DC000749F3327A00D611D231F849F600D211D4B
:103DD000822F762F6A2F11249F5750408AF0E1F0EE
:103DE00088234AF0EE0FFF1FBB1F661F771F881F37
:103DF00091505040A9F79E3F510570F05CCFA6CF7F
:103E00005F3FECF3983EDCF3869577956795B79521
:103E1000F795E7959F5FC1F7FE2B880F911D96954B
:103E2000879597F9089511F40EF44BCF4AC073DFCC
:103E3000D0F39923D9F3CEF39F57550B87FF51D079
:103E400056959795B0E020F4660F771F881FBB1F2B
:103E50001F930F9300249001A0018001F001A0E8BE
:103E60000E0F1F1F0A1E511D601B710B8009B50B21
:103E700048F4600F711F801DB51F0E1B1F0B0A0A2F
:103E8000510907C02E0F3F1F4A1F0E0F1F1F0A1E8A
:103E9000511D660F771F881FBB1FA695F795E795E5
:103EA000F8F60617170708065B07211D311D411D8F
:103EB0000F911F91B901842F9158880F969587957E
:103EC00008959F3F49F0915028F48695779567951E
:103ED000B7959F5F80389F4F880F9695879597F984
:103EE000089591505040660F771F881FD2F70895AC
:103EF000629FD001739FF001829FE00DF11D649FCE
:103F0000E00DF11D929FF00D839FF00D749FF00D59
:103F1000659FF00D9927729FB00DE11DF91F639FFA
:103F2000B00DE11DF91FBD01CF011124089597FBCC
:103F3000092E07260AD077FD04D02ED006D0002007
:103F40001AF4709561957F4F0895F6F790958195D5
:103F50009F4F0895A1E21A2EAA1BBB1BFD010DC0A5
:103F6000AA1FBB1FEE1FFF1FA217B307E407F50729
:103F700020F0A21BB30BE40BF50B661F771F881F05
:103F8000991F1A9469F760957095809590959B019B
:103F9000AC01BD01CF010895AA1BBB1B51E107C0B5
:103FA000AA1FBB1FA617B70710F0A61BB70B881FC9
:103FB000991F5A95A9F780959095BC01CD01089558
:103FC000EE0FFF1F0590F491E02D09942F923F9280
:103FD0004F925F926F927F928F929F92AF92BF9219
:103FE000CF92DF92EF92FF920F931F93CF93DF93C5
:103FF000CDB7DEB7CA1BDB0B0FB6F894DEBF0FBE22
:10400000CDBF09942A88398848885F846E847D846E
:104010008C849B84AA84B984C884DF80EE80FD8070
:104020000C811B81AA81B981CE0FD11D0FB6F894E6
:10403000DEBF0FBECDBFED01089510E0CCECD0E0A7
:1040400004C0FE010E94E21F2296CE3CD107C9F7B0
:04405000F894FFCF12
:10405400003E0020002D00496E74726F004D6F7495
:104064006F72697A6564205261696C0076302E3112
:10407400004D61696E204D656E75002053696D7049
:104084006C65204D6F76650020536D61727420530A
:10409400657175656E6365002042617369632053C1
:1040A400657175656E63650053696D706C65204D4F
:1040B4006F7665002053706565643A0020506F7315
:1040C4006974696F6E3A00536D617274205365713F
:1040D40075656E636500204650533A00204F757431
:1040E4007075743A00204576656E743A002052610A
:1040F4006E67653A0020537461727400426173699B
:10410400632053657175656E6365002044656C6159
:10411400793A00204672616D65733A00204D6F76DE
:10412400653A004D6F746F72697A65642043616DFE
:104134006572610073746172745F63757272656E27
:10414400744C6F636174696F6E3A2000656E645FCE
:1041540063757272656E744C6F636174696F6E3AE5
:1041640020002A2A2A2A2A2A2A2A2A2A2A2A2A2ADF
:104174002A2A2A2A2A2A2A2A2A2A2A2A2A2A2A2A9B
:10418400006D6F7665546F74616C3A2000737465CA
:1041940070733A200053746172742073706565649F
:1041A4003A20002046756C6C2073706565643A2073
:1041B4000074696D6552616D703A200066756C6CAF
:1041C40053706565643A2000416363656C3A20006E
:1041D4002F2F52616D70696E6720757000207374A3
:1041E4006570733A20002073746172742064656C86
:1041F40061792070657220737465703A20002064C0
:10420400656C617920696E6372656D656E743A20C0
:10421400002054696D653A2000206D7300204163CD
:1042240063656C65726174696F6E3A200020737403
:104234006570732F735E3200202D2D2D2D2D2D2DA5
:104244002D2D2D2D2D2D2D2D2D2D2D2D2D2D2D2D9A
:104254002D2D2D2D2D2D2D002D2D436F6E7374615D
:104264006E74207370656564002073746570732FB9
:10427400730020436F6E7374616E742064656C61A7
:10428400792070657220737465703A2000206D691E
:1042940063726F7365636F6E6473002030005C52E9
:1042A400616D70696E6720646F776E0020456E647F
:1042B4002073706565643A200020456E642064654F
:1042C4006C61793A2000207265766F6C7574696F41
:1042D4006E733A20002064697374616E63653A20DA
:1042E400004162736F6C7574652050657263656E0E
:1042F40074204D6F766500202A2A2A2A2A2A2A2A1F
:104304002A2A2A2A2A2A2A2A2A2A2A2A2A2A2A2A09
:104314002A2A2A2A2A2A00090970657263656E749A
:104324003A20002D2D2D2D2D2D2D5354415254491D
:104334004E472053494D504C45204D4F56452C2057
:10434400706172616D65746572733A2D2D2D2D2D1A
:104354002D2D00706172616D65746572732E6261DA
:104364007369634D6F766544656C61793A200070BA
:104374006172616D65746572732E62617369634DF8
:104384006F76654672616D65733A20007061726183
:104394006D65746572732E62617369634D6F7665C2
:1043A40052616E67653A2000696E74657276616C5D
:1043B4004C656E6768743A20006C696E655370656D
:1043C40065643A20002D2D2D2D2D2D2D454E442094
:1043D40053494D504C45204D4F56452C2073756D17
:1043E4006D6172793A2D2D2D2D2D2D2D0074696D51
:1043F4006553746172743A200074696D6546696E20
:104404006973683A200074696D6546696E697368FA
:10441400202D2074696D6553746172743A200045CF
:10442400787472612064656C61793A20002E0020F2
:1044340000EC06000001000000002E03F419000047
:10444400400014005400000000005919F419ED183C
:064454001E19FE184719B5
:00000001FF
