:100000000C9464000C948C000C948C000C948C0068
:100010000C948C000C948C000C948C000C948C0030
:100020000C948C000C948C000C948C000C948C0020
:100030000C948C000C948C000C948C000C948C0010
:100040000C94F9130C948C000C94B0150C94F715C7
:100050000C948C000C948C000C948C000C948C00F0
:100060000C948C000C948C000000000024002700ED
:100070002A0000000000250028002B0000000000DE
:1000800023002600290004040404040404040202DA
:100090000202020203030303030301020408102007
:1000A0004080010204081020010204081020000012
:1000B0000007000201000003040600000000000029
:1000C00000008602E5076E1711241FBECFEFD8E0AF
:1000D000DEBFCDBF14E0A0E0B1E0EEE8F9E302C07E
:1000E00005900D92A833B107D9F715E0A8E3B4E065
:1000F00001C01D92AB37B107E1F710E0C8ECD0E0CA
:1001000004C02297FE010E94C11CC23CD107C9F75E
:100110000E94BE170C94C51C0C9400000F931F93F3
:100120008C01FC01868160E00E945B1581E090E01B
:100130000E94CE14F801868161E00E945B1581E087
:1001400090E00E94CE14F801868160E00E945B1569
:1001500084E690E00E94CE141F910F910895CF92F3
:10016000DF92EF92FF920F931F93CF93DF93D82EDE
:10017000C92E282F392FC9018C01C0E0D0E0E62E0E
:10018000FF24F801878161E00E943515B7010C2E2C
:1001900002C0759567950A94E2F76170F80187814E
:1001A0000E945B1521960F5F1F4FC830D10549F79C
:1001B0008D2D9C2D0E948E00DF91CF911F910F916C
:1001C000FF90EF90DF90CF900895CF92DF92EF9263
:1001D000FF920F931F93CF93DF93D82EC92E282F12
:1001E000392FC9018C01C0E0D0E0E62EFF24F801D0
:1001F000878161E00E943515B7010C2E02C075950C
:1002000067950A94E2F76170F80187810E945B1597
:1002100021960F5F1F4FC430D10549F78D2D9C2DBE
:100220000E948E00DF91CF911F910F91FF90EF9070
:10023000DF90CF9008951F93CF93DF93EC01162F9B
:100240008C81642F0E945B158D818F3F19F060E0D7
:100250000E945B158F8584FF05C0CE01612F0E942F
:10026000AF000EC0612F70E084E0759567958A95A8
:10027000E1F7CE010E94E500CE01612F0E94E5006A
:10028000DF91CF911F91089541E00E941B0181E011
:1002900090E0089540E00E941B010895FC016089F0
:1002A0006D7F608B68600E944A010895FC0160893F
:1002B000862F8460808B6C60CF010E944A01089574
:1002C000DF93CF93CDB7DEB728970FB6F894DEBF94
:1002D0000FBECDBF9C01FE013196A0E2B4E088E0E4
:1002E0000D9001928150E1F7F9018389481710F0D0
:1002F000482F4150E42FF0E0EE0FFF1FEC0FFD1FE1
:100300008181680F6068C9010E944A0128960FB672
:10031000F894DEBF0FBECDBFCF91DF91089561E0AD
:100320000E944A0180ED97E00E94CE140895CF9379
:10033000DF93EC01423018F08F8588608F874B8BFC
:100340001C8A222329F0413019F48F8584608F871D
:1003500080E593EC0E94CE148C8160E00E945B15D6
:100360008E8160E00E945B158D818F3F19F060E007
:100370000E945B156F8564FD1DC0CE0163E00E9485
:10038000E50084E991E10E94CE14CE0163E00E9471
:10039000E50084E991E10E94CE14CE0163E00E9461
:1003A000E50086E990E00E94CE14CE0162E00E9452
:1003B000E50016C06062CE010E944A0184E991E125
:1003C0000E94CE146F856062CE010E944A0186E9C8
:1003D00090E00E94CE146F856062CE010E944A01B7
:1003E0006F856062CE010E944A0184E0888BCE0155
:1003F0000E945601CE010E948F0182E0898BCE01BE
:1004000066E00E944A01DF91CF9108956F927F923A
:100410008F92AF92CF92EF920F931F93DF93CF9370
:10042000CDB7DEB73C01162F842FF301448325831B
:100430000683E782C086A18682869D8593879E85F6
:1004400094879F8595879889968761E00E943515E6
:10045000F30185818F3F19F061E00E943515F301AA
:10046000868161E00E943515112319F0F30117868A
:1004700003C080E1F3018787C30160E141E020E030
:100480000E949701CF91DF911F910F91EF90CF9034
:10049000AF908F907F906F9008958F92AF92CF9290
:1004A000EF920F931F93CF93DF93DC01362F542FDE
:1004B000722F102FAE2C8C2C13961C921E9212971A
:1004C0008CE194E011969C938E9300D000D0EDB710
:1004D000FEB73196CDB7DEB7198211821282138230
:1004E000CD0161E0432F2FEF052FE72EC12E0E9493
:1004F00006020F900F900F900F90DF91CF911F91F8
:100500000F91EF90CF90AF908F90089588E394E093
:100510000E94C50A08950F931F9308E314E0C801D1
:100520000E944B08C8010E9458081F910F9108951E
:100530008CE595E040E052EC61E070E00E944016EE
:1005400008950895CF93DF93EC018CA19DA1833092
:100550009105F1F42AA13BA12115310579F46A81B5
:100560007B818C819D8120E030E04AEF53E40E9442
:10057000D8196A837B838C839D8371C021303105B8
:1005800009F059C08881998105969983888367C04D
:100590008430910599F48AA19BA1009731F48E8152
:1005A0009F8101969F838E835AC0019709F057C09F
:1005B0008885998501969987888751C085309105EE
:1005C00099F48AA19BA1009731F48A859B850196B5
:1005D0009B878A8744C0019709F041C08C859D851F
:1005E00001969D878C873BC08830910521F58AA1B3
:1005F0009BA1009779F46E857F858889998920E091
:1006000030E040E85FE30E94D8196E877F87888BCF
:10061000998B25C0019719F56A897B898C899D89F9
:1006200020E030E040E85FE30E94D8196A8B7B8BC2
:100630008C8B9D8B14C0099791F48AA19BA1892B67
:1006400071F46E897F89888D998D20E030E040E8D3
:100650005FE30E94D8196E8B7F8B888F998FDF9113
:10066000CF910895CF93DF93EC018CA19DA18330AE
:100670009105F1F42AA13BA12115310579F46A8194
:100680007B818C819D8120E030E04AEF53E40E9421
:10069000D7196A837B838C839D8371C02130310598
:1006A00009F059C08881998105979983888367C02B
:1006B0008430910599F48AA19BA1009731F48E8131
:1006C0009F8101979F838E835AC0019709F057C07D
:1006D0008885998501979987888751C085309105CC
:1006E00099F48AA19BA1009731F48A859B85019793
:1006F0009B878A8744C0019709F041C08C859D85FE
:1007000001979D878C873BC08830910521F58AA190
:100710009BA1009779F46E857F858889998920E06F
:1007200030E040E85FE30E94D7196E877F87888BAF
:10073000998B25C0019719F56A897B898C899D89D8
:1007400020E030E040E85FE30E94D7196A8B7B8BA2
:100750008C8B9D8B14C0099791F48AA19BA1892B46
:1007600071F46E897F89888D998D20E030E040E8B2
:100770005FE30E94D7196E8B7F8B888F998FDF91F3
:10078000CF910895FC0182A193A1019751F081E0DE
:1007900090E093A382A380A191A1019691A380A34D
:1007A000089524A135A180A591A5281739075CF4E7
:1007B00013A212A22F5F3F4F35A324A380A191A1C2
:1007C000019691A380A30895FC0182A193A1892B96
:1007D00041F013A212A280A191A1019791A380A33D
:1007E000089524A135A182A593A5821793076CF4DF
:1007F00081E090E093A382A32150304035A324A34D
:1008000080A191A1019791A380A30895FC0181E0AB
:1008100090E091A380A384A195A181309105C9F4B2
:1008200082A193A1009719F0019719F507C083E001
:1008300090E095A384A38CE090E006C084E090E073
:1008400095A384A38DE090E097A386A313A212A2A0
:100850000895029771F482A193A1892B51F488E045
:1008600090E095A384A38EE090E097A386A313A2C3
:1008700012A20895FC0184A195A195A784A780A147
:1008800091A197A786A782A193A191AB80AB089570
:10089000FC0184A595A595A384A38BE090E097A384
:1008A00086A386A597A591A380A380A991A993A3C8
:1008B00082A30895EF92FF920F931F93CF93DF933C
:1008C000EC01162F072F862F972F0E948F01ECA087
:1008D000FDA085E0E816F10409F41DC186E0E816E4
:1008E000F104ECF482E0E816F10409F47DC083E041
:1008F000E816F1044CF4E114F10481F181E0E8160A
:10090000F10409F025C247C083E0E816F10409F4B8
:1009100092C084E0E816F10409F01AC2C5C088E06C
:10092000E816F10409F47CC189E0E816F1045CF4EE
:1009300086E0E816F10409F429C187E0E816F1041D
:1009400009F006C24AC189E0E816F10409F4A7C11A
:100950008AE0E816F10409F0FBC1D6C1812F902F7F
:1009600060E040E00E946001812F902F60E071E024
:100970000E941019812F902F60E041E00E946001D9
:10098000812F902F6FE071E00E94101919A618A610
:100990001BA61AA6DDC1812F902F60E040E00E94C7
:1009A0006001812F902F64E171E00E941019812F66
:1009B000902F60E041E00E946001812F902F61E262
:1009C00071E00E941019812F902F60E04AA10E94CF
:1009D0006001812F902F61E371E00E941019FBA646
:1009E000EAA682E090E058C1812F902F60E040E0BD
:1009F0000E946001812F902F63E371E00E94101923
:100A0000812F902F60E041E00E946001812F902FA4
:100A100063E471E00E941019812F902F60E04AA1D9
:100A20000E946001812F902F61E371E00E941019F4
:100A300081E090E064C1812F902F60E040E00E944F
:100A40006001812F902F65E471E00E9410194A81A6
:100A50005B816C817D81812F902F22E030E00E94AC
:100A6000AE19812F902F60E041E00E946001812F3C
:100A7000902F6DE471E00E94101968817981812FB7
:100A8000902F4AE050E00E94DE18812F902F60E006
:100A90004AA10E946001812F902F61E371E00E94C2
:100AA0001019FBA6EAA62DC1812F902F60E040E02F
:100AB0000E946001812F902F68E571E00E9410195B
:100AC0006E817F81812F902F4AE050E00E94DE18D6
:100AD000812F902F60E041E00E946001812F902FD4
:100AE0006EE571E00E94101968857985812F902F3D
:100AF0004AE050E00E94DE18812F902F60E04AA16A
:100B00000E946001812F902F61E371E00E94101913
:100B1000FBA6EAA638C0812F902F60E040E00E943B
:100B20006001812F902F67E671E00E9410196A859D
:100B30007B85812F902F4AE050E00E94DE18812FA4
:100B4000902F60E041E00E946001812F902F6FE6BE
:100B500071E00E9410196C857D85812F902F4AE0ED
:100B600050E00E94DE18812F902F60E04AA10E9481
:100B70006001812F902F61E371E00E94101984E0E1
:100B800090E09BA78AA786E090E086C0812F902FF7
:100B900060E040E00E946001812F902F67E771E0E4
:100BA0000E941019812F902F60E041E00E946001A7
:100BB000812F902F63E471E00E941019812F902FF4
:100BC00060E04AA10E946001812F902F61E371E0F3
:100BD0000E94101984E090E092C0812F902F60E075
:100BE00040E00E946001812F902F63E471E00E9439
:100BF0001019812F902F60E041E00E946001812F49
:100C0000902F63E471E00E941019812F902F60E013
:100C10004AA10E946001812F902F6EE771E096C07B
:100C2000812F902F60E040E00E946001812F902F83
:100C300060E871E00E9410194E855F8568897989A6
:100C4000812F902F22E030E00E94AE19812F902F4B
:100C500060E041E00E946001812F902F68E871E020
:100C60000E9410194A895B896C897D89812F902F98
:100C700022E030E00E94AE19812F902F60E04AA15F
:100C80000E946001812F902F61E371E00E94101992
:100C9000FBA6EAA689E090E099A788A759C0812F12
:100CA000902F60E040E00E946001812F902F61E969
:100CB00071E00E9410194E895F89688D798D812FAE
:100CC000902F22E030E00E94AE19812F902F60E03B
:100CD00041E00E946001812F902F67E771E00E9440
:100CE0001019812F902F60E04AA10E946001812F8E
:100CF000902F61E371E00E94101988E090E09BA7BB
:100D00008AA7F9A6E8A624C0812F902F60E040E0D2
:100D10000E946001812F902F63E471E00E941019FE
:100D2000812F902F60E041E00E946001812F902F81
:100D300063E471E00E941019812F902F60E04AA1B6
:100D40000E946001812F902F61E371E00E941019D1
:100D5000DF91CF911F910F91FF90EF900895EF9247
:100D6000FF920F931F938C01F62EE72E862F972F5D
:100D700060E142E020E00E94970188E061E00E948B
:100D8000351588E061E00E945B158F2D9E2D0E9435
:100D90008F018F2D9E2D60E040E00E9460018F2D1D
:100DA0009E2D68E971E00E9410198F2D9E2D60E044
:100DB00041E00E9460018F2D9E2D6FE071E00E9446
:100DC0001019F801118210821782168280E090E0DB
:100DD000AAE7B5E482839383A483B5831186108642
:100DE000138612861586148680E090E0A0E0B0E0BD
:100DF00086879787A08BB18B828B938BA48BB58BC7
:100E0000868B978BA08FB18F128E15A214A28BE0C8
:100E100090E097A386A311A210A2178E1F910F91A5
:100E2000FF90EF90089583E0653878079CF5CB013B
:100E30008D5B9240873C910518F421E030E02CC096
:100E4000CB01895592408336910518F422E030E0B9
:100E500023C0CB0181599140873C910518F423E0D0
:100E600030E01AC0CB018D5291408336910518F4C1
:100E700024E030E011C0CB0185569040873C9105BD
:100E800018F425E030E008C0643671051CF426E053
:100E900030E002C020E030E0C9010895CF92DF9237
:100EA000EF92FF920F931F93CF93DF93EC0181E1B9
:100EB0000E941315BC01CE010E9413076C010E9411
:100EC0004F149B01AC018A819B81069744F060E836
:100ED000E62E68E3F62E61E0062F112D07C090E4A0
:100EE000E92E9DE0F92E93E0092F112D8885998533
:100EF000AA85BB858058954EA94FBF4F821793078F
:100F0000A407B5074CF41B821A8280E4E82E8DE01A
:100F1000F82E83E0082F112DC114D10409F440C02C
:100F200088859985AA85BB85E80EF91E0A1F1B1FB7
:100F3000E216F306040715079CF58A819B8101964A
:100F40009B838A8361E070E080E090E00E947514EA
:100F500081E10E941315BC01CE010E941307C8163F
:100F6000D906F1F461E070E080E090E00E94751431
:100F700081E10E941315BC01CE010E9413078C0170
:100F8000C816D90629F488819981019699838883A6
:100F90000E944F14688779878A879B87980102C0CF
:100FA00020E030E0C901DF91CF911F910F91FF90B8
:100FB000EF90DF90CF90089581E160E00E943515B9
:100FC00081E161E00E945B150895CF92EF920F934B
:100FD000DF93CF93CDB7DEB765970FB6F894DEBF3A
:100FE0000FBECDBF84E594E063E170E042E150E0E4
:100FF0000E94F71184E794E00E94DC0780E894E007
:1010000062E043E024E005E056E0E52E37E0C32E41
:101010000E944D0280918204909183049C838B8373
:101020008CE194E09A838983809184048D838091FC
:1010300085048E83809186048F83DE011896E7E80D
:10104000F4E088E001900D928150E1F780918F04E7
:10105000888B80919004898B809191048A8B8091F8
:1010600092048B8B809193048C8B809194048D8B54
:1010700085E994E0BE016F5F7F4F0E94AF066596E1
:101080000FB6F894DEBF0FBECDBFCF91DF910F91A9
:10109000EF90CF9008950F931F938C0184E794E015
:1010A0000E944E07F801938F828F1F910F91089530
:1010B0000F931F93DF93CF93CDB7DEB7CE59D040B8
:1010C0000FB6F894DEBF0FBECDBF8C01FC01828D40
:1010D000938D8330910509F44FC08430910544F419
:1010E0008130910509F485C0029709F042C20CC015
:1010F0008530910509F4FEC1853091050CF4B4C02A
:10110000069709F036C20DC185E994E00E94C2033A
:1011100080918204909183049C838B838CE194E082
:101120009A838983809184048D83809185048E8342
:10113000809186048F83DE011896E7E8F4E088E06A
:1011400001900D928150E1F780918F04888B8091FE
:101150009004898B809191048A8B809192048B8B6F
:10116000809193048C8B809194048D8B85E994E01D
:10117000BE016F5F7F4F37C085E994E00E94E403B2
:101180008091820490918304998F888F8CE194E000
:101190009F8B8E8B809184048A8F809185048B8FA6
:1011A000809186048C8FDE015D96E7E8F4E088E0AC
:1011B00001900D928150E1F780918F048DA3809171
:1011C00090048EA3809191048FA38091920488A7AC
:1011D0008091930489A7809194048AA785E994E07B
:1011E000BE016A5E7F4F0E945A04F801138E128E70
:1011F000C0C185E994E00E943203F801138E128E7B
:1012000080918204909183049EA78DA78CE194E045
:101210009CA78BA7809184048FA78091850488ABBD
:101220008091860489ABDE01D296E7E8F4E088E09D
:1012300001900D928150E1F780918F048AAF8091E7
:1012400090048BAF809191048CAF809192048DAF0C
:10125000809193048EAF809194048FAF85E994E0E0
:10126000BE01655D7F4F83C185E994E00E94A202C3
:10127000F801138E128E8091820490918304FE01F6
:10128000EE5BFF4F918380838CE194E0FE01E05C94
:10129000FF4F9183808380918404FE01EC5BFF4FBC
:1012A000808380918504FE01EB5BFF4F80838091FA
:1012B0008604FE01EA5BFF4F8083DE01A95BBF4F1E
:1012C000E7E8F4E088E001900D928150E1F7809129
:1012D0008F04FE01E15BFF4F808380919004FE014B
:1012E000E05BFF4F808380919104FE01EF5AFF4F36
:1012F000808380919204FE01EE5AFF4F808380919B
:101300009304FE01ED5AFF4F808380919404FE0107
:10131000EC5AFF4F808385E994E0BE01605C7F4F0B
:1013200026C18091BB049091BC048C30910509F4D6
:1013300091C08D30910524F40B9709F0B6C007C019
:101340008D30910569F00E9709F0AFC042C085E974
:1013500094E00E943A0485E994E00E940604A5C046
:101360008091B5049091B604059709F09EC08DE078
:1013700061E00E945B158DB79EB7CA970FB6F894CF
:101380009EBF0FBE8DBF2DB73EB72F5F3F4FD90118
:10139000E5E9F4E08AE101900D928150E1F7D9018D
:1013A0005A96E4E5F4E080E201900D928150E1F775
:1013B000CE0181589F4FB8010E944113A4E5B4E0CB
:1013C000FE01E158FF4F80E201900D928150E1F75C
:1013D00038C08091B5049091B604049709F065C0B7
:1013E0008DE061E00E945B158DB79EB7CA970FB67E
:1013F000F8949EBF0FBE8DBF2DB73EB72F5F3F4FF6
:10140000D901E5E9F4E08AE101900D928150E1F71C
:10141000D9015A96E4E5F4E080E201900D92815002
:10142000E1F7CE0181589F4FB8010E943F12A4E519
:10143000B4E0FE01E158FF4F80E201900D9281502F
:10144000E1F7EDB7FEB7FA960FB6F894FEBF0FBE00
:10145000EDBF2BC084E594E06CE271E00E94340B98
:1014600080E090E0A0E0B0E08093540490935504B5
:10147000A0935604B0935704609197047091980418
:101480008091990490919A040E94A81A9B01AC0142
:1014900084E594E0B9010E94300B6091950470914D
:1014A000960484E594E00E94A111F801138E128E37
:1014B000FE01EB5AFF4F8091820490918304938345
:1014C00082838CE194E0918380838091840484837F
:1014D0008091850485838091860486833796A7E86A
:1014E000B4E088E00D9001928150E1F7FE01EB5AE3
:1014F000FF4F28C085E994E00E944804F801138E4C
:10150000128EFE01E659FF4F809182049091830470
:10151000938382838CE194E091838083809184041F
:1015200084838091850485838091860486833796A1
:10153000A7E8B4E088E00D9001928150E1F7FE0148
:10154000E659FF4F80918F04878780919004808BAC
:1015500080919104818B80919204828B809193047D
:10156000838B80919404848B85E994E0BF010E9471
:101570005A04C256DF4F0FB6F894DEBF0FBECDBF80
:10158000CF91DF911F910F910895DF93CF93CDB746
:10159000DEB765970FB6F894DEBF0FBECDBF0E94D1
:1015A000F0138DE061E00E9435158DE060E00E944F
:1015B0005B1580E894E060E142E020E00E94970142
:1015C00080E894E00E944E0181E090E09093BA049C
:1015D0008093B9041092B6041092B50485E994E0A2
:1015E0000E94A10280918204909183049C838B834A
:1015F0008CE194E09A838983809184048D83809127
:1016000085048E83809186048F83DE011896E7E837
:10161000F4E088E001900D928150E1F780918F0411
:10162000888B80919004898B809191048A8B809122
:1016300092048B8B809193048C8B809194048D8B7E
:1016400085E994E0BE016F5F7F4F0E945A04659662
:101650000FB6F894DEBF0FBECDBFCF91DF910895D6
:10166000FC01718B608B0895FC01778F668F089564
:101670002F923F924F925F926F927F928F929F92A2
:10168000AF92BF92CF92DF92EF92FF920F931F9390
:10169000DF93CF93CDB7DEB76A970FB6F894DEBF6E
:1016A0000FBECDBF9A8F898F1A012B01DC011496D2
:1016B0008C91882391F08CE595E069EA71E00E94B5
:1016C0001019E98DFA8D42895389648975898CE5F1
:1016D00095E022E030E00E94B119A98DBA8D1B96E9
:1016E0008C91882319F1C201B101A20191010E94DC
:1016F000D8192BED3FE049E450E40E948F1B2CE801
:1017000039EB4BE45FE30E948F1B20E030E048ECB4
:1017100055E40E94401A9B01AC01E98DFA8D628963
:101720007389848995890E94D71922C0C201B101A9
:10173000A20191010E94D8192BED3FE049E450E449
:101740000E948F1B2CE839EB4BE45FE30E948F1B58
:1017500020E030E048EC55E40E94401A9B01AC01C7
:10176000E98DFA8D62897389848995890E94D819D7
:10177000A98DBA8D52966D937D938D939C935597B9
:10178000E98DFA8D84818823D1F08CE595E061ECB8
:1017900071E00E941019A98DBA8D52964D915D91FC
:1017A0006D917C9155978CE595E022E030E00E94A8
:1017B000B1198CE595E067ED71E00E94C419E98DDF
:1017C000FA8DE484F58406851785C801B70120E009
:1017D00030E040E050E00E943C1A882381F0C801CC
:1017E000B70125E83CE740E55AE30E94401A0E9411
:1017F000A81AA98DBA8D51967C936E935097C20109
:10180000B10120E030E048EC53E40E94D71969832D
:101810007A838B839C83E98DFA8D608071808280CE
:101820009380C401B30120E030E04AEF53E40E940A
:101830008F1B9B01AC0169817A818B819C810E9405
:10184000D7197B018C01C201B10120E030E040E0FA
:1018500050EC0E948F1B9B01AC01C801B7010E9494
:10186000D8195B016C01A60195010E948F1B7B01B9
:101870008C01C201B10129813A814B815C810E94B6
:10188000D7199B01AC01C401B3010E948F1B20E05A
:1018900030E04AE755EC0E948F1B9B01AC01C80168
:1018A000B7010E94D8190E94F61B9B01AC01D7FA20
:1018B000D094D7F8D094C601B5010E94D71920E082
:1018C00030E04AEF54E40E94401A5B016C0120E0D2
:1018D00030E04AEF53E40E948F1B20E030E048ECF8
:1018E00053E40E94D8197B018C01C601B50120E0A8
:1018F00030E04AE754EC0E948F1B9B01AC01C80109
:10190000B7010E94D819A60195010E94401A3B0117
:101910004C0120E030E04AEF53E40E943C1A882357
:10192000B4F4A98DBA8D14968C91882331F08CE58E
:1019300095E066EF71E00E94C4190F2EF0E06F2E63
:10194000F0E07F2EFAEF8F2EF3E49F2EF02DE98D3D
:10195000FA8D608171818281938120E030E040E0E6
:1019600050E00E943C1A882371F4A98DBA8D5096DC
:101970006D917C915197882777FD8095982F0E94D3
:10198000DB1A3B014C01C401B30120E030E84BEB12
:1019900055E40E948B1B1816ACF4E98DFA8D8481F6
:1019A000882331F08CE595E062E172E00E94C41971
:1019B0000F2EF0E06F2EF0E87F2EFBEB8F2EF5E47C
:1019C0009F2EF02DC401B30120E030E04AEF53E434
:1019D0000E94D719698B7A8B8B8B9C8B60E074E2A9
:1019E00084E799E4A40193010E94401A20E030E0CA
:1019F0004AEF54E40E94D71920E030E048E453E471
:101A00000E94401A6D837E838F839887A98DBA8D3B
:101A100015968C9115971B966C910E945B1562E34D
:101A200070E080E090E00E947514C201B10120E0F6
:101A300030E048EC53E40E943C1A87FD05C080E08A
:101A400090E0A8E4B3E414C0A98DBA8D14968C91EB
:101A5000882331F08CE595E064E372E00E94C419BC
:101A600029823A824B825C8280E090E0A0E0B0E084
:101A700089879A87AB87BC87A98DBA8D14968C917C
:101A8000882309F4B2C08CE595E061E572E00E941C
:101A90001019E98DFA8D40815181628173818CE545
:101AA00095E022E030E00E94B1198CE595E06DE50B
:101AB00072E00E9410198CE595E0B201A10122E0CC
:101AC00030E00E94B1198CE595E065E672E00E9475
:101AD00010198CE595E040E050E06AEF73E422E0F5
:101AE00030E00E94AE198CE595E063E772E00E9459
:101AF00010198CE595E0B401A30122E030E00E94CA
:101B0000B1198CE595E061E872E00E9410198CE54E
:101B100095E0B601A50122E030E00E94B1198CE504
:101B200095E06CE872E00E9410198CE595E0B40134
:101B3000A30122E030E00E94B1198CE595E068E94C
:101B400072E00E94101969897A898B899C89A601A3
:101B500095010E94401AAB01BC018CE595E022E0A2
:101B600030E00E94B1198CE595E067ED71E00E94CC
:101B7000C4198CE595E066EA72E00E94C4198CE510
:101B800095E06DE572E00E9410198CE595E04985BD
:101B90005A856B857C8522E030E00E94B1198CE586
:101BA00095E063EB72E00E9410198CE595E040E04F
:101BB00050E06AEF74E422E030E00E94AE198CE558
:101BC00095E067EC72E00E94C4198CE595E065ED44
:101BD00072E00E9410198CE595E04D815E816F8165
:101BE000788522E030E00E94B1190E9441146D878F
:101BF0007E878F87988B0F2EF0E02F2EF0E03F2E00
:101C0000FAEF4F2EF4E45F2EF02DCC24DD246BC0D0
:101C1000A98DBA8D17968C9161E00E945B15C20167
:101C2000B10120E030E040E05FE30E948F1B7B01C8
:101C30008C0120E030E040E050E00E948B1B8823C4
:101C40004CF0C801B70120E030E040E05FE30E94C3
:101C5000D81908C0C801B70120E030E040E05FE3D8
:101C60000E94D7190E94A81ACB01C2970E94CE14D5
:101C7000E98DFA8D878160E00E945B15C801B7018C
:101C800020E030E048E452E40E94D7197B018C0147
:101C900020E030E040E050E00E948B1B88234CF0B5
:101CA000C801B70120E030E040E05FE30E94D819AE
:101CB00008C0C801B70120E030E040E05FE30E94C7
:101CC000D7190E94A81ACB010E94CE14C201B101FB
:101CD0002D813E814F8158850E94D8191B012C010E
:101CE0000894C11CD11CB601882777FD8095982FD8
:101CF0000E94DB1A29853A854B855C850E943C1A37
:101D000087FD86CF2D8A3E8A4F8A588E0E944114C5
:101D10009B01AC01A98DBA8D14968C91882309F48E
:101D20005EC059016A018D859E85AF85B889A81A64
:101D3000B90ACA0ADB0A8CE595E067EE72E00E94F8
:101D400010198CE595E040E050E060E070E02AE09A
:101D500030E00E949E188CE595E067EC72E00E94EE
:101D6000C4198CE595E063EF72E00E9410198CE5D0
:101D700095E0B601A5012AE030E00E949E188CE5AE
:101D800095E06BEF72E00E94C4198CE595E06FEF6F
:101D900072E00E94101969897A898B899C8920E0F8
:101DA00030E04AE754E40E948F1B7B018C01C6019E
:101DB000B5010E94DB1A9B01AC01C801B7010E946A
:101DC000401AAB01BC018CE595E022E030E00E94B6
:101DD000AE198CE595E061E173E00E94C419A98D0C
:101DE000BA8D14968C91882309F45AC08CE595E03D
:101DF0006CE173E00E94C4198CE595E06CE373E03C
:101E00000E94C4198CE595E06DE473E00E941019FE
:101E10008CE595E049815A816B817C8122E030E03C
:101E20000E94B1198CE595E063E772E00E941019F9
:101E30008CE595E0B401A30122E030E00E94AE19E8
:101E40008CE595E066E573E00E94C4198CE595E0A9
:101E50006FE573E00E9410198CE595E02D893E89AD
:101E6000EF89F88DA901BF0122E030E00E94AE1990
:101E70008CE595E067EC72E00E94C4198CE595E072
:101E80006AE773E00E9410198CE595E06DE873E055
:101E90000E9410198CE595E067EC72E00E94C4196D
:101EA0000E9441145B016C0166247724430166C0E3
:101EB000E98DFA8D878161E00E945B15C201B10155
:101EC00020E030E040E05FE30E948F1B7B018C014B
:101ED00020E030E040E050E00E948B1B88234CF073
:101EE000C801B70120E030E040E05FE30E94D8196C
:101EF00008C0C801B70120E030E040E05FE30E9485
:101F0000D7190E94A81ACB01C2970E94CE14A98D9E
:101F1000BA8D17968C9160E00E945B15C801B701DD
:101F200020E030E040E050E00E948B1B88234CF022
:101F3000C801B70120E030E040E05FE30E94D8191B
:101F400008C0C801B70120E030E040E05FE30E9434
:101F5000D7190E94A81ACB01C2970E94CE14C201C1
:101F6000B10120E030E040E050E00E94D8191B01B0
:101F70002C010894611C711C811C911CC401B301CB
:101F80000E94DB1A29813A814B815C810E943C1AB4
:101F900087FD8ECF0E9441147B018C01E98DFA8D63
:101FA0008481882309F460C08CE595E067EE72E0D7
:101FB0000E9410198CE595E040E050E060E070E090
:101FC0002AE030E00E949E188CE595E067EC72E014
:101FD0000E94C4198CE595E063EF72E00E9410192D
:101FE000EA18FB080C091D098CE595E0B801A7016A
:101FF0002AE030E00E949E188CE595E06BEF72E0DD
:102000000E94C4198CE595E06CE173E00E94C4194C
:102010008CE595E060E973E00E94C4198CE595E0D9
:102020006DE473E00E9410198CE595E049855A85AE
:102030006B857C8522E030E00E94B1198CE595E04B
:102040006EE973E00E9410198CE595E040E050E0E5
:102050006AEF73E422E030E00E94AE198CE595E06F
:1020600066E573E00E94C4190E9441144B015C01B3
:10207000CC24DD2464C0A98DBA8D17968C9161E0C3
:102080000E945B15C201B10120E030E040E05FE357
:102090000E948F1B7B018C0120E030E040E050E08B
:1020A0000E948B1B88234CF0C801B70120E030E070
:1020B00040E05FE30E94D81908C0C801B70120E0E2
:1020C00030E040E05FE30E94D7190E94A81ACB01DC
:1020D000C2970E94CE14E98DFA8D878160E00E943C
:1020E0005B15C801B70120E030E040E050E00E94FD
:1020F0008B1B88234CF0C801B70120E030E040E0A2
:102100005FE30E94D81908C0C801B70120E030E0A1
:1021100040E05FE30E94D7190E94A81ACB01C29742
:102120000E94CE14C201B1012D813E814F8158859C
:102130000E94D7191B012C010894C11CD11CB601A7
:10214000882777FD8095982F0E94DB1A29853A858C
:102150004B855C850E943C1A87FD8DCF0E944114FF
:102160007B018C01A98DBA8D14968C91882309F47A
:1021700058C08CE595E067EE72E00E9410198CE57E
:1021800095E040E050E060E070E02AE030E00E943E
:102190009E188CE595E067EC72E00E94C4198CE50E
:1021A00095E06BEA73E00E9410198CE595E0B201AE
:1021B000A10122E030E00E94B1198CE595E067ECC6
:1021C00072E00E94C4198CE595E06AE773E00E9412
:1021D00010198CE595E04D815E816F81788522E054
:1021E00030E00E94AE198CE595E067EC72E00E9449
:1021F000C4198CE595E063EF72E00E941019E818AD
:10220000F9080A091B098CE595E0B801A7012AE045
:1022100030E00E949E188CE595E06BEF72E00E9422
:10222000C4196A960FB6F894DEBF0FBECDBFCF912A
:10223000DF911F910F91FF90EF90DF90CF90BF90B3
:10224000AF909F908F907F906F905F904F903F9056
:102250002F900895EF92FF920F931F93CF93DF93E8
:10226000EC017A018B018C81882371F08CE595E07B
:1022700068EB73E00E9410198CE595E0B801A701A6
:1022800022E030E00E94B119C801B70120E030E03F
:1022900048EC55E40E948F1BAB01BC01CE010E94AB
:1022A000380BDF91CF911F910F91FF90EF90089520
:1022B000EF92FF920F931F93CF93DF93EC017A017C
:1022C0008B018C81882371F08CE595E067EC73E0DD
:1022D0000E9410198CE595E0B801A70122E030E0DA
:1022E0000E94B119C801B70120E030E040E050E0A1
:1022F0000E943C1A29853A85882344F417FB1095DF
:1023000017F910952130310521F406C0213031052F
:1023100019F481E08B8701C01B86C801B7012DE449
:1023200031E040EA50E40E94401AAB01BC01CE010A
:102330000E942A11DF91CF911F910F91FF90EF9092
:102340000895CF92DF92EF92FF920F931F93CF9356
:10235000DF93EC018B01CA88DB88EC88FD888C81D7
:102360008823F9F08CE595E06CE173E00E94C419D4
:102370008CE595E063ED73E00E94C4198CE595E06F
:1023800069EE73E00E94C4198CE595E069E074E0A1
:102390000E9410198CE595E0B8014AE050E00E94D7
:1023A000F11888E490E09C01029FC001039F900D0A
:1023B000129F900D112464E670E00E94761C88271D
:1023C00077FD8095982F0E94DB1AA70196010E9445
:1023D000D719AB01BC01CE010E945811DF91CF91FA
:1023E0001F910F91FF90EF90DF90CF900895CF92C3
:1023F000DF92EF92FF920F931F938C01F62ED72E50
:10240000E42EC52E862F61E00E9435158E2D61E0E9
:102410000E943515F801F582D6828FEF9FEF9287E3
:102420008187E782C08681E0838720E030E040E05A
:1024300050E02487358746875787148280E090E0F4
:10244000A0E9B2E4868B978BA08FB18F118A108A96
:10245000228B338B448B558B8DEC9CECACECBDE329
:10246000828F938FA48FB58F88EC90E0978F868FA3
:102470001F910F91FF90EF90DF90CF9008952F92D2
:102480003F924F925F926F927F928F929F92AF9204
:10249000BF92CF92DF92EF92FF920F931F93DF9341
:1024A000CF9300D000D0CDB7DEB7382E292E4B0108
:1024B000DB01FE0179968AE101900D928150E1F7EE
:1024C000F40166897789808D918D228933894489C9
:1024D00055890E94401A69837A838B839C83F40117
:1024E000E684F78400891189C801B70120E030E053
:1024F00040E85FE30E94D71920E030E040E050E080
:102500000E948B1B18166CF4C801B70120E030E064
:1025100040EC5FE30E94D7196BAB7CAB8DAB9EABFD
:1025200004C0EBAAFCAA0DAB1EAB80E161E00E94E7
:102530005B1560E971E080E090E00E9475148FE027
:1025400061E00E945B1560E971E080E090E00E942C
:1025500075148FE060E00E945B1580E160E00E94EE
:102560005B156624772483E3482E512C4C0E5D1EA8
:1025700055C00E9441147B018C01C20129813A811E
:10258000EB81FC81A901BF010E94581180E161E04B
:102590000E945B1560E971E080E090E00E94751494
:1025A0008FE061E00E945B1560E971E080E090E0FF
:1025B0000E9475148FE060E00E945B1580E160E08E
:1025C0000E945B150E9441146E197F09800B910BCC
:1025D0000E94DB1A5B016C01F401668577858089B6
:1025E000918920E030E04AE754E40E948F1B7B0190
:1025F0008C01C601B501A80197010E943C1A8823ED
:1026000054F4C801B701A60195010E94D7190E9490
:10261000AD1A0E9475140894611C711CB3018827BF
:1026200077FD8095982F0E94DB1AF4012289338967
:10263000448955890E943C1A87FD9BCF832D922D9A
:102640009C01D901F20180E201900D928150E1F7E5
:10265000832D922D0F900F900F900F90CF91DF91BF
:102660001F910F91FF90EF90DF90CF90BF90AF90B0
:102670009F908F907F906F905F904F903F902F90A2
:1026800008952F923F924F925F926F927F928F9216
:102690009F92AF92BF92CF92DF92EF92FF920F93F1
:1026A0001F93DF93CF9300D000D000D0CDB7DEB71B
:1026B0008D839E837C836B8389A09AA06BA07CA072
:1026C0004DA05EA02FA038A48B8D9C8D9A8389830A
:1026D000689CB001699C700D789C700D112488274E
:1026E00077FD8095982F0E94DB1A7B018C016DA7E6
:1026F0007EA78FA798ABB201882777FD8095982F8A
:102700000E94DB1A9B01AC01C801B7010E94401A6C
:102710009B01AC0160E070E080E89FE30E94401AFA
:1027200069A77AA78BA79CA7B101882777FD809519
:10273000982F0E94DB1A69AB7AAB8BAB9CAB8DB741
:102740009EB7CA970FB6F8949EBF0FBE8DBF2DB728
:102750003EB72F5F3F4FD901FE017B968AE1019082
:102760000D928150E1F7D9015A96FE01F59680E26B
:1027700001900D928150E1F7CE01C5966B817C816D
:102780000E943F128D819E819C01D901FE01F59628
:1027900080E201900D928150E1F78DB79EB7CA9605
:1027A0000FB6F8949EBF0FBE8DBF8D819E81269679
:1027B0000FB6F894DEBF0FBECDBFCF91DF911F9152
:1027C0000F91FF90EF90DF90CF90BF90AF909F90D0
:1027D0008F907F906F905F904F903F902F900895D3
:1027E0008FE061E00E94351580E161E00E943515BF
:1027F00008951F920F920FB60F9211242F933F93BB
:102800008F939F93AF93BF938091CF049091D00407
:10281000A091D104B091D2043091D3040196A11DAE
:10282000B11D232F2D5F2D3720F02D570196A11DAF
:10283000B11D2093D3048093CF049093D004A09330
:10284000D104B093D2048091CB049091CC04A09198
:10285000CD04B091CE040196A11DB11D8093CB048F
:102860009093CC04A093CD04B093CE04BF91AF91CC
:102870009F918F913F912F910F900FBE0F901F90BE
:1028800018958FB7F8942091CF043091D0044091DF
:10289000D1045091D2048FBFB901CA0108959FB7E6
:1028A000F8942091CB043091CC044091CD04509108
:1028B000CE0486B5A89B06C08F3F21F02F5F3F4F07
:1028C0004F4F5F4F9FBF542F432F322F2227280F88
:1028D000311D411D511D82E0220F331F441F551F22
:1028E0008A95D1F7B901CA0108959B01AC017FB760
:1028F000F8948091CB049091CC04A091CD04B09138
:10290000CE0466B5A89B05C06F3F19F00196A11DC6
:10291000B11D7FBFBA2FA92F982F8827860F911D31
:10292000A11DB11D62E0880F991FAA1FBB1F6A95E8
:10293000D1F7BC012DC0FFB7F8948091CB049091E2
:10294000CC04A091CD04B091CE04E6B5A89B05C0FF
:10295000EF3F19F00196A11DB11DFFBFBA2FA92F9E
:10296000982F88278E0F911DA11DB11DE2E0880FC1
:10297000991FAA1FBB1FEA95D1F7861B970B885E8C
:102980009340C8F2215030404040504068517C4F45
:10299000211531054105510571F60895019739F06A
:1029A000880F991F880F991F02970197F1F70895D3
:1029B000789484B5826084BD84B5816084BD85B51A
:1029C000826085BD85B5816085BDEEE6F0E08081E1
:1029D00081608083E1E8F0E0108280818260808302
:1029E000808181608083E0E8F0E080818160808385
:1029F000E1EBF0E0808184608083E0EBF0E08081B7
:102A000081608083EAE7F0E0808184608083808158
:102A10008260808380818160808380818068808300
:102A20001092C1000895982F8E3008F09E50977034
:102A3000809117048295880F880F807C892B809362
:102A40007C0080917A00806480937A0080917A0083
:102A500086FDFCCF2091780040917900942F80E092
:102A600030E0282B392BC9010895482F50E0CA01C6
:102A700086569F4FFC0124914A575F4FFA0184917B
:102A80008823C1F0E82FF0E0EE0FFF1FE859FF4F59
:102A9000A591B491662341F49FB7F8948C91209549
:102AA00082238C939FBF08959FB7F8948C91822BBB
:102AB0008C939FBF0895482F50E0CA0182559F4FC5
:102AC000FC012491CA0186569F4FFC0194914A57FC
:102AD0005F4FFA013491332309F440C0222351F1AE
:102AE000233071F0243028F42130A1F0223011F588
:102AF00014C02630B1F02730C1F02430D9F404C01E
:102B0000809180008F7703C0809180008F7D8093BB
:102B1000800010C084B58F7702C084B58F7D84BDDE
:102B200009C08091B0008F7703C08091B0008F7D85
:102B30008093B000E32FF0E0EE0FFF1FEE58FF4F41
:102B4000A591B4912FB7F894662321F48C919095B8
:102B5000892302C08C91892B8C932FBF08950895EF
:102B60001F920F920FB60F9211242F933F934F9302
:102B70008F939F93EF93FF934091C600209114058C
:102B8000309115052F5F3F4F2F73307080911605E0
:102B9000909117052817390759F0E0911405F09125
:102BA0001505EC52FB4F4083309315052093140517
:102BB000FF91EF919F918F914F913F912F910F90A6
:102BC0000FBE0F901F901895E0916805F091690570
:102BD000E05CFF4F8191919120813181821B930BA9
:102BE0008F739070892B11F00E94AF1508951F927A
:102BF0000F920FB60F9211242F933F934F935F9331
:102C00006F937F938F939F93AF93BF93EF93FF93B4
:102C1000209158053091590580915A0590915B0596
:102C20002817390731F48091C1008F7D8093C1004E
:102C300016C0E0915A05F0915B05E85EFA4F4081BD
:102C400080915A0590915B05019660E470E00E94C6
:102C5000761C90935B0580935A054093C600FF91C4
:102C6000EF91BF91AF919F918F917F916F915F9104
:102C70004F913F912F910F900FBE0F901F9018957D
:102C8000AF92BF92DF92EF92FF920F931F93CF9379
:102C9000DF93EC017A018B01DD24403081EE58078F
:102CA00080E0680780E0780711F0DD24D39491E09C
:102CB000A92EB12CEC89FD89DD2069F0C5010E8CAF
:102CC00002C0880F991F0A94E2F7808360E079E0E0
:102CD0008DE390E005C0108260E874E88EE190E03A
:102CE000A80197010E94891C21503040404050406B
:102CF000569547953795279580E12030380720F085
:102D0000DD2011F0DD24D6CFE889F9893083EA8906
:102D1000FB892083EE89FF89408121E030E0C901F1
:102D20000A8C02C0880F991F0A94E2F7482B40834F
:102D3000EE89FF894081C9010B8C02C0880F991F61
:102D40000A94E2F7482B4083EE89FF894081C9014C
:102D50000C8C02C0880F991F0A94E2F7482B40831D
:102D6000EE89FF8980810D8C02C0220F331F0A94E7
:102D7000E2F7209528232083DF91CF911F910F91B7
:102D8000FF90EF90DF90BF90AF900895DC011C960C
:102D9000ED91FC911D97E05CFF4F21913191808175
:102DA0009181281B390B2F733070C9010895DC0104
:102DB0001C96ED91FC911D97E05CFF4F20813181C5
:102DC000E054F040DF01AE5BBF4F8D919C911197B5
:102DD0002817390719F42FEF3FEF07C08D919C9109
:102DE000E80FF91F8081282F30E0C9010895DC0128
:102DF0001C96ED91FC911D97E05CFF4F2081318185
:102E0000E054F040DF01AE5BBF4F8D919C91119774
:102E10002817390719F42FEF3FEF10C08D919C91BF
:102E20001197E80FF91F20818D919C9111970196C0
:102E30008F73907011969C938E9330E0C901089522
:102E4000FC0186859785DC01A05CBF4FFC01EE5B31
:102E5000FF4F2D913C91119780819181281739075F
:102E6000C1F70895CF93DF93EC01462FEE85FF85E0
:102E7000E05CFF4F80819181E054F040019660E476
:102E800070E00E94761C9C01DF01AE5BBF4F8D910C
:102E90009C91119728173907D1F3E05CFF4F80818F
:102EA0009181E054F040E80FF91F4083EE85FF85E3
:102EB000E05CFF4F31832083EE89FF89208181E030
:102EC00090E00D8C02C0880F991F0A94E2F7282B1E
:102ED000208381E090E0DF91CF91089510925F050B
:102EE00010925E0588EE93E0A0E0B0E0809360056C
:102EF00090936105A0936205B09363058CE294E022
:102F000090935D0580935C0584ED94E09093690552
:102F10008093680588E195E090936B0580936A053E
:102F200085EC90E090936D0580936C0584EC90E0C7
:102F300090936F0580936E0580EC90E090937105FF
:102F40008093700581EC90E09093730580937205F7
:102F500086EC90E0909375058093740584E08093EF
:102F6000760583E08093770587E08093780585E098
:102F70008093790581E080937A050895CF93DF935C
:102F80000E94D8140E949802C4EED5E10E948B02E0
:102F90002097E1F30E94E415F9CFCF92DF92EF92F0
:102FA000FF920F931F93CF93DF937C016B018A01F4
:102FB000C0E0D0E00FC0D6016D916D01D701ED9159
:102FC000FC910190F081E02DC7010995C80FD91F30
:102FD000015010400115110571F7CE01DF91CF911D
:102FE0001F910F91FF90EF90DF90CF900895EF9297
:102FF000FF920F931F938C01DC01ED91FC910190E6
:10300000F081E02D6DE009957C01D801ED91FC91F6
:103010000190F081E02DC8016AE009959C012E0D18
:103020003F1DC9011F910F91FF90EF900895CF931D
:10303000DF93DB010D900020E9F71197A61BB70B7A
:10304000EC01E881F9810280F381E02DAD01099561
:10305000DF91CF9108954F925F927F928F929F92CE
:10306000AF92BF92CF92DF92EF92FF920F931F9396
:10307000DF93CF93CDB7DEB7A1970FB6F894DEBF3D
:103080000FBECDBF2C01742ECB01223008F42AE0F4
:1030900019A231E2C32ED12CCC0EDD1E822E992432
:1030A000AA24BB24672D752FA50194010E94891CB9
:1030B00079018A01C801B701A50194010E94571C3A
:1030C000472D461B0894C108D1084A3014F4405DCE
:1030D00001C0495CF6014083E114F10401051105CA
:1030E00021F07E2C5F2DC801DDCFC201B6010E9408
:1030F0001718A1960FB6F894DEBF0FBECDBFCF91C3
:10310000DF911F910F91FF90EF90DF90CF90BF90D4
:10311000AF909F908F907F905F904F900895DC01CB
:103120002115310541F4ED91FC910190F081E02DE4
:10313000642F099508950E942B180895CF92DF926D
:10314000EF92FF920F931F93CF93DF93EC016A01ED
:103150007B012115310541F4E881F9810190F0816D
:10316000E02D642F09951FC02A303105D1F477FF77
:1031700017C0E881F9810190F081E02D6DE2099599
:103180008C0144275527BA014C195D096E097F0946
:10319000CE012AE00E942B189801280F391F04C085
:1031A0002AE00E942B189C01C901DF91CF911F9149
:1031B0000F91FF90EF90DF90CF900895EF92FF92E4
:1031C0000F931F937B019A010027F7FC0095102FA6
:1031D000B801A7010E949E181F910F91FF90EF90D8
:1031E0000895CF92DF92EF92FF920F931F936C019D
:1031F0007B019A010027F7FC0095102FB801A70169
:103200000E949E188C01C6010E94F717080F191F13
:10321000C8011F910F91FF90EF90DF90CF9008951C
:103220000E94171808957F928F929F92AF92BF923B
:10323000CF92DF92EF92FF920F931F93CF93DF9382
:103240004C017A018B01722ECB01BA0120E030E0F3
:1032500040E050E00E943C1A87FD03C0C0E0D0E08F
:103260000EC0D401ED91FC910190F081E02DC401DC
:103270006DE20995EC0117FB109517F9109520E008
:1032800030E040E05FE3AA240BC0CA01B90120E0AE
:1032900030E040E251E40E94401A9B01AC01A3944B
:1032A000A71498F3C801B7010E94D8195B016C01FB
:1032B0000E94AD1A7B018C01C401B801A7012AE06C
:1032C00030E00E948F18C80FD91F772039F0C40151
:1032D00065E174E00E941718C80FD91FC801B70133
:1032E0000E94D91A9B01AC01C601B5010E94D719F1
:1032F00024C020E030E040E251E40E948F1B7B01BB
:103300008C010E94A81A5B016C01CC24B7FCC0940C
:10331000DC2CC401B601A5012AE030E00E949E1811
:10332000C80FD91FC601B5010E94DB1A9B01AC0171
:10333000C801B7010E94D7197A947720D1F6CE013F
:10334000DF91CF911F910F91FF90EF90DF90CF9081
:10335000BF90AF909F908F907F9008950E94131917
:103360000895EF92FF920F931F937C010E9413190F
:103370008C01C7010E94F717080F191FC8011F9180
:103380000F91FF90EF900895EF92FF920F931F938C
:103390007C010E9417188C01C7010E94F717080FC3
:1033A000191FC8011F910F91FF90EF900895505879
:1033B000BB27AA270ED075C166D130F06BD120F0A3
:1033C00031F49F3F11F41EF45BC10EF4E095E7FB6E
:1033D00051C1E92F77D180F3BA17620773078407C9
:1033E000950718F071F49EF58FC10EF4E0950B2E41
:1033F000BA2FA02D0B01B90190010C01CA01A00147
:103400001124FF27591B99F0593F50F4503E68F1A1
:103410001A16F040A22F232F342F4427585FF3CFE2
:10342000469537952795A795F0405395C9F77EF4B3
:103430001F16BA0B620B730B840BBAF09150A1F0FC
:10344000FF0FBB1F661F771F881FC2F70EC0BA0F82
:10345000621F731F841F48F4879577956795B7950A
:10346000F7959E3F08F0B3CF9395880F08F0992702
:10347000EE0F979587950895D9D008F481E00895C7
:103480000CD00FC107D140F0FED030F021F45F3FE7
:1034900019F0F0C0511139C1F3C014D198F3992338
:1034A000C9F35523B1F3951B550BBB27AA27621708
:1034B0007307840738F09F5F5F4F220F331F441F4D
:1034C000AA1FA9F333D00E2E3AF0E0E830D0915085
:1034D0005040E695001CCAF729D0FE2F27D0660F72
:1034E000771F881FBB1F261737074807AB07B0E8B1
:1034F00009F0BB0B802DBF01FF2793585F4F2AF0C7
:103500009E3F510568F0B6C000C15F3FECF3983EA6
:10351000DCF3869577956795B795F7959F5FC9F723
:10352000880F911D9695879597F90895E1E0660FAC
:10353000771F881FBB1F621773078407BA0720F025
:10354000621B730B840BBA0BEE1F88F7E09508958E
:1035500004D06894B111D9C00895BCD088F09F57A9
:1035600090F0B92F9927B751A0F0D1F0660F771FCF
:10357000881F991F1AF0BA95C9F712C0B13081F0AF
:10358000C3D0B1E00895C0C0672F782F8827B85FF7
:1035900039F0B93FCCF3869577956795B395D9F710
:1035A0003EF490958095709561957F4F8F4F9F4F1A
:1035B0000895E89409C097FB3EF490958095709526
:1035C00061957F4F8F4F9F4F9923A9F0F92F96E96F
:1035D000BB279395F695879577956795B795F111E4
:1035E000F8CFFAF4BB0F11F460FF1BC06F5F7F4F81
:1035F0008F4F9F4F16C0882311F096E911C0772393
:1036000021F09EE8872F762F05C0662371F096E89B
:10361000862F70E060E02AF09A95660F771F881F6A
:10362000DAF7880F9695879597F90895990F00080E
:10363000550FAA0BE0E8FEEF16161706E807F90784
:10364000C0F012161306E407F50798F0621B730B1F
:10365000840B950B39F40A2661F0232B242B252BA0
:1036600021F408950A2609F4A140A6958FEF811D43
:10367000811D089597F99F6780E870E060E00895E4
:103680009FEF80EC089500240A941616170618067A
:103690000906089500240A94121613061406050656
:1036A0000895092E0394000C11F4882352F0BB0FE7
:1036B00040F4BF2B11F460FF04C06F5F7F4F8F4F4A
:1036C0009F4F089557FD9058440F551F59F05F3F85
:1036D00071F04795880F97FB991F61F09F3F79F034
:1036E00087950895121613061406551FF2CF4695B6
:1036F000F1DF08C0161617061806991FF1CF869538
:103700007105610508940895E894BB27662777271B
:10371000CB0197F908958ADF08F48FEF08950BD055
:10372000C0CFB1DF28F0B6DF18F0952309F0A2CFA3
:10373000A7CF1124EACFC6DFA0F3959FD1F3950F51
:1037400050E0551F629FF001729FBB27F00DB11D25
:10375000639FAA27F00DB11DAA1F649F6627B00DB5
:10376000A11D661F829F2227B00DA11D621F739F9E
:10377000B00DA11D621F839FA00D611D221F749FAC
:103780003327A00D611D231F849F600D211D822FF3
:10379000762F6A2F11249F5750408AF0E1F088233A
:1037A0004AF0EE0FFF1FBB1F661F771F881F915047
:1037B0005040A9F79E3F510570F05CCFA6CF5F3F08
:1037C000ECF3983EDCF3869577956795B795F7957A
:1037D000E7959F5FC1F7FE2B880F911D9695879502
:1037E00097F9089511F40EF44BCF4AC073DFD0F36C
:1037F0009923D9F3CEF39F57550B87FF51D0569598
:103800009795B0E020F4660F771F881FBB1F1F93AA
:103810000F9300249001A0018001F001A0E80E0F99
:103820001F1F0A1E511D601B710B8009B50B48F448
:10383000600F711F801DB51F0E1B1F0B0A0A510957
:1038400007C02E0F3F1F4A1F0E0F1F1F0A1E511DBC
:10385000660F771F881FBB1FA695F795E795F8F6AB
:103860000617170708065B07211D311D411D0F9123
:103870001F91B901842F9158880F969587950895C7
:103880009F3F49F0915028F4869577956795B795B5
:103890009F5F80389F4F880F9695879597F9089579
:1038A00091505040660F771F881FD2F70895629F8E
:1038B000D001739FF001829FE00DF11D649FE00D28
:1038C000F11D929FF00D839FF00D749FF00D659F89
:1038D000F00D9927729FB00DE11DF91F639FB00D88
:1038E000E11DF91FBD01CF011124089597FB092E99
:1038F00007260AD077FD04D02ED006D000201AF477
:10390000709561957F4F0895F6F7909581959F4F3B
:103910000895A1E21A2EAA1BBB1BFD010DC0AA1F10
:10392000BB1FEE1FFF1FA217B307E407F50720F028
:10393000A21BB30BE40BF50B661F771F881F991FA3
:103940001A9469F760957095809590959B01AC01EC
:10395000BD01CF010895AA1BBB1B51E107C0AA1FDF
:10396000BB1FA617B70710F0A61BB70B881F991F20
:103970005A95A9F780959095BC01CD010895EE0F59
:0E398000FF1F0590F491E02D0994F894FFCFFD
:10398E004D6F746F72697A6564205261696C00764E
:10399E00302E31002053696D706C65204D6F766549
:1039AE000020536D6172742053657175656E636589
:1039BE00003E002042617369632053657175656E28
:1039CE0063650020002053706565643A0020506FD7
:1039DE00736974696F6E3A00204650533A00204F57
:1039EE0075747075743A00204576656E743A0020D1
:1039FE0052616E67653A00205374617274002D0037
:103A0E002044656C61793A00204672616D65733AA7
:103A1E0000204D6F76653A004D6F746F72697A654E
:103A2E00642043616D6572610073746172745F63CB
:103A3E00757272656E744C6F636174696F6E3A2045
:103A4E0000656E645F63757272656E744C6F636150
:103A5E0074696F6E3A20002A2A2A2A2A2A2A2A2ACA
:103A6E002A2A2A2A2A2A2A2A2A2A2A2A2A2A2A2AA8
:103A7E002A2A2A2A2A004E4F20414343454C4552BA
:103A8E004154494F4E2C20544F20534C4F57212117
:103A9E00210043414E204E4F54204D454554204465
:103AAE004541444C494E452C20544F2046415354D9
:103ABE00212121004E4F20414343454C4552415454
:103ACE00494F4E2C20544F2053484F525421212100
:103ADE00006D6F7665546F74616C3A200073746577
:103AEE0070733A200053746172742073706565644C
:103AFE003A20002046756C6C2073706565643A2020
:103B0E000074696D6552616D703A200066756C6C5B
:103B1E0053706565643A2000416363656C53686F4A
:103B2E00756C643A20002F2F52616D70696E67209C
:103B3E0075700053746172742073746570207065B3
:103B4E0072696F643A2000206D6963726F736563EA
:103B5E006F6E64730064656C617920696E63726563
:103B6E006D656E743A2000537465702054696D65EE
:103B7E003A20002054696D653A2000206D730020B4
:103B8E00416363656C65726174696F6E49733A2047
:103B9E00002073746570732F735E3200202D2D2DEF
:103BAE002D2D2D2D2D2D2D2D2D2D2D2D2D2D2D2D37
:103BBE002D2D2D2D2D2D2D2D2D2D2D002D2D436FFC
:103BCE006E7374616E742073706565640020737417
:103BDE006570733A20002073746570732F73002024
:103BEE00436F6E7374616E742064656C61792070BE
:103BFE00657220737465703A20002064656C61797B
:103C0E0020696E6372656D656E743A200020300017
:103C1E005C52616D70696E6720646F776E0020452F
:103C2E006E642073706565643A200020456E6420D2
:103C3E0064656C61793A2000207265766F6C7574DC
:103C4E00696F6E733A20002064697374616E6365E8
:103C5E003A20004162736F6C757465205065726313
:103C6E00656E74204D6F766500202A2A2A2A2A2A2C
:103C7E002A2A2A2A2A2A2A2A2A2A2A2A2A2A2A2A96
:103C8E002A2A2A2A2A2A2A2A0009097065726365B5
:103C9E006E743A20002E0001000000004401CD1782
:103CAE000000400014005400000000003217CD1731
:083CBE00C616F716D7162017F1
:00000001FF
