:100000000C9464000C948C000C948C000C948C0068
:100010000C948C000C948C000C948C000C948C0030
:100020000C948C000C948C000C948C000C948C0020
:100030000C948C000C948C000C948C000C948C0010
:100040000C9463090C948C000C94D10A0C94050B4D
:100050000C948C000C948C000C948C000C948C00F0
:100060000C948C000C948C000000000024002700ED
:100070002A0000000000250028002B0000000000DE
:1000800023002600290004040404040404040202DA
:100090000202020203030303030301020408102007
:1000A0004080010204081020010204081020000012
:1000B0000007000201000003040600000000000029
:1000C00000008E007F057C0C11241FBECFEFD8E00E
:1000D000DEBFCDBF14E0A0E0B1E0E8E0F3E202C093
:1000E00005900D92AC33B107D9F715E0ACE3B4E05D
:1000F00001C01D92AE31B107E1F710E0C8ECD0E0CD
:1001000004C02297FE010E947E11C23CD107C9F7AC
:100110000E94DF000C9482110C9400008CE394E0A8
:1001200060E00E94190787E494E061E00E94F8060D
:1001300008958CE394E060E574E00E9435078CE359
:1001400094E00E942707882341F18CE394E00E9409
:100150002A078CE394E060E574E00E94AC076093AA
:100160005C0470935D0480935E0490935F048CE361
:1001700094E06AE574E040E554E00E942D07209188
:100180005C0430915D0440915E0450915F0487E40B
:1001900094E06AE574E00E94880508958CE394E099
:1001A00040E050E061EE77E40E9437098DE061E0C5
:1001B0000E94570A8DE061E00E947D0A08950E9426
:1001C0001C0A0E94CE000E949900FDCFFC016783AB
:1001D0000895FC01768365830895FC01608308958A
:1001E000FC017587648708952F923F924F925F922A
:1001F0006F927F928F929F92AF92BF92CF92DF9237
:10020000EF92FF920F931F93DF93CF93CDB7DEB79B
:100210006C970FB6F894DEBF0FBECDBF1C015A011C
:100220006B01DC0111968C91119717966C910E94CD
:100230007D0A62E370E080E090E00E94B909F1017C
:10024000E084F18402851385C801B70120E030E025
:1002500040E050E00E94430F882389F1C801B701B4
:1002600025E83CE740E55AE30E94470F0E94AF0FA4
:10027000D1011D967C936E931C978FEF94E060E004
:1002800071E00E94170EF1014085518562857385EA
:100290008FEF94E022E030E00E94B80E8FEF94E000
:1002A0006BE071E00E94170ED1011C966D917C915C
:1002B0001D978FEF94E04AE050E00E94F80DF101A5
:1002C00064857585882777FD8095982F0E94E20FB9
:1002D00023E333E343E350E40E9496100E94AF0F00
:1002E0008B01D1011D967C936E931C97C601B501BD
:1002F00020E030E048EC53E40E94430F88238CF464
:10030000AD82BE82CF82D88680E090E0AAEFB3E4CF
:1003100089839A83AB83BC8380E090E0A0E0B0E067
:1003200023C0C601B50120E030E048EC53E40E9450
:10033000DE0E6D837E838F8398879801442737FD77
:100340004095542F60E472E48FE090E00E944D11DC
:10035000CA01B9010E94E20F69837A838B839C836F
:1003600080E090E0A8E4B3E48D879E87AF87B88BE8
:10037000B801882777FD8095982F0E94E20F698742
:100380007A878B879C8720E030E04AEF54E40E9414
:10039000430F87FD08C080E090E0AAEFB4E48987AE
:1003A0009A87AB87BC8769817A818B819C8120E0A9
:1003B00030E04AEF53E40E94DE0E2D853E854F85E6
:1003C00058890E94470F698B7A8B8B8B9C8BD1014C
:1003D0008C91882309F497C08FEF94E060E171E07D
:1003E0000E94170E8FEF94E0B601A50122E030E0E5
:1003F0000E94B80E8FEF94E069E171E00E94CB0E8D
:100400008FEF94E06BE171E00E94170E8FEF94E0A4
:1004100049855A856B857C8522E030E00E94B50EC7
:100420008FEF94E06AE271E00E94170EF10164859B
:1004300075858FEF94E04AE050E00E94E50D8FEF64
:1004400094E068E371E00E94CB0E8FEF94E061E4EA
:1004500071E00E94CB0E8FEF94E061E671E00E94A4
:10046000CB0E8FEF94E060E171E00E94170E8FEFEA
:1004700094E04D855E856F85788922E030E00E94AA
:10048000B80E8FEF94E06BE171E00E94170E8FEFD2
:1004900094E049855A856B857C8522E030E00E9496
:1004A000B50E8FEF94E068E371E00E94CB0E8FEF02
:1004B00094E06DE671E00E94170E8FEF94E040E04B
:1004C00050E06AEF73E422E030E00E94B50E8FEF57
:1004D00094E065E871E00E94CB0E8FEF94E063E951
:1004E00071E00E94170E8FEF94E049895A896B8959
:1004F0007C8922E030E00E94B50E8FEF94E065E841
:1005000071E00E94CB0E0E94AB09698F7A8F8B8FAE
:100510009C8F0F2EF0E06F2EF0E07F2EFAEF8F2EE3
:10052000F3E49F2EF02D84EF482E81E0582E00E05A
:1005300010E039C0D10113968C9161E00E947D0AD0
:10054000C2010E94120AF101838160E00E947D0ACB
:10055000C2010E94120AC401B30129893A894B8958
:100560005C890E94DF0E3B014C0120E030E040E05E
:1005700050E00E94921088234CF0C401B30120E0A7
:1005800030E040E05FE30E94DF0E08C0C401B30129
:1005900020E030E040E05FE30E94DE0E0E94AF0FFB
:1005A0002B010F5F1F4FB801882777FD8095982F8B
:1005B0000E94E20F2D853E854F8558890E94430F8A
:1005C00087FDB8CF0E94AB095B016C01898D9A8DC4
:1005D000AB8DBC8DA81AB90ACA0ADB0AD1011C96D8
:1005E0006D917C911D97882777FD8095982F0E94AB
:1005F000E20F29853A854B855C850E94DE0E20E05E
:1006000030E04AE754E40E9496107B018C01C60159
:10061000B5010E94E20F9B01AC01C801B7010E9425
:10062000470F7B018C018FEF94E066EA71E00E9436
:10063000170E8FEF94E0B601A5012AE030E00E948A
:10064000A50D8FEF94E06EEA71E00E94CB0E8FEF64
:1006500094E062EB71E00E94170E8FEF94E0A70127
:10066000B80122E030E00E94B50E8FEF94E062EC1A
:1006700071E00E94CB0EF1018081882309F459C0FA
:100680008FEF94E061E471E00E94CB0E8FEF94E075
:100690006DEC71E00E94CB0E8FEF94E060E171E0B1
:1006A0000E94170E8FEF94E04D815E816F817885F7
:1006B00022E030E00E94B80E8FEF94E06AE271E031
:1006C0000E94170ED1011C966D917C911D978FEFA2
:1006D00094E04AE050E00E94E50D8FEF94E068E37B
:1006E00071E00E94CB0E8FEF94E06DED71E00E94FF
:1006F000170E8FEF94E0A301B40122E030E00E94D6
:10070000B50E8FEF94E065E871E00E94CB0E8FEF9D
:1007100094E063E971E00E94170E8FEF94E068EFB8
:1007200071E00E94170E8FEF94E065E871E00E947F
:10073000CB0E0E94AB096D8B7E8B8F8B988FAA247A
:10074000BB2465011EC0F101838161E00E947D0A26
:1007500069817A818B819C810E94B40F7B018C011D
:10076000CB010E94120AD10113968C9160E00E9485
:100770007D0AC7010E94120A0894A11CB11CC11C69
:10078000D11CC601B5010E94E20F2D813E814F812F
:1007900058850E94430F87FDD6CF0E94AB097B018D
:1007A0008C018FEF94E066EA71E00E94170E8D894C
:1007B0009E89AF89B88DE81AF90A0A0B1B0B8FEFD7
:1007C00094E0B801A7012AE030E00E94A50D8FEF68
:1007D00094E06EEA71E00E94CB0ED1018C918823E7
:1007E00091F18FEF94E061E471E00E94CB0E8FEF06
:1007F00094E06BEF71E00E94CB0E8FEF94E060E12C
:1008000071E00E94170E8FEF94E04D855E856F8535
:10081000788922E030E00E94B80E8FEF94E069E022
:1008200072E00E94170E8FEF94E049855A856B8520
:100830007C8522E030E00E94B50E8FEF94E068E303
:1008400071E00E94CB0E0E94AB095B016C0100E0DD
:1008500010E039C0F101838161E00E947D0AC2018C
:100860000E94120AD10113968C9160E00E947D0AC9
:10087000C2010E94120AC401B30129893A894B8935
:100880005C890E94DE0E3B014C0120E030E040E03C
:1008900050E00E94921088234CF0C401B30120E084
:1008A00030E040E05FE30E94DF0E08C0C401B30106
:1008B00020E030E040E05FE30E94DE0E0E94AF0FD8
:1008C0002B010F5F1F4FB801882777FD8095982F68
:1008D0000E94E20F2D853E854F8558890E94430F67
:1008E00087FDB8CF0E94AB097B018C01F1018081AB
:1008F000882309F442C08FEF94E066E172E00E9421
:10090000170E8FEF94E0B401A30122E030E00E94C3
:10091000B80E8FEF94E065E871E00E94CB0E8FEF88
:1009200094E063E971E00E94170E8FEF94E049892B
:100930005A896B897C8922E030E00E94B50E8FEFE6
:1009400094E065E871E00E94CB0E8FEF94E066EAD8
:1009500071E00E94170EEA18FB080C091D098FEFC1
:1009600094E0B801A7012AE030E00E94A50D8FEFC6
:1009700094E06EEA71E00E94CB0E6C960FB6F8948C
:10098000DEBF0FBECDBFCF91DF911F910F91FF90C2
:10099000EF90DF90CF90BF90AF909F908F907F901F
:1009A0006F905F904F903F902F900895EF92FF923D
:1009B0000F931F93CF93DF93EC017A018B01888112
:1009C000882371F08FEF94E063E272E00E94170ECB
:1009D0008FEF94E0B801A70122E030E00E94B80E4A
:1009E000C801B70120E030E048EC55E40E949610C1
:1009F000AB01BC01CE010E94F400DF91CF911F91A9
:100A00000F91FF90EF900895EF92FF920F931F9335
:100A1000CF93DF93EC017A018B018881882371F0F9
:100A20008FEF94E062E372E00E94170E8FEF94E084
:100A3000B801A70122E030E00E94B80EC801B7015A
:100A400020E030E040E050E00E94430F2D813E81E5
:100A5000882344F417FB109517F9109521303105C0
:100A600021F406C02130310519F481E08F8301C0E3
:100A70001F82C801B7012DE431E040EA50E40E9432
:100A8000470FAB01BC01CE010E94D604DF91CF918C
:100A90001F910F91FF90EF900895CF92DF92EF9208
:100AA000FF920F931F938C01F62ED72EE42EC52EA6
:100AB000862F61E00E94570A8E2D61E00E94570A3E
:100AC000F801F182D2828FEF9FEF96838583E382D4
:100AD000C48281E0878380E090E0A0E8BFE3808764
:100AE0009187A287B387108280E197E295878487F8
:100AF0001F910F91FF90EF90DF90CF90089580E6C7
:100B000094E063E170E042E150E00E944D050895F9
:100B1000AF92BF92CF92DF92EF92FF920F931F930B
:100B2000CF93DF93EC01FB0159016A0180818D3481
:100B300019F561816D3409F0A1C0688179818A81DC
:100B40009B810E94DF0E688379838A839B838885DB
:100B5000882309F48CC08FEF94E06EE372E00E946A
:100B6000CB0E8FEF94E06FE572E00E94170E8FEFCF
:100B700094E0B601A5015DC0813409F0A4C0618193
:100B8000603509F05BC0E880F9800A811B81CA01E9
:100B9000B90120E030E048EC52E40E94470F2C817C
:100BA0003D814E815F810E949610A80197010E94AD
:100BB000DE0E5B016C01C801B701A60195010E9420
:100BC000DF0E688379838A839B838885882309F471
:100BD0004EC08FEF94E06FE572E00E94170E8FEF2A
:100BE00094E0B601A50122E030E00E94B80E8FEF3C
:100BF00094E06BE672E00E94170E688179818A8129
:100C00009B81A60195010E94DE0EAB01BC018FEF16
:100C100094E022E030E00E94B80E8FEF94E06DE7A0
:100C200072E00E94170E488159816A817B818FEFA3
:100C300094E022E030E00E94B80E19C06D3409F053
:100C4000C6C0E880F9800A811B81CA01B901A801E8
:100C500097010E94DE0E5B016C01C801B701A6017D
:100C600095010E94DF0E688379838A839B8380E6E7
:100C700094E0B601A5010E940405AFC06435E9F512
:100C800087E061E00E947D0A68EE73E080E090E01A
:100C90000E94B90988E061E00E947D0A62E370E089
:100CA00080E090E00E94B90987E060E00E947D0A40
:100CB00062E370E080E090E00E94B90988E060E0C3
:100CC0000E947D0A8AC08434D9F58181823509F079
:100CD0007EC0CA01B9010E94AF0F9B01AC0180E642
:100CE00094E0B9010E94E9008885882309F475C061
:100CF0008FEF94E060E972E05AC0623509F067C096
:100D000080E694E061E00E94E600C601B5012DE4B2
:100D100031E040EA50E40E9496109B01AC016881EA
:100D200079818A819B810E94DF0E688379838A831F
:100D30009B8380E694E0B601A5010E94D6044DC0D5
:100D40008834A1F48181883409F041C080E090E0CA
:100D5000A0E0B0E088839983AA83BB838885882339
:100D6000E1F18FEF94E06AEA72E035C0833579F5FE
:100D70008181833561F58885882379F1CA01B901BC
:100D800020E030E040E050E00E9492101816D4F4C9
:100D9000C601B5010E94AF0F9B01AC0180E694E053
:100DA000B9010E94F0008FEF94E06FEB72E00E94B7
:100DB000170E8FEF94E0B601A50122E030E00E940B
:100DC000B80E0BC08FEF94E06EEC72E004C08FEFB2
:100DD00094E064EF72E00E94CB0EDF91CF911F91FF
:100DE0000F91FF90EF90DF90CF90BF90AF9008955C
:100DF000FF920F931F938C01F62E87E061E00E9413
:100E0000570A88E061E00E94570A80E090E0A0E97C
:100E1000B2E4F80184839583A683B78381E0808759
:100E200080E694E06F2D0E94ED001F910F91FF90DE
:100E30000895FC018AE090E09383828311821082FE
:100E400082E090E095838483128660870895FC0198
:100E500082850895FC0112860895DB01FA018081E4
:100E60008C93818111968C930895DF92EF92FF927B
:100E70000F931F93CF93DF93EC017B01DD24D39479
:100E80005CC062E370E080E090E00E94B909888174
:100E90009981892B71F420E030E006C0F701E20F60
:100EA000F31F10822F5F3F4F8A819B8128173907DC
:100EB000ACF3088119810F5F1F4F198308838FEFEF
:100EC00094E00E94050C0E0D1F1D01501040F8010A
:100ED00080838885882301F18FEF94E068E073E0D8
:100EE0000E94170EE881F981EE0DFF1D31978FEFFB
:100EF00094E060810E94F60C8FEF94E06FE073E065
:100F00000E94170E68817981615070408FEF94E0E4
:100F10004AE050E00E94F80D28813981F701E20F84
:100F2000F31F319780818A3041F4215030403F8354
:100F30002E8319821882D986DA868FEF94E00E9478
:100F4000D40B892B09F09DCFDF91CF911F910F9189
:100F5000FF90EF90DF9008952F923F924F925F9213
:100F60006F927F928F929F92AF92BF92CF92DF92B9
:100F7000EF92FF920F931F93DF93CF9300D000D097
:100F800000D0CDB7DEB76C017E836D83DC0118968F
:100F90008C91882391F08FEF94E065E173E00E94DB
:100FA000CB0E8FEF94E06EE273E00E94CB0E8FEFDA
:100FB00094E065E173E00E94CB0ED6011496ED91AA
:100FC000FC9115972D813E81E20FF31F80818D32B8
:100FD00039F081E090E09C838B831A8219821CC0D7
:100FE000D60118968C91882349F4EFEFFFEFFC832C
:100FF000EB8321E030E03A8329830EC08FEF94E049
:1010000061E473E00E94CB0E8FEF9FEF9C838B8394
:10101000A1E0B0E0BA83A9830F2EF0E08F2EF0E0BC
:101020009F2EF0E0AF2EF0E0BF2EF02D01E010E09B
:101030000F2EF0E04F2EF0E05F2EF0E86F2EFFE372
:101040007F2EF02D222433247FC0FF2069F08FEF04
:1010500094E068E573E00E94170E8FEF94E0B10111
:101060004AE050E00E94F80DD6011696ED91FC91F1
:1010700017973197E219F3092D813E81E20FF31F93
:1010800080811896FC908E32E1F4FF2031F08FEFD2
:1010900094E06DE573E00E94CB0EEE24FF240DC0BA
:1010A000C301B2012DEC3CEC4CEC5DE30E949610C8
:1010B0002B013C010894E11CF11CE214F30484F3BD
:1010C00040C0992787FD9095C097809FB001819F70
:1010D000700D909F700D1124882777FD8095982FB3
:1010E0000E94E20F9B01AC01C501B4010E94DF0E1A
:1010F0004B015C01FF20D9F08FEF94E064E773E0CF
:101100000E94170E8FEF94E0B8014AE050E00E9471
:10111000F80D8FEF94E067E873E00E94170E8FEFF1
:1011200094E0B501A40122E030E00E94B80EC801AD
:10113000880F991F23E0000F111F2A95E1F7080F70
:10114000191F0894211C311CD60116968D919C9173
:10115000179714962D913C911597821B930BE9815B
:10116000FA818E1B9F0B1896FC90281639060CF4FA
:101170006CCFFF2009F44FC08FEF94E06AEA73E070
:101180000E94CB0E8FEF94E06CEA73E00E94CB0ECE
:101190008FEF94E064EB73E00E94170E8FEF94E002
:1011A000B301A20122E030E00E94B80E8FEF94E07C
:1011B0006DEC73E00E94170E8FEF94E0B501A4016F
:1011C00022E030E00E94B80E8FEF94E06EED73E005
:1011D0000E94170E2B813C81B901882777FD8095ED
:1011E000982F0E94E20F9B01AC01C501B4010E943F
:1011F0009610A30192010E949610AB01BC018FEFE3
:1012000094E022E030E00E94B80E8FEF94E065E1B8
:1012100073E00E94CB0EAB81BC81BD01882777FDB6
:101220008095982F0E94E20F9B01AC01C501B4018B
:101230000E949610A30192010E94961026960FB666
:10124000F894DEBF0FBECDBFCF91DF911F910F91FC
:10125000FF90EF90DF90CF90BF90AF909F908F90D6
:101260007F906F905F904F903F902F900895CF9216
:10127000DF92EF92FF920F931F938C016A017B0123
:10128000CB01BA010E94B40FAB01BC018FEF94E017
:101290000E944E0BF8018085882371F08FEF94E057
:1012A00068E074E00E94170E8FEF94E0B701A6018A
:1012B00022E030E00E94B80E1F910F91FF90EF9056
:1012C000DF90CF9008951F920F920FB60F921124C6
:1012D0002F933F938F939F93AF93BF93809172040B
:1012E00090917304A0917404B091750430917604C8
:1012F0000196A11DB11D232F2D5F2D3720F02D57F5
:101300000196A11DB11D20937604809372049093E1
:101310007304A0937404B093750480916E0490914B
:101320006F04A0917004B09171040196A11DB11DCC
:1013300080936E0490936F04A0937004B093710433
:10134000BF91AF919F918F913F912F910F900FBEC1
:101350000F901F9018958FB7F894209172043091D8
:10136000730440917404509175048FBFB901CA0190
:1013700008959B01AC017FB7F89480916E04909121
:101380006F04A0917004B091710466B5A89B05C06C
:101390006F3F19F00196A11DB11D7FBFBA2FA92F74
:1013A000982F8827860F911DA11DB11D62E0880F1F
:1013B000991FAA1FBB1F6A95D1F7BC012DC0FFB7AB
:1013C000F89480916E0490916F04A0917004B09194
:1013D0007104E6B5A89B05C0EF3F19F00196A11D69
:1013E000B11DFFBFBA2FA92F982F88278E0F911DEF
:1013F000A11DB11DE2E0880F991FAA1FBB1FEA952E
:10140000D1F7861B970B885E9340C8F2215030407D
:101410004040504068517C4F211531054105510530
:1014200071F60895019739F0880F991F880F991F59
:1014300002970197F1F70895789484B5826084BD8E
:1014400084B5816084BD85B5826085BD85B58160C8
:1014500085BDEEE6F0E0808181608083E1E8F0E028
:101460001082808182608083808181608083E0E857
:10147000F0E0808181608083E1EBF0E08081846036
:101480008083E0EBF0E0808181608083EAE7F0E038
:10149000808184608083808182608083808181609C
:1014A00080838081806880831092C1000895482FD6
:1014B00050E0CA0186569F4FFC0124914A575F4F66
:1014C000FA0184918823C1F0E82FF0E0EE0FFF1FAE
:1014D000E859FF4FA591B491662341F49FB7F89462
:1014E0008C91209582238C939FBF08959FB7F89489
:1014F0008C91822B8C939FBF0895482F50E0CA0196
:1015000082559F4FFC012491CA0186569F4FFC01D2
:1015100094914A575F4FFA013491332309F440C044
:10152000222351F1233071F0243028F42130A1F02E
:10153000223011F514C02630B1F02730C1F024302C
:10154000D9F404C0809180008F7703C0809180001F
:101550008F7D8093800010C084B58F7702C084B5E2
:101560008F7D84BD09C08091B0008F7703C08091CA
:10157000B0008F7D8093B000E32FF0E0EE0FFF1FEF
:10158000EE58FF4FA591B4912FB7F894662321F43C
:101590008C919095892302C08C91892B8C932FBFBD
:1015A00008951F920F920FB60F9211242F933F931D
:1015B0004F938F939F93EF93FF934091C600209199
:1015C000B7043091B8042F5F3F4F2F733070809174
:1015D000B9049091BA042817390759F0E091B7047B
:1015E000F091B804E958FB4F40833093B80420933E
:1015F000B704FF91EF919F918F914F913F912F9160
:101600000F900FBE0F901F9018951F920F920FB65C
:101610000F9211242F933F934F935F936F937F9378
:101620008F939F93AF93BF93EF93FF932091FB040E
:101630003091FC048091FD049091FE042817390735
:1016400031F48091C1008F7D8093C10016C0E0917C
:10165000FD04F091FE04E554FB4F40818091FD04B0
:101660009091FE04019660E470E00E94181190933E
:10167000FE048093FD044093C600FF91EF91BF915B
:10168000AF919F918F917F916F915F914F913F911A
:101690002F910F900FBE0F901F901895AF92BF9291
:1016A000DF92EF92FF920F931F93CF93DF93EC01A2
:1016B0007A018B01DD24403081EE580780E0680715
:1016C00080E0780711F0DD24D39491E0A92EB12CAD
:1016D000EC89FD89DD2069F0C5010E8C02C0880F00
:1016E000991F0A94E2F7808360E079E08DE390E04F
:1016F00005C0108260E874E88EE190E0A8019701CF
:101700000E942B1121503040404050405695479543
:101710003795279580E12030380720F0DD2011F043
:10172000DD24D6CFE889F9893083EA89FB892083D3
:10173000EE89FF89408121E030E0C9010A8C02C0B6
:10174000880F991F0A94E2F7482B4083EE89FF899E
:101750004081C9010B8C02C0880F991F0A94E2F7DF
:10176000482B4083EE89FF894081C9010C8C02C05F
:10177000880F991F0A94E2F7482B4083EE89FF896E
:1017800080810D8C02C0220F331F0A94E2F720954E
:1017900028232083DF91CF911F910F91FF90EF902D
:1017A000DF90BF90AF900895DC011C96ED91FC9105
:1017B0001D97E05CFF4F2191319180819181281B21
:1017C000390B2F733070C9010895DC011C96ED911F
:1017D000FC911D97E05CFF4F20813181E054F04087
:1017E000DF01AE5BBF4F8D919C9111972817390790
:1017F00019F42FEF3FEF07C08D919C91E80FF91F6F
:101800008081282F30E0C9010895DC011C96ED91FC
:10181000FC911D97E05CFF4F20813181E054F04046
:10182000DF01AE5BBF4F8D919C911197281739074F
:1018300019F42FEF3FEF10C08D919C911197E80F95
:10184000F91F20818D919C91119701968F73907053
:1018500011969C938E9330E0C9010895FC01868512
:101860009785DC01A05CBF4FFC01EE5BFF4F2D9123
:101870003C9111978081918128173907C1F708950C
:10188000CF93DF93EC01462FEE85FF85E05CFF4FA1
:1018900080819181E054F040019660E470E00E9404
:1018A00018119C01DF01AE5BBF4F8D919C91119788
:1018B00028173907D1F3E05CFF4F80819181E05414
:1018C000F040E80FF91F4083EE85FF85E05CFF4F95
:1018D00031832083EE89FF89208181E090E00D8CA7
:1018E00002C0880F991F0A94E2F7282B208381E019
:1018F00090E0DF91CF9108951092020510920105BA
:1019000088EE93E0A0E0B0E0809303059093040597
:10191000A0930505B093060580E394E0909300053D
:101920008093FF0487E794E090930C0580930B0568
:101930008BEB94E090930E0580930D0585EC90E081
:101940009093100580930F0584EC90E0909312051E
:101950008093110580EC90E090931405809313051B
:1019600081EC90E0909316058093150586EC90E04D
:10197000909318058093170584E08093190583E000
:1019800080931A0587E080931B0585E080931C05F2
:1019900081E080931D050895CF92DF92EF92FF9230
:1019A0000F931F93CF93DF937C016B018A01C0E0FB
:1019B000D0E00FC0D6016D916D01D701ED91FC9182
:1019C0000190F081E02DC7010995C80FD91F015082
:1019D00010400115110571F7CE01DF91CF911F91D4
:1019E0000F91FF90EF90DF90CF900895DC01ED9183
:1019F000FC910190F081E02D09950895EF92FF92FE
:101A00000F931F938C01DC01ED91FC910190F0810B
:101A1000E02D6DE009957C01D801ED91FC910190DC
:101A2000F081E02DC8016AE009959C012E0D3F1D53
:101A3000C9011F910F91FF90EF900895CF93DF930D
:101A4000DB010D900020E9F71197A61BB70BEC0105
:101A5000E881F9810280F381E02DAD010995DF91E4
:101A6000CF9108954F925F927F928F929F92AF9203
:101A7000BF92CF92DF92EF92FF920F931F93DF936B
:101A8000CF93CDB7DEB7A1970FB6F894DEBF0FBEE8
:101A9000CDBF2C01742ECB01223008F42AE019A20C
:101AA00031E2C32ED12CCC0EDD1E822E9924AA2425
:101AB000BB24672D752FA50194010E942B1179017C
:101AC0008A01C801B701A50194010E94F910472DB0
:101AD000461B0894C108D1084A3014F4405D01C087
:101AE000495CF6014083E114F1040105110521F080
:101AF0007E2C5F2DC801DDCFC201B6010E941E0DF4
:101B0000A1960FB6F894DEBF0FBECDBFCF91DF9187
:101B10001F910F91FF90EF90DF90CF90BF90AF900B
:101B20009F908F907F905F904F900895DC012115DA
:101B3000310541F4ED91FC910190F081E02D642F8D
:101B4000099508950E94320D0895CF92DF92EF9289
:101B5000FF920F931F93CF93DF93EC016A017B01F8
:101B60002115310541F4E881F9810190F081E02DE2
:101B7000642F09951FC02A303105D1F477FF17C0B3
:101B8000E881F9810190F081E02D6DE209958C01E9
:101B900044275527BA014C195D096E097F09CE010A
:101BA0002AE00E94320D9801280F391F04C02AE054
:101BB0000E94320D9C01C901DF91CF911F910F91BD
:101BC000FF90EF90DF90CF900895EF92FF920F93E8
:101BD0001F937B019A010027F7FC0095102FB80195
:101BE000A7010E94A50D1F910F91FF90EF900895FE
:101BF000CF92DF92EF92FF920F931F936C017B01C4
:101C00009A010027F7FC0095102FB801A7010E9448
:101C1000A50D8C01C6010E94FE0C080F191FC801FA
:101C20001F910F91FF90EF90DF90CF9008950E9449
:101C30001E0D08957F928F929F92AF92BF92CF9286
:101C4000DF92EF92FF920F931F93CF93DF934C019C
:101C50007A018B01722ECB01BA0120E030E040E026
:101C600050E00E94430F87FD03C0C0E0D0E00EC0EB
:101C7000D401ED91FC910190F081E02DC4016DE261
:101C80000995EC0117FB109517F9109520E030E04D
:101C900040E05FE3AA240BC0CA01B90120E030E0B4
:101CA00040E251E40E94470F9B01AC01A394A714AA
:101CB00098F3C801B7010E94DF0E5B016C010E941E
:101CC000B40F7B018C01C401B801A7012AE030E008
:101CD0000E94960DC80FD91F772039F0C4016AE21F
:101CE00074E00E941E0DC80FD91FC801B7010E94E1
:101CF000E00F9B01AC01C601B5010E94DE0E24C0BD
:101D000020E030E040E251E40E9496107B018C011B
:101D10000E94AF0F5B016C01CC24B7FCC094DC2C9B
:101D2000C401B601A5012AE030E00E94A50DC80F4C
:101D3000D91FC601B5010E94E20F9B01AC01C80189
:101D4000B7010E94DE0E7A947720D1F6CE01DF91A2
:101D5000CF911F910F91FF90EF90DF90CF90BF90A8
:101D6000AF909F908F907F9008950E941A0E0895D3
:101D7000EF92FF920F931F937C010E941A0E8C0129
:101D8000C7010E94FE0C080F191FC8011F910F9177
:101D9000FF90EF900895EF92FF920F931F937C01B5
:101DA0000E941E0D8C01C7010E94FE0C080F191F16
:101DB000C8011F910F91FF90EF9008955058BB27D5
:101DC000AA270ED075C166D130F06BD120F031F466
:101DD0009F3F11F41EF45BC10EF4E095E7FB51C187
:101DE000E92F77D180F3BA17620773078407950745
:101DF00018F071F49EF58FC10EF4E0950B2EBA2FFA
:101E0000A02D0B01B90190010C01CA01A001112400
:101E1000FF27591B99F0593F50F4503E68F11A16AC
:101E2000F040A22F232F342F4427585FF3CF46953D
:101E300037952795A795F0405395C9F77EF41F165F
:101E4000BA0B620B730B840BBAF09150A1F0FF0F29
:101E5000BB1F661F771F881FC2F70EC0BA0F621F15
:101E6000731F841F48F4879577956795B795F79505
:101E70009E3F08F0B3CF9395880F08F09927EE0F97
:101E8000979587950895D9D008F481E008950CD0EE
:101E90000FC107D140F0FED030F021F45F3F19F0C0
:101EA000F0C0511139C1F3C014D198F39923C9F38B
:101EB0005523B1F3951B550BBB27AA276217730750
:101EC000840738F09F5F5F4F220F331F441FAA1F04
:101ED000A9F333D00E2E3AF0E0E830D091505040C4
:101EE000E695001CCAF729D0FE2F27D0660F771F72
:101EF000881FBB1F261737074807AB07B0E809F054
:101F0000BB0B802DBF01FF2793585F4F2AF09E3FE8
:101F1000510568F0B6C000C15F3FECF3983EDCF3BA
:101F2000869577956795B795F7959F5FC9F7880F61
:101F3000911D9695879597F90895E1E0660F771FB3
:101F4000881FBB1F621773078407BA0720F0621B44
:101F5000730B840BBA0BEE1F88F7E095089504D03D
:101F60006894B111D9C00895BCD088F09F5790F003
:101F7000B92F9927B751A0F0D1F0660F771F881FAE
:101F8000991F1AF0BA95C9F712C0B13081F0C3D0C9
:101F9000B1E00895C0C0672F782F8827B85F39F067
:101FA000B93FCCF3869577956795B395D9F73EF40D
:101FB00090958095709561957F4F8F4F9F4F0895B5
:101FC000E89409C097FB3EF49095809570956195D3
:101FD0007F4F8F4F9F4F9923A9F0F92F96E9BB2789
:101FE0009395F695879577956795B795F111F8CF05
:101FF000FAF4BB0F11F460FF1BC06F5F7F4F8F4F70
:102000009F4F16C0882311F096E911C0772321F065
:102010009EE8872F762F05C0662371F096E8862FFD
:1020200070E060E02AF09A95660F771F881FDAF754
:10203000880F9695879597F90895990F0008550F81
:10204000AA0BE0E8FEEF16161706E807F907C0F03E
:1020500012161306E407F50798F0621B730B840B46
:10206000950B39F40A2661F0232B242B252B21F420
:1020700008950A2609F4A140A6958FEF811D811DC0
:10208000089597F99F6780E870E060E008959FEFFA
:1020900080EC089500240A941616170618060906FF
:1020A000089500240A9412161306140605060895CE
:1020B000092E0394000C11F4882352F0BB0F40F456
:1020C000BF2B11F460FF04C06F5F7F4F8F4F9F4F96
:1020D000089557FD9058440F551F59F05F3F71F018
:1020E0004795880F97FB991F61F09F3F79F087957F
:1020F0000895121613061406551FF2CF4695F1DF08
:1021000008C0161617061806991FF1CF8695710597
:10211000610508940895E894BB2766277727CB01CB
:1021200097F908958ADF08F48FEF08950BD0C0CF98
:10213000B1DF28F0B6DF18F0952309F0A2CFA7CFC2
:102140001124EACFC6DFA0F3959FD1F3950F50E09D
:10215000551F629FF001729FBB27F00DB11D639F59
:10216000AA27F00DB11DAA1F649F6627B00DA11DFF
:10217000661F829F2227B00DA11D621F739FB00DA5
:10218000A11D621F839FA00D611D221F749F332715
:10219000A00D611D231F849F600D211D822F762FAE
:1021A0006A2F11249F5750408AF0E1F088234AF0AB
:1021B000EE0FFF1FBB1F661F771F881F91505040F7
:1021C000A9F79E3F510570F05CCFA6CF5F3FECF3BF
:1021D000983EDCF3869577956795B795F795E795E3
:1021E0009F5FC1F7FE2B880F911D9695879597F9F4
:1021F0000895629FD001739FF001829FE00DF11D51
:10220000649FE00DF11D929FF00D839FF00D749F70
:10221000F00D659FF00D9927729FB00DE11DF91F1C
:10222000639FB00DE11DF91FBD01CF011124089579
:1022300097FB092E07260AD077FD04D049D006D097
:1022400000201AF4709561957F4F0895F6F79095E8
:1022500081959F4F0895A1E21A2EAA1BBB1BFD0179
:102260000DC0AA1FBB1FEE1FFF1FA217B307E40775
:10227000F50720F0A21BB30BE40BF50B661F771FCD
:10228000881F991F1A9469F76095709580959095AD
:102290009B01AC01BD01CF01089597FB092E0526D6
:1022A0000ED057FD04D0D7DF0AD0001C38F450956B
:1022B0004095309521953F4F4F4F5F4F0895F6F76A
:1022C00090958095709561957F4F8F4F9F4F0895A2
:1022D000AA1BBB1B51E107C0AA1FBB1FA617B7074C
:1022E00010F0A61BB70B881F991F5A95A9F7809568
:1022F0009095BC01CD010895EE0FFF1F0590F4915C
:08230000E02D0994F894FFCFD1
:102308005F6C696E655370656564005F7370730018
:102318002073746570733A20002000205374617232
:10232800742073706565643A20002046756C6C20D3
:1023380073706565643A20002073746570732F7339
:1023480000202D2D2D2D2D2D2D2D2D2D2D2D2D2DEF
:102358002D2D2D2D2D2D2D2D2D2D2D2D2D2D2D2DA5
:10236800002052616D70696E67207570002073746B
:102378006172742064656C61792070657220737471
:1023880065703A2000206D6963726F7365636F6EC4
:102398006473002064656C617920696E6372656D91
:1023A800656E743A20002054696D653A2000206DEE
:1023B800730020416363656C65726174696F6E3A7E
:1023C80020002073746570732F735E320020436F92
:1023D8006E7374616E742073706565640020436F5A
:1023E8006E7374616E742064656C617920706572B7
:1023F80020737465703A20002030002052616D709F
:10240800696E6720646F776E0020456E6420737074
:102418006565643A200020456E642064656C6179C6
:102428003A2000207265766F6C7574696F6E733A26
:1024380020002064697374616E63653A20002F2F51
:102448002F2F2F2F2F2F2F2F2F2F2F2F2F2F2F2F94
:102458002F2F2F2F2F2F2F2F2F2F2F2F2F2F004D95
:102468006F76696E672062793A2000205374617232
:1024780074206C6F636174696F6E3A20002046693E
:102488006E697368206C6F636174696F6E3A2000BF
:10249800446972656374696F6E2068617320626550
:1024A800656E2073657420746F0063757272656E53
:1024B80074206C6F636174696F6E203D2030005327
:1024C800706565642073657420746F3A2000496EE6
:1024D80076616C696420696E7075743A204E656720
:1024E8006174697665207370656564206F72207AFF
:1024F80065726F00496E76616C696420496E737409
:1025080072756374696F6E00526561643A20003BAE
:10251800206E3A20002D2D2D2D2D2D2D2D2D2D2DDC
:102528002D2D2D2D2D2D2D2D2D2D2D2D2D004445D1
:10253800434F44494E47204E45572056414C554538
:1025480000204E65676174697665207369676E203F
:10255800656E636F646564006E203D2000204465ED
:1025680063696D616C20706F696E7420656E636F4E
:10257800646564002043757272656E7420466163F9
:10258800746F72203D20002043757272656E74204E
:1025980073756D206F662072657475726E65642040
:1025A80076616C756573203D2000200053554D4DB4
:1025B8004152590020446563696D616C20706F69F0
:1025C8006E7420666163746F72203D20002052652E
:1025D8007475726E2076616C7565203D20002054FC
:1025E80068652072656365697665642073747269CD
:1025F8006E6720686173206265656E206465636F2D
:1026080064656420746F3A0053657269616C20696F
:102618006E697469616C697A656420746F2062619F
:10262800756420726174653A20002E000000000075
:0C263800400CCC0CD40B050CE50B2E0C58
:00000001FF
