:100000000C9464000C948C000C948C000C948C0068
:100010000C948C000C948C000C948C000C948C0030
:100020000C948C000C948C000C948C000C948C0020
:100030000C948C000C948C000C948C000C948C0010
:100040000C94E7070C948C000C9447090C947B09E2
:100050000C948C000C948C000C948C000C948C00F0
:100060000C948C000C948C000000000024002700ED
:100070002A0000000000250028002B0000000000DE
:1000800023002600290004040404040404040202DA
:100090000202020203030303030301020408102007
:1000A0004080010204081020010204081020000012
:1000B0000007000201000003040600000000000029
:1000C00000008E000904F20A11241FBECFEFD8E011
:1000D000DEBFCDBF13E0A0E0B1E0EEECFFE102C077
:1000E00005900D92AE3BB107D9F714E0AEEBB3E04B
:1000F00001C01D92A03AB107E1F710E0C8ECD0E0D2
:1001000004C02297FE010E94E10FC23CD107C9F74B
:100110000E94DF000C94E50F0C9400008EEB93E03E
:1001200061E00E949D0589EC93E061E00E947C05FE
:1001300008958EEB93E062ED73E00E94B9058EEBBB
:1001400093E00E94AB05882341F18EEB93E00E947F
:10015000AE058EEB93E062ED73E00E943006609393
:10016000DE037093DF038093E0039093E1038EEB53
:1001700093E06CED73E042ED53E00E94B1052091F5
:10018000DE033091DF034091E0035091E10389ECFD
:1001900093E06CED73E00E94120408958EEB93E0FF
:1001A00040E050E061EE77E40E94BB078DE061E043
:1001B0000E94CD088DE061E00E94F30808950E943E
:1001C00092080E94CE000E949900FDCFFC01678337
:1001D0000895FC01768365830895FC01608308958A
:1001E000FC017587648708952F923F924F925F922A
:1001F0006F927F928F929F92AF92BF92CF92DF9237
:10020000EF92FF920F931F93DF93CF93CDB7DEB79B
:1002100060970FB6F894DEBF0FBECDBF2C013A0138
:100220004B01DC0111968C91119717966C910E94ED
:10023000F30862E370E080E090E00E942F08F20192
:1002400004851585C401B30120E030E046E154E4A3
:100250000E94A60D88238CF46D827E828F82988600
:100260008EE69BEDAEE0B3E489839A83AB83BC83D7
:1002700080E090E0A0E0B0E023C0C401B30120E042
:1002800030E048EC53E40E94410D6D837E838F8300
:1002900098879801442737FD4095542F60E472E415
:1002A0008FE090E00E94B00FCA01B9010E94450E94
:1002B00069837A838B839C8380E090E0A8E4B3E435
:1002C00089879A87AB87BC87B801882777FD809597
:1002D000982F0E94450E5B016C0120E030EC4AED46
:1002E00055E40E94A60D87FD0AC00F2EF0E0AF2E48
:1002F000F0ECBF2EFAEDCF2EF5E4DF2EF02D698164
:100300007A818B819C812EE63BED4EE053E40E9486
:10031000410D29853A854B855C850E94AA0D6D8724
:100320007E878F87988BD2018C91882309F46DC0CA
:1003300081E894E060E071E00E947A0C81E894E04A
:10034000B401A30122E030E00E941B0D81E894E09B
:1003500069E071E00E942E0D81E894E06BE071E0AD
:100360000E947A0C81E894E0B601A50122E030E019
:100370000E94180D81E894E06AE171E00E947A0C15
:10038000F2016485758581E894E04AE050E00E94BE
:100390005B0C81E894E068E271E00E942E0D81E838
:1003A00094E068E471E00E942E0D81E894E060E042
:1003B00071E00E947A0C81E894E049855A856B854A
:1003C0007C8522E030E00E941B0D81E894E064E52A
:1003D00071E00E947A0C81E894E04EE65BED6EE0FD
:1003E00073E422E030E00E941B0D81E894E06CE6AB
:1003F00071E00E947A0C81E894E04D855E856F85FE
:10040000788922E030E00E941B0D8EE8282E312CE6
:1004100000E010E00F2EFEE6AF2EFBEDBF2EFEE05B
:10042000CF2EF3E4DF2EF02D39C0D20113968C913C
:1004300061E00E94F308C1010E948808F2018381F3
:1004400060E00E94F308C1010E948808C601B5015E
:100450002D853E854F8558890E94420D5B016C01B8
:1004600020E030E040E050E00E94F50E88234CF0A0
:10047000C601B50120E030E040E05FE30E94420D9C
:1004800008C0C601B50120E030E040E05FE30E9413
:10049000410D0E94120E1B010F5F1F4FB8018827EC
:1004A00077FD8095982F0E94450E29853A854B85CA
:1004B0005C850E94A60D87FDB8CFD2018C91882360
:1004C000C9F181E894E068E271E00E942E0D81E8B4
:1004D00094E06FE771E00E942E0D81E894E060E007
:1004E00071E00E947A0C81E894E04D815E816F8119
:1004F000788522E030E00E941B0D81E894E06AE1FB
:1005000071E00E947A0CF2016485758581E894E0BF
:100510004AE050E00E945B0C81E894E06FE871E0F3
:100520000E947A0C81E894E0A501B60122E030E057
:100530000E941B0D6624772443011EC0D20113962E
:100540008C9161E00E94F30869817A818B819C81A2
:100550000E94170E7B018C01CB010E948808F201DA
:10056000838160E00E94F308C7010E948808089414
:10057000611C711C811C911CC401B3010E94450EB9
:100580002D813E814F8158850E94A60D87FDD6CFD3
:10059000D2018C918823E1F081E894E068E271E077
:1005A0000E942E0D81E894E06AEA71E00E942E0D0F
:1005B00081E894E060E071E00E947A0C81E894E0C8
:1005C00049855A856B857C8522E030E00E941B0DB1
:1005D00000E010E039C0F201838161E00E94F3087D
:1005E000C1010E948808D20113968C9160E00E949C
:1005F000F308C1010E948808C601B5012D853E851A
:100600004F8558890E94410D5B016C0120E030E06C
:1006100040E050E00E94F50E88234CF0C601B50181
:1006200020E030E040E05FE30E94420D08C0C601D8
:10063000B50120E030E040E05FE30E94410D0E9400
:10064000120E1B010F5F1F4FB801882777FD8095A1
:10065000982F0E94450E29853A854B855C850E941E
:10066000A60D87FDB8CFF20180818823A1F081E833
:1006700094E068EB71E00E947A0C81E894E0B601A6
:10068000A50122E030E00E941B0D81E894E069E0C2
:1006900071E00E942E0D60960FB6F894DEBF0FBE7B
:1006A000CDBFCF91DF911F910F91FF90EF90DF9021
:1006B000CF90BF90AF909F908F907F906F905F9002
:1006C0004F903F902F900895EF92FF920F931F93BA
:1006D000CF93DF93EC017A018B018881882371F03D
:1006E00081E894E065EC71E00E947A0C81E894E086
:1006F000B801A70122E030E00E941B0DC801B7013C
:1007000020E030E048EC55E40E94F90EAB01BC015A
:10071000CE010E94F400DF91CF911F910F91FF90C5
:10072000EF900895EF92FF920F931F93CF93DF9373
:10073000EC017A018B018881882371F081E894E0D3
:1007400064ED71E00E947A0C81E894E0B801A701A1
:1007500022E030E00E941B0DC801B70120E030E02C
:1007600040E050E00E94A60D2D813E81882344F494
:1007700017FB109517F910952130310521F406C0AB
:100780002130310519F481E08F8301C01F82C80137
:10079000B7012DE431E040EA50E40E94AA0DAB011C
:1007A000BC01CE010E946403DF91CF911F910F9194
:1007B000FF90EF900895CF92DF92EF92FF920F9308
:1007C0001F938C01F62ED72EE42EC52E862F61E0C6
:1007D0000E94CD088E2D61E00E94CD08F801F182C3
:1007E000D28281E090E096838583E382C48281E0B7
:1007F000878380E090E0A0E8BFE380879187A287AD
:10080000B38710821F910F91FF90EF90DF90CF90F0
:10081000089582EE93E063E170E042E150E00E94CF
:10082000DB030895AF92BF92CF92DF92EF92FF92D7
:100830000F931F93CF93DF93EC01FB0159016A01E2
:1008400080818D34E9F461816D3409F09BC0688149
:1008500079818A819B810E94420D688379838A8392
:100860009B838885882309F486C081E894E060EE44
:1008700071E00E947A0C81E894E0B601A5015DC0A8
:10088000813409F0A4C06181603509F05BC0E88063
:10089000F9800A811B81CA01B90120E030E048ECEF
:1008A00052E40E94AA0D2C813D814E815F810E94FD
:1008B000F90EA80197010E94410D5B016C01C8016E
:1008C000B701A60195010E94420D688379838A834E
:1008D0009B838885882309F44EC081E894E060EE0C
:1008E00071E00E947A0C81E894E0B601A50122E053
:1008F00030E00E941B0D81E894E06CEE71E00E94F4
:100900007A0C688179818A819B81A60195010E9478
:10091000410DAB01BC0181E894E022E030E00E948F
:100920001B0D81E894E06EEF71E00E947A0C488123
:1009300059816A817B8181E894E022E030E00E9465
:100940001B0D19C06D3409F0C6C0E880F9800A811A
:100950001B81CA01B901A80197010E94410D5B01E9
:100960006C01C801B701A60195010E94420D688380
:1009700079838A839B8382EE93E0B601A5010E946E
:100980009203AFC06435E9F587E061E00E94F308A7
:1009900068EE73E080E090E00E942F0888E061E05C
:1009A0000E94F30862E370E080E090E00E942F086C
:1009B00087E060E00E94F30862E370E080E090E08E
:1009C0000E942F0888E060E00E94F3088AC0843407
:1009D000D9F58181823509F07EC0CA01B9010E9432
:1009E000120E9B01AC0182EE93E0B9010E94E90076
:1009F0008885882309F475C081E894E061E172E09C
:100A00005AC0623509F067C082EE93E061E00E944F
:100A1000E600C601B5012DE431E040EA50E40E9451
:100A2000F90E9B01AC01688179818A819B810E94CA
:100A3000420D688379838A839B8382EE93E0B601BB
:100A4000A5010E9464034DC08834A1F481818834DB
:100A500009F041C080E090E0A0E0B0E08883998395
:100A6000AA83BB8388858823E1F181E894E06BE267
:100A700072E035C0833579F58181833561F58885EC
:100A8000882379F1CA01B90120E030E040E050E06C
:100A90000E94F50E1816D4F4C601B5010E94120E7C
:100AA0009B01AC0182EE93E0B9010E94F00081E865
:100AB00094E060E472E00E947A0C81E894E0B60170
:100AC000A50122E030E00E941B0D0BC081E894E0FC
:100AD0006FE472E004C081E894E065E772E00E9490
:100AE0002E0DDF91CF911F910F91FF90EF90DF902E
:100AF000CF90BF90AF900895FF920F931F938C01FA
:100B0000F62E87E061E00E94CD0888E061E00E9457
:100B1000CD0880E090E0A0E9B2E4F80184839583F9
:100B2000A683B78381E0808782EE93E06F2D0E94D9
:100B3000ED001F910F91FF900895FC018AE090E075
:100B4000938382831182108282E090E09583848374
:100B5000128660870895FC0182850895FC01128643
:100B60000895DB01FA0180818C93818111968C9329
:100B70000895DF92EF92FF920F931F93CF93DF932D
:100B8000EC017B01DD24D3945CC062E370E080E083
:100B900090E00E942F0888819981892B71F420E0D0
:100BA00030E006C0F701E20FF31F10822F5F3F4FC6
:100BB0008A819B8128173907ACF3088119810F5F5F
:100BC0001F4F1983088381E894E00E947B0A0E0D71
:100BD0001F1D01501040F80180838885882301F192
:100BE00081E894E069E872E00E947A0CE881F9817A
:100BF000EE0DFF1D319781E894E060810E946C0B3F
:100C000081E894E060E972E00E947A0C6881798161
:100C10006150704081E894E04AE050E00E945B0C33
:100C200028813981F701E20FF31F319780818A30E3
:100C300041F4215030403F832E8319821882D98697
:100C4000DA8681E894E00E944A0A892B09F09DCF58
:100C5000DF91CF911F910F91FF90EF90DF9008955A
:100C60002F923F924F925F926F927F928F929F92BC
:100C7000AF92BF92CF92DF92EF92FF920F931F93AA
:100C8000DF93CF9300D000D000D0CDB7DEB76C019A
:100C90007E836D83DC0118968C91882391F081E826
:100CA00094E066E972E00E942E0D81E894E06FEA1C
:100CB00072E00E942E0D81E894E066E972E00E94E5
:100CC0002E0DD6011496ED91FC9115972D813E8144
:100CD000E20FF31F80818D3239F081E090E09C8338
:100CE0008B831A8219821CC0D60118968C91882396
:100CF00049F4EFEFFFEFFC83EB8321E030E03A8330
:100D000029830EC081E894E062EC72E00E942E0D0F
:100D10008FEF9FEF9C838B83A1E0B0E0BA83A98320
:100D20000F2EF0E08F2EF0E09F2EF0E0AF2EF0E0DF
:100D3000BF2EF02D01E010E00F2EF0E04F2EF0E07E
:100D40005F2EF0E86F2EFFE37F2EF02D2224332458
:100D50007FC0FF2069F081E894E069ED72E00E94B5
:100D60007A0C81E894E0B1014AE050E00E945B0C0B
:100D7000D6011696ED91FC9117973197E219F30978
:100D80002D813E81E20FF31F80811896FC908E32F8
:100D9000E1F4FF2031F081E894E06EED72E00E9412
:100DA0002E0DEE24FF240DC0C301B2012DEC3CEC4E
:100DB0004CEC5DE30E94F90E2B013C010894E11C10
:100DC000F11CE214F30484F340C0992787FD909549
:100DD000C097809FB001819F700D909F700D11246E
:100DE000882777FD8095982F0E94450E9B01AC01C6
:100DF000C501B4010E94420D4B015C01FF20D9F0F6
:100E000081E894E065EF72E00E947A0C81E894E05A
:100E1000B8014AE050E00E945B0C81E894E068E091
:100E200073E00E947A0C81E894E0B501A40122E00D
:100E300030E00E941B0DC801880F991F23E0000FAE
:100E4000111F2A95E1F7080F191F0894211C311C66
:100E5000D60116968D919C91179714962D913C91E1
:100E60001597821B930BE981FA818E1B9F0B1896B5
:100E7000FC90281639060CF46CCFFF2009F44FC003
:100E800081E894E06BE273E00E942E0D81E894E02B
:100E90006DE273E00E942E0D81E894E065E373E05B
:100EA0000E947A0C81E894E0B301A20122E030E0D4
:100EB0000E941B0D81E894E06EE473E00E947A0CBE
:100EC00081E894E0B501A40122E030E00E941B0D0E
:100ED00081E894E06FE573E00E947A0C2B813C81FD
:100EE000B901882777FD8095982F0E94450E9B01B8
:100EF000AC01C501B4010E94F90EA30192010E9448
:100F0000F90EAB01BC0181E894E022E030E00E94E0
:100F10001B0D81E894E066E972E00E942E0DAB8122
:100F2000BC81BD01882777FD8095982F0E94450ED2
:100F30009B01AC01C501B4010E94F90EA30192010D
:100F40000E94F90E26960FB6F894DEBF0FBECDBFF5
:100F5000CF91DF911F910F91FF90EF90DF90CF9095
:100F6000BF90AF909F908F907F906F905F904F90C9
:100F70003F902F900895CF92DF92EF92FF920F93C0
:100F80001F938C016A017B01CB01BA010E94170EED
:100F9000AB01BC0181E894E00E94C409F80180859E
:100FA000882371F081E894E069E873E00E947A0C8C
:100FB00081E894E0B701A60122E030E00E941B0D19
:100FC0001F910F91FF90EF90DF90CF9008951F92A7
:100FD0000F920FB60F9211242F933F938F939F93ED
:100FE000AF93BF938091F4039091F503A091F60322
:100FF000B091F7033091F8030196A11DB11D232F85
:101000002D5F2D3720F02D570196A11DB11D209386
:10101000F8038093F4039093F503A093F603B09341
:10102000F7038091F0039091F103A091F203B09146
:10103000F3030196A11DB11D8093F0039093F1037A
:10104000A093F203B093F303BF91AF919F918F915F
:101050003F912F910F900FBE0F901F9018959B01FD
:10106000AC017FB7F8948091F0039091F103A091C7
:10107000F203B091F30366B5A89B05C06F3F19F06A
:101080000196A11DB11D7FBFBA2FA92F982F8827C8
:10109000860F911DA11DB11D62E0880F991FAA1F27
:1010A000BB1F6A95D1F7BC012DC0FFB7F8948091A2
:1010B000F0039091F103A091F203B091F303E6B530
:1010C000A89B05C0EF3F19F00196A11DB11DFFBF00
:1010D000BA2FA92F982F88278E0F911DA11DB11D02
:1010E000E2E0880F991FAA1FBB1FEA95D1F7861B64
:1010F000970B885E9340C8F22150304040405040EA
:1011000068517C4F211531054105510571F608954F
:10111000019739F0880F991F880F991F029701973F
:10112000F1F70895789484B5826084BD84B58160B8
:1011300084BD85B5826085BD85B5816085BDEEE6DF
:10114000F0E0808181608083E1E8F0E010828081BE
:1011500082608083808181608083E0E8F0E080812C
:1011600081608083E1EBF0E0808184608083E0EB4C
:10117000F0E0808181608083EAE7F0E08081846034
:101180008083808182608083808181608083808190
:10119000806880831092C1000895482F50E0CA01F2
:1011A00086569F4FFC0124914A575F4FFA01849164
:1011B0008823C1F0E82FF0E0EE0FFF1FE859FF4F42
:1011C000A591B491662341F49FB7F8948C91209532
:1011D00082238C939FBF08959FB7F8948C91822BA4
:1011E0008C939FBF0895482F50E0CA0182559F4FAE
:1011F000FC012491CA0186569F4FFC0194914A57E5
:101200005F4FFA013491332309F440C0222351F196
:10121000233071F0243028F42130A1F0223011F570
:1012200014C02630B1F02730C1F02430D9F404C006
:10123000809180008F7703C0809180008F7D8093A4
:10124000800010C084B58F7702C084B58F7D84BDC7
:1012500009C08091B0008F7703C08091B0008F7D6E
:101260008093B000E32FF0E0EE0FFF1FEE58FF4F2A
:10127000A591B4912FB7F894662321F48C919095A1
:10128000892302C08C91892B8C932FBF08951F92C4
:101290000F920FB60F9211242F933F934F938F937A
:1012A0009F93EF93FF934091C600209139043091B2
:1012B0003A042F5F3F4F2F73307080913B04909121
:1012C0003C042817390759F0E0913904F0913A04A9
:1012D000E750FC4F408330933A0420933904FF9148
:1012E000EF919F918F914F913F912F910F900FBE52
:1012F0000F901F9018951F920F920FB60F92112406
:101300002F933F934F935F936F937F938F939F930D
:10131000AF93BF93EF93FF9320917D0430917E04B0
:1013200080917F04909180042817390731F48091CF
:10133000C1008F7D8093C10016C0E0917F04F091C1
:101340008004E35CFB4F408180917F049091800496
:10135000019660E470E00E947B0F9093800480937C
:101360007F044093C600FF91EF91BF91AF919F9191
:101370008F917F916F915F914F913F912F910F903E
:101380000FBE0F901F901895AF92BF92DF92EF9211
:10139000FF920F931F93CF93DF93EC017A018B01A0
:1013A000DD24403081EE580780E0680780E0780750
:1013B00011F0DD24D39491E0A92EB12CEC89FD89A4
:1013C000DD2069F0C5010E8C02C0880F991F0A94B8
:1013D000E2F7808360E079E08DE390E005C0108261
:1013E00060E874E88EE190E0A80197010E948E0FFA
:1013F00021503040404050405695479537952795AD
:1014000080E12030380720F0DD2011F0DD24D6CF38
:10141000E889F9893083EA89FB892083EE89FF898D
:10142000408121E030E0C9010A8C02C0880F991F79
:101430000A94E2F7482B4083EE89FF894081C90175
:101440000B8C02C0880F991F0A94E2F7482B408347
:10145000EE89FF894081C9010C8C02C0880F991F59
:101460000A94E2F7482B4083EE89FF8980810D8C36
:1014700002C0220F331F0A94E2F72095282320830D
:10148000DF91CF911F910F91FF90EF90DF90BF9070
:10149000AF900895DC011C96ED91FC911D97E05CE6
:1014A000FF4F2191319180819181281B390B2F733E
:1014B0003070C9010895DC011C96ED91FC911D97D7
:1014C000E05CFF4F20813181E054F040DF01AE5BF2
:1014D000BF4F8D919C9111972817390719F42FEF61
:1014E0003FEF07C08D919C91E80FF91F8081282F55
:1014F00030E0C9010895DC011C96ED91FC911D9727
:10150000E05CFF4F20813181E054F040DF01AE5BB1
:10151000BF4F8D919C9111972817390719F42FEF20
:101520003FEF10C08D919C911197E80FF91F20811A
:101530008D919C91119701968F73907011969C9349
:101540008E9330E0C9010895FC0186859785DC0102
:10155000A05CBF4FFC01EE5BFF4F2D913C911197BA
:101560008081918128173907C1F70895CF93DF93C0
:10157000EC01462FEE85FF85E05CFF4F8081918175
:10158000E054F040019660E470E00E947B0F9C0103
:10159000DF01AE5BBF4F8D919C91119728173907E2
:1015A000D1F3E05CFF4F80819181E054F040E80F7F
:1015B000F91F4083EE85FF85E05CFF4F3183208378
:1015C000EE89FF89208181E090E00D8C02C0880FB8
:1015D000991F0A94E2F7282B208381E090E0DF91A5
:1015E000CF910895109284041092830488EE93E0C2
:1015F000A0E0B0E08093850490938604A0938704D4
:10160000B093880481EB93E09093820480938104EB
:1016100089EF93E090938E0480938D048DE394E0A2
:101620009093900480938F0485EC90E090939204C3
:101630008093910484EC90E09093940480939304BD
:1016400080EC90E0909396048093950481EC90E078
:10165000909398048093970486EC90E090939A047A
:101660008093990484E080939B0483E080939C049E
:1016700087E080939D0485E080939E0481E08093C1
:101680009F040895CF92DF92EF92FF920F931F93E2
:10169000CF93DF937C016B018A01C0E0D0E00FC0E3
:1016A000D6016D916D01D701ED91FC910190F08112
:1016B000E02DC7010995C80FD91F01501040011531
:1016C000110571F7CE01DF91CF911F910F91FF901E
:1016D000EF90DF90CF900895DC01ED91FC910190A7
:1016E000F081E02D09950895EF92FF920F931F93DB
:1016F0008C01DC01ED91FC910190F081E02D6DE019
:1017000009957C01D801ED91FC910190F081E02DCB
:10171000C8016AE009959C012E0D3F1DC9011F916A
:101720000F91FF90EF900895CF93DF93DB010D9021
:101730000020E9F71197A61BB70BEC01E881F981AE
:101740000280F381E02DAD010995DF91CF910895DD
:101750004F925F927F928F929F92AF92BF92CF9261
:10176000DF92EF92FF920F931F93DF93CF93CDB74A
:10177000DEB7A1970FB6F894DEBF0FBECDBF2C0128
:10178000742ECB01223008F42AE019A231E2C32ED4
:10179000D12CCC0EDD1E822E9924AA24BB24672DC9
:1017A000752FA50194010E948E0F79018A01C8014D
:1017B000B701A50194010E945C0F472D461B0894B8
:1017C000C108D1084A3014F4405D01C0495CF601FB
:1017D0004083E114F1040105110521F07E2C5F2DF9
:1017E000C801DDCFC201B6010E94940BA1960FB6CD
:1017F000F894DEBF0FBECDBFCF91DF911F910F9147
:10180000FF90EF90DF90CF90BF90AF909F908F9020
:101810007F905F904F900895DC012115310541F4D0
:10182000ED91FC910190F081E02D642F09950895D0
:101830000E94A80B0895CF92DF92EF92FF920F9330
:101840001F93CF93DF93EC016A017B0121153105D2
:1018500041F4E881F9810190F081E02D642F099530
:101860001FC02A303105D1F477FF17C0E881F98114
:101870000190F081E02D6DE209958C0144275527F8
:10188000BA014C195D096E097F09CE012AE00E9458
:10189000A80B9801280F391F04C02AE00E94A80B4A
:1018A0009C01C901DF91CF911F910F91FF90EF90A3
:1018B000DF90CF900895CF92DF92EF92FF920F9337
:1018C0001F936C017B019A010027F7FC0095102FF4
:1018D000B801A7010E941B0C8C01C6010E94740B69
:1018E000080F191FC8011F910F91FF90EF90DF9013
:1018F000CF9008950E94940B08957F928F929F92AB
:10190000AF92BF92CF92DF92EF92FF920F931F930D
:10191000CF93DF934C017A018B01722ECB01BA0178
:1019200020E030E040E050E00E94A60D87FD03C0BB
:10193000C0E0D0E00EC0D401ED91FC910190F081A7
:10194000E02DC4016DE20995EC0117FB109517F924
:10195000109520E030E040E05FE3AA240BC0CA010C
:10196000B90120E030E040E251E40E94AA0D9B0161
:10197000AC01A394A71498F3C801B7010E94420DCB
:101980005B016C010E94170E7B018C01C401B80140
:10199000A7012AE030E00E940C0CC80FD91F772065
:1019A00039F0C4016BEA73E00E94940BC80FD91F91
:1019B000C801B7010E94430E9B01AC01C601B501ED
:1019C0000E94410D24C020E030E040E251E40E943A
:1019D000F90E7B018C010E94120E5B016C01CC247C
:1019E000B7FCC094DC2CC401B601A5012AE030E0AC
:1019F0000E941B0CC80FD91FC601B5010E94450EDD
:101A00009B01AC01C801B7010E94410D7A94772077
:101A1000D1F6CE01DF91CF911F910F91FF90EF9002
:101A2000DF90CF90BF90AF909F908F907F90089560
:101A30000E947D0C0895EF92FF920F931F937C01FB
:101A40000E947D0C8C01C7010E94740B080F191FA6
:101A5000C8011F910F91FF90EF900895EF92FF92B0
:101A60000F931F937C010E94940B8C01C7010E946D
:101A7000740B080F191FC8011F910F91FF90EF9071
:101A800008955058BB27AA270ED075C166D130F0F3
:101A90006BD120F031F49F3F11F41EF45BC10EF4C2
:101AA000E095E7FB51C1E92F77D180F3BA176207C0
:101AB00073078407950718F071F49EF58FC10EF433
:101AC000E0950B2EBA2FA02D0B01B90190010C014E
:101AD000CA01A0011124FF27591B99F0593F50F466
:101AE000503E68F11A16F040A22F232F342F4427BE
:101AF000585FF3CF469537952795A795F0405395B6
:101B0000C9F77EF41F16BA0B620B730B840BBAF085
:101B10009150A1F0FF0FBB1F661F771F881FC2F7F0
:101B20000EC0BA0F621F731F841F48F48795779504
:101B30006795B795F7959E3F08F0B3CF9395880FBB
:101B400008F09927EE0F979587950895D9D008F456
:101B500081E008950CD00FC107D140F0FED030F0E5
:101B600021F45F3F19F0F0C0511139C1F3C014D115
:101B700098F39923C9F35523B1F3951B550BBB2754
:101B8000AA2762177307840738F09F5F5F4F220F01
:101B9000331F441FAA1FA9F333D00E2E3AF0E0E8FA
:101BA00030D091505040E695001CCAF729D0FE2F46
:101BB00027D0660F771F881FBB1F261737074807D8
:101BC000AB07B0E809F0BB0B802DBF01FF2793588E
:101BD0005F4F2AF09E3F510568F0B6C000C15F3FDD
:101BE000ECF3983EDCF3869577956795B795F79576
:101BF0009F5FC9F7880F911D9695879597F908956E
:101C0000E1E0660F771F881FBB1F62177307840709
:101C1000BA0720F0621B730B840BBA0BEE1F88F718
:101C2000E095089504D06894B111D9C00895BCD04E
:101C300088F09F5790F0B92F9927B751A0F0D1F0B5
:101C4000660F771F881F991F1AF0BA95C9F712C03F
:101C5000B13081F0C3D0B1E00895C0C0672F782FB4
:101C60008827B85F39F0B93FCCF3869577956795AB
:101C7000B395D9F73EF490958095709561957F4F17
:101C80008F4F9F4F0895E89409C097FB3EF49095BD
:101C90008095709561957F4F8F4F9F4F9923A9F045
:101CA000F92F96E9BB279395F695879577956795D4
:101CB000B795F111F8CFFAF4BB0F11F460FF1BC018
:101CC0006F5F7F4F8F4F9F4F16C0882311F096E9AB
:101CD00011C0772321F09EE8872F762F05C0662359
:101CE00071F096E8862F70E060E02AF09A95660F12
:101CF000771F881FDAF7880F9695879597F90895CB
:101D0000990F0008550FAA0BE0E8FEEF161617060C
:101D1000E807F907C0F012161306E407F50798F074
:101D2000621B730B840B950B39F40A2661F0232B8D
:101D3000242B252B21F408950A2609F4A140A69509
:101D40008FEF811D811D089597F99F6780E870E0EE
:101D500060E008959FEF80EC089500240A94161621
:101D6000170618060906089500240A941216130689
:101D7000140605060895092E0394000C11F4882317
:101D800052F0BB0F40F4BF2B11F460FF04C06F5F33
:101D90007F4F8F4F9F4F089557FD9058440F551F09
:101DA00059F05F3F71F04795880F97FB991F61F0DD
:101DB0009F3F79F087950895121613061406551F54
:101DC000F2CF4695F1DF08C0161617061806991FC0
:101DD000F1CF86957105610508940895E894BB27B5
:101DE00066277727CB0197F908958ADF08F48FEFEC
:101DF00008950BD0C0CFB1DF28F0B6DF18F09523DF
:101E000009F0A2CFA7CF1124EACFC6DFA0F3959F98
:101E1000D1F3950F50E0551F629FF001729FBB27D1
:101E2000F00DB11D639FAA27F00DB11DAA1F649F7D
:101E30006627B00DA11D661F829F2227B00DA11D30
:101E4000621F739FB00DA11D621F839FA00D611DB6
:101E5000221F749F3327A00D611D231F849F600DD7
:101E6000211D822F762F6A2F11249F5750408AF010
:101E7000E1F088234AF0EE0FFF1FBB1F661F771F9C
:101E8000881F91505040A9F79E3F510570F05CCFDC
:101E9000A6CF5F3FECF3983EDCF386957795679588
:101EA000B795F795E7959F5FC1F7FE2B880F911DBA
:101EB0009695879597F90895629FD001739FF001D9
:101EC000829FE00DF11D649FE00DF11D929FF00DCA
:101ED000839FF00D749FF00D659FF00D9927729F01
:101EE000B00DE11DF91F639FB00DE11DF91FBD018C
:101EF000CF011124089597FB092E07260AD077FDFC
:101F000004D049D006D000201AF4709561957F4F17
:101F10000895F6F7909581959F4F0895A1E21A2EA6
:101F2000AA1BBB1BFD010DC0AA1FBB1FEE1FFF1F7D
:101F3000A217B307E407F50720F0A21BB30BE40BCD
:101F4000F50B661F771F881F991F1A9469F7609514
:101F50007095809590959B01AC01BD01CF010895CE
:101F600097FB092E05260ED057FD04D0D7DF0AD0E7
:101F7000001C38F450954095309521953F4F4F4FB8
:101F80005F4F0895F6F790958095709561957F4F16
:101F90008F4F9F4F0895AA1BBB1B51E107C0AA1F7B
:101FA000BB1FA617B70710F0A61BB70B881F991FFA
:101FB0005A95A9F780959095BC01CD010895EE0F33
:0E1FC000FF1F0590F491E02D0994F894FFCFD7
:101FCE002073746570733A20002000205374617280
:101FDE00742073706565643A20002046756C6C2021
:101FEE0073706565643A2000202D2D2D2D2D2D2D1D
:101FFE002D2D2D2D2D2D2D2D2D2D2D2D2D2D2D2D03
:10200E002D2D2D2D2D2D2D002052616D70696E6799
:10201E00207570002073746172742064656C617930
:10202E002070657220737465703A20002064656CB0
:10203E00617920696E6372656D656E743A20002059
:10204E00436F6E7374616E742073706565640020E7
:10205E00436F6E7374616E742064656C6179207069
:10206E00657220737465703A20002052616D70693C
:10207E006E6720646F776E0020456E642064656C19
:10208E0061793A2000207265766F6C7574696F6E97
:10209E00733A20002064697374616E63653A2000A0
:1020AE004D6F76696E672062793A20002053746115
:1020BE007274206C6F636174696F6E3A20002046F3
:1020CE00696E697368206C6F636174696F6E3A2014
:1020DE0000446972656374696F6E20686173206273
:1020EE0065656E2073657420746F0063757272651A
:1020FE006E74206C6F636174696F6E203D203000CA
:10210E0053706565642073657420746F3A200049BE
:10211E006E76616C696420696E7075743A204E65D6
:10212E00676174697665207370656564206F7220CF
:10213E007A65726F00496E76616C696420496E73C0
:10214E007472756374696F6E00526561643A200033
:10215E003B206E3A20002D2D2D2D2D2D2D2D2D2D8C
:10216E002D2D2D2D2D2D2D2D2D2D2D2D2D2D0044A7
:10217E0045434F44494E47204E45572056414C55F6
:10218E004500204E65676174697665207369676ED8
:10219E0020656E636F646564006E203D20002044F0
:1021AE006563696D616C20706F696E7420656E6316
:1021BE006F646564002043757272656E74204661AB
:1021CE0063746F72203D20002043757272656E74C9
:1021DE002073756D206F662072657475726E6564FE
:1021EE002076616C756573203D2000200053554D9F
:1021FE004D4152590020446563696D616C20706FCA
:10220E00696E7420666163746F72203D20002052E7
:10221E00657475726E2076616C7565203D200020A8
:10222E00546865207265636569766564207374729F
:10223E00696E6720686173206265656E20646563F0
:10224E006F64656420746F3A0053657269616C2027
:10225E00696E697469616C697A656420746F206255
:10226E0061756420726174653A20002E00000000D2
:0E227E0000B60A420B4A0A7B0A5B0AA40A0059
:00000001FF
